{
  "_format": "hh-sol-artifact-1",
  "contractName": "Staking",
  "sourceName": "contracts/Staking.sol",
  "abi": [
    {
      "anonymous": false,
      "inputs": [
        {
          "indexed": true,
          "internalType": "address",
          "name": "previousOwner",
          "type": "address"
        },
        {
          "indexed": true,
          "internalType": "address",
          "name": "newOwner",
          "type": "address"
        }
      ],
      "name": "OwnershipTransferred",
      "type": "event"
    },
    {
      "inputs": [
        {
          "internalType": "uint256",
          "name": "period",
          "type": "uint256"
        },
        {
          "internalType": "uint256",
          "name": "amount",
          "type": "uint256"
        },
        {
          "internalType": "uint256",
          "name": "multiplier",
          "type": "uint256"
        }
      ],
      "name": "addStakeType",
      "outputs": [],
      "stateMutability": "nonpayable",
      "type": "function"
    },
    {
      "inputs": [],
      "name": "nft_address",
      "outputs": [
        {
          "internalType": "address",
          "name": "",
          "type": "address"
        }
      ],
      "stateMutability": "view",
      "type": "function"
    },
    {
      "inputs": [],
      "name": "owner",
      "outputs": [
        {
          "internalType": "address",
          "name": "",
          "type": "address"
        }
      ],
      "stateMutability": "view",
      "type": "function"
    },
    {
      "inputs": [],
      "name": "renounceOwnership",
      "outputs": [],
      "stateMutability": "nonpayable",
      "type": "function"
    },
    {
      "inputs": [
        {
          "internalType": "address",
          "name": "_token_address",
          "type": "address"
        },
        {
          "internalType": "address",
          "name": "_nft_address",
          "type": "address"
        }
      ],
      "name": "setAddress",
      "outputs": [],
      "stateMutability": "nonpayable",
      "type": "function"
    },
    {
      "inputs": [
        {
          "internalType": "uint256",
          "name": "nftID",
          "type": "uint256"
        },
        {
          "internalType": "uint256",
          "name": "stakeType",
          "type": "uint256"
        }
      ],
      "name": "stakeNFT",
      "outputs": [],
      "stateMutability": "nonpayable",
      "type": "function"
    },
    {
      "inputs": [
        {
          "internalType": "uint256",
          "name": "",
          "type": "uint256"
        }
      ],
      "name": "stakeTypeList",
      "outputs": [
        {
          "internalType": "uint256",
          "name": "id",
          "type": "uint256"
        },
        {
          "internalType": "uint256",
          "name": "period",
          "type": "uint256"
        },
        {
          "internalType": "uint256",
          "name": "amount",
          "type": "uint256"
        },
        {
          "internalType": "uint256",
          "name": "multiplier",
          "type": "uint256"
        }
      ],
      "stateMutability": "view",
      "type": "function"
    },
    {
      "inputs": [],
      "name": "token_address",
      "outputs": [
        {
          "internalType": "address",
          "name": "",
          "type": "address"
        }
      ],
      "stateMutability": "view",
      "type": "function"
    },
    {
      "inputs": [
        {
          "internalType": "address",
          "name": "newOwner",
          "type": "address"
        }
      ],
      "name": "transferOwnership",
      "outputs": [],
      "stateMutability": "nonpayable",
      "type": "function"
    },
    {
      "inputs": [
        {
          "internalType": "uint256",
          "name": "index",
          "type": "uint256"
        },
        {
          "internalType": "uint256",
          "name": "period",
          "type": "uint256"
        },
        {
          "internalType": "uint256",
          "name": "amount",
          "type": "uint256"
        },
        {
          "internalType": "uint256",
          "name": "multiplier",
          "type": "uint256"
        }
      ],
      "name": "updateStakeType",
      "outputs": [],
      "stateMutability": "nonpayable",
      "type": "function"
    }
  ],
  "bytecode": "0x608060405234801561001057600080fd5b5061002d61002261003260201b60201c565b61003a60201b60201c565b6100fe565b600033905090565b60008060009054906101000a900473ffffffffffffffffffffffffffffffffffffffff169050816000806101000a81548173ffffffffffffffffffffffffffffffffffffffff021916908373ffffffffffffffffffffffffffffffffffffffff1602179055508173ffffffffffffffffffffffffffffffffffffffff168173ffffffffffffffffffffffffffffffffffffffff167f8be0079c531659141344cd1fd0a4f28419497f9722a3daafe3b4186f6b6457e060405160405180910390a35050565b610e1f8061010d6000396000f3fe608060405234801561001057600080fd5b506004361061009e5760003560e01c80638da5cb5b116100665780638da5cb5b1461011f578063aaa269c51461013d578063c78de70914610159578063cbf6e46414610177578063f2fde38b146101aa5761009e565b80633b58524d146100a35780634ec80a4c146100bf57806351cecc80146100db578063715018a6146100f75780638c8e8fee14610101575b600080fd5b6100bd60048036038101906100b891906108a3565b6101c6565b005b6100d960048036038101906100d49190610993565b610334565b005b6100f560048036038101906100f09190610908565b6104be565b005b6100ff6104c2565b005b6101096104d6565b6040516101169190610ae6565b60405180910390f35b6101276104fc565b6040516101349190610ae6565b60405180910390f35b61015760048036038101906101529190610944565b610525565b005b6101616105f4565b60405161016e9190610ae6565b60405180910390f35b610191600480360381019061018c91906108df565b61061a565b6040516101a19493929190610bc1565b60405180910390f35b6101c460048036038101906101bf919061087a565b61065a565b005b6101ce6106de565b600073ffffffffffffffffffffffffffffffffffffffff168273ffffffffffffffffffffffffffffffffffffffff16141561023e576040517f08c379a000000000000000000000000000000000000000000000000000000000815260040161023590610b01565b60405180910390fd5b600073ffffffffffffffffffffffffffffffffffffffff168173ffffffffffffffffffffffffffffffffffffffff1614156102ae576040517f08c379a00000000000000000000000000000000000000000000000000000000081526004016102a590610b21565b60405180910390fd5b81600160006101000a81548173ffffffffffffffffffffffffffffffffffffffff021916908373ffffffffffffffffffffffffffffffffffffffff16021790555080600260006101000a81548173ffffffffffffffffffffffffffffffffffffffff021916908373ffffffffffffffffffffffffffffffffffffffff1602179055505050565b61033c6106de565b6003805490508410610383576040517f08c379a000000000000000000000000000000000000000000000000000000000815260040161037a90610b61565b60405180910390fd5b6127108110156103c8576040517f08c379a00000000000000000000000000000000000000000000000000000000081526004016103bf90610ba1565b60405180910390fd5b8260038581548110610403577f4e487b7100000000000000000000000000000000000000000000000000000000600052603260045260246000fd5b9060005260206000209060040201600101819055508160038581548110610453577f4e487b7100000000000000000000000000000000000000000000000000000000600052603260045260246000fd5b90600052602060002090600402016002018190555080600385815481106104a3577f4e487b7100000000000000000000000000000000000000000000000000000000600052603260045260246000fd5b90600052602060002090600402016003018190555050505050565b5050565b6104ca6106de565b6104d4600061075c565b565b600160009054906101000a900473ffffffffffffffffffffffffffffffffffffffff1681565b60008060009054906101000a900473ffffffffffffffffffffffffffffffffffffffff16905090565b61052d6106de565b612710811015610572576040517f08c379a000000000000000000000000000000000000000000000000000000000815260040161056990610ba1565b60405180910390fd5b61057a610828565b838160200181815250508281604001818152505081816060018181525050600381908060018154018082558091505060019003906000526020600020906004020160009091909190915060008201518160000155602082015181600101556040820151816002015560608201518160030155505050505050565b600260009054906101000a900473ffffffffffffffffffffffffffffffffffffffff1681565b6003818154811061062a57600080fd5b90600052602060002090600402016000915090508060000154908060010154908060020154908060030154905084565b6106626106de565b600073ffffffffffffffffffffffffffffffffffffffff168173ffffffffffffffffffffffffffffffffffffffff1614156106d2576040517f08c379a00000000000000000000000000000000000000000000000000000000081526004016106c990610b41565b60405180910390fd5b6106db8161075c565b50565b6106e6610820565b73ffffffffffffffffffffffffffffffffffffffff166107046104fc565b73ffffffffffffffffffffffffffffffffffffffff161461075a576040517f08c379a000000000000000000000000000000000000000000000000000000000815260040161075190610b81565b60405180910390fd5b565b60008060009054906101000a900473ffffffffffffffffffffffffffffffffffffffff169050816000806101000a81548173ffffffffffffffffffffffffffffffffffffffff021916908373ffffffffffffffffffffffffffffffffffffffff1602179055508173ffffffffffffffffffffffffffffffffffffffff168173ffffffffffffffffffffffffffffffffffffffff167f8be0079c531659141344cd1fd0a4f28419497f9722a3daafe3b4186f6b6457e060405160405180910390a35050565b600033905090565b6040518060800160405280600081526020016000815260200160008152602001600081525090565b60008135905061085f81610dbb565b92915050565b60008135905061087481610dd2565b92915050565b60006020828403121561088c57600080fd5b600061089a84828501610850565b91505092915050565b600080604083850312156108b657600080fd5b60006108c485828601610850565b92505060206108d585828601610850565b9150509250929050565b6000602082840312156108f157600080fd5b60006108ff84828501610865565b91505092915050565b6000806040838503121561091b57600080fd5b600061092985828601610865565b925050602061093a85828601610865565b9150509250929050565b60008060006060848603121561095957600080fd5b600061096786828701610865565b935050602061097886828701610865565b925050604061098986828701610865565b9150509250925092565b600080600080608085870312156109a957600080fd5b60006109b787828801610865565b94505060206109c887828801610865565b93505060406109d987828801610865565b92505060606109ea87828801610865565b91505092959194509250565b6109ff81610c17565b82525050565b6000610a12601583610c06565b9150610a1d82610c53565b602082019050919050565b6000610a35601383610c06565b9150610a4082610c7c565b602082019050919050565b6000610a58602683610c06565b9150610a6382610ca5565b604082019050919050565b6000610a7b602e83610c06565b9150610a8682610cf4565b604082019050919050565b6000610a9e602083610c06565b9150610aa982610d43565b602082019050919050565b6000610ac1602583610c06565b9150610acc82610d6c565b604082019050919050565b610ae081610c49565b82525050565b6000602082019050610afb60008301846109f6565b92915050565b60006020820190508181036000830152610b1a81610a05565b9050919050565b60006020820190508181036000830152610b3a81610a28565b9050919050565b60006020820190508181036000830152610b5a81610a4b565b9050919050565b60006020820190508181036000830152610b7a81610a6e565b9050919050565b60006020820190508181036000830152610b9a81610a91565b9050919050565b60006020820190508181036000830152610bba81610ab4565b9050919050565b6000608082019050610bd66000830187610ad7565b610be36020830186610ad7565b610bf06040830185610ad7565b610bfd6060830184610ad7565b95945050505050565b600082825260208201905092915050565b6000610c2282610c29565b9050919050565b600073ffffffffffffffffffffffffffffffffffffffff82169050919050565b6000819050919050565b7f696e76616c696420746f6b656e20616464726573730000000000000000000000600082015250565b7f696e76616c6964206e6674206164647265737300000000000000000000000000600082015250565b7f4f776e61626c653a206e6577206f776e657220697320746865207a65726f206160008201527f6464726573730000000000000000000000000000000000000000000000000000602082015250565b7f696e6465782073686f756c64206265206c657373207468616e207374616b655460008201527f7970654c6973742e6c656e677468000000000000000000000000000000000000602082015250565b7f4f776e61626c653a2063616c6c6572206973206e6f7420746865206f776e6572600082015250565b7f4d756c7469706c6965722073686f756c6420626520677265617465722074686160008201527f6e20312e30000000000000000000000000000000000000000000000000000000602082015250565b610dc481610c17565b8114610dcf57600080fd5b50565b610ddb81610c49565b8114610de657600080fd5b5056fea2646970667358221220360779ad3b81f02ae13c12305bbc1fb3ba7e321b0a3b1c5a0810d6152cddc54f64736f6c63430008040033",
  "linkReferences": {},
  "deployedLinkReferences": {}
}