{
  "_format": "hh-sol-artifact-1",
  "contractName": "Reward",
  "sourceName": "contracts/Reward.sol",
  "abi": [
    {
      "inputs": [],
      "stateMutability": "nonpayable",
      "type": "constructor"
    },
    {
      "anonymous": false,
      "inputs": [
        {
          "indexed": true,
          "internalType": "address",
          "name": "previousOwner",
          "type": "address"
        },
        {
          "indexed": true,
          "internalType": "address",
          "name": "newOwner",
          "type": "address"
        }
      ],
      "name": "OwnershipTransferred",
      "type": "event"
    },
    {
      "inputs": [
        {
          "internalType": "address",
          "name": "to",
          "type": "address"
        },
        {
          "internalType": "uint256",
          "name": "amount",
          "type": "uint256"
        }
      ],
      "name": "mint",
      "outputs": [],
      "stateMutability": "nonpayable",
      "type": "function"
    },
    {
      "inputs": [],
      "name": "owner",
      "outputs": [
        {
          "internalType": "address",
          "name": "",
          "type": "address"
        }
      ],
      "stateMutability": "view",
      "type": "function"
    },
    {
      "inputs": [],
      "name": "renounceOwnership",
      "outputs": [],
      "stateMutability": "nonpayable",
      "type": "function"
    },
    {
      "inputs": [
        {
          "internalType": "address",
          "name": "_tokenContract",
          "type": "address"
        }
      ],
      "name": "setTokenContract",
      "outputs": [],
      "stateMutability": "nonpayable",
      "type": "function"
    },
    {
      "inputs": [],
      "name": "tokenContract",
      "outputs": [
        {
          "internalType": "address",
          "name": "",
          "type": "address"
        }
      ],
      "stateMutability": "view",
      "type": "function"
    },
    {
      "inputs": [
        {
          "internalType": "address",
          "name": "newOwner",
          "type": "address"
        }
      ],
      "name": "transferOwnership",
      "outputs": [],
      "stateMutability": "nonpayable",
      "type": "function"
    }
  ],
  "bytecode": "0x608060405234801561001057600080fd5b5061002d61002261003260201b60201c565b61003a60201b60201c565b6100fe565b600033905090565b60008060009054906101000a900473ffffffffffffffffffffffffffffffffffffffff169050816000806101000a81548173ffffffffffffffffffffffffffffffffffffffff021916908373ffffffffffffffffffffffffffffffffffffffff1602179055508173ffffffffffffffffffffffffffffffffffffffff168173ffffffffffffffffffffffffffffffffffffffff167f8be0079c531659141344cd1fd0a4f28419497f9722a3daafe3b4186f6b6457e060405160405180910390a35050565b6107e38061010d6000396000f3fe608060405234801561001057600080fd5b50600436106100625760003560e01c806340c10f191461006757806355a373d614610083578063715018a6146100a15780638da5cb5b146100ab578063bbcd5bbe146100c9578063f2fde38b146100e5575b600080fd5b610081600480360381019061007c919061052f565b610101565b005b61008b61024a565b60405161009891906105f8565b60405180910390f35b6100a9610270565b005b6100b3610284565b6040516100c091906105f8565b60405180910390f35b6100e360048036038101906100de9190610506565b6102ad565b005b6100ff60048036038101906100fa9190610506565b6102f9565b005b61010961037d565b600160009054906101000a900473ffffffffffffffffffffffffffffffffffffffff1673ffffffffffffffffffffffffffffffffffffffff166334b4117d826040518263ffffffff1660e01b8152600401610164919061067c565b600060405180830381600087803b15801561017e57600080fd5b505af1158015610192573d6000803e3d6000fd5b50505050600160009054906101000a900473ffffffffffffffffffffffffffffffffffffffff1673ffffffffffffffffffffffffffffffffffffffff1663a9059cbb83836040518363ffffffff1660e01b81526004016101f3929190610613565b602060405180830381600087803b15801561020d57600080fd5b505af1158015610221573d6000803e3d6000fd5b505050506040513d601f19601f82011682018060405250810190610245919061056b565b505050565b600160009054906101000a900473ffffffffffffffffffffffffffffffffffffffff1681565b61027861037d565b61028260006103fb565b565b60008060009054906101000a900473ffffffffffffffffffffffffffffffffffffffff16905090565b6102b561037d565b80600160006101000a81548173ffffffffffffffffffffffffffffffffffffffff021916908373ffffffffffffffffffffffffffffffffffffffff16021790555050565b61030161037d565b600073ffffffffffffffffffffffffffffffffffffffff168173ffffffffffffffffffffffffffffffffffffffff161415610371576040517f08c379a00000000000000000000000000000000000000000000000000000000081526004016103689061063c565b60405180910390fd5b61037a816103fb565b50565b6103856104bf565b73ffffffffffffffffffffffffffffffffffffffff166103a3610284565b73ffffffffffffffffffffffffffffffffffffffff16146103f9576040517f08c379a00000000000000000000000000000000000000000000000000000000081526004016103f09061065c565b60405180910390fd5b565b60008060009054906101000a900473ffffffffffffffffffffffffffffffffffffffff169050816000806101000a81548173ffffffffffffffffffffffffffffffffffffffff021916908373ffffffffffffffffffffffffffffffffffffffff1602179055508173ffffffffffffffffffffffffffffffffffffffff168173ffffffffffffffffffffffffffffffffffffffff167f8be0079c531659141344cd1fd0a4f28419497f9722a3daafe3b4186f6b6457e060405160405180910390a35050565b600033905090565b6000813590506104d681610768565b92915050565b6000815190506104eb8161077f565b92915050565b60008135905061050081610796565b92915050565b60006020828403121561051857600080fd5b6000610526848285016104c7565b91505092915050565b6000806040838503121561054257600080fd5b6000610550858286016104c7565b9250506020610561858286016104f1565b9150509250929050565b60006020828403121561057d57600080fd5b600061058b848285016104dc565b91505092915050565b61059d816106a8565b82525050565b60006105b0602683610697565b91506105bb826106f0565b604082019050919050565b60006105d3602083610697565b91506105de8261073f565b602082019050919050565b6105f2816106e6565b82525050565b600060208201905061060d6000830184610594565b92915050565b60006040820190506106286000830185610594565b61063560208301846105e9565b9392505050565b60006020820190508181036000830152610655816105a3565b9050919050565b60006020820190508181036000830152610675816105c6565b9050919050565b600060208201905061069160008301846105e9565b92915050565b600082825260208201905092915050565b60006106b3826106c6565b9050919050565b60008115159050919050565b600073ffffffffffffffffffffffffffffffffffffffff82169050919050565b6000819050919050565b7f4f776e61626c653a206e6577206f776e657220697320746865207a65726f206160008201527f6464726573730000000000000000000000000000000000000000000000000000602082015250565b7f4f776e61626c653a2063616c6c6572206973206e6f7420746865206f776e6572600082015250565b610771816106a8565b811461077c57600080fd5b50565b610788816106ba565b811461079357600080fd5b50565b61079f816106e6565b81146107aa57600080fd5b5056fea26469706673582212202d652746c3995a6fecc06e01cd3ef69aee335674befc02182ddc3b3528303bde64736f6c63430008040033",
  "linkReferences": {},
  "deployedLinkReferences": {}
}