{
  "_format": "hh-sol-artifact-1",
  "contractName": "ElumNFT",
  "sourceName": "contracts/ElumNFT.sol",
  "abi": [
    {
      "anonymous": false,
      "inputs": [
        {
          "indexed": false,
          "internalType": "address[]",
          "name": "",
          "type": "address[]"
        },
        {
          "indexed": false,
          "internalType": "bool",
          "name": "",
          "type": "bool"
        }
      ],
      "name": "AffectWhiteList",
      "type": "event"
    },
    {
      "anonymous": false,
      "inputs": [
        {
          "indexed": true,
          "internalType": "address",
          "name": "previousOwner",
          "type": "address"
        },
        {
          "indexed": true,
          "internalType": "address",
          "name": "newOwner",
          "type": "address"
        }
      ],
      "name": "OwnershipTransferred",
      "type": "event"
    },
    {
      "inputs": [],
      "name": "NFT_ID_COUNTER",
      "outputs": [
        {
          "internalType": "uint256",
          "name": "",
          "type": "uint256"
        }
      ],
      "stateMutability": "view",
      "type": "function"
    },
    {
      "inputs": [
        {
          "internalType": "uint256",
          "name": "",
          "type": "uint256"
        }
      ],
      "name": "NFT_TO_INFO",
      "outputs": [
        {
          "internalType": "address",
          "name": "owner",
          "type": "address"
        },
        {
          "internalType": "uint256",
          "name": "nftType",
          "type": "uint256"
        },
        {
          "internalType": "uint256",
          "name": "acquireTime",
          "type": "uint256"
        },
        {
          "internalType": "uint256",
          "name": "index",
          "type": "uint256"
        }
      ],
      "stateMutability": "view",
      "type": "function"
    },
    {
      "inputs": [],
      "name": "NFT_TYPE_COUNTER",
      "outputs": [
        {
          "internalType": "uint256",
          "name": "",
          "type": "uint256"
        }
      ],
      "stateMutability": "view",
      "type": "function"
    },
    {
      "inputs": [
        {
          "internalType": "uint256",
          "name": "",
          "type": "uint256"
        }
      ],
      "name": "NFT_TYPE_INFO",
      "outputs": [
        {
          "internalType": "string",
          "name": "metadataURI",
          "type": "string"
        },
        {
          "internalType": "uint256",
          "name": "price",
          "type": "uint256"
        },
        {
          "internalType": "uint256",
          "name": "totalSupply",
          "type": "uint256"
        },
        {
          "internalType": "uint256",
          "name": "remainSupply",
          "type": "uint256"
        }
      ],
      "stateMutability": "view",
      "type": "function"
    },
    {
      "inputs": [
        {
          "internalType": "string",
          "name": "metadataURI",
          "type": "string"
        },
        {
          "internalType": "uint256",
          "name": "price",
          "type": "uint256"
        }
      ],
      "name": "addNewType",
      "outputs": [
        {
          "internalType": "uint256",
          "name": "",
          "type": "uint256"
        }
      ],
      "stateMutability": "nonpayable",
      "type": "function"
    },
    {
      "inputs": [
        {
          "internalType": "address[]",
          "name": "_addressList",
          "type": "address[]"
        },
        {
          "internalType": "bool",
          "name": "isApprove",
          "type": "bool"
        }
      ],
      "name": "affectWhiteList",
      "outputs": [],
      "stateMutability": "nonpayable",
      "type": "function"
    },
    {
      "inputs": [
        {
          "internalType": "address",
          "name": "_address",
          "type": "address"
        }
      ],
      "name": "balanceOf",
      "outputs": [
        {
          "internalType": "uint256[]",
          "name": "",
          "type": "uint256[]"
        }
      ],
      "stateMutability": "view",
      "type": "function"
    },
    {
      "inputs": [
        {
          "internalType": "uint256",
          "name": "nftType",
          "type": "uint256"
        },
        {
          "internalType": "uint256",
          "name": "amount",
          "type": "uint256"
        }
      ],
      "name": "buyNFT",
      "outputs": [
        {
          "internalType": "bool",
          "name": "",
          "type": "bool"
        }
      ],
      "stateMutability": "payable",
      "type": "function"
    },
    {
      "inputs": [
        {
          "internalType": "address",
          "name": "_address",
          "type": "address"
        }
      ],
      "name": "getAcquiredTime",
      "outputs": [
        {
          "internalType": "uint256",
          "name": "",
          "type": "uint256"
        }
      ],
      "stateMutability": "view",
      "type": "function"
    },
    {
      "inputs": [],
      "name": "getNFTTypeInfo",
      "outputs": [
        {
          "components": [
            {
              "internalType": "string",
              "name": "metadataURI",
              "type": "string"
            },
            {
              "internalType": "uint256",
              "name": "price",
              "type": "uint256"
            },
            {
              "internalType": "uint256",
              "name": "totalSupply",
              "type": "uint256"
            },
            {
              "internalType": "uint256",
              "name": "remainSupply",
              "type": "uint256"
            }
          ],
          "internalType": "struct NFT_TYPE[]",
          "name": "",
          "type": "tuple[]"
        }
      ],
      "stateMutability": "view",
      "type": "function"
    },
    {
      "inputs": [],
      "name": "getTotalNFT",
      "outputs": [
        {
          "internalType": "uint256",
          "name": "",
          "type": "uint256"
        }
      ],
      "stateMutability": "view",
      "type": "function"
    },
    {
      "inputs": [
        {
          "internalType": "address",
          "name": "_address",
          "type": "address"
        },
        {
          "internalType": "uint256",
          "name": "nftID",
          "type": "uint256"
        }
      ],
      "name": "isOwner",
      "outputs": [
        {
          "internalType": "bool",
          "name": "",
          "type": "bool"
        }
      ],
      "stateMutability": "view",
      "type": "function"
    },
    {
      "inputs": [
        {
          "internalType": "address",
          "name": "addr",
          "type": "address"
        }
      ],
      "name": "isWhiteLists",
      "outputs": [
        {
          "internalType": "bool",
          "name": "",
          "type": "bool"
        }
      ],
      "stateMutability": "view",
      "type": "function"
    },
    {
      "inputs": [
        {
          "internalType": "uint256[]",
          "name": "ids",
          "type": "uint256[]"
        },
        {
          "internalType": "uint256[]",
          "name": "amounts",
          "type": "uint256[]"
        }
      ],
      "name": "mint",
      "outputs": [
        {
          "internalType": "bool",
          "name": "",
          "type": "bool"
        }
      ],
      "stateMutability": "nonpayable",
      "type": "function"
    },
    {
      "inputs": [],
      "name": "owner",
      "outputs": [
        {
          "internalType": "address",
          "name": "",
          "type": "address"
        }
      ],
      "stateMutability": "view",
      "type": "function"
    },
    {
      "inputs": [],
      "name": "renounceOwnership",
      "outputs": [],
      "stateMutability": "nonpayable",
      "type": "function"
    },
    {
      "inputs": [
        {
          "internalType": "address",
          "name": "_token_address",
          "type": "address"
        }
      ],
      "name": "setTokenAddress",
      "outputs": [],
      "stateMutability": "nonpayable",
      "type": "function"
    },
    {
      "inputs": [],
      "name": "token_address",
      "outputs": [
        {
          "internalType": "address",
          "name": "",
          "type": "address"
        }
      ],
      "stateMutability": "view",
      "type": "function"
    },
    {
      "inputs": [
        {
          "internalType": "uint256[]",
          "name": "ids",
          "type": "uint256[]"
        },
        {
          "internalType": "address",
          "name": "to",
          "type": "address"
        }
      ],
      "name": "transferNFT",
      "outputs": [],
      "stateMutability": "nonpayable",
      "type": "function"
    },
    {
      "inputs": [
        {
          "internalType": "address",
          "name": "newOwner",
          "type": "address"
        }
      ],
      "name": "transferOwnership",
      "outputs": [],
      "stateMutability": "nonpayable",
      "type": "function"
    },
    {
      "inputs": [
        {
          "internalType": "uint256",
          "name": "nftID",
          "type": "uint256"
        },
        {
          "internalType": "string",
          "name": "metadataURI",
          "type": "string"
        },
        {
          "internalType": "uint256",
          "name": "price",
          "type": "uint256"
        }
      ],
      "name": "updateType",
      "outputs": [],
      "stateMutability": "nonpayable",
      "type": "function"
    },
    {
      "inputs": [
        {
          "internalType": "address",
          "name": "",
          "type": "address"
        }
      ],
      "name": "whiteLists",
      "outputs": [
        {
          "internalType": "bool",
          "name": "",
          "type": "bool"
        }
      ],
      "stateMutability": "view",
      "type": "function"
    }
  ],
  "bytecode": "0x6080604052600060015560006002553480156200001b57600080fd5b506200003c620000306200004260201b60201c565b6200004a60201b60201c565b6200010e565b600033905090565b60008060009054906101000a900473ffffffffffffffffffffffffffffffffffffffff169050816000806101000a81548173ffffffffffffffffffffffffffffffffffffffff021916908373ffffffffffffffffffffffffffffffffffffffff1602179055508173ffffffffffffffffffffffffffffffffffffffff168173ffffffffffffffffffffffffffffffffffffffff167f8be0079c531659141344cd1fd0a4f28419497f9722a3daafe3b4186f6b6457e060405160405180910390a35050565b6134a1806200011e6000396000f3fe6080604052600436106101355760003560e01c8063715018a6116100ab578063e2bea1ec1161006f578063e2bea1ec14610447578063e327a6af14610470578063e832565b146104ad578063f2fde38b146104ea578063fcc2278b14610513578063ffc47c591461055057610135565b8063715018a6146103725780638c8e8fee146103895780638da5cb5b146103b4578063bb549536146103df578063bcf16f2d1461041c57610135565b8063337b81f6116100fd578063337b81f61461023e5780633d5d190c14610267578063490a27c4146102a457806353dc840b146102cd5780636b01e7511461030a57806370a082311461033557610135565b806303356c401461013a578063047b7b411461017a57806305f693cf146101ba5780631d85bf03146101e557806326a4e8d214610215575b600080fd5b34801561014657600080fd5b50610161600480360381019061015c919061232e565b61057b565b60405161017194939291906129fa565b60405180910390f35b34801561018657600080fd5b506101a1600480360381019061019c919061232e565b610643565b6040516101b19493929190612924565b60405180910390f35b3480156101c657600080fd5b506101cf610693565b6040516101dc919061299b565b60405180910390f35b6101ff60048036038101906101fa91906123c3565b6107a2565b60405161020c91906129df565b60405180910390f35b34801561022157600080fd5b5061023c6004803603810190610237919061214c565b610b56565b005b34801561024a57600080fd5b5061026560048036038101906102609190612357565b610c12565b005b34801561027357600080fd5b5061028e60048036038101906102899190612261565b610db1565b60405161029b91906129df565b60405180910390f35b3480156102b057600080fd5b506102cb60048036038101906102c691906121b1565b611074565b005b3480156102d957600080fd5b506102f460048036038101906102ef919061214c565b611182565b60405161030191906129df565b60405180910390f35b34801561031657600080fd5b5061031f6111a2565b60405161032c9190612c86565b60405180910390f35b34801561034157600080fd5b5061035c6004803603810190610357919061214c565b6111a8565b60405161036991906129bd565b60405180910390f35b34801561037e57600080fd5b50610387611242565b005b34801561039557600080fd5b5061039e611256565b6040516103ab9190612909565b60405180910390f35b3480156103c057600080fd5b506103c961127c565b6040516103d69190612909565b60405180910390f35b3480156103eb57600080fd5b506104066004803603810190610401919061214c565b6112a5565b60405161041391906129df565b60405180910390f35b34801561042857600080fd5b506104316112fb565b60405161043e9190612c86565b60405180910390f35b34801561045357600080fd5b5061046e60048036038101906104699190612209565b611305565b005b34801561047c57600080fd5b5061049760048036038101906104929190612175565b611a4e565b6040516104a491906129df565b60405180910390f35b3480156104b957600080fd5b506104d460048036038101906104cf919061214c565b611b71565b6040516104e19190612c86565b60405180910390f35b3480156104f657600080fd5b50610511600480360381019061050c919061214c565b611bf4565b005b34801561051f57600080fd5b5061053a600480360381019061053591906122d6565b611c78565b6040516105479190612c86565b60405180910390f35b34801561055c57600080fd5b50610565611d8e565b6040516105729190612c86565b60405180910390f35b6003818154811061058b57600080fd5b90600052602060002090600402016000915090508060000180546105ae90612ede565b80601f01602080910402602001604051908101604052809291908181526020018280546105da90612ede565b80156106275780601f106105fc57610100808354040283529160200191610627565b820191906000526020600020905b81548152906001019060200180831161060a57829003601f168201915b5050505050908060010154908060020154908060030154905084565b60056020528060005260406000206000915090508060000160009054906101000a900473ffffffffffffffffffffffffffffffffffffffff16908060010154908060020154908060030154905084565b60606003805480602002602001604051908101604052809291908181526020016000905b8282101561079957838290600052602060002090600402016040518060800160405290816000820180546106ea90612ede565b80601f016020809104026020016040519081016040528092919081815260200182805461071690612ede565b80156107635780601f1061073857610100808354040283529160200191610763565b820191906000526020600020905b81548152906001019060200180831161074657829003601f168201915b505050505081526020016001820154815260200160028201548152602001600382015481525050815260200190600101906106b7565b50505050905090565b60006107ad336112a5565b6107ec576040517f08c379a00000000000000000000000000000000000000000000000000000000081526004016107e390612a86565b60405180910390fd5b6001548310610830576040517f08c379a000000000000000000000000000000000000000000000000000000000815260040161082790612b66565b60405180910390fd5b816003848154811061086b577f4e487b7100000000000000000000000000000000000000000000000000000000600052603260045260246000fd5b90600052602060002090600402016003015410156108be576040517f08c379a00000000000000000000000000000000000000000000000000000000081526004016108b590612c26565b60405180910390fd5b600383815481106108f8577f4e487b7100000000000000000000000000000000000000000000000000000000600052603260045260246000fd5b906000526020600020906004020160010154826109159190612dd5565b341015610957576040517f08c379a000000000000000000000000000000000000000000000000000000000815260040161094e90612ae6565b60405180910390fd5b60005b82811015610ae9573360056000600254815260200190815260200160002060000160006101000a81548173ffffffffffffffffffffffffffffffffffffffff021916908373ffffffffffffffffffffffffffffffffffffffff16021790555083600560006002548152602001908152602001600020600101819055504260056000600254815260200190815260200160002060020181905550600460003373ffffffffffffffffffffffffffffffffffffffff1673ffffffffffffffffffffffffffffffffffffffff1681526020019081526020016000206000018054905060056000600254815260200190815260200160002060030181905550600460003373ffffffffffffffffffffffffffffffffffffffff1673ffffffffffffffffffffffffffffffffffffffff1681526020019081526020016000206000016002549080600181540180825580915050600190039060005260206000200160009091909190915055600260008154610acf90612f10565b919050819055508080610ae190612f10565b91505061095a565b508160038481548110610b25577f4e487b7100000000000000000000000000000000000000000000000000000000600052603260045260246000fd5b90600052602060002090600402016003016000828254610b459190612e2f565b925050819055506001905092915050565b610b5e611d94565b600073ffffffffffffffffffffffffffffffffffffffff168173ffffffffffffffffffffffffffffffffffffffff161415610bce576040517f08c379a0000000000000000000000000000000000000000000000000000000008152600401610bc590612aa6565b60405180910390fd5b80600760006101000a81548173ffffffffffffffffffffffffffffffffffffffff021916908373ffffffffffffffffffffffffffffffffffffffff16021790555050565b610c1a611d94565b6001548410610c5e576040517f08c379a0000000000000000000000000000000000000000000000000000000008152600401610c5590612c46565b60405180910390fd5b828260038681548110610c9a577f4e487b7100000000000000000000000000000000000000000000000000000000600052603260045260246000fd5b90600052602060002090600402016000019190610cb8929190611ede565b508060038581548110610cf4577f4e487b7100000000000000000000000000000000000000000000000000000000600052603260045260246000fd5b906000526020600020906004020160010181905550600060038581548110610d45577f4e487b7100000000000000000000000000000000000000000000000000000000600052603260045260246000fd5b906000526020600020906004020160020181905550600060038581548110610d96577f4e487b7100000000000000000000000000000000000000000000000000000000600052603260045260246000fd5b90600052602060002090600402016003018190555050505050565b6000610dbb611d94565b828290508585905014610e03576040517f08c379a0000000000000000000000000000000000000000000000000000000008152600401610dfa90612b86565b60405180910390fd5b60005b8585905081101561106757600154868683818110610e4d577f4e487b7100000000000000000000000000000000000000000000000000000000600052603260045260246000fd5b9050602002013510610e94576040517f08c379a0000000000000000000000000000000000000000000000000000000008152600401610e8b90612c46565b60405180910390fd5b838382818110610ecd577f4e487b7100000000000000000000000000000000000000000000000000000000600052603260045260246000fd5b905060200201356003878784818110610f0f577f4e487b7100000000000000000000000000000000000000000000000000000000600052603260045260246000fd5b9050602002013581548110610f4d577f4e487b7100000000000000000000000000000000000000000000000000000000600052603260045260246000fd5b90600052602060002090600402016002016000828254610f6d9190612d7f565b92505081905550838382818110610fad577f4e487b7100000000000000000000000000000000000000000000000000000000600052603260045260246000fd5b905060200201356003878784818110610fef577f4e487b7100000000000000000000000000000000000000000000000000000000600052603260045260246000fd5b905060200201358154811061102d577f4e487b7100000000000000000000000000000000000000000000000000000000600052603260045260246000fd5b9060005260206000209060040201600301600082825461104d9190612d7f565b92505081905550808061105f90612f10565b915050610e06565b5060019050949350505050565b61107c611d94565b60005b838390508110156111415781600660008686858181106110c8577f4e487b7100000000000000000000000000000000000000000000000000000000600052603260045260246000fd5b90506020020160208101906110dd919061214c565b73ffffffffffffffffffffffffffffffffffffffff1673ffffffffffffffffffffffffffffffffffffffff16815260200190815260200160002060006101000a81548160ff021916908315150217905550808061113990612f10565b91505061107f565b507fab5e233cc7db745f9ab86a3beed645c8318493782c05f0b9518571d2f45802aa83838360405161117593929190612969565b60405180910390a1505050565b60066020528060005260406000206000915054906101000a900460ff1681565b60025481565b6060600460008373ffffffffffffffffffffffffffffffffffffffff1673ffffffffffffffffffffffffffffffffffffffff16815260200190815260200160002060000180548060200260200160405190810160405280929190818152602001828054801561123657602002820191906000526020600020905b815481526020019060010190808311611222575b50505050509050919050565b61124a611d94565b6112546000611e12565b565b600760009054906101000a900473ffffffffffffffffffffffffffffffffffffffff1681565b60008060009054906101000a900473ffffffffffffffffffffffffffffffffffffffff16905090565b6000600660008373ffffffffffffffffffffffffffffffffffffffff1673ffffffffffffffffffffffffffffffffffffffff16815260200190815260200160002060009054906101000a900460ff169050919050565b6000600254905090565b600073ffffffffffffffffffffffffffffffffffffffff168173ffffffffffffffffffffffffffffffffffffffff161415611375576040517f08c379a000000000000000000000000000000000000000000000000000000000815260040161136c90612b26565b60405180910390fd5b61137e336112a5565b6113bd576040517f08c379a00000000000000000000000000000000000000000000000000000000081526004016113b490612be6565b60405180910390fd5b6113c6816112a5565b611405576040517f08c379a00000000000000000000000000000000000000000000000000000000081526004016113fc90612bc6565b60405180910390fd5b60005b83839050811015611a4857600084848381811061144e577f4e487b7100000000000000000000000000000000000000000000000000000000600052603260045260246000fd5b905060200201359050600254811061149b576040517f08c379a000000000000000000000000000000000000000000000000000000000815260040161149290612a46565b60405180910390fd5b3373ffffffffffffffffffffffffffffffffffffffff166005600083815260200190815260200160002060000160009054906101000a900473ffffffffffffffffffffffffffffffffffffffff1673ffffffffffffffffffffffffffffffffffffffff161461153f576040517f08c379a000000000000000000000000000000000000000000000000000000000815260040161153690612c66565b60405180910390fd5b826005600083815260200190815260200160002060000160006101000a81548173ffffffffffffffffffffffffffffffffffffffff021916908373ffffffffffffffffffffffffffffffffffffffff16021790555042600560008381526020019081526020016000206002018190555060006005600083815260200190815260200160002060030154905081600460003373ffffffffffffffffffffffffffffffffffffffff1673ffffffffffffffffffffffffffffffffffffffff1681526020019081526020016000206000018281548110611645577f4e487b7100000000000000000000000000000000000000000000000000000000600052603260045260246000fd5b906000526020600020015414611690576040517f08c379a000000000000000000000000000000000000000000000000000000000815260040161168790612a66565b60405180910390fd5b6000600460003373ffffffffffffffffffffffffffffffffffffffff1673ffffffffffffffffffffffffffffffffffffffff1681526020019081526020016000206000018054905090506000811161171d576040517f08c379a000000000000000000000000000000000000000000000000000000000815260040161171490612b06565b60405180910390fd5b600460003373ffffffffffffffffffffffffffffffffffffffff1673ffffffffffffffffffffffffffffffffffffffff16815260200190815260200160002060000160018261176c9190612e2f565b815481106117a3577f4e487b7100000000000000000000000000000000000000000000000000000000600052603260045260246000fd5b9060005260206000200154600460003373ffffffffffffffffffffffffffffffffffffffff1673ffffffffffffffffffffffffffffffffffffffff1681526020019081526020016000206000018381548110611828577f4e487b7100000000000000000000000000000000000000000000000000000000600052603260045260246000fd5b90600052602060002001819055508160056000600460003373ffffffffffffffffffffffffffffffffffffffff1673ffffffffffffffffffffffffffffffffffffffff16815260200190815260200160002060000185815481106118b5577f4e487b7100000000000000000000000000000000000000000000000000000000600052603260045260246000fd5b9060005260206000200154815260200190815260200160002060030181905550600460003373ffffffffffffffffffffffffffffffffffffffff1673ffffffffffffffffffffffffffffffffffffffff16815260200190815260200160002060000180548061194d577f4e487b7100000000000000000000000000000000000000000000000000000000600052603160045260246000fd5b600190038181906000526020600020016000905590556000600460008773ffffffffffffffffffffffffffffffffffffffff1673ffffffffffffffffffffffffffffffffffffffff168152602001908152602001600020600001805490509050600460008773ffffffffffffffffffffffffffffffffffffffff1673ffffffffffffffffffffffffffffffffffffffff168152602001908152602001600020600001849080600181540180825580915050600190039060005260206000200160009091909190915055806005600086815260200190815260200160002060030181905550505050508080611a4090612f10565b915050611408565b50505050565b60006002548210611a94576040517f08c379a0000000000000000000000000000000000000000000000000000000008152600401611a8b90612ba6565b60405180910390fd5b600073ffffffffffffffffffffffffffffffffffffffff168373ffffffffffffffffffffffffffffffffffffffff161415611b04576040517f08c379a0000000000000000000000000000000000000000000000000000000008152600401611afb90612b46565b60405180910390fd5b8273ffffffffffffffffffffffffffffffffffffffff166005600084815260200190815260200160002060000160009054906101000a900473ffffffffffffffffffffffffffffffffffffffff1673ffffffffffffffffffffffffffffffffffffffff1614905092915050565b600080611b7d836111a8565b9050600081511415611b93576000915050611bef565b6005600082600081518110611bd1577f4e487b7100000000000000000000000000000000000000000000000000000000600052603260045260246000fd5b60200260200101518152602001908152602001600020600201549150505b919050565b611bfc611d94565b600073ffffffffffffffffffffffffffffffffffffffff168173ffffffffffffffffffffffffffffffffffffffff161415611c6c576040517f08c379a0000000000000000000000000000000000000000000000000000000008152600401611c6390612ac6565b60405180910390fd5b611c7581611e12565b50565b6000611c82611d94565b611c8a611f64565b84848080601f016020809104026020016040519081016040528093929190818152602001838380828437600081840152601f19601f820116905080830192505050505050508160000181905250828160200181815250506000816040018181525050600081606001818152505060038190806001815401808255809150506001900390600052602060002090600402016000909190919091506000820151816000019080519060200190611d3f929190611f8c565b506020820151816001015560408201518160020155606082015181600301555050600160008154611d6f90612f10565b9190508190555060018054611d849190612e2f565b9150509392505050565b60015481565b611d9c611ed6565b73ffffffffffffffffffffffffffffffffffffffff16611dba61127c565b73ffffffffffffffffffffffffffffffffffffffff1614611e10576040517f08c379a0000000000000000000000000000000000000000000000000000000008152600401611e0790612c06565b60405180910390fd5b565b60008060009054906101000a900473ffffffffffffffffffffffffffffffffffffffff169050816000806101000a81548173ffffffffffffffffffffffffffffffffffffffff021916908373ffffffffffffffffffffffffffffffffffffffff1602179055508173ffffffffffffffffffffffffffffffffffffffff168173ffffffffffffffffffffffffffffffffffffffff167f8be0079c531659141344cd1fd0a4f28419497f9722a3daafe3b4186f6b6457e060405160405180910390a35050565b600033905090565b828054611eea90612ede565b90600052602060002090601f016020900481019282611f0c5760008555611f53565b82601f10611f2557803560ff1916838001178555611f53565b82800160010185558215611f53579182015b82811115611f52578235825591602001919060010190611f37565b5b509050611f609190612012565b5090565b6040518060800160405280606081526020016000815260200160008152602001600081525090565b828054611f9890612ede565b90600052602060002090601f016020900481019282611fba5760008555612001565b82601f10611fd357805160ff1916838001178555612001565b82800160010185558215612001579182015b82811115612000578251825591602001919060010190611fe5565b5b50905061200e9190612012565b5090565b5b8082111561202b576000816000905550600101612013565b5090565b60008135905061203e81613426565b92915050565b60008083601f84011261205657600080fd5b8235905067ffffffffffffffff81111561206f57600080fd5b60208301915083602082028301111561208757600080fd5b9250929050565b60008083601f8401126120a057600080fd5b8235905067ffffffffffffffff8111156120b957600080fd5b6020830191508360208202830111156120d157600080fd5b9250929050565b6000813590506120e78161343d565b92915050565b60008083601f8401126120ff57600080fd5b8235905067ffffffffffffffff81111561211857600080fd5b60208301915083600182028301111561213057600080fd5b9250929050565b60008135905061214681613454565b92915050565b60006020828403121561215e57600080fd5b600061216c8482850161202f565b91505092915050565b6000806040838503121561218857600080fd5b60006121968582860161202f565b92505060206121a785828601612137565b9150509250929050565b6000806000604084860312156121c657600080fd5b600084013567ffffffffffffffff8111156121e057600080fd5b6121ec86828701612044565b935093505060206121ff868287016120d8565b9150509250925092565b60008060006040848603121561221e57600080fd5b600084013567ffffffffffffffff81111561223857600080fd5b6122448682870161208e565b935093505060206122578682870161202f565b9150509250925092565b6000806000806040858703121561227757600080fd5b600085013567ffffffffffffffff81111561229157600080fd5b61229d8782880161208e565b9450945050602085013567ffffffffffffffff8111156122bc57600080fd5b6122c88782880161208e565b925092505092959194509250565b6000806000604084860312156122eb57600080fd5b600084013567ffffffffffffffff81111561230557600080fd5b612311868287016120ed565b9350935050602061232486828701612137565b9150509250925092565b60006020828403121561234057600080fd5b600061234e84828501612137565b91505092915050565b6000806000806060858703121561236d57600080fd5b600061237b87828801612137565b945050602085013567ffffffffffffffff81111561239857600080fd5b6123a4878288016120ed565b935093505060406123b787828801612137565b91505092959194509250565b600080604083850312156123d657600080fd5b60006123e485828601612137565b92505060206123f585828601612137565b9150509250929050565b600061240b8383612443565b60208301905092915050565b60006124238383612888565b905092915050565b600061243783836128eb565b60208301905092915050565b61244c81612e63565b82525050565b61245b81612e63565b82525050565b600061246d8385612d13565b935061247882612ca1565b8060005b858110156124b15761248e8284612d68565b61249888826123ff565b97506124a383612cec565b92505060018101905061247c565b5085925050509392505050565b60006124c982612ccb565b6124d38185612d24565b9350836020820285016124e585612cab565b8060005b8581101561252157848403895281516125028582612417565b945061250d83612cf9565b925060208a019950506001810190506124e9565b50829750879550505050505092915050565b600061253e82612cd6565b6125488185612d35565b935061255383612cbb565b8060005b8381101561258457815161256b888261242b565b975061257683612d06565b925050600181019050612557565b5085935050505092915050565b61259a81612e75565b82525050565b60006125ab82612ce1565b6125b58185612d46565b93506125c5818560208601612eab565b6125ce81612fb7565b840191505092915050565b60006125e482612ce1565b6125ee8185612d57565b93506125fe818560208601612eab565b61260781612fb7565b840191505092915050565b600061261f602b83612d57565b915061262a82612fc8565b604082019050919050565b6000612642601b83612d57565b915061264d82613017565b602082019050919050565b6000612665603283612d57565b915061267082613040565b604082019050919050565b6000612688601583612d57565b91506126938261308f565b602082019050919050565b60006126ab602683612d57565b91506126b6826130b8565b604082019050919050565b60006126ce601383612d57565b91506126d982613107565b602082019050919050565b60006126f1602d83612d57565b91506126fc82613130565b604082019050919050565b6000612714601d83612d57565b915061271f8261317f565b602082019050919050565b6000612737601683612d57565b9150612742826131a8565b602082019050919050565b600061275a602d83612d57565b9150612765826131d1565b604082019050919050565b600061277d602b83612d57565b915061278882613220565b604082019050919050565b60006127a0602983612d57565b91506127ab8261326f565b604082019050919050565b60006127c3602b83612d57565b91506127ce826132be565b604082019050919050565b60006127e6602b83612d57565b91506127f18261330d565b604082019050919050565b6000612809602083612d57565b91506128148261335c565b602082019050919050565b600061282c601283612d57565b915061283782613385565b602082019050919050565b600061284f602783612d57565b915061285a826133ae565b604082019050919050565b6000612872601683612d57565b915061287d826133fd565b602082019050919050565b600060808301600083015184820360008601526128a582826125a0565b91505060208301516128ba60208601826128eb565b5060408301516128cd60408601826128eb565b5060608301516128e060608601826128eb565b508091505092915050565b6128f481612ea1565b82525050565b61290381612ea1565b82525050565b600060208201905061291e6000830184612452565b92915050565b60006080820190506129396000830187612452565b61294660208301866128fa565b61295360408301856128fa565b61296060608301846128fa565b95945050505050565b60006040820190508181036000830152612984818587612461565b90506129936020830184612591565b949350505050565b600060208201905081810360008301526129b581846124be565b905092915050565b600060208201905081810360008301526129d78184612533565b905092915050565b60006020820190506129f46000830184612591565b92915050565b60006080820190508181036000830152612a1481876125d9565b9050612a2360208301866128fa565b612a3060408301856128fa565b612a3d60608301846128fa565b95945050505050565b60006020820190508181036000830152612a5f81612612565b9050919050565b60006020820190508181036000830152612a7f81612635565b9050919050565b60006020820190508181036000830152612a9f81612658565b9050919050565b60006020820190508181036000830152612abf8161267b565b9050919050565b60006020820190508181036000830152612adf8161269e565b9050919050565b60006020820190508181036000830152612aff816126c1565b9050919050565b60006020820190508181036000830152612b1f816126e4565b9050919050565b60006020820190508181036000830152612b3f81612707565b9050919050565b60006020820190508181036000830152612b5f8161272a565b9050919050565b60006020820190508181036000830152612b7f8161274d565b9050919050565b60006020820190508181036000830152612b9f81612770565b9050919050565b60006020820190508181036000830152612bbf81612793565b9050919050565b60006020820190508181036000830152612bdf816127b6565b9050919050565b60006020820190508181036000830152612bff816127d9565b9050919050565b60006020820190508181036000830152612c1f816127fc565b9050919050565b60006020820190508181036000830152612c3f8161281f565b9050919050565b60006020820190508181036000830152612c5f81612842565b9050919050565b60006020820190508181036000830152612c7f81612865565b9050919050565b6000602082019050612c9b60008301846128fa565b92915050565b6000819050919050565b6000819050602082019050919050565b6000819050602082019050919050565b600081519050919050565b600081519050919050565b600081519050919050565b6000602082019050919050565b6000602082019050919050565b6000602082019050919050565b600082825260208201905092915050565b600082825260208201905092915050565b600082825260208201905092915050565b600082825260208201905092915050565b600082825260208201905092915050565b6000612d77602084018461202f565b905092915050565b6000612d8a82612ea1565b9150612d9583612ea1565b9250827fffffffffffffffffffffffffffffffffffffffffffffffffffffffffffffffff03821115612dca57612dc9612f59565b5b828201905092915050565b6000612de082612ea1565b9150612deb83612ea1565b9250817fffffffffffffffffffffffffffffffffffffffffffffffffffffffffffffffff0483118215151615612e2457612e23612f59565b5b828202905092915050565b6000612e3a82612ea1565b9150612e4583612ea1565b925082821015612e5857612e57612f59565b5b828203905092915050565b6000612e6e82612e81565b9050919050565b60008115159050919050565b600073ffffffffffffffffffffffffffffffffffffffff82169050919050565b6000819050919050565b60005b83811015612ec9578082015181840152602081019050612eae565b83811115612ed8576000848401525b50505050565b60006002820490506001821680612ef657607f821691505b60208210811415612f0a57612f09612f88565b5b50919050565b6000612f1b82612ea1565b91507fffffffffffffffffffffffffffffffffffffffffffffffffffffffffffffffff821415612f4e57612f4d612f59565b5b600182019050919050565b7f4e487b7100000000000000000000000000000000000000000000000000000000600052601160045260246000fd5b7f4e487b7100000000000000000000000000000000000000000000000000000000600052602260045260246000fd5b6000601f19601f8301169050919050565b7f49442076616c75652073686f756c64206265206c657373207468616e204e465460008201527f5f49445f434f554e544552000000000000000000000000000000000000000000602082015250565b7f69642e696e6465782073686f756c6420626520636f72726563742e0000000000600082015250565b7f5468652077616c6c657420616464726573732073686f756c6420626520696e2060008201527f74686520617070726f766564206c6973742e0000000000000000000000000000602082015250565b7f696e76616c696420746f6b656e20616464726573730000000000000000000000600082015250565b7f4f776e61626c653a206e6577206f776e657220697320746865207a65726f206160008201527f6464726573730000000000000000000000000000000000000000000000000000602082015250565b7f4e6f7420656e6f756768207061796d656e742e00000000000000000000000000600082015250565b7f4f6c6420557365722042616c616e63652073686f756c6420626520677265617460008201527f6572207468616e207a65726f2e00000000000000000000000000000000000000602082015250565b7f54617267657420616464726573732063616e6e6f74206265206e756c6c000000600082015250565b7f416464726573732063616e6e6f74206265206e756c6c00000000000000000000600082015250565b7f4e465420547970652073686f756c64206265206c657373207468616e204e465460008201527f5f545950455f434f554e54455200000000000000000000000000000000000000602082015250565b7f496420616e6420416d6f756e74206172726179206c656e6774682073686f756c60008201527f6420626520657175616c2e000000000000000000000000000000000000000000602082015250565b7f4e46542049442073686f756c64206265206c657373207468616e204e46545f4960008201527f445f434f554e5445520000000000000000000000000000000000000000000000602082015250565b7f64737420616464726573732073686f756c6420626520696e207468652061707060008201527f726f766564206c6973742e000000000000000000000000000000000000000000602082015250565b7f73726320616464726573732073686f756c6420626520696e207468652061707060008201527f726f766564206c6973742e000000000000000000000000000000000000000000602082015250565b7f4f776e61626c653a2063616c6c6572206973206e6f7420746865206f776e6572600082015250565b7f4e6f7420656e6f75676820737570706c792e0000000000000000000000000000600082015250565b7f69642073686f756c64206265206c657373207468616e204e46545f545950455f60008201527f434f554e54455200000000000000000000000000000000000000000000000000602082015250565b7f53726320617265206e6f7420746865206f776e65722e00000000000000000000600082015250565b61342f81612e63565b811461343a57600080fd5b50565b61344681612e75565b811461345157600080fd5b50565b61345d81612ea1565b811461346857600080fd5b5056fea2646970667358221220649b9d740040d6ea190d93c3c00ac9482c2d882cf5727de531fa4c19316b3e7864736f6c63430008040033",
  "linkReferences": {},
  "deployedLinkReferences": {}
}