{
  "_format": "hh-sol-artifact-1",
  "contractName": "ElumStaking",
  "sourceName": "contracts/ElumStaking.sol",
  "abi": [
    {
      "anonymous": false,
      "inputs": [
        {
          "indexed": true,
          "internalType": "address",
          "name": "previousOwner",
          "type": "address"
        },
        {
          "indexed": true,
          "internalType": "address",
          "name": "newOwner",
          "type": "address"
        }
      ],
      "name": "OwnershipTransferred",
      "type": "event"
    },
    {
      "inputs": [
        {
          "internalType": "address",
          "name": "",
          "type": "address"
        }
      ],
      "name": "ADDRESS_TO_INFO",
      "outputs": [
        {
          "internalType": "uint256",
          "name": "type_id",
          "type": "uint256"
        },
        {
          "internalType": "uint256",
          "name": "startTime",
          "type": "uint256"
        },
        {
          "internalType": "uint256",
          "name": "expireTime",
          "type": "uint256"
        },
        {
          "internalType": "uint256",
          "name": "amount",
          "type": "uint256"
        }
      ],
      "stateMutability": "view",
      "type": "function"
    },
    {
      "inputs": [
        {
          "internalType": "uint256",
          "name": "period",
          "type": "uint256"
        },
        {
          "internalType": "string",
          "name": "label",
          "type": "string"
        }
      ],
      "name": "addStakeType",
      "outputs": [],
      "stateMutability": "nonpayable",
      "type": "function"
    },
    {
      "inputs": [
        {
          "internalType": "uint256[]",
          "name": "period",
          "type": "uint256[]"
        },
        {
          "internalType": "string[]",
          "name": "label",
          "type": "string[]"
        }
      ],
      "name": "addStakeTypeList",
      "outputs": [],
      "stateMutability": "nonpayable",
      "type": "function"
    },
    {
      "inputs": [],
      "name": "getCurrentTime",
      "outputs": [
        {
          "internalType": "uint256",
          "name": "",
          "type": "uint256"
        }
      ],
      "stateMutability": "view",
      "type": "function"
    },
    {
      "inputs": [],
      "name": "getStakeTypeList",
      "outputs": [
        {
          "components": [
            {
              "internalType": "uint256",
              "name": "id",
              "type": "uint256"
            },
            {
              "internalType": "uint256",
              "name": "period",
              "type": "uint256"
            },
            {
              "internalType": "string",
              "name": "label",
              "type": "string"
            }
          ],
          "internalType": "struct STAKE_TYPE[]",
          "name": "",
          "type": "tuple[]"
        }
      ],
      "stateMutability": "view",
      "type": "function"
    },
    {
      "inputs": [],
      "name": "owner",
      "outputs": [
        {
          "internalType": "address",
          "name": "",
          "type": "address"
        }
      ],
      "stateMutability": "view",
      "type": "function"
    },
    {
      "inputs": [],
      "name": "renounceOwnership",
      "outputs": [],
      "stateMutability": "nonpayable",
      "type": "function"
    },
    {
      "inputs": [
        {
          "internalType": "address",
          "name": "_token_address",
          "type": "address"
        }
      ],
      "name": "setTokenAddress",
      "outputs": [],
      "stateMutability": "nonpayable",
      "type": "function"
    },
    {
      "inputs": [
        {
          "internalType": "uint256",
          "name": "stakeType",
          "type": "uint256"
        },
        {
          "internalType": "uint256",
          "name": "amount",
          "type": "uint256"
        }
      ],
      "name": "stake",
      "outputs": [],
      "stateMutability": "nonpayable",
      "type": "function"
    },
    {
      "inputs": [
        {
          "internalType": "uint256",
          "name": "",
          "type": "uint256"
        }
      ],
      "name": "stakeTypeList",
      "outputs": [
        {
          "internalType": "uint256",
          "name": "id",
          "type": "uint256"
        },
        {
          "internalType": "uint256",
          "name": "period",
          "type": "uint256"
        },
        {
          "internalType": "string",
          "name": "label",
          "type": "string"
        }
      ],
      "stateMutability": "view",
      "type": "function"
    },
    {
      "inputs": [],
      "name": "token_address",
      "outputs": [
        {
          "internalType": "address",
          "name": "",
          "type": "address"
        }
      ],
      "stateMutability": "view",
      "type": "function"
    },
    {
      "inputs": [
        {
          "internalType": "address",
          "name": "newOwner",
          "type": "address"
        }
      ],
      "name": "transferOwnership",
      "outputs": [],
      "stateMutability": "nonpayable",
      "type": "function"
    },
    {
      "inputs": [
        {
          "internalType": "uint256",
          "name": "index",
          "type": "uint256"
        },
        {
          "internalType": "uint256",
          "name": "period",
          "type": "uint256"
        },
        {
          "internalType": "string",
          "name": "label",
          "type": "string"
        }
      ],
      "name": "updateStakeType",
      "outputs": [],
      "stateMutability": "nonpayable",
      "type": "function"
    },
    {
      "inputs": [
        {
          "internalType": "address",
          "name": "_address",
          "type": "address"
        }
      ],
      "name": "withdrawStaker",
      "outputs": [],
      "stateMutability": "nonpayable",
      "type": "function"
    }
  ],
  "bytecode": "0x608060405234801561001057600080fd5b5061002d61002261003260201b60201c565b61003a60201b60201c565b6100fe565b600033905090565b60008060009054906101000a900473ffffffffffffffffffffffffffffffffffffffff169050816000806101000a81548173ffffffffffffffffffffffffffffffffffffffff021916908373ffffffffffffffffffffffffffffffffffffffff1602179055508173ffffffffffffffffffffffffffffffffffffffff168173ffffffffffffffffffffffffffffffffffffffff167f8be0079c531659141344cd1fd0a4f28419497f9722a3daafe3b4186f6b6457e060405160405180910390a35050565b612107806200010e6000396000f3fe608060405234801561001057600080fd5b50600436106100ea5760003560e01c80637e9ad9341161008c5780639ee397c1116100665780639ee397c114610212578063cbf6e46414610230578063efee95da14610262578063f2fde38b1461027e576100ea565b80637e9ad934146101ba5780638c8e8fee146101d65780638da5cb5b146101f4576100ea565b806359882f81116100c857806359882f8114610145578063715018a614610178578063771d1000146101825780637b0472f01461019e576100ea565b80630fb041d1146100ef57806326a4e8d21461010b57806329cb924d14610127575b600080fd5b6101096004803603810190610104919061148b565b61029a565b005b61012560048036038101906101209190611377565b610330565b005b61012f6103ec565b60405161013c9190611a5e565b60405180910390f35b61015f600480360381019061015a9190611377565b6103f4565b60405161016f9493929190611ab7565b60405180910390f35b610180610424565b005b61019c600480360381019061019791906113a0565b610438565b005b6101b860048036038101906101b391906114df565b610536565b005b6101d460048036038101906101cf919061151b565b6109ce565b005b6101de610ad2565b6040516101eb9190611858565b60405180910390f35b6101fc610af8565b6040516102099190611858565b60405180910390f35b61021a610b21565b60405161022791906118fc565b60405180910390f35b61024a60048036038101906102459190611439565b610c26565b60405161025993929190611a79565b60405180910390f35b61027c60048036038101906102779190611377565b610ce8565b005b61029860048036038101906102939190611377565b610f2f565b005b6102a2610fb3565b6102aa6110fd565b6002805490508160000181815250508281602001818152505081816040018190525060028190806001815401808255809150506001900390600052602060002090600302016000909190919091506000820151816000015560208201518160010155604082015181600201908051906020019061032892919061111e565b505050505050565b610338610fb3565b600073ffffffffffffffffffffffffffffffffffffffff168173ffffffffffffffffffffffffffffffffffffffff1614156103a8576040517f08c379a000000000000000000000000000000000000000000000000000000000815260040161039f9061191e565b60405180910390fd5b80600160006101000a81548173ffffffffffffffffffffffffffffffffffffffff021916908373ffffffffffffffffffffffffffffffffffffffff16021790555050565b600042905090565b60036020528060005260406000206000915090508060000154908060010154908060020154908060030154905084565b61042c610fb3565b6104366000611031565b565b610440610fb3565b80518383905014610486576040517f08c379a000000000000000000000000000000000000000000000000000000000815260040161047d9061199e565b60405180910390fd5b60005b838390508110156105305761051d8484838181106104d0577f4e487b7100000000000000000000000000000000000000000000000000000000600052603260045260246000fd5b90506020020135838381518110610510577f4e487b7100000000000000000000000000000000000000000000000000000000600052603260045260246000fd5b602002602001015161029a565b808061052890611d27565b915050610489565b50505050565b600280549050821061057d576040517f08c379a0000000000000000000000000000000000000000000000000000000008152600401610574906119de565b60405180910390fd5b80600160009054906101000a900473ffffffffffffffffffffffffffffffffffffffff1673ffffffffffffffffffffffffffffffffffffffff1663dd62ed3e33306040518363ffffffff1660e01b81526004016105db929190611873565b60206040518083038186803b1580156105f357600080fd5b505afa158015610607573d6000803e3d6000fd5b505050506040513d601f19601f8201168201806040525081019061062b9190611462565b101561066c576040517f08c379a000000000000000000000000000000000000000000000000000000000815260040161066390611a3e565b60405180910390fd5b6000600283815481106106a8577f4e487b7100000000000000000000000000000000000000000000000000000000600052603260045260246000fd5b90600052602060002090600302016001015490506000600360003373ffffffffffffffffffffffffffffffffffffffff1673ffffffffffffffffffffffffffffffffffffffff1681526020019081526020016000206003015411156107de5760006002600360003373ffffffffffffffffffffffffffffffffffffffff1673ffffffffffffffffffffffffffffffffffffffff1681526020019081526020016000206000015481548110610785577f4e487b7100000000000000000000000000000000000000000000000000000000600052603260045260246000fd5b9060005260206000209060030201600101549050818111156107dc576040517f08c379a00000000000000000000000000000000000000000000000000000000081526004016107d39061197e565b60405180910390fd5b505b600160009054906101000a900473ffffffffffffffffffffffffffffffffffffffff1673ffffffffffffffffffffffffffffffffffffffff166323b872dd3330856040518463ffffffff1660e01b815260040161083d9392919061189c565b602060405180830381600087803b15801561085757600080fd5b505af115801561086b573d6000803e3d6000fd5b505050506040513d601f19601f8201168201806040525081019061088f9190611410565b5082600360003373ffffffffffffffffffffffffffffffffffffffff1673ffffffffffffffffffffffffffffffffffffffff1681526020019081526020016000206000018190555042600360003373ffffffffffffffffffffffffffffffffffffffff1673ffffffffffffffffffffffffffffffffffffffff16815260200190815260200160002060010181905550804261092a9190611be4565b600360003373ffffffffffffffffffffffffffffffffffffffff1673ffffffffffffffffffffffffffffffffffffffff1681526020019081526020016000206002018190555081600360003373ffffffffffffffffffffffffffffffffffffffff1673ffffffffffffffffffffffffffffffffffffffff16815260200190815260200160002060030160008282546109c29190611be4565b92505081905550505050565b6109d6610fb3565b6002805490508310610a1d576040517f08c379a0000000000000000000000000000000000000000000000000000000008152600401610a149061195e565b60405180910390fd5b8160028481548110610a58577f4e487b7100000000000000000000000000000000000000000000000000000000600052603260045260246000fd5b9060005260206000209060030201600101819055508060028481548110610aa8577f4e487b7100000000000000000000000000000000000000000000000000000000600052603260045260246000fd5b90600052602060002090600302016002019080519060200190610acc92919061111e565b50505050565b600160009054906101000a900473ffffffffffffffffffffffffffffffffffffffff1681565b60008060009054906101000a900473ffffffffffffffffffffffffffffffffffffffff16905090565b60606002805480602002602001604051908101604052809291908181526020016000905b82821015610c1d57838290600052602060002090600302016040518060600160405290816000820154815260200160018201548152602001600282018054610b8c90611cc4565b80601f0160208091040260200160405190810160405280929190818152602001828054610bb890611cc4565b8015610c055780601f10610bda57610100808354040283529160200191610c05565b820191906000526020600020905b815481529060010190602001808311610be857829003601f168201915b50505050508152505081526020019060010190610b45565b50505050905090565b60028181548110610c3657600080fd5b9060005260206000209060030201600091509050806000015490806001015490806002018054610c6590611cc4565b80601f0160208091040260200160405190810160405280929190818152602001828054610c9190611cc4565b8015610cde5780601f10610cb357610100808354040283529160200191610cde565b820191906000526020600020905b815481529060010190602001808311610cc157829003601f168201915b5050505050905083565b6000600360008373ffffffffffffffffffffffffffffffffffffffff1673ffffffffffffffffffffffffffffffffffffffff1681526020019081526020016000206003015411610d6d576040517f08c379a0000000000000000000000000000000000000000000000000000000008152600401610d64906119fe565b60405180910390fd5b42600360008373ffffffffffffffffffffffffffffffffffffffff1673ffffffffffffffffffffffffffffffffffffffff168152602001908152602001600020600201541115610df2576040517f08c379a0000000000000000000000000000000000000000000000000000000008152600401610de990611a1e565b60405180910390fd5b600160009054906101000a900473ffffffffffffffffffffffffffffffffffffffff1673ffffffffffffffffffffffffffffffffffffffff1663a9059cbb82600360008573ffffffffffffffffffffffffffffffffffffffff1673ffffffffffffffffffffffffffffffffffffffff168152602001908152602001600020600301546040518363ffffffff1660e01b8152600401610e919291906118d3565b602060405180830381600087803b158015610eab57600080fd5b505af1158015610ebf573d6000803e3d6000fd5b505050506040513d601f19601f82011682018060405250810190610ee39190611410565b506000600360008373ffffffffffffffffffffffffffffffffffffffff1673ffffffffffffffffffffffffffffffffffffffff1681526020019081526020016000206003018190555050565b610f37610fb3565b600073ffffffffffffffffffffffffffffffffffffffff168173ffffffffffffffffffffffffffffffffffffffff161415610fa7576040517f08c379a0000000000000000000000000000000000000000000000000000000008152600401610f9e9061193e565b60405180910390fd5b610fb081611031565b50565b610fbb6110f5565b73ffffffffffffffffffffffffffffffffffffffff16610fd9610af8565b73ffffffffffffffffffffffffffffffffffffffff161461102f576040517f08c379a0000000000000000000000000000000000000000000000000000000008152600401611026906119be565b60405180910390fd5b565b60008060009054906101000a900473ffffffffffffffffffffffffffffffffffffffff169050816000806101000a81548173ffffffffffffffffffffffffffffffffffffffff021916908373ffffffffffffffffffffffffffffffffffffffff1602179055508173ffffffffffffffffffffffffffffffffffffffff168173ffffffffffffffffffffffffffffffffffffffff167f8be0079c531659141344cd1fd0a4f28419497f9722a3daafe3b4186f6b6457e060405160405180910390a35050565b600033905090565b60405180606001604052806000815260200160008152602001606081525090565b82805461112a90611cc4565b90600052602060002090601f01602090048101928261114c5760008555611193565b82601f1061116557805160ff1916838001178555611193565b82800160010185558215611193579182015b82811115611192578251825591602001919060010190611177565b5b5090506111a091906111a4565b5090565b5b808211156111bd5760008160009055506001016111a5565b5090565b60006111d46111cf84611b21565b611afc565b905080838252602082019050828560208602820111156111f357600080fd5b60005b8581101561123d57813567ffffffffffffffff81111561121557600080fd5b8086016112228982611323565b855260208501945060208401935050506001810190506111f6565b5050509392505050565b600061125a61125584611b4d565b611afc565b90508281526020810184848401111561127257600080fd5b61127d848285611c82565b509392505050565b6000813590506112948161208c565b92915050565b600082601f8301126112ab57600080fd5b81356112bb8482602086016111c1565b91505092915050565b60008083601f8401126112d657600080fd5b8235905067ffffffffffffffff8111156112ef57600080fd5b60208301915083602082028301111561130757600080fd5b9250929050565b60008151905061131d816120a3565b92915050565b600082601f83011261133457600080fd5b8135611344848260208601611247565b91505092915050565b60008135905061135c816120ba565b92915050565b600081519050611371816120ba565b92915050565b60006020828403121561138957600080fd5b600061139784828501611285565b91505092915050565b6000806000604084860312156113b557600080fd5b600084013567ffffffffffffffff8111156113cf57600080fd5b6113db868287016112c4565b9350935050602084013567ffffffffffffffff8111156113fa57600080fd5b6114068682870161129a565b9150509250925092565b60006020828403121561142257600080fd5b60006114308482850161130e565b91505092915050565b60006020828403121561144b57600080fd5b60006114598482850161134d565b91505092915050565b60006020828403121561147457600080fd5b600061148284828501611362565b91505092915050565b6000806040838503121561149e57600080fd5b60006114ac8582860161134d565b925050602083013567ffffffffffffffff8111156114c957600080fd5b6114d585828601611323565b9150509250929050565b600080604083850312156114f257600080fd5b60006115008582860161134d565b92505060206115118582860161134d565b9150509250929050565b60008060006060848603121561153057600080fd5b600061153e8682870161134d565b935050602061154f8682870161134d565b925050604084013567ffffffffffffffff81111561156c57600080fd5b61157886828701611323565b9150509250925092565b600061158e83836117ea565b905092915050565b61159f81611c3a565b82525050565b60006115b082611b8e565b6115ba8185611bb1565b9350836020820285016115cc85611b7e565b8060005b8581101561160857848403895281516115e98582611582565b94506115f483611ba4565b925060208a019950506001810190506115d0565b50829750879550505050505092915050565b600061162582611b99565b61162f8185611bc2565b935061163f818560208601611c91565b61164881611dfd565b840191505092915050565b600061165e82611b99565b6116688185611bd3565b9350611678818560208601611c91565b61168181611dfd565b840191505092915050565b6000611699601583611bd3565b91506116a482611e0e565b602082019050919050565b60006116bc602683611bd3565b91506116c782611e37565b604082019050919050565b60006116df602e83611bd3565b91506116ea82611e86565b604082019050919050565b6000611702601c83611bd3565b915061170d82611ed5565b602082019050919050565b6000611725602583611bd3565b915061173082611efe565b604082019050919050565b6000611748602083611bd3565b915061175382611f4d565b602082019050919050565b600061176b603283611bd3565b915061177682611f76565b604082019050919050565b600061178e602983611bd3565b915061179982611fc5565b604082019050919050565b60006117b1601e83611bd3565b91506117bc82612014565b602082019050919050565b60006117d4602383611bd3565b91506117df8261203d565b604082019050919050565b6000606083016000830151611802600086018261183a565b506020830151611815602086018261183a565b506040830151848203604086015261182d828261161a565b9150508091505092915050565b61184381611c78565b82525050565b61185281611c78565b82525050565b600060208201905061186d6000830184611596565b92915050565b60006040820190506118886000830185611596565b6118956020830184611596565b9392505050565b60006060820190506118b16000830186611596565b6118be6020830185611596565b6118cb6040830184611849565b949350505050565b60006040820190506118e86000830185611596565b6118f56020830184611849565b9392505050565b6000602082019050818103600083015261191681846115a5565b905092915050565b600060208201905081810360008301526119378161168c565b9050919050565b60006020820190508181036000830152611957816116af565b9050919050565b60006020820190508181036000830152611977816116d2565b9050919050565b60006020820190508181036000830152611997816116f5565b9050919050565b600060208201905081810360008301526119b781611718565b9050919050565b600060208201905081810360008301526119d78161173b565b9050919050565b600060208201905081810360008301526119f78161175e565b9050919050565b60006020820190508181036000830152611a1781611781565b9050919050565b60006020820190508181036000830152611a37816117a4565b9050919050565b60006020820190508181036000830152611a57816117c7565b9050919050565b6000602082019050611a736000830184611849565b92915050565b6000606082019050611a8e6000830186611849565b611a9b6020830185611849565b8181036040830152611aad8184611653565b9050949350505050565b6000608082019050611acc6000830187611849565b611ad96020830186611849565b611ae66040830185611849565b611af36060830184611849565b95945050505050565b6000611b06611b17565b9050611b128282611cf6565b919050565b6000604051905090565b600067ffffffffffffffff821115611b3c57611b3b611dce565b5b602082029050602081019050919050565b600067ffffffffffffffff821115611b6857611b67611dce565b5b611b7182611dfd565b9050602081019050919050565b6000819050602082019050919050565b600081519050919050565b600081519050919050565b6000602082019050919050565b600082825260208201905092915050565b600082825260208201905092915050565b600082825260208201905092915050565b6000611bef82611c78565b9150611bfa83611c78565b9250827fffffffffffffffffffffffffffffffffffffffffffffffffffffffffffffffff03821115611c2f57611c2e611d70565b5b828201905092915050565b6000611c4582611c58565b9050919050565b60008115159050919050565b600073ffffffffffffffffffffffffffffffffffffffff82169050919050565b6000819050919050565b82818337600083830152505050565b60005b83811015611caf578082015181840152602081019050611c94565b83811115611cbe576000848401525b50505050565b60006002820490506001821680611cdc57607f821691505b60208210811415611cf057611cef611d9f565b5b50919050565b611cff82611dfd565b810181811067ffffffffffffffff82111715611d1e57611d1d611dce565b5b80604052505050565b6000611d3282611c78565b91507fffffffffffffffffffffffffffffffffffffffffffffffffffffffffffffffff821415611d6557611d64611d70565b5b600182019050919050565b7f4e487b7100000000000000000000000000000000000000000000000000000000600052601160045260246000fd5b7f4e487b7100000000000000000000000000000000000000000000000000000000600052602260045260246000fd5b7f4e487b7100000000000000000000000000000000000000000000000000000000600052604160045260246000fd5b6000601f19601f8301169050919050565b7f696e76616c696420746f6b656e20616464726573730000000000000000000000600082015250565b7f4f776e61626c653a206e6577206f776e657220697320746865207a65726f206160008201527f6464726573730000000000000000000000000000000000000000000000000000602082015250565b7f696e6465782073686f756c64206265206c657373207468616e207374616b655460008201527f7970654c6973742e6c656e677468000000000000000000000000000000000000602082015250565b7f506572696f642063616e206f6e6c7920626520657874656e6465642e00000000600082015250565b7f74776f206172726179206c656e677468732073686f756c64206265207468652060008201527f73616d652e000000000000000000000000000000000000000000000000000000602082015250565b7f4f776e61626c653a2063616c6c6572206973206e6f7420746865206f776e6572600082015250565b7f5374616b65547970652073686f756c64206265206c657373207468616e20737460008201527f616b65547970654c6973742e6c656e6774680000000000000000000000000000602082015250565b7f5374616b696e6720416d6f756e742073686f756c6420626520706f736974697660008201527f65206e756d6265722e0000000000000000000000000000000000000000000000602082015250565b7f5374616b696e6720506572696f64206861736e277420657870697265642e0000600082015250565b7f416d6f756e74206f6620546f6b656e732073686f756c6420626520616c6c6f7760008201527f65642e0000000000000000000000000000000000000000000000000000000000602082015250565b61209581611c3a565b81146120a057600080fd5b50565b6120ac81611c4c565b81146120b757600080fd5b50565b6120c381611c78565b81146120ce57600080fd5b5056fea26469706673582212202572deaaa94ae8cb39e2377287c6055453339943c4f6fd72b71772450241659564736f6c63430008040033",
  "linkReferences": {},
  "deployedLinkReferences": {}
}