{
  "_format": "hh-sol-artifact-1",
  "contractName": "ElumStaking",
  "sourceName": "contracts/ElumStaking.sol",
  "abi": [
    {
      "anonymous": false,
      "inputs": [
        {
          "indexed": true,
          "internalType": "address",
          "name": "previousOwner",
          "type": "address"
        },
        {
          "indexed": true,
          "internalType": "address",
          "name": "newOwner",
          "type": "address"
        }
      ],
      "name": "OwnershipTransferred",
      "type": "event"
    },
    {
      "inputs": [
        {
          "internalType": "uint256",
          "name": "",
          "type": "uint256"
        }
      ],
      "name": "NFT_TO_INFO",
      "outputs": [
        {
          "internalType": "uint256",
          "name": "type_id",
          "type": "uint256"
        },
        {
          "internalType": "uint256",
          "name": "startTime",
          "type": "uint256"
        },
        {
          "internalType": "uint256",
          "name": "amount",
          "type": "uint256"
        },
        {
          "internalType": "address",
          "name": "staker",
          "type": "address"
        }
      ],
      "stateMutability": "view",
      "type": "function"
    },
    {
      "inputs": [
        {
          "internalType": "uint256",
          "name": "period",
          "type": "uint256"
        },
        {
          "internalType": "uint256",
          "name": "amount",
          "type": "uint256"
        },
        {
          "internalType": "uint256",
          "name": "multiplier",
          "type": "uint256"
        }
      ],
      "name": "addStakeType",
      "outputs": [],
      "stateMutability": "nonpayable",
      "type": "function"
    },
    {
      "inputs": [
        {
          "internalType": "uint256",
          "name": "nftID",
          "type": "uint256"
        }
      ],
      "name": "isStakingExist",
      "outputs": [
        {
          "internalType": "bool",
          "name": "",
          "type": "bool"
        }
      ],
      "stateMutability": "view",
      "type": "function"
    },
    {
      "inputs": [],
      "name": "nft_address",
      "outputs": [
        {
          "internalType": "address",
          "name": "",
          "type": "address"
        }
      ],
      "stateMutability": "view",
      "type": "function"
    },
    {
      "inputs": [],
      "name": "owner",
      "outputs": [
        {
          "internalType": "address",
          "name": "",
          "type": "address"
        }
      ],
      "stateMutability": "view",
      "type": "function"
    },
    {
      "inputs": [],
      "name": "renounceOwnership",
      "outputs": [],
      "stateMutability": "nonpayable",
      "type": "function"
    },
    {
      "inputs": [
        {
          "internalType": "address",
          "name": "_nft_address",
          "type": "address"
        }
      ],
      "name": "setNFTAddress",
      "outputs": [],
      "stateMutability": "nonpayable",
      "type": "function"
    },
    {
      "inputs": [
        {
          "internalType": "address",
          "name": "_token_address",
          "type": "address"
        }
      ],
      "name": "setTokenAddress",
      "outputs": [],
      "stateMutability": "nonpayable",
      "type": "function"
    },
    {
      "inputs": [
        {
          "internalType": "uint256",
          "name": "nftID",
          "type": "uint256"
        },
        {
          "internalType": "uint256",
          "name": "stakeType",
          "type": "uint256"
        }
      ],
      "name": "stakeNFT",
      "outputs": [],
      "stateMutability": "nonpayable",
      "type": "function"
    },
    {
      "inputs": [
        {
          "internalType": "uint256",
          "name": "",
          "type": "uint256"
        }
      ],
      "name": "stakeTypeList",
      "outputs": [
        {
          "internalType": "uint256",
          "name": "id",
          "type": "uint256"
        },
        {
          "internalType": "uint256",
          "name": "period",
          "type": "uint256"
        },
        {
          "internalType": "uint256",
          "name": "amount",
          "type": "uint256"
        },
        {
          "internalType": "uint256",
          "name": "multiplier",
          "type": "uint256"
        }
      ],
      "stateMutability": "view",
      "type": "function"
    },
    {
      "inputs": [],
      "name": "token_address",
      "outputs": [
        {
          "internalType": "address",
          "name": "",
          "type": "address"
        }
      ],
      "stateMutability": "view",
      "type": "function"
    },
    {
      "inputs": [
        {
          "internalType": "address",
          "name": "newOwner",
          "type": "address"
        }
      ],
      "name": "transferOwnership",
      "outputs": [],
      "stateMutability": "nonpayable",
      "type": "function"
    },
    {
      "inputs": [
        {
          "internalType": "uint256",
          "name": "index",
          "type": "uint256"
        },
        {
          "internalType": "uint256",
          "name": "period",
          "type": "uint256"
        },
        {
          "internalType": "uint256",
          "name": "amount",
          "type": "uint256"
        },
        {
          "internalType": "uint256",
          "name": "multiplier",
          "type": "uint256"
        }
      ],
      "name": "updateStakeType",
      "outputs": [],
      "stateMutability": "nonpayable",
      "type": "function"
    },
    {
      "inputs": [
        {
          "internalType": "uint256",
          "name": "nftID",
          "type": "uint256"
        }
      ],
      "name": "withdrawStaker",
      "outputs": [],
      "stateMutability": "nonpayable",
      "type": "function"
    },
    {
      "inputs": [
        {
          "internalType": "uint256",
          "name": "nftID",
          "type": "uint256"
        }
      ],
      "name": "withdrawToken",
      "outputs": [],
      "stateMutability": "nonpayable",
      "type": "function"
    }
  ],
  "bytecode": "0x60806040523480156200001157600080fd5b5062000032620000266200003860201b60201c565b6200004060201b60201c565b62000104565b600033905090565b60008060009054906101000a900473ffffffffffffffffffffffffffffffffffffffff169050816000806101000a81548173ffffffffffffffffffffffffffffffffffffffff021916908373ffffffffffffffffffffffffffffffffffffffff1602179055508173ffffffffffffffffffffffffffffffffffffffff168173ffffffffffffffffffffffffffffffffffffffff167f8be0079c531659141344cd1fd0a4f28419497f9722a3daafe3b4186f6b6457e060405160405180910390a35050565b6128aa80620001146000396000f3fe608060405234801561001057600080fd5b50600436106100f55760003560e01c80638a44efcb11610097578063c78de70911610066578063c78de70914610237578063cbf6e46414610255578063ea9fb0c314610288578063f2fde38b146102b8576100f5565b80638a44efcb146101c35780638c8e8fee146101df5780638da5cb5b146101fd578063aaa269c51461021b576100f5565b806350baa622116100d357806350baa6221461016557806351cecc801461018157806369d037381461019d578063715018a6146101b9576100f5565b8063047b7b41146100fa57806326a4e8d21461012d5780634ec80a4c14610149575b600080fd5b610114600480360381019061010f9190611c31565b6102d4565b60405161012494939291906122d0565b60405180910390f35b61014760048036038101906101429190611bdf565b610324565b005b610163600480360381019061015e9190611d0e565b6103e0565b005b61017f600480360381019061017a9190611c31565b61056a565b005b61019b60048036038101906101969190611c83565b610879565b005b6101b760048036038101906101b29190611bdf565b6112ca565b005b6101c1611386565b005b6101dd60048036038101906101d89190611c31565b61139a565b005b6101e761149b565b6040516101f49190611ff1565b60405180910390f35b6102056114c1565b6040516102129190611ff1565b60405180910390f35b61023560048036038101906102309190611cbf565b6114ea565b005b61023f6115b9565b60405161024c9190611ff1565b60405180910390f35b61026f600480360381019061026a9190611c31565b6115df565b60405161027f9493929190612315565b60405180910390f35b6102a2600480360381019061029d9190611c31565b61161f565b6040516102af9190612095565b60405180910390f35b6102d260048036038101906102cd9190611bdf565b6117aa565b005b60046020528060005260406000206000915090508060000154908060010154908060020154908060030160009054906101000a900473ffffffffffffffffffffffffffffffffffffffff16905084565b61032c61182e565b600073ffffffffffffffffffffffffffffffffffffffff168173ffffffffffffffffffffffffffffffffffffffff16141561039c576040517f08c379a0000000000000000000000000000000000000000000000000000000008152600401610393906120b0565b60405180910390fd5b80600160006101000a81548173ffffffffffffffffffffffffffffffffffffffff021916908373ffffffffffffffffffffffffffffffffffffffff16021790555050565b6103e861182e565b600380549050841061042f576040517f08c379a000000000000000000000000000000000000000000000000000000000815260040161042690612110565b60405180910390fd5b612710811015610474576040517f08c379a000000000000000000000000000000000000000000000000000000000815260040161046b906122b0565b60405180910390fd5b82600385815481106104af577f4e487b7100000000000000000000000000000000000000000000000000000000600052603260045260246000fd5b90600052602060002090600402016001018190555081600385815481106104ff577f4e487b7100000000000000000000000000000000000000000000000000000000600052603260045260246000fd5b906000526020600020906004020160020181905550806003858154811061054f577f4e487b7100000000000000000000000000000000000000000000000000000000600052603260045260246000fd5b90600052602060002090600402016003018190555050505050565b600115156105778261161f565b1515146105b9576040517f08c379a00000000000000000000000000000000000000000000000000000000081526004016105b090612210565b60405180910390fd5b600073ffffffffffffffffffffffffffffffffffffffff166004600083815260200190815260200160002060030160009054906101000a900473ffffffffffffffffffffffffffffffffffffffff1673ffffffffffffffffffffffffffffffffffffffff16141561065f576040517f08c379a000000000000000000000000000000000000000000000000000000000815260040161065690612270565b60405180910390fd5b600060046000838152602001908152602001600020600001549050600381815481106106b4577f4e487b7100000000000000000000000000000000000000000000000000000000600052603260045260246000fd5b90600052602060002090600402016002015460046000848152602001908152602001600020600201541161071d576040517f08c379a000000000000000000000000000000000000000000000000000000000815260040161071490612150565b60405180910390fd5b600060038281548110610759577f4e487b7100000000000000000000000000000000000000000000000000000000600052603260045260246000fd5b906000526020600020906004020160020154600460008581526020019081526020016000206002015461078c91906123c1565b9050600160009054906101000a900473ffffffffffffffffffffffffffffffffffffffff1673ffffffffffffffffffffffffffffffffffffffff1663a9059cbb6004600086815260200190815260200160002060030160009054906101000a900473ffffffffffffffffffffffffffffffffffffffff16836040518363ffffffff1660e01b815260040161082192919061206c565b602060405180830381600087803b15801561083b57600080fd5b505af115801561084f573d6000803e3d6000fd5b505050506040513d601f19601f820116820180604052508101906108739190611c08565b50505050565b81600260009054906101000a900473ffffffffffffffffffffffffffffffffffffffff1673ffffffffffffffffffffffffffffffffffffffff1663e327a6af33836040518363ffffffff1660e01b81526004016108d792919061206c565b60206040518083038186803b1580156108ef57600080fd5b505afa158015610903573d6000803e3d6000fd5b505050506040513d601f19601f820116820180604052508101906109279190611c08565b610966576040517f08c379a000000000000000000000000000000000000000000000000000000000815260040161095d906121b0565b60405180910390fd5b61096f8161161f565b15806109dc57503373ffffffffffffffffffffffffffffffffffffffff166004600083815260200190815260200160002060030160009054906101000a900473ffffffffffffffffffffffffffffffffffffffff1673ffffffffffffffffffffffffffffffffffffffff16145b610a1b576040517f08c379a0000000000000000000000000000000000000000000000000000000008152600401610a1290612130565b60405180910390fd5b6003805490508210610a62576040517f08c379a0000000000000000000000000000000000000000000000000000000008152600401610a5990612250565b60405180910390fd5b600060038381548110610a9e577f4e487b7100000000000000000000000000000000000000000000000000000000600052603260045260246000fd5b9060005260206000209060040201600201549050600060038481548110610aee577f4e487b7100000000000000000000000000000000000000000000000000000000600052603260045260246000fd5b9060005260206000209060040201600101549050610b0b8561161f565b156110725760006004600087815260200190815260200160002060030160009054906101000a900473ffffffffffffffffffffffffffffffffffffffff1690503373ffffffffffffffffffffffffffffffffffffffff168173ffffffffffffffffffffffffffffffffffffffff1614610bb9576040517f08c379a0000000000000000000000000000000000000000000000000000000008152600401610bb0906121d0565b60405180910390fd5b600060046000888152602001908152602001600020600001549050600060038281548110610c10577f4e487b7100000000000000000000000000000000000000000000000000000000600052603260045260246000fd5b9060005260206000209060040201600201549050600060038381548110610c60577f4e487b7100000000000000000000000000000000000000000000000000000000600052603260045260246000fd5b9060005260206000209060040201600101549050858211158015610c845750848111155b610cc3576040517f08c379a0000000000000000000000000000000000000000000000000000000008152600401610cba90612190565b60405180910390fd5b6000600460008b815260200190815260200160002060020154905080831115610d21576040517f08c379a0000000000000000000000000000000000000000000000000000000008152600401610d1890612230565b60405180910390fd5b6000818811610d31576000610d3e565b8188610d3d91906123c1565b5b905080600160009054906101000a900473ffffffffffffffffffffffffffffffffffffffff1673ffffffffffffffffffffffffffffffffffffffff1663dd62ed3e33306040518363ffffffff1660e01b8152600401610d9e92919061200c565b60206040518083038186803b158015610db657600080fd5b505afa158015610dca573d6000803e3d6000fd5b505050506040513d601f19601f82011682018060405250810190610dee9190611c5a565b1015610e2f576040517f08c379a0000000000000000000000000000000000000000000000000000000008152600401610e2690612170565b60405180910390fd5b6000811115610eeb57600160009054906101000a900473ffffffffffffffffffffffffffffffffffffffff1673ffffffffffffffffffffffffffffffffffffffff166323b872dd3330846040518463ffffffff1660e01b8152600401610e9793929190612035565b602060405180830381600087803b158015610eb157600080fd5b505af1158015610ec5573d6000803e3d6000fd5b505050506040513d601f19601f82011682018060405250810190610ee99190611c08565b505b6000888383610efa919061236b565b610f0491906123c1565b90506000811115610fc057600160009054906101000a900473ffffffffffffffffffffffffffffffffffffffff1673ffffffffffffffffffffffffffffffffffffffff1663a9059cbb33836040518363ffffffff1660e01b8152600401610f6c92919061206c565b602060405180830381600087803b158015610f8657600080fd5b505af1158015610f9a573d6000803e3d6000fd5b505050506040513d601f19601f82011682018060405250810190610fbe9190611c08565b505b88600460008e8152602001908152602001600020600201819055508a600460008e81526020019081526020016000206000018190555033600460008e815260200190815260200160002060030160006101000a81548173ffffffffffffffffffffffffffffffffffffffff021916908373ffffffffffffffffffffffffffffffffffffffff16021790555042600460008e815260200190815260200160002060010181905550505050505050506112c3565b61107b856118ac565b81600160009054906101000a900473ffffffffffffffffffffffffffffffffffffffff1673ffffffffffffffffffffffffffffffffffffffff1663dd62ed3e33306040518363ffffffff1660e01b81526004016110d992919061200c565b60206040518083038186803b1580156110f157600080fd5b505afa158015611105573d6000803e3d6000fd5b505050506040513d601f19601f820116820180604052508101906111299190611c5a565b101561116a576040517f08c379a000000000000000000000000000000000000000000000000000000000815260040161116190612170565b60405180910390fd5b600160009054906101000a900473ffffffffffffffffffffffffffffffffffffffff1673ffffffffffffffffffffffffffffffffffffffff166323b872dd3330856040518463ffffffff1660e01b81526004016111c993929190612035565b602060405180830381600087803b1580156111e357600080fd5b505af11580156111f7573d6000803e3d6000fd5b505050506040513d601f19601f8201168201806040525081019061121b9190611c08565b50336004600087815260200190815260200160002060030160006101000a81548173ffffffffffffffffffffffffffffffffffffffff021916908373ffffffffffffffffffffffffffffffffffffffff1602179055508160046000878152602001908152602001600020600201819055508360046000878152602001908152602001600020600001819055504260046000878152602001908152602001600020600101819055505b5050505050565b6112d261182e565b600073ffffffffffffffffffffffffffffffffffffffff168173ffffffffffffffffffffffffffffffffffffffff161415611342576040517f08c379a0000000000000000000000000000000000000000000000000000000008152600401611339906120d0565b60405180910390fd5b80600260006101000a81548173ffffffffffffffffffffffffffffffffffffffff021916908373ffffffffffffffffffffffffffffffffffffffff16021790555050565b61138e61182e565b6113986000611a97565b565b600015156113a78261161f565b1515146113e9576040517f08c379a00000000000000000000000000000000000000000000000000000000081526004016113e090612290565b60405180910390fd5b600073ffffffffffffffffffffffffffffffffffffffff166004600083815260200190815260200160002060030160009054906101000a900473ffffffffffffffffffffffffffffffffffffffff1673ffffffffffffffffffffffffffffffffffffffff16141561148f576040517f08c379a000000000000000000000000000000000000000000000000000000000815260040161148690612150565b60405180910390fd5b611498816118ac565b50565b600160009054906101000a900473ffffffffffffffffffffffffffffffffffffffff1681565b60008060009054906101000a900473ffffffffffffffffffffffffffffffffffffffff16905090565b6114f261182e565b612710811015611537576040517f08c379a000000000000000000000000000000000000000000000000000000000815260040161152e906122b0565b60405180910390fd5b61153f611b63565b838160200181815250508281604001818152505081816060018181525050600381908060018154018082558091505060019003906000526020600020906004020160009091909190915060008201518160000155602082015181600101556040820151816002015560608201518160030155505050505050565b600260009054906101000a900473ffffffffffffffffffffffffffffffffffffffff1681565b600381815481106115ef57600080fd5b90600052602060002090600402016000915090508060000154908060010154908060020154908060030154905084565b60008073ffffffffffffffffffffffffffffffffffffffff166004600084815260200190815260200160002060030160009054906101000a900473ffffffffffffffffffffffffffffffffffffffff1673ffffffffffffffffffffffffffffffffffffffff16141561169457600090506117a5565b600060046000848152602001908152602001600020600001549050600381815481106116e9577f4e487b7100000000000000000000000000000000000000000000000000000000600052603260045260246000fd5b906000526020600020906004020160020154600460008581526020019081526020016000206002015410156117225760009150506117a5565b6003818154811061175c577f4e487b7100000000000000000000000000000000000000000000000000000000600052603260045260246000fd5b90600052602060002090600402016001015460046000858152602001908152602001600020600101544261179091906123c1565b1061179f5760009150506117a5565b60019150505b919050565b6117b261182e565b600073ffffffffffffffffffffffffffffffffffffffff168173ffffffffffffffffffffffffffffffffffffffff161415611822576040517f08c379a0000000000000000000000000000000000000000000000000000000008152600401611819906120f0565b60405180910390fd5b61182b81611a97565b50565b611836611b5b565b73ffffffffffffffffffffffffffffffffffffffff166118546114c1565b73ffffffffffffffffffffffffffffffffffffffff16146118aa576040517f08c379a00000000000000000000000000000000000000000000000000000000081526004016118a1906121f0565b60405180910390fd5b565b60006004600083815260200190815260200160002060030160009054906101000a900473ffffffffffffffffffffffffffffffffffffffff169050600073ffffffffffffffffffffffffffffffffffffffff168173ffffffffffffffffffffffffffffffffffffffff1614156119225750611a94565b600160009054906101000a900473ffffffffffffffffffffffffffffffffffffffff1673ffffffffffffffffffffffffffffffffffffffff1663a9059cbb8260046000868152602001908152602001600020600201546040518363ffffffff1660e01b815260040161199592919061206c565b602060405180830381600087803b1580156119af57600080fd5b505af11580156119c3573d6000803e3d6000fd5b505050506040513d601f19601f820116820180604052508101906119e79190611c08565b50600060046000848152602001908152602001600020600001819055506000600460008481526020019081526020016000206001018190555060006004600084815260200190815260200160002060030160006101000a81548173ffffffffffffffffffffffffffffffffffffffff021916908373ffffffffffffffffffffffffffffffffffffffff16021790555060006004600084815260200190815260200160002060020181905550505b50565b60008060009054906101000a900473ffffffffffffffffffffffffffffffffffffffff169050816000806101000a81548173ffffffffffffffffffffffffffffffffffffffff021916908373ffffffffffffffffffffffffffffffffffffffff1602179055508173ffffffffffffffffffffffffffffffffffffffff168173ffffffffffffffffffffffffffffffffffffffff167f8be0079c531659141344cd1fd0a4f28419497f9722a3daafe3b4186f6b6457e060405160405180910390a35050565b600033905090565b6040518060800160405280600081526020016000815260200160008152602001600081525090565b600081359050611b9a8161282f565b92915050565b600081519050611baf81612846565b92915050565b600081359050611bc48161285d565b92915050565b600081519050611bd98161285d565b92915050565b600060208284031215611bf157600080fd5b6000611bff84828501611b8b565b91505092915050565b600060208284031215611c1a57600080fd5b6000611c2884828501611ba0565b91505092915050565b600060208284031215611c4357600080fd5b6000611c5184828501611bb5565b91505092915050565b600060208284031215611c6c57600080fd5b6000611c7a84828501611bca565b91505092915050565b60008060408385031215611c9657600080fd5b6000611ca485828601611bb5565b9250506020611cb585828601611bb5565b9150509250929050565b600080600060608486031215611cd457600080fd5b6000611ce286828701611bb5565b9350506020611cf386828701611bb5565b9250506040611d0486828701611bb5565b9150509250925092565b60008060008060808587031215611d2457600080fd5b6000611d3287828801611bb5565b9450506020611d4387828801611bb5565b9350506040611d5487828801611bb5565b9250506060611d6587828801611bb5565b91505092959194509250565b611d7a816123f5565b82525050565b611d8981612407565b82525050565b6000611d9c60158361235a565b9150611da78261246c565b602082019050919050565b6000611dbf60138361235a565b9150611dca82612495565b602082019050919050565b6000611de260268361235a565b9150611ded826124be565b604082019050919050565b6000611e05602e8361235a565b9150611e108261250d565b604082019050919050565b6000611e2860198361235a565b9150611e338261255c565b602082019050919050565b6000611e4b60148361235a565b9150611e5682612585565b602082019050919050565b6000611e6e602c8361235a565b9150611e79826125ae565b604082019050919050565b6000611e9160178361235a565b9150611e9c826125fd565b602082019050919050565b6000611eb4601c8361235a565b9150611ebf82612626565b602082019050919050565b6000611ed760148361235a565b9150611ee28261264f565b602082019050919050565b6000611efa60208361235a565b9150611f0582612678565b602082019050919050565b6000611f1d602c8361235a565b9150611f28826126a1565b604082019050919050565b6000611f4060378361235a565b9150611f4b826126f0565b604082019050919050565b6000611f6360328361235a565b9150611f6e8261273f565b604082019050919050565b6000611f86600e8361235a565b9150611f918261278e565b602082019050919050565b6000611fa9601f8361235a565b9150611fb4826127b7565b602082019050919050565b6000611fcc60258361235a565b9150611fd7826127e0565b604082019050919050565b611feb81612433565b82525050565b60006020820190506120066000830184611d71565b92915050565b60006040820190506120216000830185611d71565b61202e6020830184611d71565b9392505050565b600060608201905061204a6000830186611d71565b6120576020830185611d71565b6120646040830184611fe2565b949350505050565b60006040820190506120816000830185611d71565b61208e6020830184611fe2565b9392505050565b60006020820190506120aa6000830184611d80565b92915050565b600060208201905081810360008301526120c981611d8f565b9050919050565b600060208201905081810360008301526120e981611db2565b9050919050565b6000602082019050818103600083015261210981611dd5565b9050919050565b6000602082019050818103600083015261212981611df8565b9050919050565b6000602082019050818103600083015261214981611e1b565b9050919050565b6000602082019050818103600083015261216981611e3e565b9050919050565b6000602082019050818103600083015261218981611e61565b9050919050565b600060208201905081810360008301526121a981611e84565b9050919050565b600060208201905081810360008301526121c981611ea7565b9050919050565b600060208201905081810360008301526121e981611eca565b9050919050565b6000602082019050818103600083015261220981611eed565b9050919050565b6000602082019050818103600083015261222981611f10565b9050919050565b6000602082019050818103600083015261224981611f33565b9050919050565b6000602082019050818103600083015261226981611f56565b9050919050565b6000602082019050818103600083015261228981611f79565b9050919050565b600060208201905081810360008301526122a981611f9c565b9050919050565b600060208201905081810360008301526122c981611fbf565b9050919050565b60006080820190506122e56000830187611fe2565b6122f26020830186611fe2565b6122ff6040830185611fe2565b61230c6060830184611d71565b95945050505050565b600060808201905061232a6000830187611fe2565b6123376020830186611fe2565b6123446040830185611fe2565b6123516060830184611fe2565b95945050505050565b600082825260208201905092915050565b600061237682612433565b915061238183612433565b9250827fffffffffffffffffffffffffffffffffffffffffffffffffffffffffffffffff038211156123b6576123b561243d565b5b828201905092915050565b60006123cc82612433565b91506123d783612433565b9250828210156123ea576123e961243d565b5b828203905092915050565b600061240082612413565b9050919050565b60008115159050919050565b600073ffffffffffffffffffffffffffffffffffffffff82169050919050565b6000819050919050565b7f4e487b7100000000000000000000000000000000000000000000000000000000600052601160045260246000fd5b7f696e76616c696420746f6b656e20616464726573730000000000000000000000600082015250565b7f696e76616c6964206e6674206164647265737300000000000000000000000000600082015250565b7f4f776e61626c653a206e6577206f776e657220697320746865207a65726f206160008201527f6464726573730000000000000000000000000000000000000000000000000000602082015250565b7f696e6465782073686f756c64206265206c657373207468616e207374616b655460008201527f7970654c6973742e6c656e677468000000000000000000000000000000000000602082015250565b7f5374616b657220697320616e6f7468657220706572736f6e2e00000000000000600082015250565b7f4e6f7468696e6720746f2077697468647261772e000000000000000000000000600082015250565b7f526571756972656420416d6f756e74206f6620546f6b656e732073686f756c6460008201527f20626520616c6c6f7765642e0000000000000000000000000000000000000000602082015250565b7f43616e206f6e6c792062652075706772616461626c652e000000000000000000600082015250565b7f596f752073686f756c6420626520746865204e4654204f776e65722e00000000600082015250565b7f5374616b657220616c7265616479206578697374000000000000000000000000600082015250565b7f4f776e61626c653a2063616c6c6572206973206e6f7420746865206f776e6572600082015250565b7f43616c6c2077697468647261775374616b657220696e73746561644f6620776960008201527f746864726177546f6b656e2e0000000000000000000000000000000000000000602082015250565b7f496e7465726e616c204572726f723a206f6c64416d6f756e742073686f756c6460008201527f206265206c657373207468616e20637572416d6f756e74000000000000000000602082015250565b7f7374616b65547970652073686f756c64206265206c657373207468616e20737460008201527f616b65547970654c6973742e6c656e6774680000000000000000000000000000602082015250565b7f6e6f207374616b65722068657265000000000000000000000000000000000000600082015250565b7f43616e6e6f74207769746864726177207374616b696e6720546f6b656e732e00600082015250565b7f4d756c7469706c6965722073686f756c6420626520677265617465722074686160008201527f6e20312e30000000000000000000000000000000000000000000000000000000602082015250565b612838816123f5565b811461284357600080fd5b50565b61284f81612407565b811461285a57600080fd5b50565b61286681612433565b811461287157600080fd5b5056fea264697066735822122008cb5600232ad1310c16715f42ef18c1c3a52c86f112648b157ab9b12a0704dc64736f6c63430008040033",
  "linkReferences": {},
  "deployedLinkReferences": {}
}