{
  "_format": "hh-sol-artifact-1",
  "contractName": "ElumNFT",
  "sourceName": "contracts/ElumNFT.sol",
  "abi": [
    {
      "anonymous": false,
      "inputs": [
        {
          "indexed": true,
          "internalType": "address",
          "name": "previousOwner",
          "type": "address"
        },
        {
          "indexed": true,
          "internalType": "address",
          "name": "newOwner",
          "type": "address"
        }
      ],
      "name": "OwnershipTransferred",
      "type": "event"
    },
    {
      "inputs": [],
      "name": "NFT_ID_COUNTER",
      "outputs": [
        {
          "internalType": "uint256",
          "name": "",
          "type": "uint256"
        }
      ],
      "stateMutability": "view",
      "type": "function"
    },
    {
      "inputs": [
        {
          "internalType": "uint256",
          "name": "",
          "type": "uint256"
        }
      ],
      "name": "NFT_TO_INFO",
      "outputs": [
        {
          "internalType": "address",
          "name": "owner",
          "type": "address"
        },
        {
          "internalType": "uint256",
          "name": "nftType",
          "type": "uint256"
        },
        {
          "internalType": "uint256",
          "name": "acquireTime",
          "type": "uint256"
        },
        {
          "internalType": "uint256",
          "name": "index",
          "type": "uint256"
        }
      ],
      "stateMutability": "view",
      "type": "function"
    },
    {
      "inputs": [],
      "name": "NFT_TYPE_COUNTER",
      "outputs": [
        {
          "internalType": "uint256",
          "name": "",
          "type": "uint256"
        }
      ],
      "stateMutability": "view",
      "type": "function"
    },
    {
      "inputs": [
        {
          "internalType": "uint256",
          "name": "",
          "type": "uint256"
        }
      ],
      "name": "NFT_TYPE_INFO",
      "outputs": [
        {
          "internalType": "string",
          "name": "metadataURI",
          "type": "string"
        },
        {
          "internalType": "uint256",
          "name": "price",
          "type": "uint256"
        },
        {
          "internalType": "uint256",
          "name": "totalSupply",
          "type": "uint256"
        },
        {
          "internalType": "uint256",
          "name": "remainSupply",
          "type": "uint256"
        }
      ],
      "stateMutability": "view",
      "type": "function"
    },
    {
      "inputs": [
        {
          "internalType": "string",
          "name": "metadataURI",
          "type": "string"
        },
        {
          "internalType": "uint256",
          "name": "price",
          "type": "uint256"
        }
      ],
      "name": "addNewType",
      "outputs": [
        {
          "internalType": "uint256",
          "name": "",
          "type": "uint256"
        }
      ],
      "stateMutability": "nonpayable",
      "type": "function"
    },
    {
      "inputs": [
        {
          "internalType": "address",
          "name": "_address",
          "type": "address"
        }
      ],
      "name": "balanceOf",
      "outputs": [
        {
          "internalType": "uint256[]",
          "name": "",
          "type": "uint256[]"
        }
      ],
      "stateMutability": "view",
      "type": "function"
    },
    {
      "inputs": [
        {
          "internalType": "uint256",
          "name": "nftType",
          "type": "uint256"
        },
        {
          "internalType": "uint256",
          "name": "amount",
          "type": "uint256"
        }
      ],
      "name": "buyNFT",
      "outputs": [
        {
          "internalType": "bool",
          "name": "",
          "type": "bool"
        }
      ],
      "stateMutability": "payable",
      "type": "function"
    },
    {
      "inputs": [
        {
          "internalType": "address",
          "name": "_address",
          "type": "address"
        }
      ],
      "name": "getAcquiredTime",
      "outputs": [
        {
          "internalType": "uint256",
          "name": "",
          "type": "uint256"
        }
      ],
      "stateMutability": "view",
      "type": "function"
    },
    {
      "inputs": [],
      "name": "getNFTTypeInfo",
      "outputs": [
        {
          "components": [
            {
              "internalType": "string",
              "name": "metadataURI",
              "type": "string"
            },
            {
              "internalType": "uint256",
              "name": "price",
              "type": "uint256"
            },
            {
              "internalType": "uint256",
              "name": "totalSupply",
              "type": "uint256"
            },
            {
              "internalType": "uint256",
              "name": "remainSupply",
              "type": "uint256"
            }
          ],
          "internalType": "struct NFT_TYPE[]",
          "name": "",
          "type": "tuple[]"
        }
      ],
      "stateMutability": "view",
      "type": "function"
    },
    {
      "inputs": [],
      "name": "getTotalNFT",
      "outputs": [
        {
          "internalType": "uint256",
          "name": "",
          "type": "uint256"
        }
      ],
      "stateMutability": "view",
      "type": "function"
    },
    {
      "inputs": [
        {
          "internalType": "address",
          "name": "_address",
          "type": "address"
        },
        {
          "internalType": "uint256",
          "name": "nftID",
          "type": "uint256"
        }
      ],
      "name": "isOwner",
      "outputs": [
        {
          "internalType": "bool",
          "name": "",
          "type": "bool"
        }
      ],
      "stateMutability": "view",
      "type": "function"
    },
    {
      "inputs": [
        {
          "internalType": "uint256[]",
          "name": "ids",
          "type": "uint256[]"
        },
        {
          "internalType": "uint256[]",
          "name": "amounts",
          "type": "uint256[]"
        }
      ],
      "name": "mint",
      "outputs": [
        {
          "internalType": "bool",
          "name": "",
          "type": "bool"
        }
      ],
      "stateMutability": "nonpayable",
      "type": "function"
    },
    {
      "inputs": [],
      "name": "owner",
      "outputs": [
        {
          "internalType": "address",
          "name": "",
          "type": "address"
        }
      ],
      "stateMutability": "view",
      "type": "function"
    },
    {
      "inputs": [],
      "name": "renounceOwnership",
      "outputs": [],
      "stateMutability": "nonpayable",
      "type": "function"
    },
    {
      "inputs": [
        {
          "internalType": "address",
          "name": "_token_address",
          "type": "address"
        }
      ],
      "name": "setTokenAddress",
      "outputs": [],
      "stateMutability": "nonpayable",
      "type": "function"
    },
    {
      "inputs": [],
      "name": "token_address",
      "outputs": [
        {
          "internalType": "address",
          "name": "",
          "type": "address"
        }
      ],
      "stateMutability": "view",
      "type": "function"
    },
    {
      "inputs": [
        {
          "internalType": "uint256[]",
          "name": "ids",
          "type": "uint256[]"
        },
        {
          "internalType": "address",
          "name": "to",
          "type": "address"
        }
      ],
      "name": "transferNFT",
      "outputs": [],
      "stateMutability": "nonpayable",
      "type": "function"
    },
    {
      "inputs": [
        {
          "internalType": "address",
          "name": "newOwner",
          "type": "address"
        }
      ],
      "name": "transferOwnership",
      "outputs": [],
      "stateMutability": "nonpayable",
      "type": "function"
    },
    {
      "inputs": [
        {
          "internalType": "uint256",
          "name": "nftID",
          "type": "uint256"
        },
        {
          "internalType": "string",
          "name": "metadataURI",
          "type": "string"
        },
        {
          "internalType": "uint256",
          "name": "price",
          "type": "uint256"
        }
      ],
      "name": "updateType",
      "outputs": [],
      "stateMutability": "nonpayable",
      "type": "function"
    }
  ],
  "bytecode": "0x6080604052600060015560006002553480156200001b57600080fd5b506200003c620000306200004260201b60201c565b6200004a60201b60201c565b6200010e565b600033905090565b60008060009054906101000a900473ffffffffffffffffffffffffffffffffffffffff169050816000806101000a81548173ffffffffffffffffffffffffffffffffffffffff021916908373ffffffffffffffffffffffffffffffffffffffff1602179055508173ffffffffffffffffffffffffffffffffffffffff168173ffffffffffffffffffffffffffffffffffffffff167f8be0079c531659141344cd1fd0a4f28419497f9722a3daafe3b4186f6b6457e060405160405180910390a35050565b612e08806200011e6000396000f3fe6080604052600436106101145760003560e01c8063715018a6116100a0578063e327a6af11610064578063e327a6af146103ac578063e832565b146103e9578063f2fde38b14610426578063fcc2278b1461044f578063ffc47c591461048c57610114565b8063715018a6146102eb5780638c8e8fee146103025780638da5cb5b1461032d578063bcf16f2d14610358578063e2bea1ec1461038357610114565b806326a4e8d2116100e757806326a4e8d2146101f4578063337b81f61461021d5780633d5d190c146102465780636b01e7511461028357806370a08231146102ae57610114565b806303356c4014610119578063047b7b411461015957806305f693cf146101995780631d85bf03146101c4575b600080fd5b34801561012557600080fd5b50610140600480360381019061013b9190611f57565b6104b7565b6040516101509493929190612504565b60405180910390f35b34801561016557600080fd5b50610180600480360381019061017b9190611f57565b61057f565b6040516101909493929190612460565b60405180910390f35b3480156101a557600080fd5b506101ae6105cf565b6040516101bb91906124a5565b60405180910390f35b6101de60048036038101906101d99190611fec565b6106de565b6040516101eb91906124e9565b60405180910390f35b34801561020057600080fd5b5061021b60048036038101906102169190611dcd565b610a4a565b005b34801561022957600080fd5b50610244600480360381019061023f9190611f80565b610b06565b005b34801561025257600080fd5b5061026d60048036038101906102689190611e8a565b610ca5565b60405161027a91906124e9565b60405180910390f35b34801561028f57600080fd5b50610298610f68565b6040516102a59190612730565b60405180910390f35b3480156102ba57600080fd5b506102d560048036038101906102d09190611dcd565b610f6e565b6040516102e291906124c7565b60405180910390f35b3480156102f757600080fd5b50610300611008565b005b34801561030e57600080fd5b5061031761101c565b6040516103249190612445565b60405180910390f35b34801561033957600080fd5b50610342611042565b60405161034f9190612445565b60405180910390f35b34801561036457600080fd5b5061036d61106b565b60405161037a9190612730565b60405180910390f35b34801561038f57600080fd5b506103aa60048036038101906103a59190611e32565b611075565b005b3480156103b857600080fd5b506103d360048036038101906103ce9190611df6565b61172e565b6040516103e091906124e9565b60405180910390f35b3480156103f557600080fd5b50610410600480360381019061040b9190611dcd565b611851565b60405161041d9190612730565b60405180910390f35b34801561043257600080fd5b5061044d60048036038101906104489190611dcd565b6118d4565b005b34801561045b57600080fd5b5061047660048036038101906104719190611eff565b611958565b6040516104839190612730565b60405180910390f35b34801561049857600080fd5b506104a1611a6e565b6040516104ae9190612730565b60405180910390f35b600381815481106104c757600080fd5b90600052602060002090600402016000915090508060000180546104ea90612949565b80601f016020809104026020016040519081016040528092919081815260200182805461051690612949565b80156105635780601f1061053857610100808354040283529160200191610563565b820191906000526020600020905b81548152906001019060200180831161054657829003601f168201915b5050505050908060010154908060020154908060030154905084565b60056020528060005260406000206000915090508060000160009054906101000a900473ffffffffffffffffffffffffffffffffffffffff16908060010154908060020154908060030154905084565b60606003805480602002602001604051908101604052809291908181526020016000905b828210156106d5578382906000526020600020906004020160405180608001604052908160008201805461062690612949565b80601f016020809104026020016040519081016040528092919081815260200182805461065290612949565b801561069f5780601f106106745761010080835404028352916020019161069f565b820191906000526020600020905b81548152906001019060200180831161068257829003601f168201915b505050505081526020016001820154815260200160028201548152602001600382015481525050815260200190600101906105f3565b50505050905090565b60006001548310610724576040517f08c379a000000000000000000000000000000000000000000000000000000000815260040161071b90612650565b60405180910390fd5b816003848154811061075f577f4e487b7100000000000000000000000000000000000000000000000000000000600052603260045260246000fd5b90600052602060002090600402016003015410156107b2576040517f08c379a00000000000000000000000000000000000000000000000000000000081526004016107a9906126d0565b60405180910390fd5b600383815481106107ec577f4e487b7100000000000000000000000000000000000000000000000000000000600052603260045260246000fd5b906000526020600020906004020160010154826108099190612840565b34101561084b576040517f08c379a0000000000000000000000000000000000000000000000000000000008152600401610842906125d0565b60405180910390fd5b60005b828110156109dd573360056000600254815260200190815260200160002060000160006101000a81548173ffffffffffffffffffffffffffffffffffffffff021916908373ffffffffffffffffffffffffffffffffffffffff16021790555083600560006002548152602001908152602001600020600101819055504260056000600254815260200190815260200160002060020181905550600460003373ffffffffffffffffffffffffffffffffffffffff1673ffffffffffffffffffffffffffffffffffffffff1681526020019081526020016000206000018054905060056000600254815260200190815260200160002060030181905550600460003373ffffffffffffffffffffffffffffffffffffffff1673ffffffffffffffffffffffffffffffffffffffff16815260200190815260200160002060000160025490806001815401808255809150506001900390600052602060002001600090919091909150556002600081546109c39061297b565b9190508190555080806109d59061297b565b91505061084e565b508160038481548110610a19577f4e487b7100000000000000000000000000000000000000000000000000000000600052603260045260246000fd5b90600052602060002090600402016003016000828254610a39919061289a565b925050819055506001905092915050565b610a52611a74565b600073ffffffffffffffffffffffffffffffffffffffff168173ffffffffffffffffffffffffffffffffffffffff161415610ac2576040517f08c379a0000000000000000000000000000000000000000000000000000000008152600401610ab990612590565b60405180910390fd5b80600660006101000a81548173ffffffffffffffffffffffffffffffffffffffff021916908373ffffffffffffffffffffffffffffffffffffffff16021790555050565b610b0e611a74565b6001548410610b52576040517f08c379a0000000000000000000000000000000000000000000000000000000008152600401610b49906126f0565b60405180910390fd5b828260038681548110610b8e577f4e487b7100000000000000000000000000000000000000000000000000000000600052603260045260246000fd5b90600052602060002090600402016000019190610bac929190611bbe565b508060038581548110610be8577f4e487b7100000000000000000000000000000000000000000000000000000000600052603260045260246000fd5b906000526020600020906004020160010181905550600060038581548110610c39577f4e487b7100000000000000000000000000000000000000000000000000000000600052603260045260246000fd5b906000526020600020906004020160020181905550600060038581548110610c8a577f4e487b7100000000000000000000000000000000000000000000000000000000600052603260045260246000fd5b90600052602060002090600402016003018190555050505050565b6000610caf611a74565b828290508585905014610cf7576040517f08c379a0000000000000000000000000000000000000000000000000000000008152600401610cee90612670565b60405180910390fd5b60005b85859050811015610f5b57600154868683818110610d41577f4e487b7100000000000000000000000000000000000000000000000000000000600052603260045260246000fd5b9050602002013510610d88576040517f08c379a0000000000000000000000000000000000000000000000000000000008152600401610d7f906126f0565b60405180910390fd5b838382818110610dc1577f4e487b7100000000000000000000000000000000000000000000000000000000600052603260045260246000fd5b905060200201356003878784818110610e03577f4e487b7100000000000000000000000000000000000000000000000000000000600052603260045260246000fd5b9050602002013581548110610e41577f4e487b7100000000000000000000000000000000000000000000000000000000600052603260045260246000fd5b90600052602060002090600402016002016000828254610e6191906127ea565b92505081905550838382818110610ea1577f4e487b7100000000000000000000000000000000000000000000000000000000600052603260045260246000fd5b905060200201356003878784818110610ee3577f4e487b7100000000000000000000000000000000000000000000000000000000600052603260045260246000fd5b9050602002013581548110610f21577f4e487b7100000000000000000000000000000000000000000000000000000000600052603260045260246000fd5b90600052602060002090600402016003016000828254610f4191906127ea565b925050819055508080610f539061297b565b915050610cfa565b5060019050949350505050565b60025481565b6060600460008373ffffffffffffffffffffffffffffffffffffffff1673ffffffffffffffffffffffffffffffffffffffff168152602001908152602001600020600001805480602002602001604051908101604052809291908181526020018280548015610ffc57602002820191906000526020600020905b815481526020019060010190808311610fe8575b50505050509050919050565b611010611a74565b61101a6000611af2565b565b600660009054906101000a900473ffffffffffffffffffffffffffffffffffffffff1681565b60008060009054906101000a900473ffffffffffffffffffffffffffffffffffffffff16905090565b6000600254905090565b600073ffffffffffffffffffffffffffffffffffffffff168173ffffffffffffffffffffffffffffffffffffffff1614156110e5576040517f08c379a00000000000000000000000000000000000000000000000000000000081526004016110dc90612610565b60405180910390fd5b60005b8383905081101561172857600084848381811061112e577f4e487b7100000000000000000000000000000000000000000000000000000000600052603260045260246000fd5b905060200201359050600254811061117b576040517f08c379a000000000000000000000000000000000000000000000000000000000815260040161117290612550565b60405180910390fd5b3373ffffffffffffffffffffffffffffffffffffffff166005600083815260200190815260200160002060000160009054906101000a900473ffffffffffffffffffffffffffffffffffffffff1673ffffffffffffffffffffffffffffffffffffffff161461121f576040517f08c379a000000000000000000000000000000000000000000000000000000000815260040161121690612710565b60405180910390fd5b826005600083815260200190815260200160002060000160006101000a81548173ffffffffffffffffffffffffffffffffffffffff021916908373ffffffffffffffffffffffffffffffffffffffff16021790555042600560008381526020019081526020016000206002018190555060006005600083815260200190815260200160002060030154905081600460003373ffffffffffffffffffffffffffffffffffffffff1673ffffffffffffffffffffffffffffffffffffffff1681526020019081526020016000206000018281548110611325577f4e487b7100000000000000000000000000000000000000000000000000000000600052603260045260246000fd5b906000526020600020015414611370576040517f08c379a000000000000000000000000000000000000000000000000000000000815260040161136790612570565b60405180910390fd5b6000600460003373ffffffffffffffffffffffffffffffffffffffff1673ffffffffffffffffffffffffffffffffffffffff168152602001908152602001600020600001805490509050600081116113fd576040517f08c379a00000000000000000000000000000000000000000000000000000000081526004016113f4906125f0565b60405180910390fd5b600460003373ffffffffffffffffffffffffffffffffffffffff1673ffffffffffffffffffffffffffffffffffffffff16815260200190815260200160002060000160018261144c919061289a565b81548110611483577f4e487b7100000000000000000000000000000000000000000000000000000000600052603260045260246000fd5b9060005260206000200154600460003373ffffffffffffffffffffffffffffffffffffffff1673ffffffffffffffffffffffffffffffffffffffff1681526020019081526020016000206000018381548110611508577f4e487b7100000000000000000000000000000000000000000000000000000000600052603260045260246000fd5b90600052602060002001819055508160056000600460003373ffffffffffffffffffffffffffffffffffffffff1673ffffffffffffffffffffffffffffffffffffffff1681526020019081526020016000206000018581548110611595577f4e487b7100000000000000000000000000000000000000000000000000000000600052603260045260246000fd5b9060005260206000200154815260200190815260200160002060030181905550600460003373ffffffffffffffffffffffffffffffffffffffff1673ffffffffffffffffffffffffffffffffffffffff16815260200190815260200160002060000180548061162d577f4e487b7100000000000000000000000000000000000000000000000000000000600052603160045260246000fd5b600190038181906000526020600020016000905590556000600460008773ffffffffffffffffffffffffffffffffffffffff1673ffffffffffffffffffffffffffffffffffffffff168152602001908152602001600020600001805490509050600460008773ffffffffffffffffffffffffffffffffffffffff1673ffffffffffffffffffffffffffffffffffffffff1681526020019081526020016000206000018490806001815401808255809150506001900390600052602060002001600090919091909150558060056000868152602001908152602001600020600301819055505050505080806117209061297b565b9150506110e8565b50505050565b60006002548210611774576040517f08c379a000000000000000000000000000000000000000000000000000000000815260040161176b90612690565b60405180910390fd5b600073ffffffffffffffffffffffffffffffffffffffff168373ffffffffffffffffffffffffffffffffffffffff1614156117e4576040517f08c379a00000000000000000000000000000000000000000000000000000000081526004016117db90612630565b60405180910390fd5b8273ffffffffffffffffffffffffffffffffffffffff166005600084815260200190815260200160002060000160009054906101000a900473ffffffffffffffffffffffffffffffffffffffff1673ffffffffffffffffffffffffffffffffffffffff1614905092915050565b60008061185d83610f6e565b90506000815114156118735760009150506118cf565b60056000826000815181106118b1577f4e487b7100000000000000000000000000000000000000000000000000000000600052603260045260246000fd5b60200260200101518152602001908152602001600020600201549150505b919050565b6118dc611a74565b600073ffffffffffffffffffffffffffffffffffffffff168173ffffffffffffffffffffffffffffffffffffffff16141561194c576040517f08c379a0000000000000000000000000000000000000000000000000000000008152600401611943906125b0565b60405180910390fd5b61195581611af2565b50565b6000611962611a74565b61196a611c44565b84848080601f016020809104026020016040519081016040528093929190818152602001838380828437600081840152601f19601f820116905080830192505050505050508160000181905250828160200181815250506000816040018181525050600081606001818152505060038190806001815401808255809150506001900390600052602060002090600402016000909190919091506000820151816000019080519060200190611a1f929190611c6c565b506020820151816001015560408201518160020155606082015181600301555050600160008154611a4f9061297b565b9190508190555060018054611a64919061289a565b9150509392505050565b60015481565b611a7c611bb6565b73ffffffffffffffffffffffffffffffffffffffff16611a9a611042565b73ffffffffffffffffffffffffffffffffffffffff1614611af0576040517f08c379a0000000000000000000000000000000000000000000000000000000008152600401611ae7906126b0565b60405180910390fd5b565b60008060009054906101000a900473ffffffffffffffffffffffffffffffffffffffff169050816000806101000a81548173ffffffffffffffffffffffffffffffffffffffff021916908373ffffffffffffffffffffffffffffffffffffffff1602179055508173ffffffffffffffffffffffffffffffffffffffff168173ffffffffffffffffffffffffffffffffffffffff167f8be0079c531659141344cd1fd0a4f28419497f9722a3daafe3b4186f6b6457e060405160405180910390a35050565b600033905090565b828054611bca90612949565b90600052602060002090601f016020900481019282611bec5760008555611c33565b82601f10611c0557803560ff1916838001178555611c33565b82800160010185558215611c33579182015b82811115611c32578235825591602001919060010190611c17565b5b509050611c409190611cf2565b5090565b6040518060800160405280606081526020016000815260200160008152602001600081525090565b828054611c7890612949565b90600052602060002090601f016020900481019282611c9a5760008555611ce1565b82601f10611cb357805160ff1916838001178555611ce1565b82800160010185558215611ce1579182015b82811115611ce0578251825591602001919060010190611cc5565b5b509050611cee9190611cf2565b5090565b5b80821115611d0b576000816000905550600101611cf3565b5090565b600081359050611d1e81612da4565b92915050565b60008083601f840112611d3657600080fd5b8235905067ffffffffffffffff811115611d4f57600080fd5b602083019150836020820283011115611d6757600080fd5b9250929050565b60008083601f840112611d8057600080fd5b8235905067ffffffffffffffff811115611d9957600080fd5b602083019150836001820283011115611db157600080fd5b9250929050565b600081359050611dc781612dbb565b92915050565b600060208284031215611ddf57600080fd5b6000611ded84828501611d0f565b91505092915050565b60008060408385031215611e0957600080fd5b6000611e1785828601611d0f565b9250506020611e2885828601611db8565b9150509250929050565b600080600060408486031215611e4757600080fd5b600084013567ffffffffffffffff811115611e6157600080fd5b611e6d86828701611d24565b93509350506020611e8086828701611d0f565b9150509250925092565b60008060008060408587031215611ea057600080fd5b600085013567ffffffffffffffff811115611eba57600080fd5b611ec687828801611d24565b9450945050602085013567ffffffffffffffff811115611ee557600080fd5b611ef187828801611d24565b925092505092959194509250565b600080600060408486031215611f1457600080fd5b600084013567ffffffffffffffff811115611f2e57600080fd5b611f3a86828701611d6e565b93509350506020611f4d86828701611db8565b9150509250925092565b600060208284031215611f6957600080fd5b6000611f7784828501611db8565b91505092915050565b60008060008060608587031215611f9657600080fd5b6000611fa487828801611db8565b945050602085013567ffffffffffffffff811115611fc157600080fd5b611fcd87828801611d6e565b93509350506040611fe087828801611db8565b91505092959194509250565b60008060408385031215611fff57600080fd5b600061200d85828601611db8565b925050602061201e85828601611db8565b9150509250929050565b600061203483836123c4565b905092915050565b60006120488383612427565b60208301905092915050565b61205d816128ce565b82525050565b600061206e8261276b565b61207881856127a6565b93508360208202850161208a8561274b565b8060005b858110156120c657848403895281516120a78582612028565b94506120b28361278c565b925060208a0199505060018101905061208e565b50829750879550505050505092915050565b60006120e382612776565b6120ed81856127b7565b93506120f88361275b565b8060005b83811015612129578151612110888261203c565b975061211b83612799565b9250506001810190506120fc565b5085935050505092915050565b61213f816128e0565b82525050565b600061215082612781565b61215a81856127c8565b935061216a818560208601612916565b61217381612a22565b840191505092915050565b600061218982612781565b61219381856127d9565b93506121a3818560208601612916565b6121ac81612a22565b840191505092915050565b60006121c4602b836127d9565b91506121cf82612a33565b604082019050919050565b60006121e7601b836127d9565b91506121f282612a82565b602082019050919050565b600061220a6015836127d9565b915061221582612aab565b602082019050919050565b600061222d6026836127d9565b915061223882612ad4565b604082019050919050565b60006122506013836127d9565b915061225b82612b23565b602082019050919050565b6000612273602d836127d9565b915061227e82612b4c565b604082019050919050565b6000612296601d836127d9565b91506122a182612b9b565b602082019050919050565b60006122b96016836127d9565b91506122c482612bc4565b602082019050919050565b60006122dc602d836127d9565b91506122e782612bed565b604082019050919050565b60006122ff602b836127d9565b915061230a82612c3c565b604082019050919050565b60006123226029836127d9565b915061232d82612c8b565b604082019050919050565b60006123456020836127d9565b915061235082612cda565b602082019050919050565b60006123686012836127d9565b915061237382612d03565b602082019050919050565b600061238b6027836127d9565b915061239682612d2c565b604082019050919050565b60006123ae6016836127d9565b91506123b982612d7b565b602082019050919050565b600060808301600083015184820360008601526123e18282612145565b91505060208301516123f66020860182612427565b5060408301516124096040860182612427565b50606083015161241c6060860182612427565b508091505092915050565b6124308161290c565b82525050565b61243f8161290c565b82525050565b600060208201905061245a6000830184612054565b92915050565b60006080820190506124756000830187612054565b6124826020830186612436565b61248f6040830185612436565b61249c6060830184612436565b95945050505050565b600060208201905081810360008301526124bf8184612063565b905092915050565b600060208201905081810360008301526124e181846120d8565b905092915050565b60006020820190506124fe6000830184612136565b92915050565b6000608082019050818103600083015261251e818761217e565b905061252d6020830186612436565b61253a6040830185612436565b6125476060830184612436565b95945050505050565b60006020820190508181036000830152612569816121b7565b9050919050565b60006020820190508181036000830152612589816121da565b9050919050565b600060208201905081810360008301526125a9816121fd565b9050919050565b600060208201905081810360008301526125c981612220565b9050919050565b600060208201905081810360008301526125e981612243565b9050919050565b6000602082019050818103600083015261260981612266565b9050919050565b6000602082019050818103600083015261262981612289565b9050919050565b60006020820190508181036000830152612649816122ac565b9050919050565b60006020820190508181036000830152612669816122cf565b9050919050565b60006020820190508181036000830152612689816122f2565b9050919050565b600060208201905081810360008301526126a981612315565b9050919050565b600060208201905081810360008301526126c981612338565b9050919050565b600060208201905081810360008301526126e98161235b565b9050919050565b600060208201905081810360008301526127098161237e565b9050919050565b60006020820190508181036000830152612729816123a1565b9050919050565b60006020820190506127456000830184612436565b92915050565b6000819050602082019050919050565b6000819050602082019050919050565b600081519050919050565b600081519050919050565b600081519050919050565b6000602082019050919050565b6000602082019050919050565b600082825260208201905092915050565b600082825260208201905092915050565b600082825260208201905092915050565b600082825260208201905092915050565b60006127f58261290c565b91506128008361290c565b9250827fffffffffffffffffffffffffffffffffffffffffffffffffffffffffffffffff03821115612835576128346129c4565b5b828201905092915050565b600061284b8261290c565b91506128568361290c565b9250817fffffffffffffffffffffffffffffffffffffffffffffffffffffffffffffffff048311821515161561288f5761288e6129c4565b5b828202905092915050565b60006128a58261290c565b91506128b08361290c565b9250828210156128c3576128c26129c4565b5b828203905092915050565b60006128d9826128ec565b9050919050565b60008115159050919050565b600073ffffffffffffffffffffffffffffffffffffffff82169050919050565b6000819050919050565b60005b83811015612934578082015181840152602081019050612919565b83811115612943576000848401525b50505050565b6000600282049050600182168061296157607f821691505b60208210811415612975576129746129f3565b5b50919050565b60006129868261290c565b91507fffffffffffffffffffffffffffffffffffffffffffffffffffffffffffffffff8214156129b9576129b86129c4565b5b600182019050919050565b7f4e487b7100000000000000000000000000000000000000000000000000000000600052601160045260246000fd5b7f4e487b7100000000000000000000000000000000000000000000000000000000600052602260045260246000fd5b6000601f19601f8301169050919050565b7f49442076616c75652073686f756c64206265206c657373207468616e204e465460008201527f5f49445f434f554e544552000000000000000000000000000000000000000000602082015250565b7f69642e696e6465782073686f756c6420626520636f72726563742e0000000000600082015250565b7f696e76616c696420746f6b656e20616464726573730000000000000000000000600082015250565b7f4f776e61626c653a206e6577206f776e657220697320746865207a65726f206160008201527f6464726573730000000000000000000000000000000000000000000000000000602082015250565b7f4e6f7420656e6f756768207061796d656e742e00000000000000000000000000600082015250565b7f4f6c6420557365722042616c616e63652073686f756c6420626520677265617460008201527f6572207468616e207a65726f2e00000000000000000000000000000000000000602082015250565b7f54617267657420616464726573732063616e6e6f74206265206e756c6c000000600082015250565b7f416464726573732063616e6e6f74206265206e756c6c00000000000000000000600082015250565b7f4e465420547970652073686f756c64206265206c657373207468616e204e465460008201527f5f545950455f434f554e54455200000000000000000000000000000000000000602082015250565b7f496420616e6420416d6f756e74206172726179206c656e6774682073686f756c60008201527f6420626520657175616c2e000000000000000000000000000000000000000000602082015250565b7f4e46542049442073686f756c64206265206c657373207468616e204e46545f4960008201527f445f434f554e5445520000000000000000000000000000000000000000000000602082015250565b7f4f776e61626c653a2063616c6c6572206973206e6f7420746865206f776e6572600082015250565b7f4e6f7420656e6f75676820737570706c792e0000000000000000000000000000600082015250565b7f69642073686f756c64206265206c657373207468616e204e46545f545950455f60008201527f434f554e54455200000000000000000000000000000000000000000000000000602082015250565b7f53726320617265206e6f7420746865206f776e65722e00000000000000000000600082015250565b612dad816128ce565b8114612db857600080fd5b50565b612dc48161290c565b8114612dcf57600080fd5b5056fea26469706673582212202c463c25d191ec05d93690fd207a91fcb5a6a64c52661b8671a15bfde207686964736f6c63430008040033",
  "linkReferences": {},
  "deployedLinkReferences": {}
}