{
  "_format": "hh-sol-artifact-1",
  "contractName": "ElumToken",
  "sourceName": "contracts/ElumToken.sol",
  "abi": [
    {
      "inputs": [
        {
          "internalType": "uint256",
          "name": "_price",
          "type": "uint256"
        }
      ],
      "stateMutability": "nonpayable",
      "type": "constructor"
    },
    {
      "anonymous": false,
      "inputs": [
        {
          "indexed": true,
          "internalType": "address",
          "name": "owner",
          "type": "address"
        },
        {
          "indexed": true,
          "internalType": "address",
          "name": "spender",
          "type": "address"
        },
        {
          "indexed": false,
          "internalType": "uint256",
          "name": "value",
          "type": "uint256"
        }
      ],
      "name": "Approval",
      "type": "event"
    },
    {
      "anonymous": false,
      "inputs": [
        {
          "indexed": true,
          "internalType": "address",
          "name": "previousOwner",
          "type": "address"
        },
        {
          "indexed": true,
          "internalType": "address",
          "name": "newOwner",
          "type": "address"
        }
      ],
      "name": "OwnershipTransferred",
      "type": "event"
    },
    {
      "anonymous": false,
      "inputs": [
        {
          "indexed": true,
          "internalType": "address",
          "name": "from",
          "type": "address"
        },
        {
          "indexed": true,
          "internalType": "address",
          "name": "to",
          "type": "address"
        },
        {
          "indexed": false,
          "internalType": "uint256",
          "name": "value",
          "type": "uint256"
        }
      ],
      "name": "Transfer",
      "type": "event"
    },
    {
      "inputs": [
        {
          "internalType": "address",
          "name": "owner",
          "type": "address"
        },
        {
          "internalType": "address",
          "name": "spender",
          "type": "address"
        }
      ],
      "name": "allowance",
      "outputs": [
        {
          "internalType": "uint256",
          "name": "",
          "type": "uint256"
        }
      ],
      "stateMutability": "view",
      "type": "function"
    },
    {
      "inputs": [
        {
          "internalType": "address",
          "name": "spender",
          "type": "address"
        },
        {
          "internalType": "uint256",
          "name": "amount",
          "type": "uint256"
        }
      ],
      "name": "approve",
      "outputs": [
        {
          "internalType": "bool",
          "name": "",
          "type": "bool"
        }
      ],
      "stateMutability": "nonpayable",
      "type": "function"
    },
    {
      "inputs": [
        {
          "internalType": "address",
          "name": "account",
          "type": "address"
        }
      ],
      "name": "balanceOf",
      "outputs": [
        {
          "internalType": "uint256",
          "name": "",
          "type": "uint256"
        }
      ],
      "stateMutability": "view",
      "type": "function"
    },
    {
      "inputs": [
        {
          "internalType": "uint256",
          "name": "amount",
          "type": "uint256"
        }
      ],
      "name": "buyTokens",
      "outputs": [],
      "stateMutability": "payable",
      "type": "function"
    },
    {
      "inputs": [],
      "name": "decimals",
      "outputs": [
        {
          "internalType": "uint8",
          "name": "",
          "type": "uint8"
        }
      ],
      "stateMutability": "view",
      "type": "function"
    },
    {
      "inputs": [
        {
          "internalType": "address",
          "name": "spender",
          "type": "address"
        },
        {
          "internalType": "uint256",
          "name": "subtractedValue",
          "type": "uint256"
        }
      ],
      "name": "decreaseAllowance",
      "outputs": [
        {
          "internalType": "bool",
          "name": "",
          "type": "bool"
        }
      ],
      "stateMutability": "nonpayable",
      "type": "function"
    },
    {
      "inputs": [
        {
          "internalType": "address",
          "name": "spender",
          "type": "address"
        },
        {
          "internalType": "uint256",
          "name": "addedValue",
          "type": "uint256"
        }
      ],
      "name": "increaseAllowance",
      "outputs": [
        {
          "internalType": "bool",
          "name": "",
          "type": "bool"
        }
      ],
      "stateMutability": "nonpayable",
      "type": "function"
    },
    {
      "inputs": [],
      "name": "maxSupply",
      "outputs": [
        {
          "internalType": "uint256",
          "name": "",
          "type": "uint256"
        }
      ],
      "stateMutability": "view",
      "type": "function"
    },
    {
      "inputs": [
        {
          "internalType": "uint256",
          "name": "amount",
          "type": "uint256"
        }
      ],
      "name": "mintRewardTokens",
      "outputs": [],
      "stateMutability": "nonpayable",
      "type": "function"
    },
    {
      "inputs": [],
      "name": "name",
      "outputs": [
        {
          "internalType": "string",
          "name": "",
          "type": "string"
        }
      ],
      "stateMutability": "view",
      "type": "function"
    },
    {
      "inputs": [],
      "name": "owner",
      "outputs": [
        {
          "internalType": "address",
          "name": "",
          "type": "address"
        }
      ],
      "stateMutability": "view",
      "type": "function"
    },
    {
      "inputs": [],
      "name": "renounceOwnership",
      "outputs": [],
      "stateMutability": "nonpayable",
      "type": "function"
    },
    {
      "inputs": [],
      "name": "rewardContract",
      "outputs": [
        {
          "internalType": "address",
          "name": "",
          "type": "address"
        }
      ],
      "stateMutability": "view",
      "type": "function"
    },
    {
      "inputs": [],
      "name": "rewardSupply",
      "outputs": [
        {
          "internalType": "uint256",
          "name": "",
          "type": "uint256"
        }
      ],
      "stateMutability": "view",
      "type": "function"
    },
    {
      "inputs": [],
      "name": "saleSupply",
      "outputs": [
        {
          "internalType": "uint256",
          "name": "",
          "type": "uint256"
        }
      ],
      "stateMutability": "view",
      "type": "function"
    },
    {
      "inputs": [
        {
          "internalType": "address",
          "name": "_rewardContract",
          "type": "address"
        }
      ],
      "name": "setRewardContract",
      "outputs": [],
      "stateMutability": "nonpayable",
      "type": "function"
    },
    {
      "inputs": [
        {
          "internalType": "uint256",
          "name": "newPrice",
          "type": "uint256"
        }
      ],
      "name": "setTokenPrice",
      "outputs": [],
      "stateMutability": "nonpayable",
      "type": "function"
    },
    {
      "inputs": [],
      "name": "symbol",
      "outputs": [
        {
          "internalType": "string",
          "name": "",
          "type": "string"
        }
      ],
      "stateMutability": "view",
      "type": "function"
    },
    {
      "inputs": [],
      "name": "tokenPrice",
      "outputs": [
        {
          "internalType": "uint256",
          "name": "",
          "type": "uint256"
        }
      ],
      "stateMutability": "view",
      "type": "function"
    },
    {
      "inputs": [],
      "name": "totalRewardSupply",
      "outputs": [
        {
          "internalType": "uint256",
          "name": "",
          "type": "uint256"
        }
      ],
      "stateMutability": "view",
      "type": "function"
    },
    {
      "inputs": [],
      "name": "totalSaleSupply",
      "outputs": [
        {
          "internalType": "uint256",
          "name": "",
          "type": "uint256"
        }
      ],
      "stateMutability": "view",
      "type": "function"
    },
    {
      "inputs": [],
      "name": "totalSupply",
      "outputs": [
        {
          "internalType": "uint256",
          "name": "",
          "type": "uint256"
        }
      ],
      "stateMutability": "view",
      "type": "function"
    },
    {
      "inputs": [
        {
          "internalType": "address",
          "name": "to",
          "type": "address"
        },
        {
          "internalType": "uint256",
          "name": "amount",
          "type": "uint256"
        }
      ],
      "name": "transfer",
      "outputs": [
        {
          "internalType": "bool",
          "name": "",
          "type": "bool"
        }
      ],
      "stateMutability": "nonpayable",
      "type": "function"
    },
    {
      "inputs": [
        {
          "internalType": "address",
          "name": "from",
          "type": "address"
        },
        {
          "internalType": "address",
          "name": "to",
          "type": "address"
        },
        {
          "internalType": "uint256",
          "name": "amount",
          "type": "uint256"
        }
      ],
      "name": "transferFrom",
      "outputs": [
        {
          "internalType": "bool",
          "name": "",
          "type": "bool"
        }
      ],
      "stateMutability": "nonpayable",
      "type": "function"
    },
    {
      "inputs": [
        {
          "internalType": "address",
          "name": "newOwner",
          "type": "address"
        }
      ],
      "name": "transferOwnership",
      "outputs": [],
      "stateMutability": "nonpayable",
      "type": "function"
    }
  ],
  "bytecode": "0x60806040526000600660006101000a81548173ffffffffffffffffffffffffffffffffffffffff021916908373ffffffffffffffffffffffffffffffffffffffff1602179055506000600755600060085560006009553480156200006257600080fd5b506040516200227c3803806200227c8339818101604052810190620000889190620002eb565b6040518060400160405280600981526020017f456c756d546f6b656e00000000000000000000000000000000000000000000008152506040518060400160405280600481526020017f456c756d0000000000000000000000000000000000000000000000000000000081525081600390805190602001906200010c92919062000224565b5080600490805190602001906200012592919062000224565b505050620001486200013c6200015660201b60201c565b6200015e60201b60201c565b8060098190555050620003a0565b600033905090565b6000600560009054906101000a900473ffffffffffffffffffffffffffffffffffffffff16905081600560006101000a81548173ffffffffffffffffffffffffffffffffffffffff021916908373ffffffffffffffffffffffffffffffffffffffff1602179055508173ffffffffffffffffffffffffffffffffffffffff168173ffffffffffffffffffffffffffffffffffffffff167f8be0079c531659141344cd1fd0a4f28419497f9722a3daafe3b4186f6b6457e060405160405180910390a35050565b828054620002329062000321565b90600052602060002090601f016020900481019282620002565760008555620002a2565b82601f106200027157805160ff1916838001178555620002a2565b82800160010185558215620002a2579182015b82811115620002a157825182559160200191906001019062000284565b5b509050620002b19190620002b5565b5090565b5b80821115620002d0576000816000905550600101620002b6565b5090565b600081519050620002e58162000386565b92915050565b600060208284031215620002fe57600080fd5b60006200030e84828501620002d4565b91505092915050565b6000819050919050565b600060028204905060018216806200033a57607f821691505b6020821081141562000351576200035062000357565b5b50919050565b7f4e487b7100000000000000000000000000000000000000000000000000000000600052602260045260246000fd5b620003918162000317565b81146200039d57600080fd5b50565b611ecc80620003b06000396000f3fe6080604052600436106101665760003560e01c806370a08231116100d157806395d89b411161008a578063a96af0f411610064578063a96af0f414610535578063d5abeb0114610560578063dd62ed3e1461058b578063f2fde38b146105c857610166565b806395d89b4114610490578063a457c2d7146104bb578063a9059cbb146104f857610166565b806370a0823114610390578063715018a6146103cd57806378231978146103e45780637ff9b5961461040f5780638a8a759e1461043a5780638da5cb5b1461046557610166565b80633610724e116101235780633610724e1461028f57806339509351146102ab57806351508f0a146102e85780636a61e5fc146103115780636b0c341b1461033a5780636ea69d621461036557610166565b806306fdde031461016b578063095ea7b31461019657806318160ddd146101d357806323b872dd146101fe578063313ce5671461023b57806334b4117d14610266575b600080fd5b34801561017757600080fd5b506101806105f1565b60405161018d9190611745565b60405180910390f35b3480156101a257600080fd5b506101bd60048036038101906101b89190611491565b610683565b6040516101ca919061172a565b60405180910390f35b3480156101df57600080fd5b506101e86106a6565b6040516101f591906118e7565b60405180910390f35b34801561020a57600080fd5b5061022560048036038101906102209190611442565b6106b0565b604051610232919061172a565b60405180910390f35b34801561024757600080fd5b506102506106df565b60405161025d9190611902565b60405180910390f35b34801561027257600080fd5b5061028d600480360381019061028891906114cd565b6106e8565b005b6102a960048036038101906102a491906114cd565b610786565b005b3480156102b757600080fd5b506102d260048036038101906102cd9190611491565b610850565b6040516102df919061172a565b60405180910390f35b3480156102f457600080fd5b5061030f600480360381019061030a91906113dd565b610887565b005b34801561031d57600080fd5b50610338600480360381019061033391906114cd565b6108d3565b005b34801561034657600080fd5b5061034f6108e5565b60405161035c91906118e7565b60405180910390f35b34801561037157600080fd5b5061037a6108eb565b604051610387919061170f565b60405180910390f35b34801561039c57600080fd5b506103b760048036038101906103b291906113dd565b610911565b6040516103c491906118e7565b60405180910390f35b3480156103d957600080fd5b506103e2610959565b005b3480156103f057600080fd5b506103f961096d565b60405161040691906118e7565b60405180910390f35b34801561041b57600080fd5b5061042461098e565b60405161043191906118e7565b60405180910390f35b34801561044657600080fd5b5061044f610994565b60405161045c91906118e7565b60405180910390f35b34801561047157600080fd5b5061047a6109b5565b604051610487919061170f565b60405180910390f35b34801561049c57600080fd5b506104a56109df565b6040516104b29190611745565b60405180910390f35b3480156104c757600080fd5b506104e260048036038101906104dd9190611491565b610a71565b6040516104ef919061172a565b60405180910390f35b34801561050457600080fd5b5061051f600480360381019061051a9190611491565b610ae8565b60405161052c919061172a565b60405180910390f35b34801561054157600080fd5b5061054a610b0b565b60405161055791906118e7565b60405180910390f35b34801561056c57600080fd5b50610575610b11565b60405161058291906118e7565b60405180910390f35b34801561059757600080fd5b506105b260048036038101906105ad9190611406565b610b1a565b6040516105bf91906118e7565b60405180910390f35b3480156105d457600080fd5b506105ef60048036038101906105ea91906113dd565b610ba1565b005b60606003805461060090611aa2565b80601f016020809104026020016040519081016040528092919081815260200182805461062c90611aa2565b80156106795780601f1061064e57610100808354040283529160200191610679565b820191906000526020600020905b81548152906001019060200180831161065c57829003601f168201915b5050505050905090565b60008061068e610c25565b905061069b818585610c2d565b600191505092915050565b6000600254905090565b6000806106bb610c25565b90506106c8858285610df8565b6106d3858585610e84565b60019150509392505050565b60006012905090565b600660009054906101000a900473ffffffffffffffffffffffffffffffffffffffff1673ffffffffffffffffffffffffffffffffffffffff163373ffffffffffffffffffffffffffffffffffffffff161461074257600080fd5b600a60076404a817c80061075691906119c0565b610760919061198f565b8160075461076e9190611939565b111561077957600080fd5b6107833382611105565b50565b6009548161079491906119c0565b3410156107d6576040517f08c379a00000000000000000000000000000000000000000000000000000000081526004016107cd906117c7565b60405180910390fd5b600a60016404a817c8006107ea91906119c0565b6107f4919061198f565b816008546108029190611939565b1115610843576040517f08c379a000000000000000000000000000000000000000000000000000000000815260040161083a90611847565b60405180910390fd5b61084d3382611105565b50565b60008061085b610c25565b905061087c81858561086d8589610b1a565b6108779190611939565b610c2d565b600191505092915050565b61088f611265565b80600660006101000a81548173ffffffffffffffffffffffffffffffffffffffff021916908373ffffffffffffffffffffffffffffffffffffffff16021790555050565b6108db611265565b8060098190555050565b60075481565b600660009054906101000a900473ffffffffffffffffffffffffffffffffffffffff1681565b60008060008373ffffffffffffffffffffffffffffffffffffffff1673ffffffffffffffffffffffffffffffffffffffff168152602001908152602001600020549050919050565b610961611265565b61096b60006112e3565b565b600a60016404a817c80061098191906119c0565b61098b919061198f565b81565b60095481565b600a60076404a817c8006109a891906119c0565b6109b2919061198f565b81565b6000600560009054906101000a900473ffffffffffffffffffffffffffffffffffffffff16905090565b6060600480546109ee90611aa2565b80601f0160208091040260200160405190810160405280929190818152602001828054610a1a90611aa2565b8015610a675780601f10610a3c57610100808354040283529160200191610a67565b820191906000526020600020905b815481529060010190602001808311610a4a57829003601f168201915b5050505050905090565b600080610a7c610c25565b90506000610a8a8286610b1a565b905083811015610acf576040517f08c379a0000000000000000000000000000000000000000000000000000000008152600401610ac6906118a7565b60405180910390fd5b610adc8286868403610c2d565b60019250505092915050565b600080610af3610c25565b9050610b00818585610e84565b600191505092915050565b60085481565b6404a817c80081565b6000600160008473ffffffffffffffffffffffffffffffffffffffff1673ffffffffffffffffffffffffffffffffffffffff16815260200190815260200160002060008373ffffffffffffffffffffffffffffffffffffffff1673ffffffffffffffffffffffffffffffffffffffff16815260200190815260200160002054905092915050565b610ba9611265565b600073ffffffffffffffffffffffffffffffffffffffff168173ffffffffffffffffffffffffffffffffffffffff161415610c19576040517f08c379a0000000000000000000000000000000000000000000000000000000008152600401610c1090611787565b60405180910390fd5b610c22816112e3565b50565b600033905090565b600073ffffffffffffffffffffffffffffffffffffffff168373ffffffffffffffffffffffffffffffffffffffff161415610c9d576040517f08c379a0000000000000000000000000000000000000000000000000000000008152600401610c9490611887565b60405180910390fd5b600073ffffffffffffffffffffffffffffffffffffffff168273ffffffffffffffffffffffffffffffffffffffff161415610d0d576040517f08c379a0000000000000000000000000000000000000000000000000000000008152600401610d04906117a7565b60405180910390fd5b80600160008573ffffffffffffffffffffffffffffffffffffffff1673ffffffffffffffffffffffffffffffffffffffff16815260200190815260200160002060008473ffffffffffffffffffffffffffffffffffffffff1673ffffffffffffffffffffffffffffffffffffffff168152602001908152602001600020819055508173ffffffffffffffffffffffffffffffffffffffff168373ffffffffffffffffffffffffffffffffffffffff167f8c5be1e5ebec7d5bd14f71427d1e84f3dd0314c0f7b2291e5b200ac8c7c3b92583604051610deb91906118e7565b60405180910390a3505050565b6000610e048484610b1a565b90507fffffffffffffffffffffffffffffffffffffffffffffffffffffffffffffffff8114610e7e5781811015610e70576040517f08c379a0000000000000000000000000000000000000000000000000000000008152600401610e67906117e7565b60405180910390fd5b610e7d8484848403610c2d565b5b50505050565b600073ffffffffffffffffffffffffffffffffffffffff168373ffffffffffffffffffffffffffffffffffffffff161415610ef4576040517f08c379a0000000000000000000000000000000000000000000000000000000008152600401610eeb90611867565b60405180910390fd5b600073ffffffffffffffffffffffffffffffffffffffff168273ffffffffffffffffffffffffffffffffffffffff161415610f64576040517f08c379a0000000000000000000000000000000000000000000000000000000008152600401610f5b90611767565b60405180910390fd5b610f6f8383836113a9565b60008060008573ffffffffffffffffffffffffffffffffffffffff1673ffffffffffffffffffffffffffffffffffffffff16815260200190815260200160002054905081811015610ff5576040517f08c379a0000000000000000000000000000000000000000000000000000000008152600401610fec90611807565b60405180910390fd5b8181036000808673ffffffffffffffffffffffffffffffffffffffff1673ffffffffffffffffffffffffffffffffffffffff16815260200190815260200160002081905550816000808573ffffffffffffffffffffffffffffffffffffffff1673ffffffffffffffffffffffffffffffffffffffff16815260200190815260200160002060008282546110889190611939565b925050819055508273ffffffffffffffffffffffffffffffffffffffff168473ffffffffffffffffffffffffffffffffffffffff167fddf252ad1be2c89b69c2b068fc378daa952ba7f163c4a11628f55a4df523b3ef846040516110ec91906118e7565b60405180910390a36110ff8484846113ae565b50505050565b600073ffffffffffffffffffffffffffffffffffffffff168273ffffffffffffffffffffffffffffffffffffffff161415611175576040517f08c379a000000000000000000000000000000000000000000000000000000000815260040161116c906118c7565b60405180910390fd5b611181600083836113a9565b80600260008282546111939190611939565b92505081905550806000808473ffffffffffffffffffffffffffffffffffffffff1673ffffffffffffffffffffffffffffffffffffffff16815260200190815260200160002060008282546111e89190611939565b925050819055508173ffffffffffffffffffffffffffffffffffffffff16600073ffffffffffffffffffffffffffffffffffffffff167fddf252ad1be2c89b69c2b068fc378daa952ba7f163c4a11628f55a4df523b3ef8360405161124d91906118e7565b60405180910390a3611261600083836113ae565b5050565b61126d610c25565b73ffffffffffffffffffffffffffffffffffffffff1661128b6109b5565b73ffffffffffffffffffffffffffffffffffffffff16146112e1576040517f08c379a00000000000000000000000000000000000000000000000000000000081526004016112d890611827565b60405180910390fd5b565b6000600560009054906101000a900473ffffffffffffffffffffffffffffffffffffffff16905081600560006101000a81548173ffffffffffffffffffffffffffffffffffffffff021916908373ffffffffffffffffffffffffffffffffffffffff1602179055508173ffffffffffffffffffffffffffffffffffffffff168173ffffffffffffffffffffffffffffffffffffffff167f8be0079c531659141344cd1fd0a4f28419497f9722a3daafe3b4186f6b6457e060405160405180910390a35050565b505050565b505050565b6000813590506113c281611e68565b92915050565b6000813590506113d781611e7f565b92915050565b6000602082840312156113ef57600080fd5b60006113fd848285016113b3565b91505092915050565b6000806040838503121561141957600080fd5b6000611427858286016113b3565b9250506020611438858286016113b3565b9150509250929050565b60008060006060848603121561145757600080fd5b6000611465868287016113b3565b9350506020611476868287016113b3565b9250506040611487868287016113c8565b9150509250925092565b600080604083850312156114a457600080fd5b60006114b2858286016113b3565b92505060206114c3858286016113c8565b9150509250929050565b6000602082840312156114df57600080fd5b60006114ed848285016113c8565b91505092915050565b6114ff81611a1a565b82525050565b61150e81611a2c565b82525050565b600061151f8261191d565b6115298185611928565b9350611539818560208601611a6f565b61154281611b61565b840191505092915050565b600061155a602383611928565b915061156582611b72565b604082019050919050565b600061157d602683611928565b915061158882611bc1565b604082019050919050565b60006115a0602283611928565b91506115ab82611c10565b604082019050919050565b60006115c3601383611928565b91506115ce82611c5f565b602082019050919050565b60006115e6601d83611928565b91506115f182611c88565b602082019050919050565b6000611609602683611928565b915061161482611cb1565b604082019050919050565b600061162c602083611928565b915061163782611d00565b602082019050919050565b600061164f601383611928565b915061165a82611d29565b602082019050919050565b6000611672602583611928565b915061167d82611d52565b604082019050919050565b6000611695602483611928565b91506116a082611da1565b604082019050919050565b60006116b8602583611928565b91506116c382611df0565b604082019050919050565b60006116db601f83611928565b91506116e682611e3f565b602082019050919050565b6116fa81611a58565b82525050565b61170981611a62565b82525050565b600060208201905061172460008301846114f6565b92915050565b600060208201905061173f6000830184611505565b92915050565b6000602082019050818103600083015261175f8184611514565b905092915050565b600060208201905081810360008301526117808161154d565b9050919050565b600060208201905081810360008301526117a081611570565b9050919050565b600060208201905081810360008301526117c081611593565b9050919050565b600060208201905081810360008301526117e0816115b6565b9050919050565b60006020820190508181036000830152611800816115d9565b9050919050565b60006020820190508181036000830152611820816115fc565b9050919050565b600060208201905081810360008301526118408161161f565b9050919050565b6000602082019050818103600083015261186081611642565b9050919050565b6000602082019050818103600083015261188081611665565b9050919050565b600060208201905081810360008301526118a081611688565b9050919050565b600060208201905081810360008301526118c0816116ab565b9050919050565b600060208201905081810360008301526118e0816116ce565b9050919050565b60006020820190506118fc60008301846116f1565b92915050565b60006020820190506119176000830184611700565b92915050565b600081519050919050565b600082825260208201905092915050565b600061194482611a58565b915061194f83611a58565b9250827fffffffffffffffffffffffffffffffffffffffffffffffffffffffffffffffff0382111561198457611983611ad4565b5b828201905092915050565b600061199a82611a58565b91506119a583611a58565b9250826119b5576119b4611b03565b5b828204905092915050565b60006119cb82611a58565b91506119d683611a58565b9250817fffffffffffffffffffffffffffffffffffffffffffffffffffffffffffffffff0483118215151615611a0f57611a0e611ad4565b5b828202905092915050565b6000611a2582611a38565b9050919050565b60008115159050919050565b600073ffffffffffffffffffffffffffffffffffffffff82169050919050565b6000819050919050565b600060ff82169050919050565b60005b83811015611a8d578082015181840152602081019050611a72565b83811115611a9c576000848401525b50505050565b60006002820490506001821680611aba57607f821691505b60208210811415611ace57611acd611b32565b5b50919050565b7f4e487b7100000000000000000000000000000000000000000000000000000000600052601160045260246000fd5b7f4e487b7100000000000000000000000000000000000000000000000000000000600052601260045260246000fd5b7f4e487b7100000000000000000000000000000000000000000000000000000000600052602260045260246000fd5b6000601f19601f8301169050919050565b7f45524332303a207472616e7366657220746f20746865207a65726f206164647260008201527f6573730000000000000000000000000000000000000000000000000000000000602082015250565b7f4f776e61626c653a206e6577206f776e657220697320746865207a65726f206160008201527f6464726573730000000000000000000000000000000000000000000000000000602082015250565b7f45524332303a20617070726f766520746f20746865207a65726f20616464726560008201527f7373000000000000000000000000000000000000000000000000000000000000602082015250565b7f4e6f7420656e6f756768207061796d656e742e00000000000000000000000000600082015250565b7f45524332303a20696e73756666696369656e7420616c6c6f77616e6365000000600082015250565b7f45524332303a207472616e7366657220616d6f756e742065786365656473206260008201527f616c616e63650000000000000000000000000000000000000000000000000000602082015250565b7f4f776e61626c653a2063616c6c6572206973206e6f7420746865206f776e6572600082015250565b7f4e6f7420656e6f7567682062616c616e63652e00000000000000000000000000600082015250565b7f45524332303a207472616e736665722066726f6d20746865207a65726f20616460008201527f6472657373000000000000000000000000000000000000000000000000000000602082015250565b7f45524332303a20617070726f76652066726f6d20746865207a65726f2061646460008201527f7265737300000000000000000000000000000000000000000000000000000000602082015250565b7f45524332303a2064656372656173656420616c6c6f77616e63652062656c6f7760008201527f207a65726f000000000000000000000000000000000000000000000000000000602082015250565b7f45524332303a206d696e7420746f20746865207a65726f206164647265737300600082015250565b611e7181611a1a565b8114611e7c57600080fd5b50565b611e8881611a58565b8114611e9357600080fd5b5056fea2646970667358221220a9cc90af538e7c99b42f84d70ad918b2a7fb4f1a80d1f95d313976b65ee2673564736f6c63430008040033",
  "linkReferences": {},
  "deployedLinkReferences": {}
}