{
  "_format": "hh-sol-artifact-1",
  "contractName": "ElumReward",
  "sourceName": "contracts/ElumReward.sol",
  "abi": [
    {
      "inputs": [],
      "stateMutability": "nonpayable",
      "type": "constructor"
    },
    {
      "anonymous": false,
      "inputs": [
        {
          "indexed": true,
          "internalType": "address",
          "name": "previousOwner",
          "type": "address"
        },
        {
          "indexed": true,
          "internalType": "address",
          "name": "newOwner",
          "type": "address"
        }
      ],
      "name": "OwnershipTransferred",
      "type": "event"
    },
    {
      "inputs": [],
      "name": "DISTRIBUTE_TOKEN",
      "outputs": [
        {
          "internalType": "uint256",
          "name": "",
          "type": "uint256"
        }
      ],
      "stateMutability": "view",
      "type": "function"
    },
    {
      "inputs": [],
      "name": "EPOCH_SECONDS",
      "outputs": [
        {
          "internalType": "uint256",
          "name": "",
          "type": "uint256"
        }
      ],
      "stateMutability": "view",
      "type": "function"
    },
    {
      "inputs": [],
      "name": "MAX_TOKEN_COEFF",
      "outputs": [
        {
          "internalType": "uint256",
          "name": "",
          "type": "uint256"
        }
      ],
      "stateMutability": "view",
      "type": "function"
    },
    {
      "inputs": [
        {
          "internalType": "address",
          "name": "to",
          "type": "address"
        },
        {
          "internalType": "uint256",
          "name": "amount",
          "type": "uint256"
        },
        {
          "internalType": "uint8",
          "name": "_v",
          "type": "uint8"
        },
        {
          "internalType": "bytes32",
          "name": "_r",
          "type": "bytes32"
        },
        {
          "internalType": "bytes32",
          "name": "_s",
          "type": "bytes32"
        }
      ],
      "name": "claimRequest",
      "outputs": [
        {
          "internalType": "bool",
          "name": "",
          "type": "bool"
        }
      ],
      "stateMutability": "nonpayable",
      "type": "function"
    },
    {
      "inputs": [
        {
          "internalType": "address",
          "name": "",
          "type": "address"
        }
      ],
      "name": "claimedTime",
      "outputs": [
        {
          "internalType": "uint256",
          "name": "",
          "type": "uint256"
        }
      ],
      "stateMutability": "view",
      "type": "function"
    },
    {
      "inputs": [
        {
          "internalType": "address",
          "name": "",
          "type": "address"
        }
      ],
      "name": "claimedToken",
      "outputs": [
        {
          "internalType": "uint256",
          "name": "",
          "type": "uint256"
        }
      ],
      "stateMutability": "view",
      "type": "function"
    },
    {
      "inputs": [],
      "name": "deployedTime",
      "outputs": [
        {
          "internalType": "uint256",
          "name": "",
          "type": "uint256"
        }
      ],
      "stateMutability": "view",
      "type": "function"
    },
    {
      "inputs": [
        {
          "internalType": "address",
          "name": "to",
          "type": "address"
        }
      ],
      "name": "getMaxAvailableToken",
      "outputs": [
        {
          "internalType": "uint256",
          "name": "",
          "type": "uint256"
        }
      ],
      "stateMutability": "nonpayable",
      "type": "function"
    },
    {
      "inputs": [],
      "name": "nftContract",
      "outputs": [
        {
          "internalType": "address",
          "name": "",
          "type": "address"
        }
      ],
      "stateMutability": "view",
      "type": "function"
    },
    {
      "inputs": [],
      "name": "owner",
      "outputs": [
        {
          "internalType": "address",
          "name": "",
          "type": "address"
        }
      ],
      "stateMutability": "view",
      "type": "function"
    },
    {
      "inputs": [],
      "name": "renounceOwnership",
      "outputs": [],
      "stateMutability": "nonpayable",
      "type": "function"
    },
    {
      "inputs": [
        {
          "internalType": "address",
          "name": "_nftContract",
          "type": "address"
        }
      ],
      "name": "setNFTAddress",
      "outputs": [],
      "stateMutability": "nonpayable",
      "type": "function"
    },
    {
      "inputs": [
        {
          "internalType": "address",
          "name": "_tokenContract",
          "type": "address"
        }
      ],
      "name": "setTokenAddress",
      "outputs": [],
      "stateMutability": "nonpayable",
      "type": "function"
    },
    {
      "inputs": [],
      "name": "tokenContract",
      "outputs": [
        {
          "internalType": "address",
          "name": "",
          "type": "address"
        }
      ],
      "stateMutability": "view",
      "type": "function"
    },
    {
      "inputs": [
        {
          "internalType": "address",
          "name": "newOwner",
          "type": "address"
        }
      ],
      "name": "transferOwnership",
      "outputs": [],
      "stateMutability": "nonpayable",
      "type": "function"
    },
    {
      "inputs": [
        {
          "internalType": "address",
          "name": "to",
          "type": "address"
        },
        {
          "internalType": "uint256",
          "name": "amount",
          "type": "uint256"
        },
        {
          "internalType": "uint8",
          "name": "_v",
          "type": "uint8"
        },
        {
          "internalType": "bytes32",
          "name": "_r",
          "type": "bytes32"
        },
        {
          "internalType": "bytes32",
          "name": "_s",
          "type": "bytes32"
        }
      ],
      "name": "verify",
      "outputs": [
        {
          "internalType": "address",
          "name": "",
          "type": "address"
        }
      ],
      "stateMutability": "pure",
      "type": "function"
    }
  ],
  "bytecode": "0x6080604052610e106001556107d0600255603260035534801561002157600080fd5b5061003e61003361004a60201b60201c565b61005260201b60201c565b42600881905550610116565b600033905090565b60008060009054906101000a900473ffffffffffffffffffffffffffffffffffffffff169050816000806101000a81548173ffffffffffffffffffffffffffffffffffffffff021916908373ffffffffffffffffffffffffffffffffffffffff1602179055508173ffffffffffffffffffffffffffffffffffffffff168173ffffffffffffffffffffffffffffffffffffffff167f8be0079c531659141344cd1fd0a4f28419497f9722a3daafe3b4186f6b6457e060405160405180910390a35050565b611797806101256000396000f3fe608060405234801561001057600080fd5b50600436106101005760003560e01c80636e21b52c11610097578063d56d229d11610066578063d56d229d1461029d578063dd8cc74a146102bb578063ef332c5a146102d9578063f2fde38b1461030957610100565b80636e21b52c146102275780636f7e254314610245578063715018a6146102755780638da5cb5b1461027f57610100565b80635262265a116100d35780635262265a1461019f57806355a373d6146101bd578063606e78ef146101db57806369d037381461020b57610100565b80631aa20b681461010557806326a4e8d214610135578063461ac019146101515780634e9f3cc31461016f575b600080fd5b61011f600480360381019061011a9190610ebc565b610325565b60405161012c9190611135565b60405180910390f35b61014f600480360381019061014a9190610e6a565b610417565b005b610159610463565b604051610166919061130c565b60405180910390f35b61018960048036038101906101849190610e6a565b610469565b604051610196919061130c565b60405180910390f35b6101a761062f565b6040516101b4919061130c565b60405180910390f35b6101c5610635565b6040516101d29190611135565b60405180910390f35b6101f560048036038101906101f09190610e6a565b61065b565b604051610202919061130c565b60405180910390f35b61022560048036038101906102209190610e6a565b610673565b005b61022f6106bf565b60405161023c919061130c565b60405180910390f35b61025f600480360381019061025a9190610ebc565b6106c5565b60405161026c91906111cc565b60405180910390f35b61027d610a47565b005b610287610a5b565b6040516102949190611135565b60405180910390f35b6102a5610a84565b6040516102b29190611135565b60405180910390f35b6102c3610aaa565b6040516102d0919061130c565b60405180910390f35b6102f360048036038101906102ee9190610e6a565b610ab0565b604051610300919061130c565b60405180910390f35b610323600480360381019061031e9190610e6a565b610ac8565b005b6000806040518060400160405280601c81526020017f19457468657265756d205369676e6564204d6573736167653a0a33320000000081525090506000818888604051602001610376929190611150565b6040516020818303038152906040528051906020012060405160200161039d92919061110d565b6040516020818303038152906040528051906020012090506000600182888888604051600081526020016040526040516103da94939291906111e7565b6020604051602081039080840390855afa1580156103fc573d6000803e3d6000fd5b50505060206040510351905080935050505095945050505050565b61041f610b4c565b80600460006101000a81548173ffffffffffffffffffffffffffffffffffffffff021916908373ffffffffffffffffffffffffffffffffffffffff16021790555050565b60085481565b600080600560009054906101000a900473ffffffffffffffffffffffffffffffffffffffff1673ffffffffffffffffffffffffffffffffffffffff1663bcf16f2d6040518163ffffffff1660e01b815260040160206040518083038186803b1580156104d457600080fd5b505afa1580156104e8573d6000803e3d6000fd5b505050506040513d601f19601f8201168201806040525081019061050c9190610f5c565b905060008111610551576040517f08c379a0000000000000000000000000000000000000000000000000000000008152600401610548906112ec565b60405180910390fd5b600060085490506000600760008673ffffffffffffffffffffffffffffffffffffffff1673ffffffffffffffffffffffffffffffffffffffff16815260200190815260200160002054146105e257600760008573ffffffffffffffffffffffffffffffffffffffff1673ffffffffffffffffffffffffffffffffffffffff1681526020019081526020016000205490505b600060015482426105f3919061142f565b6105fd91906113a4565b9050828160035460025461061191906113d5565b61061b91906113d5565b61062591906113a4565b9350505050919050565b60015481565b600460009054906101000a900473ffffffffffffffffffffffffffffffffffffffff1681565b60066020528060005260406000206000915090505481565b61067b610b4c565b80600560006101000a81548173ffffffffffffffffffffffffffffffffffffffff021916908373ffffffffffffffffffffffffffffffffffffffff16021790555050565b60025481565b60006106cf610a5b565b73ffffffffffffffffffffffffffffffffffffffff163073ffffffffffffffffffffffffffffffffffffffff16631aa20b6888888888886040518663ffffffff1660e01b8152600401610726959493929190611179565b60206040518083038186803b15801561073e57600080fd5b505afa158015610752573d6000803e3d6000fd5b505050506040513d601f19601f820116820180604052508101906107769190610e93565b73ffffffffffffffffffffffffffffffffffffffff16146107cc576040517f08c379a00000000000000000000000000000000000000000000000000000000081526004016107c39061126c565b60405180910390fd5b6000851161080f576040517f08c379a00000000000000000000000000000000000000000000000000000000081526004016108069061122c565b60405180910390fd5b600073ffffffffffffffffffffffffffffffffffffffff168673ffffffffffffffffffffffffffffffffffffffff16141561087f576040517f08c379a0000000000000000000000000000000000000000000000000000000008152600401610876906112ac565b60405180910390fd5b84600660008873ffffffffffffffffffffffffffffffffffffffff1673ffffffffffffffffffffffffffffffffffffffff1681526020019081526020016000205410610900576040517f08c379a00000000000000000000000000000000000000000000000000000000081526004016108f7906112cc565b60405180910390fd5b8461090a87610469565b600660008973ffffffffffffffffffffffffffffffffffffffff1673ffffffffffffffffffffffffffffffffffffffff16815260200190815260200160002054610954919061134e565b1161095e57600080fd5b6109b286600660008973ffffffffffffffffffffffffffffffffffffffff1673ffffffffffffffffffffffffffffffffffffffff16815260200190815260200160002054876109ad919061142f565b610bca565b42600760008873ffffffffffffffffffffffffffffffffffffffff1673ffffffffffffffffffffffffffffffffffffffff1681526020019081526020016000208190555084600660008873ffffffffffffffffffffffffffffffffffffffff1673ffffffffffffffffffffffffffffffffffffffff168152602001908152602001600020819055506001905095945050505050565b610a4f610b4c565b610a596000610d0b565b565b60008060009054906101000a900473ffffffffffffffffffffffffffffffffffffffff16905090565b600560009054906101000a900473ffffffffffffffffffffffffffffffffffffffff1681565b60035481565b60076020528060005260406000206000915090505481565b610ad0610b4c565b600073ffffffffffffffffffffffffffffffffffffffff168173ffffffffffffffffffffffffffffffffffffffff161415610b40576040517f08c379a0000000000000000000000000000000000000000000000000000000008152600401610b379061124c565b60405180910390fd5b610b4981610d0b565b50565b610b54610dcf565b73ffffffffffffffffffffffffffffffffffffffff16610b72610a5b565b73ffffffffffffffffffffffffffffffffffffffff1614610bc8576040517f08c379a0000000000000000000000000000000000000000000000000000000008152600401610bbf9061128c565b60405180910390fd5b565b600460009054906101000a900473ffffffffffffffffffffffffffffffffffffffff1673ffffffffffffffffffffffffffffffffffffffff166334b4117d826040518263ffffffff1660e01b8152600401610c25919061130c565b600060405180830381600087803b158015610c3f57600080fd5b505af1158015610c53573d6000803e3d6000fd5b50505050600460009054906101000a900473ffffffffffffffffffffffffffffffffffffffff1673ffffffffffffffffffffffffffffffffffffffff1663a9059cbb83836040518363ffffffff1660e01b8152600401610cb4929190611150565b602060405180830381600087803b158015610cce57600080fd5b505af1158015610ce2573d6000803e3d6000fd5b505050506040513d601f19601f82011682018060405250810190610d069190610f33565b505050565b60008060009054906101000a900473ffffffffffffffffffffffffffffffffffffffff169050816000806101000a81548173ffffffffffffffffffffffffffffffffffffffff021916908373ffffffffffffffffffffffffffffffffffffffff1602179055508173ffffffffffffffffffffffffffffffffffffffff168173ffffffffffffffffffffffffffffffffffffffff167f8be0079c531659141344cd1fd0a4f28419497f9722a3daafe3b4186f6b6457e060405160405180910390a35050565b600033905090565b600081359050610de6816116ee565b92915050565b600081519050610dfb816116ee565b92915050565b600081519050610e1081611705565b92915050565b600081359050610e258161171c565b92915050565b600081359050610e3a81611733565b92915050565b600081519050610e4f81611733565b92915050565b600081359050610e648161174a565b92915050565b600060208284031215610e7c57600080fd5b6000610e8a84828501610dd7565b91505092915050565b600060208284031215610ea557600080fd5b6000610eb384828501610dec565b91505092915050565b600080600080600060a08688031215610ed457600080fd5b6000610ee288828901610dd7565b9550506020610ef388828901610e2b565b9450506040610f0488828901610e55565b9350506060610f1588828901610e16565b9250506080610f2688828901610e16565b9150509295509295909350565b600060208284031215610f4557600080fd5b6000610f5384828501610e01565b91505092915050565b600060208284031215610f6e57600080fd5b6000610f7c84828501610e40565b91505092915050565b610f8e81611463565b82525050565b610f9d81611475565b82525050565b610fac81611481565b82525050565b610fc3610fbe82611481565b6114f5565b82525050565b6000610fd482611327565b610fde8185611332565b9350610fee8185602086016114c2565b80840191505092915050565b6000611007601a8361133d565b91506110128261155d565b602082019050919050565b600061102a60268361133d565b915061103582611586565b604082019050919050565b600061104d60168361133d565b9150611058826115d5565b602082019050919050565b600061107060208361133d565b915061107b826115fe565b602082019050919050565b600061109360178361133d565b915061109e82611627565b602082019050919050565b60006110b660298361133d565b91506110c182611650565b604082019050919050565b60006110d960238361133d565b91506110e48261169f565b604082019050919050565b6110f8816114ab565b82525050565b611107816114b5565b82525050565b60006111198285610fc9565b91506111258284610fb2565b6020820191508190509392505050565b600060208201905061114a6000830184610f85565b92915050565b60006040820190506111656000830185610f85565b61117260208301846110ef565b9392505050565b600060a08201905061118e6000830188610f85565b61119b60208301876110ef565b6111a860408301866110fe565b6111b56060830185610fa3565b6111c26080830184610fa3565b9695505050505050565b60006020820190506111e16000830184610f94565b92915050565b60006080820190506111fc6000830187610fa3565b61120960208301866110fe565b6112166040830185610fa3565b6112236060830184610fa3565b95945050505050565b6000602082019050818103600083015261124581610ffa565b9050919050565b600060208201905081810360008301526112658161101d565b9050919050565b6000602082019050818103600083015261128581611040565b9050919050565b600060208201905081810360008301526112a581611063565b9050919050565b600060208201905081810360008301526112c581611086565b9050919050565b600060208201905081810360008301526112e5816110a9565b9050919050565b60006020820190508181036000830152611305816110cc565b9050919050565b600060208201905061132160008301846110ef565b92915050565b600081519050919050565b600081905092915050565b600082825260208201905092915050565b6000611359826114ab565b9150611364836114ab565b9250827fffffffffffffffffffffffffffffffffffffffffffffffffffffffffffffffff03821115611399576113986114ff565b5b828201905092915050565b60006113af826114ab565b91506113ba836114ab565b9250826113ca576113c961152e565b5b828204905092915050565b60006113e0826114ab565b91506113eb836114ab565b9250817fffffffffffffffffffffffffffffffffffffffffffffffffffffffffffffffff0483118215151615611424576114236114ff565b5b828202905092915050565b600061143a826114ab565b9150611445836114ab565b925082821015611458576114576114ff565b5b828203905092915050565b600061146e8261148b565b9050919050565b60008115159050919050565b6000819050919050565b600073ffffffffffffffffffffffffffffffffffffffff82169050919050565b6000819050919050565b600060ff82169050919050565b60005b838110156114e05780820151818401526020810190506114c5565b838111156114ef576000848401525b50505050565b6000819050919050565b7f4e487b7100000000000000000000000000000000000000000000000000000000600052601160045260246000fd5b7f4e487b7100000000000000000000000000000000000000000000000000000000600052601260045260246000fd5b7f616d6f756e742073686f756c6420626520706f7369746976652e000000000000600082015250565b7f4f776e61626c653a206e6577206f776e657220697320746865207a65726f206160008201527f6464726573730000000000000000000000000000000000000000000000000000602082015250565b7f7369676e617475726520636865636b206661696c656400000000000000000000600082015250565b7f4f776e61626c653a2063616c6c6572206973206e6f7420746865206f776e6572600082015250565b7f616464726573732063616e6e6f74206265207a65726f2e000000000000000000600082015250565b7f636c61696d656420746f6b656e2073686f756c64206265206c6573732074686160008201527f6e20616d6f756e742e0000000000000000000000000000000000000000000000602082015250565b7f746f74616c4e46542073686f756c6420626520706f736974697665206e756d6260008201527f65722e0000000000000000000000000000000000000000000000000000000000602082015250565b6116f781611463565b811461170257600080fd5b50565b61170e81611475565b811461171957600080fd5b50565b61172581611481565b811461173057600080fd5b50565b61173c816114ab565b811461174757600080fd5b50565b611753816114b5565b811461175e57600080fd5b5056fea26469706673582212209fe46edb9fcb17dde92a0b87f50d28d4a9fae2e439e8a05cb0d4c9d99899cd5464736f6c63430008040033",
  "linkReferences": {},
  "deployedLinkReferences": {}
}