{
  "_format": "hh-sol-artifact-1",
  "contractName": "ElumReward",
  "sourceName": "contracts/ElumReward.sol",
  "abi": [
    {
      "inputs": [],
      "stateMutability": "nonpayable",
      "type": "constructor"
    },
    {
      "anonymous": false,
      "inputs": [
        {
          "indexed": true,
          "internalType": "address",
          "name": "previousOwner",
          "type": "address"
        },
        {
          "indexed": true,
          "internalType": "address",
          "name": "newOwner",
          "type": "address"
        }
      ],
      "name": "OwnershipTransferred",
      "type": "event"
    },
    {
      "inputs": [
        {
          "internalType": "address",
          "name": "to",
          "type": "address"
        },
        {
          "internalType": "uint256",
          "name": "amount",
          "type": "uint256"
        },
        {
          "internalType": "uint8",
          "name": "_v",
          "type": "uint8"
        },
        {
          "internalType": "bytes32",
          "name": "_r",
          "type": "bytes32"
        },
        {
          "internalType": "bytes32",
          "name": "_s",
          "type": "bytes32"
        }
      ],
      "name": "claimRequest",
      "outputs": [
        {
          "internalType": "bool",
          "name": "",
          "type": "bool"
        }
      ],
      "stateMutability": "nonpayable",
      "type": "function"
    },
    {
      "inputs": [],
      "name": "owner",
      "outputs": [
        {
          "internalType": "address",
          "name": "",
          "type": "address"
        }
      ],
      "stateMutability": "view",
      "type": "function"
    },
    {
      "inputs": [],
      "name": "renounceOwnership",
      "outputs": [],
      "stateMutability": "nonpayable",
      "type": "function"
    },
    {
      "inputs": [
        {
          "internalType": "address",
          "name": "_tokenContract",
          "type": "address"
        }
      ],
      "name": "setTokenAddress",
      "outputs": [],
      "stateMutability": "nonpayable",
      "type": "function"
    },
    {
      "inputs": [],
      "name": "tokenContract",
      "outputs": [
        {
          "internalType": "address",
          "name": "",
          "type": "address"
        }
      ],
      "stateMutability": "view",
      "type": "function"
    },
    {
      "inputs": [
        {
          "internalType": "address",
          "name": "newOwner",
          "type": "address"
        }
      ],
      "name": "transferOwnership",
      "outputs": [],
      "stateMutability": "nonpayable",
      "type": "function"
    },
    {
      "inputs": [
        {
          "internalType": "address",
          "name": "to",
          "type": "address"
        },
        {
          "internalType": "uint256",
          "name": "amount",
          "type": "uint256"
        },
        {
          "internalType": "uint8",
          "name": "_v",
          "type": "uint8"
        },
        {
          "internalType": "bytes32",
          "name": "_r",
          "type": "bytes32"
        },
        {
          "internalType": "bytes32",
          "name": "_s",
          "type": "bytes32"
        }
      ],
      "name": "verify",
      "outputs": [
        {
          "internalType": "address",
          "name": "",
          "type": "address"
        }
      ],
      "stateMutability": "pure",
      "type": "function"
    }
  ],
  "bytecode": "0x608060405234801561001057600080fd5b5061002d61002261003260201b60201c565b61003a60201b60201c565b6100fe565b600033905090565b60008060009054906101000a900473ffffffffffffffffffffffffffffffffffffffff169050816000806101000a81548173ffffffffffffffffffffffffffffffffffffffff021916908373ffffffffffffffffffffffffffffffffffffffff1602179055508173ffffffffffffffffffffffffffffffffffffffff168173ffffffffffffffffffffffffffffffffffffffff167f8be0079c531659141344cd1fd0a4f28419497f9722a3daafe3b4186f6b6457e060405160405180910390a35050565b610ecc8061010d6000396000f3fe608060405234801561001057600080fd5b506004361061007d5760003560e01c80636f7e25431161005b5780636f7e2543146100ec578063715018a61461011c5780638da5cb5b14610126578063f2fde38b146101445761007d565b80631aa20b681461008257806326a4e8d2146100b257806355a373d6146100ce575b600080fd5b61009c600480360381019061009791906108b1565b610160565b6040516100a99190610abb565b60405180910390f35b6100cc60048036038101906100c7919061085f565b610252565b005b6100d661029e565b6040516100e39190610abb565b60405180910390f35b610106600480360381019061010191906108b1565b6102c4565b6040516101139190610b52565b60405180910390f35b610124610495565b005b61012e6104a9565b60405161013b9190610abb565b60405180910390f35b61015e6004803603810190610159919061085f565b6104d2565b005b6000806040518060400160405280601c81526020017f19457468657265756d205369676e6564204d6573736167653a0a333200000000815250905060008188886040516020016101b1929190610ad6565b604051602081830303815290604052805190602001206040516020016101d8929190610a93565b6040516020818303038152906040528051906020012090506000600182888888604051600081526020016040526040516102159493929190610b6d565b6020604051602081039080840390855afa158015610237573d6000803e3d6000fd5b50505060206040510351905080935050505095945050505050565b61025a610556565b80600160006101000a81548173ffffffffffffffffffffffffffffffffffffffff021916908373ffffffffffffffffffffffffffffffffffffffff16021790555050565b600160009054906101000a900473ffffffffffffffffffffffffffffffffffffffff1681565b60006102ce6104a9565b73ffffffffffffffffffffffffffffffffffffffff163073ffffffffffffffffffffffffffffffffffffffff16631aa20b6888888888886040518663ffffffff1660e01b8152600401610325959493929190610aff565b60206040518083038186803b15801561033d57600080fd5b505afa158015610351573d6000803e3d6000fd5b505050506040513d601f19601f820116820180604052508101906103759190610888565b73ffffffffffffffffffffffffffffffffffffffff16146103cb576040517f08c379a00000000000000000000000000000000000000000000000000000000081526004016103c290610bf2565b60405180910390fd5b6000851161040e576040517f08c379a000000000000000000000000000000000000000000000000000000000815260040161040590610bb2565b60405180910390fd5b600073ffffffffffffffffffffffffffffffffffffffff168673ffffffffffffffffffffffffffffffffffffffff16141561047e576040517f08c379a000000000000000000000000000000000000000000000000000000000815260040161047590610c32565b60405180910390fd5b61048886866105d4565b6001905095945050505050565b61049d610556565b6104a76000610715565b565b60008060009054906101000a900473ffffffffffffffffffffffffffffffffffffffff16905090565b6104da610556565b600073ffffffffffffffffffffffffffffffffffffffff168173ffffffffffffffffffffffffffffffffffffffff16141561054a576040517f08c379a000000000000000000000000000000000000000000000000000000000815260040161054190610bd2565b60405180910390fd5b61055381610715565b50565b61055e6107d9565b73ffffffffffffffffffffffffffffffffffffffff1661057c6104a9565b73ffffffffffffffffffffffffffffffffffffffff16146105d2576040517f08c379a00000000000000000000000000000000000000000000000000000000081526004016105c990610c12565b60405180910390fd5b565b600160009054906101000a900473ffffffffffffffffffffffffffffffffffffffff1673ffffffffffffffffffffffffffffffffffffffff166334b4117d826040518263ffffffff1660e01b815260040161062f9190610c52565b600060405180830381600087803b15801561064957600080fd5b505af115801561065d573d6000803e3d6000fd5b50505050600160009054906101000a900473ffffffffffffffffffffffffffffffffffffffff1673ffffffffffffffffffffffffffffffffffffffff1663a9059cbb83836040518363ffffffff1660e01b81526004016106be929190610ad6565b602060405180830381600087803b1580156106d857600080fd5b505af11580156106ec573d6000803e3d6000fd5b505050506040513d601f19601f820116820180604052508101906107109190610928565b505050565b60008060009054906101000a900473ffffffffffffffffffffffffffffffffffffffff169050816000806101000a81548173ffffffffffffffffffffffffffffffffffffffff021916908373ffffffffffffffffffffffffffffffffffffffff1602179055508173ffffffffffffffffffffffffffffffffffffffff168173ffffffffffffffffffffffffffffffffffffffff167f8be0079c531659141344cd1fd0a4f28419497f9722a3daafe3b4186f6b6457e060405160405180910390a35050565b600033905090565b6000813590506107f081610e23565b92915050565b60008151905061080581610e23565b92915050565b60008151905061081a81610e3a565b92915050565b60008135905061082f81610e51565b92915050565b60008135905061084481610e68565b92915050565b60008135905061085981610e7f565b92915050565b60006020828403121561087157600080fd5b600061087f848285016107e1565b91505092915050565b60006020828403121561089a57600080fd5b60006108a8848285016107f6565b91505092915050565b600080600080600060a086880312156108c957600080fd5b60006108d7888289016107e1565b95505060206108e888828901610835565b94505060406108f98882890161084a565b935050606061090a88828901610820565b925050608061091b88828901610820565b9150509295509295909350565b60006020828403121561093a57600080fd5b60006109488482850161080b565b91505092915050565b61095a81610c94565b82525050565b61096981610ca6565b82525050565b61097881610cb2565b82525050565b61098f61098a82610cb2565b610d26565b82525050565b60006109a082610c6d565b6109aa8185610c78565b93506109ba818560208601610cf3565b80840191505092915050565b60006109d3601a83610c83565b91506109de82610d30565b602082019050919050565b60006109f6602683610c83565b9150610a0182610d59565b604082019050919050565b6000610a19601683610c83565b9150610a2482610da8565b602082019050919050565b6000610a3c602083610c83565b9150610a4782610dd1565b602082019050919050565b6000610a5f601783610c83565b9150610a6a82610dfa565b602082019050919050565b610a7e81610cdc565b82525050565b610a8d81610ce6565b82525050565b6000610a9f8285610995565b9150610aab828461097e565b6020820191508190509392505050565b6000602082019050610ad06000830184610951565b92915050565b6000604082019050610aeb6000830185610951565b610af86020830184610a75565b9392505050565b600060a082019050610b146000830188610951565b610b216020830187610a75565b610b2e6040830186610a84565b610b3b606083018561096f565b610b48608083018461096f565b9695505050505050565b6000602082019050610b676000830184610960565b92915050565b6000608082019050610b82600083018761096f565b610b8f6020830186610a84565b610b9c604083018561096f565b610ba9606083018461096f565b95945050505050565b60006020820190508181036000830152610bcb816109c6565b9050919050565b60006020820190508181036000830152610beb816109e9565b9050919050565b60006020820190508181036000830152610c0b81610a0c565b9050919050565b60006020820190508181036000830152610c2b81610a2f565b9050919050565b60006020820190508181036000830152610c4b81610a52565b9050919050565b6000602082019050610c676000830184610a75565b92915050565b600081519050919050565b600081905092915050565b600082825260208201905092915050565b6000610c9f82610cbc565b9050919050565b60008115159050919050565b6000819050919050565b600073ffffffffffffffffffffffffffffffffffffffff82169050919050565b6000819050919050565b600060ff82169050919050565b60005b83811015610d11578082015181840152602081019050610cf6565b83811115610d20576000848401525b50505050565b6000819050919050565b7f616d6f756e742073686f756c6420626520706f7369746976652e000000000000600082015250565b7f4f776e61626c653a206e6577206f776e657220697320746865207a65726f206160008201527f6464726573730000000000000000000000000000000000000000000000000000602082015250565b7f7369676e617475726520636865636b206661696c656400000000000000000000600082015250565b7f4f776e61626c653a2063616c6c6572206973206e6f7420746865206f776e6572600082015250565b7f616464726573732063616e6e6f74206265207a65726f2e000000000000000000600082015250565b610e2c81610c94565b8114610e3757600080fd5b50565b610e4381610ca6565b8114610e4e57600080fd5b50565b610e5a81610cb2565b8114610e6557600080fd5b50565b610e7181610cdc565b8114610e7c57600080fd5b50565b610e8881610ce6565b8114610e9357600080fd5b5056fea26469706673582212200150ce9740d2c5035c0db06ed3d6c18a4ee74925882d503da837e8512747c66e64736f6c63430008040033",
  "linkReferences": {},
  "deployedLinkReferences": {}
}