{
  "_format": "hh-sol-artifact-1",
  "contractName": "ElumNFT",
  "sourceName": "contracts/ElumNFT.sol",
  "abi": [
    {
      "anonymous": false,
      "inputs": [
        {
          "indexed": false,
          "internalType": "address[]",
          "name": "",
          "type": "address[]"
        },
        {
          "indexed": false,
          "internalType": "bool",
          "name": "",
          "type": "bool"
        }
      ],
      "name": "AffectWhiteList",
      "type": "event"
    },
    {
      "anonymous": false,
      "inputs": [
        {
          "indexed": true,
          "internalType": "address",
          "name": "previousOwner",
          "type": "address"
        },
        {
          "indexed": true,
          "internalType": "address",
          "name": "newOwner",
          "type": "address"
        }
      ],
      "name": "OwnershipTransferred",
      "type": "event"
    },
    {
      "inputs": [],
      "name": "NFT_ID_COUNTER",
      "outputs": [
        {
          "internalType": "uint256",
          "name": "",
          "type": "uint256"
        }
      ],
      "stateMutability": "view",
      "type": "function"
    },
    {
      "inputs": [],
      "name": "NFT_TYPE_COUNTER",
      "outputs": [
        {
          "internalType": "uint256",
          "name": "",
          "type": "uint256"
        }
      ],
      "stateMutability": "view",
      "type": "function"
    },
    {
      "inputs": [
        {
          "internalType": "string",
          "name": "metadataURI",
          "type": "string"
        },
        {
          "internalType": "uint256",
          "name": "price",
          "type": "uint256"
        }
      ],
      "name": "addNewType",
      "outputs": [
        {
          "internalType": "uint256",
          "name": "",
          "type": "uint256"
        }
      ],
      "stateMutability": "nonpayable",
      "type": "function"
    },
    {
      "inputs": [
        {
          "internalType": "address[]",
          "name": "_addressList",
          "type": "address[]"
        },
        {
          "internalType": "bool",
          "name": "isApprove",
          "type": "bool"
        }
      ],
      "name": "affectWhiteList",
      "outputs": [],
      "stateMutability": "nonpayable",
      "type": "function"
    },
    {
      "inputs": [
        {
          "internalType": "address",
          "name": "_address",
          "type": "address"
        }
      ],
      "name": "balanceOf",
      "outputs": [
        {
          "internalType": "uint256[]",
          "name": "",
          "type": "uint256[]"
        }
      ],
      "stateMutability": "view",
      "type": "function"
    },
    {
      "inputs": [
        {
          "internalType": "uint256",
          "name": "nftType",
          "type": "uint256"
        },
        {
          "internalType": "uint256",
          "name": "amount",
          "type": "uint256"
        }
      ],
      "name": "buyNFT",
      "outputs": [
        {
          "internalType": "bool",
          "name": "",
          "type": "bool"
        }
      ],
      "stateMutability": "payable",
      "type": "function"
    },
    {
      "inputs": [
        {
          "internalType": "address",
          "name": "_address",
          "type": "address"
        },
        {
          "internalType": "uint256",
          "name": "nftID",
          "type": "uint256"
        }
      ],
      "name": "isOwner",
      "outputs": [
        {
          "internalType": "bool",
          "name": "",
          "type": "bool"
        }
      ],
      "stateMutability": "view",
      "type": "function"
    },
    {
      "inputs": [
        {
          "internalType": "address",
          "name": "addr",
          "type": "address"
        }
      ],
      "name": "isWhiteLists",
      "outputs": [
        {
          "internalType": "bool",
          "name": "",
          "type": "bool"
        }
      ],
      "stateMutability": "view",
      "type": "function"
    },
    {
      "inputs": [
        {
          "internalType": "uint256[]",
          "name": "ids",
          "type": "uint256[]"
        },
        {
          "internalType": "uint256[]",
          "name": "amounts",
          "type": "uint256[]"
        }
      ],
      "name": "mint",
      "outputs": [
        {
          "internalType": "bool",
          "name": "",
          "type": "bool"
        }
      ],
      "stateMutability": "nonpayable",
      "type": "function"
    },
    {
      "inputs": [],
      "name": "owner",
      "outputs": [
        {
          "internalType": "address",
          "name": "",
          "type": "address"
        }
      ],
      "stateMutability": "view",
      "type": "function"
    },
    {
      "inputs": [],
      "name": "renounceOwnership",
      "outputs": [],
      "stateMutability": "nonpayable",
      "type": "function"
    },
    {
      "inputs": [
        {
          "internalType": "address",
          "name": "_token_address",
          "type": "address"
        }
      ],
      "name": "setTokenAddress",
      "outputs": [],
      "stateMutability": "nonpayable",
      "type": "function"
    },
    {
      "inputs": [],
      "name": "token_address",
      "outputs": [
        {
          "internalType": "address",
          "name": "",
          "type": "address"
        }
      ],
      "stateMutability": "view",
      "type": "function"
    },
    {
      "inputs": [
        {
          "internalType": "uint256[]",
          "name": "ids",
          "type": "uint256[]"
        },
        {
          "internalType": "address",
          "name": "to",
          "type": "address"
        }
      ],
      "name": "transferNFT",
      "outputs": [],
      "stateMutability": "nonpayable",
      "type": "function"
    },
    {
      "inputs": [
        {
          "internalType": "address",
          "name": "newOwner",
          "type": "address"
        }
      ],
      "name": "transferOwnership",
      "outputs": [],
      "stateMutability": "nonpayable",
      "type": "function"
    },
    {
      "inputs": [
        {
          "internalType": "uint256",
          "name": "nftID",
          "type": "uint256"
        },
        {
          "internalType": "string",
          "name": "metadataURI",
          "type": "string"
        },
        {
          "internalType": "uint256",
          "name": "price",
          "type": "uint256"
        }
      ],
      "name": "updateType",
      "outputs": [],
      "stateMutability": "nonpayable",
      "type": "function"
    }
  ],
  "bytecode": "0x6080604052600060015560006002553480156200001b57600080fd5b506200003c620000306200004260201b60201c565b6200004a60201b60201c565b6200010e565b600033905090565b60008060009054906101000a900473ffffffffffffffffffffffffffffffffffffffff169050816000806101000a81548173ffffffffffffffffffffffffffffffffffffffff021916908373ffffffffffffffffffffffffffffffffffffffff1602179055508173ffffffffffffffffffffffffffffffffffffffff168173ffffffffffffffffffffffffffffffffffffffff167f8be0079c531659141344cd1fd0a4f28419497f9722a3daafe3b4186f6b6457e060405160405180910390a35050565b612a52806200011e6000396000f3fe6080604052600436106100f35760003560e01c80638c8e8fee1161008a578063e327a6af11610059578063e327a6af1461031b578063f2fde38b14610358578063fcc2278b14610381578063ffc47c59146103be576100f3565b80638c8e8fee1461025f5780638da5cb5b1461028a578063bb549536146102b5578063e2bea1ec146102f2576100f3565b8063490a27c4116100c6578063490a27c4146101b75780636b01e751146101e057806370a082311461020b578063715018a614610248576100f3565b80631d85bf03146100f857806326a4e8d214610128578063337b81f6146101515780633d5d190c1461017a575b600080fd5b610112600480360381019061010d9190611c1e565b6103e9565b60405161011f9190612075565b60405180910390f35b34801561013457600080fd5b5061014f600480360381019061014a91906119d0565b6106d1565b005b34801561015d57600080fd5b5061017860048036038101906101739190611bb2565b61078d565b005b34801561018657600080fd5b506101a1600480360381019061019c9190611ae5565b610858565b6040516101ae9190612075565b60405180910390f35b3480156101c357600080fd5b506101de60048036038101906101d99190611a35565b610ab1565b005b3480156101ec57600080fd5b506101f5610bbf565b60405161020291906122d0565b60405180910390f35b34801561021757600080fd5b50610232600480360381019061022d91906119d0565b610bc5565b60405161023f9190612053565b60405180910390f35b34801561025457600080fd5b5061025d610c5f565b005b34801561026b57600080fd5b50610274610c73565b6040516102819190612006565b60405180910390f35b34801561029657600080fd5b5061029f610c99565b6040516102ac9190612006565b60405180910390f35b3480156102c157600080fd5b506102dc60048036038101906102d791906119d0565b610cc2565b6040516102e99190612075565b60405180910390f35b3480156102fe57600080fd5b5061031960048036038101906103149190611a8d565b610d18565b005b34801561032757600080fd5b50610342600480360381019061033d91906119f9565b611461565b60405161034f9190612075565b60405180910390f35b34801561036457600080fd5b5061037f600480360381019061037a91906119d0565b611584565b005b34801561038d57600080fd5b506103a860048036038101906103a39190611b5a565b611608565b6040516103b591906122d0565b60405180910390f35b3480156103ca57600080fd5b506103d36116c0565b6040516103e091906122d0565b60405180910390f35b60006103f433610cc2565b610433576040517f08c379a000000000000000000000000000000000000000000000000000000000815260040161042a906120d0565b60405180910390fd5b6001548310610477576040517f08c379a000000000000000000000000000000000000000000000000000000000815260040161046e906121b0565b60405180910390fd5b81600360008581526020019081526020016000206003015410156104d0576040517f08c379a00000000000000000000000000000000000000000000000000000000081526004016104c790612270565b60405180910390fd5b6003600084815260200190815260200160002060010154826104f291906123ca565b341015610534576040517f08c379a000000000000000000000000000000000000000000000000000000000815260040161052b90612130565b60405180910390fd5b60005b828110156106c6573360056000600254815260200190815260200160002060000160006101000a81548173ffffffffffffffffffffffffffffffffffffffff021916908373ffffffffffffffffffffffffffffffffffffffff16021790555083600560006002548152602001908152602001600020600101819055504260056000600254815260200190815260200160002060020181905550600460003373ffffffffffffffffffffffffffffffffffffffff1673ffffffffffffffffffffffffffffffffffffffff1681526020019081526020016000206000018054905060056000600254815260200190815260200160002060030181905550600460003373ffffffffffffffffffffffffffffffffffffffff1673ffffffffffffffffffffffffffffffffffffffff16815260200190815260200160002060000160025490806001815401808255809150506001900390600052602060002001600090919091909150556002600081546106ac906124d2565b9190508190555080806106be906124d2565b915050610537565b506001905092915050565b6106d96116c6565b600073ffffffffffffffffffffffffffffffffffffffff168173ffffffffffffffffffffffffffffffffffffffff161415610749576040517f08c379a0000000000000000000000000000000000000000000000000000000008152600401610740906120f0565b60405180910390fd5b80600760006101000a81548173ffffffffffffffffffffffffffffffffffffffff021916908373ffffffffffffffffffffffffffffffffffffffff16021790555050565b6107956116c6565b60015484106107d9576040517f08c379a00000000000000000000000000000000000000000000000000000000081526004016107d090612290565b60405180910390fd5b82826003600087815260200190815260200160002060000191906107fe929190611810565b50806003600086815260200190815260200160002060010181905550600060036000868152602001908152602001600020600201819055506000600360008681526020019081526020016000206003018190555050505050565b60006108626116c6565b8282905085859050146108aa576040517f08c379a00000000000000000000000000000000000000000000000000000000081526004016108a1906121d0565b60405180910390fd5b60005b85859050811015610aa4576001548686838181106108f4577f4e487b7100000000000000000000000000000000000000000000000000000000600052603260045260246000fd5b905060200201351061093b576040517f08c379a000000000000000000000000000000000000000000000000000000000815260040161093290612290565b60405180910390fd5b838382818110610974577f4e487b7100000000000000000000000000000000000000000000000000000000600052603260045260246000fd5b90506020020135600360008888858181106109b8577f4e487b7100000000000000000000000000000000000000000000000000000000600052603260045260246000fd5b90506020020135815260200190815260200160002060020160008282546109df9190612374565b92505081905550838382818110610a1f577f4e487b7100000000000000000000000000000000000000000000000000000000600052603260045260246000fd5b9050602002013560036000888885818110610a63577f4e487b7100000000000000000000000000000000000000000000000000000000600052603260045260246000fd5b9050602002013581526020019081526020016000206003016000828254610a8a9190612374565b925050819055508080610a9c906124d2565b9150506108ad565b5060019050949350505050565b610ab96116c6565b60005b83839050811015610b7e578160066000868685818110610b05577f4e487b7100000000000000000000000000000000000000000000000000000000600052603260045260246000fd5b9050602002016020810190610b1a91906119d0565b73ffffffffffffffffffffffffffffffffffffffff1673ffffffffffffffffffffffffffffffffffffffff16815260200190815260200160002060006101000a81548160ff0219169083151502179055508080610b76906124d2565b915050610abc565b507fab5e233cc7db745f9ab86a3beed645c8318493782c05f0b9518571d2f45802aa838383604051610bb293929190612021565b60405180910390a1505050565b60025481565b6060600460008373ffffffffffffffffffffffffffffffffffffffff1673ffffffffffffffffffffffffffffffffffffffff168152602001908152602001600020600001805480602002602001604051908101604052809291908181526020018280548015610c5357602002820191906000526020600020905b815481526020019060010190808311610c3f575b50505050509050919050565b610c676116c6565b610c716000611744565b565b600760009054906101000a900473ffffffffffffffffffffffffffffffffffffffff1681565b60008060009054906101000a900473ffffffffffffffffffffffffffffffffffffffff16905090565b6000600660008373ffffffffffffffffffffffffffffffffffffffff1673ffffffffffffffffffffffffffffffffffffffff16815260200190815260200160002060009054906101000a900460ff169050919050565b600073ffffffffffffffffffffffffffffffffffffffff168173ffffffffffffffffffffffffffffffffffffffff161415610d88576040517f08c379a0000000000000000000000000000000000000000000000000000000008152600401610d7f90612170565b60405180910390fd5b610d9133610cc2565b610dd0576040517f08c379a0000000000000000000000000000000000000000000000000000000008152600401610dc790612230565b60405180910390fd5b610dd981610cc2565b610e18576040517f08c379a0000000000000000000000000000000000000000000000000000000008152600401610e0f90612210565b60405180910390fd5b60005b8383905081101561145b576000848483818110610e61577f4e487b7100000000000000000000000000000000000000000000000000000000600052603260045260246000fd5b9050602002013590506002548110610eae576040517f08c379a0000000000000000000000000000000000000000000000000000000008152600401610ea590612090565b60405180910390fd5b3373ffffffffffffffffffffffffffffffffffffffff166005600083815260200190815260200160002060000160009054906101000a900473ffffffffffffffffffffffffffffffffffffffff1673ffffffffffffffffffffffffffffffffffffffff1614610f52576040517f08c379a0000000000000000000000000000000000000000000000000000000008152600401610f49906122b0565b60405180910390fd5b826005600083815260200190815260200160002060000160006101000a81548173ffffffffffffffffffffffffffffffffffffffff021916908373ffffffffffffffffffffffffffffffffffffffff16021790555042600560008381526020019081526020016000206002018190555060006005600083815260200190815260200160002060030154905081600460003373ffffffffffffffffffffffffffffffffffffffff1673ffffffffffffffffffffffffffffffffffffffff1681526020019081526020016000206000018281548110611058577f4e487b7100000000000000000000000000000000000000000000000000000000600052603260045260246000fd5b9060005260206000200154146110a3576040517f08c379a000000000000000000000000000000000000000000000000000000000815260040161109a906120b0565b60405180910390fd5b6000600460003373ffffffffffffffffffffffffffffffffffffffff1673ffffffffffffffffffffffffffffffffffffffff16815260200190815260200160002060000180549050905060008111611130576040517f08c379a000000000000000000000000000000000000000000000000000000000815260040161112790612150565b60405180910390fd5b600460003373ffffffffffffffffffffffffffffffffffffffff1673ffffffffffffffffffffffffffffffffffffffff16815260200190815260200160002060000160018261117f9190612424565b815481106111b6577f4e487b7100000000000000000000000000000000000000000000000000000000600052603260045260246000fd5b9060005260206000200154600460003373ffffffffffffffffffffffffffffffffffffffff1673ffffffffffffffffffffffffffffffffffffffff168152602001908152602001600020600001838154811061123b577f4e487b7100000000000000000000000000000000000000000000000000000000600052603260045260246000fd5b90600052602060002001819055508160056000600460003373ffffffffffffffffffffffffffffffffffffffff1673ffffffffffffffffffffffffffffffffffffffff16815260200190815260200160002060000185815481106112c8577f4e487b7100000000000000000000000000000000000000000000000000000000600052603260045260246000fd5b9060005260206000200154815260200190815260200160002060030181905550600460003373ffffffffffffffffffffffffffffffffffffffff1673ffffffffffffffffffffffffffffffffffffffff168152602001908152602001600020600001805480611360577f4e487b7100000000000000000000000000000000000000000000000000000000600052603160045260246000fd5b600190038181906000526020600020016000905590556000600460008773ffffffffffffffffffffffffffffffffffffffff1673ffffffffffffffffffffffffffffffffffffffff168152602001908152602001600020600001805490509050600460008773ffffffffffffffffffffffffffffffffffffffff1673ffffffffffffffffffffffffffffffffffffffff168152602001908152602001600020600001849080600181540180825580915050600190039060005260206000200160009091909190915055806005600086815260200190815260200160002060030181905550505050508080611453906124d2565b915050610e1b565b50505050565b600060025482106114a7576040517f08c379a000000000000000000000000000000000000000000000000000000000815260040161149e906121f0565b60405180910390fd5b600073ffffffffffffffffffffffffffffffffffffffff168373ffffffffffffffffffffffffffffffffffffffff161415611517576040517f08c379a000000000000000000000000000000000000000000000000000000000815260040161150e90612190565b60405180910390fd5b8273ffffffffffffffffffffffffffffffffffffffff166005600084815260200190815260200160002060000160009054906101000a900473ffffffffffffffffffffffffffffffffffffffff1673ffffffffffffffffffffffffffffffffffffffff1614905092915050565b61158c6116c6565b600073ffffffffffffffffffffffffffffffffffffffff168173ffffffffffffffffffffffffffffffffffffffff1614156115fc576040517f08c379a00000000000000000000000000000000000000000000000000000000081526004016115f390612110565b60405180910390fd5b61160581611744565b50565b60006116126116c6565b83836003600060015481526020019081526020016000206000019190611639929190611810565b5081600360006001548152602001908152602001600020600101819055506000600360006001548152602001908152602001600020600201819055506000600360006001548152602001908152602001600020600301819055506001600081546116a2906124d2565b91905081905550600180546116b79190612424565b90509392505050565b60015481565b6116ce611808565b73ffffffffffffffffffffffffffffffffffffffff166116ec610c99565b73ffffffffffffffffffffffffffffffffffffffff1614611742576040517f08c379a000000000000000000000000000000000000000000000000000000000815260040161173990612250565b60405180910390fd5b565b60008060009054906101000a900473ffffffffffffffffffffffffffffffffffffffff169050816000806101000a81548173ffffffffffffffffffffffffffffffffffffffff021916908373ffffffffffffffffffffffffffffffffffffffff1602179055508173ffffffffffffffffffffffffffffffffffffffff168173ffffffffffffffffffffffffffffffffffffffff167f8be0079c531659141344cd1fd0a4f28419497f9722a3daafe3b4186f6b6457e060405160405180910390a35050565b600033905090565b82805461181c906124a0565b90600052602060002090601f01602090048101928261183e5760008555611885565b82601f1061185757803560ff1916838001178555611885565b82800160010185558215611885579182015b82811115611884578235825591602001919060010190611869565b5b5090506118929190611896565b5090565b5b808211156118af576000816000905550600101611897565b5090565b6000813590506118c2816129d7565b92915050565b60008083601f8401126118da57600080fd5b8235905067ffffffffffffffff8111156118f357600080fd5b60208301915083602082028301111561190b57600080fd5b9250929050565b60008083601f84011261192457600080fd5b8235905067ffffffffffffffff81111561193d57600080fd5b60208301915083602082028301111561195557600080fd5b9250929050565b60008135905061196b816129ee565b92915050565b60008083601f84011261198357600080fd5b8235905067ffffffffffffffff81111561199c57600080fd5b6020830191508360018202830111156119b457600080fd5b9250929050565b6000813590506119ca81612a05565b92915050565b6000602082840312156119e257600080fd5b60006119f0848285016118b3565b91505092915050565b60008060408385031215611a0c57600080fd5b6000611a1a858286016118b3565b9250506020611a2b858286016119bb565b9150509250929050565b600080600060408486031215611a4a57600080fd5b600084013567ffffffffffffffff811115611a6457600080fd5b611a70868287016118c8565b93509350506020611a838682870161195c565b9150509250925092565b600080600060408486031215611aa257600080fd5b600084013567ffffffffffffffff811115611abc57600080fd5b611ac886828701611912565b93509350506020611adb868287016118b3565b9150509250925092565b60008060008060408587031215611afb57600080fd5b600085013567ffffffffffffffff811115611b1557600080fd5b611b2187828801611912565b9450945050602085013567ffffffffffffffff811115611b4057600080fd5b611b4c87828801611912565b925092505092959194509250565b600080600060408486031215611b6f57600080fd5b600084013567ffffffffffffffff811115611b8957600080fd5b611b9586828701611971565b93509350506020611ba8868287016119bb565b9150509250925092565b60008060008060608587031215611bc857600080fd5b6000611bd6878288016119bb565b945050602085013567ffffffffffffffff811115611bf357600080fd5b611bff87828801611971565b93509350506040611c12878288016119bb565b91505092959194509250565b60008060408385031215611c3157600080fd5b6000611c3f858286016119bb565b9250506020611c50858286016119bb565b9150509250929050565b6000611c668383611c8a565b60208301905092915050565b6000611c7e8383611fe8565b60208301905092915050565b611c9381612458565b82525050565b611ca281612458565b82525050565b6000611cb4838561232a565b9350611cbf826122eb565b8060005b85811015611cf857611cd5828461235d565b611cdf8882611c5a565b9750611cea83612310565b925050600181019050611cc3565b5085925050509392505050565b6000611d1082612305565b611d1a818561233b565b9350611d25836122f5565b8060005b83811015611d56578151611d3d8882611c72565b9750611d488361231d565b925050600181019050611d29565b5085935050505092915050565b611d6c8161246a565b82525050565b6000611d7f602b8361234c565b9150611d8a82612579565b604082019050919050565b6000611da2601b8361234c565b9150611dad826125c8565b602082019050919050565b6000611dc560328361234c565b9150611dd0826125f1565b604082019050919050565b6000611de860158361234c565b9150611df382612640565b602082019050919050565b6000611e0b60268361234c565b9150611e1682612669565b604082019050919050565b6000611e2e60138361234c565b9150611e39826126b8565b602082019050919050565b6000611e51602d8361234c565b9150611e5c826126e1565b604082019050919050565b6000611e74601d8361234c565b9150611e7f82612730565b602082019050919050565b6000611e9760168361234c565b9150611ea282612759565b602082019050919050565b6000611eba602d8361234c565b9150611ec582612782565b604082019050919050565b6000611edd602b8361234c565b9150611ee8826127d1565b604082019050919050565b6000611f0060298361234c565b9150611f0b82612820565b604082019050919050565b6000611f23602b8361234c565b9150611f2e8261286f565b604082019050919050565b6000611f46602b8361234c565b9150611f51826128be565b604082019050919050565b6000611f6960208361234c565b9150611f748261290d565b602082019050919050565b6000611f8c60128361234c565b9150611f9782612936565b602082019050919050565b6000611faf60278361234c565b9150611fba8261295f565b604082019050919050565b6000611fd260168361234c565b9150611fdd826129ae565b602082019050919050565b611ff181612496565b82525050565b61200081612496565b82525050565b600060208201905061201b6000830184611c99565b92915050565b6000604082019050818103600083015261203c818587611ca8565b905061204b6020830184611d63565b949350505050565b6000602082019050818103600083015261206d8184611d05565b905092915050565b600060208201905061208a6000830184611d63565b92915050565b600060208201905081810360008301526120a981611d72565b9050919050565b600060208201905081810360008301526120c981611d95565b9050919050565b600060208201905081810360008301526120e981611db8565b9050919050565b6000602082019050818103600083015261210981611ddb565b9050919050565b6000602082019050818103600083015261212981611dfe565b9050919050565b6000602082019050818103600083015261214981611e21565b9050919050565b6000602082019050818103600083015261216981611e44565b9050919050565b6000602082019050818103600083015261218981611e67565b9050919050565b600060208201905081810360008301526121a981611e8a565b9050919050565b600060208201905081810360008301526121c981611ead565b9050919050565b600060208201905081810360008301526121e981611ed0565b9050919050565b6000602082019050818103600083015261220981611ef3565b9050919050565b6000602082019050818103600083015261222981611f16565b9050919050565b6000602082019050818103600083015261224981611f39565b9050919050565b6000602082019050818103600083015261226981611f5c565b9050919050565b6000602082019050818103600083015261228981611f7f565b9050919050565b600060208201905081810360008301526122a981611fa2565b9050919050565b600060208201905081810360008301526122c981611fc5565b9050919050565b60006020820190506122e56000830184611ff7565b92915050565b6000819050919050565b6000819050602082019050919050565b600081519050919050565b6000602082019050919050565b6000602082019050919050565b600082825260208201905092915050565b600082825260208201905092915050565b600082825260208201905092915050565b600061236c60208401846118b3565b905092915050565b600061237f82612496565b915061238a83612496565b9250827fffffffffffffffffffffffffffffffffffffffffffffffffffffffffffffffff038211156123bf576123be61251b565b5b828201905092915050565b60006123d582612496565b91506123e083612496565b9250817fffffffffffffffffffffffffffffffffffffffffffffffffffffffffffffffff04831182151516156124195761241861251b565b5b828202905092915050565b600061242f82612496565b915061243a83612496565b92508282101561244d5761244c61251b565b5b828203905092915050565b600061246382612476565b9050919050565b60008115159050919050565b600073ffffffffffffffffffffffffffffffffffffffff82169050919050565b6000819050919050565b600060028204905060018216806124b857607f821691505b602082108114156124cc576124cb61254a565b5b50919050565b60006124dd82612496565b91507fffffffffffffffffffffffffffffffffffffffffffffffffffffffffffffffff8214156125105761250f61251b565b5b600182019050919050565b7f4e487b7100000000000000000000000000000000000000000000000000000000600052601160045260246000fd5b7f4e487b7100000000000000000000000000000000000000000000000000000000600052602260045260246000fd5b7f49442076616c75652073686f756c64206265206c657373207468616e204e465460008201527f5f49445f434f554e544552000000000000000000000000000000000000000000602082015250565b7f69642e696e6465782073686f756c6420626520636f72726563742e0000000000600082015250565b7f5468652077616c6c657420616464726573732073686f756c6420626520696e2060008201527f74686520617070726f766564206c6973742e0000000000000000000000000000602082015250565b7f696e76616c696420746f6b656e20616464726573730000000000000000000000600082015250565b7f4f776e61626c653a206e6577206f776e657220697320746865207a65726f206160008201527f6464726573730000000000000000000000000000000000000000000000000000602082015250565b7f4e6f7420656e6f756768207061796d656e742e00000000000000000000000000600082015250565b7f4f6c6420557365722042616c616e63652073686f756c6420626520677265617460008201527f6572207468616e207a65726f2e00000000000000000000000000000000000000602082015250565b7f54617267657420616464726573732063616e6e6f74206265206e756c6c000000600082015250565b7f416464726573732063616e6e6f74206265206e756c6c00000000000000000000600082015250565b7f4e465420547970652073686f756c64206265206c657373207468616e204e465460008201527f5f545950455f434f554e54455200000000000000000000000000000000000000602082015250565b7f496420616e6420416d6f756e74206172726179206c656e6774682073686f756c60008201527f6420626520657175616c2e000000000000000000000000000000000000000000602082015250565b7f4e46542049442073686f756c64206265206c657373207468616e204e46545f4960008201527f445f434f554e5445520000000000000000000000000000000000000000000000602082015250565b7f64737420616464726573732073686f756c6420626520696e207468652061707060008201527f726f766564206c6973742e000000000000000000000000000000000000000000602082015250565b7f73726320616464726573732073686f756c6420626520696e207468652061707060008201527f726f766564206c6973742e000000000000000000000000000000000000000000602082015250565b7f4f776e61626c653a2063616c6c6572206973206e6f7420746865206f776e6572600082015250565b7f4e6f7420656e6f75676820737570706c792e0000000000000000000000000000600082015250565b7f69642073686f756c64206265206c657373207468616e204e46545f545950455f60008201527f434f554e54455200000000000000000000000000000000000000000000000000602082015250565b7f53726320617265206e6f7420746865206f776e65722e00000000000000000000600082015250565b6129e081612458565b81146129eb57600080fd5b50565b6129f78161246a565b8114612a0257600080fd5b50565b612a0e81612496565b8114612a1957600080fd5b5056fea2646970667358221220b82b420d793472d75f1edd9ab61817f23a30d5282ef41500ef39c0142a57654364736f6c63430008040033",
  "linkReferences": {},
  "deployedLinkReferences": {}
}