{
  "_format": "hh-sol-artifact-1",
  "contractName": "ElumToken",
  "sourceName": "contracts/ElumToken.sol",
  "abi": [
    {
      "inputs": [
        {
          "internalType": "uint256",
          "name": "_price",
          "type": "uint256"
        }
      ],
      "stateMutability": "nonpayable",
      "type": "constructor"
    },
    {
      "anonymous": false,
      "inputs": [
        {
          "indexed": true,
          "internalType": "address",
          "name": "owner",
          "type": "address"
        },
        {
          "indexed": true,
          "internalType": "address",
          "name": "spender",
          "type": "address"
        },
        {
          "indexed": false,
          "internalType": "uint256",
          "name": "value",
          "type": "uint256"
        }
      ],
      "name": "Approval",
      "type": "event"
    },
    {
      "anonymous": false,
      "inputs": [
        {
          "indexed": true,
          "internalType": "address",
          "name": "previousOwner",
          "type": "address"
        },
        {
          "indexed": true,
          "internalType": "address",
          "name": "newOwner",
          "type": "address"
        }
      ],
      "name": "OwnershipTransferred",
      "type": "event"
    },
    {
      "anonymous": false,
      "inputs": [
        {
          "indexed": true,
          "internalType": "address",
          "name": "from",
          "type": "address"
        },
        {
          "indexed": true,
          "internalType": "address",
          "name": "to",
          "type": "address"
        },
        {
          "indexed": false,
          "internalType": "uint256",
          "name": "value",
          "type": "uint256"
        }
      ],
      "name": "Transfer",
      "type": "event"
    },
    {
      "inputs": [
        {
          "internalType": "address",
          "name": "owner",
          "type": "address"
        },
        {
          "internalType": "address",
          "name": "spender",
          "type": "address"
        }
      ],
      "name": "allowance",
      "outputs": [
        {
          "internalType": "uint256",
          "name": "",
          "type": "uint256"
        }
      ],
      "stateMutability": "view",
      "type": "function"
    },
    {
      "inputs": [
        {
          "internalType": "address",
          "name": "spender",
          "type": "address"
        },
        {
          "internalType": "uint256",
          "name": "amount",
          "type": "uint256"
        }
      ],
      "name": "approve",
      "outputs": [
        {
          "internalType": "bool",
          "name": "",
          "type": "bool"
        }
      ],
      "stateMutability": "nonpayable",
      "type": "function"
    },
    {
      "inputs": [
        {
          "internalType": "address",
          "name": "account",
          "type": "address"
        }
      ],
      "name": "balanceOf",
      "outputs": [
        {
          "internalType": "uint256",
          "name": "",
          "type": "uint256"
        }
      ],
      "stateMutability": "view",
      "type": "function"
    },
    {
      "inputs": [
        {
          "internalType": "uint256",
          "name": "amount",
          "type": "uint256"
        }
      ],
      "name": "buyTokens",
      "outputs": [],
      "stateMutability": "payable",
      "type": "function"
    },
    {
      "inputs": [],
      "name": "decimals",
      "outputs": [
        {
          "internalType": "uint8",
          "name": "",
          "type": "uint8"
        }
      ],
      "stateMutability": "view",
      "type": "function"
    },
    {
      "inputs": [
        {
          "internalType": "address",
          "name": "spender",
          "type": "address"
        },
        {
          "internalType": "uint256",
          "name": "subtractedValue",
          "type": "uint256"
        }
      ],
      "name": "decreaseAllowance",
      "outputs": [
        {
          "internalType": "bool",
          "name": "",
          "type": "bool"
        }
      ],
      "stateMutability": "nonpayable",
      "type": "function"
    },
    {
      "inputs": [
        {
          "internalType": "address",
          "name": "spender",
          "type": "address"
        },
        {
          "internalType": "uint256",
          "name": "addedValue",
          "type": "uint256"
        }
      ],
      "name": "increaseAllowance",
      "outputs": [
        {
          "internalType": "bool",
          "name": "",
          "type": "bool"
        }
      ],
      "stateMutability": "nonpayable",
      "type": "function"
    },
    {
      "inputs": [],
      "name": "maxSupply",
      "outputs": [
        {
          "internalType": "uint256",
          "name": "",
          "type": "uint256"
        }
      ],
      "stateMutability": "view",
      "type": "function"
    },
    {
      "inputs": [
        {
          "internalType": "uint256",
          "name": "amount",
          "type": "uint256"
        }
      ],
      "name": "mintRewardTokens",
      "outputs": [],
      "stateMutability": "nonpayable",
      "type": "function"
    },
    {
      "inputs": [],
      "name": "name",
      "outputs": [
        {
          "internalType": "string",
          "name": "",
          "type": "string"
        }
      ],
      "stateMutability": "view",
      "type": "function"
    },
    {
      "inputs": [],
      "name": "owner",
      "outputs": [
        {
          "internalType": "address",
          "name": "",
          "type": "address"
        }
      ],
      "stateMutability": "view",
      "type": "function"
    },
    {
      "inputs": [],
      "name": "renounceOwnership",
      "outputs": [],
      "stateMutability": "nonpayable",
      "type": "function"
    },
    {
      "inputs": [],
      "name": "rewardContract",
      "outputs": [
        {
          "internalType": "address",
          "name": "",
          "type": "address"
        }
      ],
      "stateMutability": "view",
      "type": "function"
    },
    {
      "inputs": [],
      "name": "rewardSupply",
      "outputs": [
        {
          "internalType": "uint256",
          "name": "",
          "type": "uint256"
        }
      ],
      "stateMutability": "view",
      "type": "function"
    },
    {
      "inputs": [],
      "name": "saleSupply",
      "outputs": [
        {
          "internalType": "uint256",
          "name": "",
          "type": "uint256"
        }
      ],
      "stateMutability": "view",
      "type": "function"
    },
    {
      "inputs": [
        {
          "internalType": "address",
          "name": "_rewardContract",
          "type": "address"
        }
      ],
      "name": "setRewardContract",
      "outputs": [],
      "stateMutability": "nonpayable",
      "type": "function"
    },
    {
      "inputs": [
        {
          "internalType": "uint256",
          "name": "newPrice",
          "type": "uint256"
        }
      ],
      "name": "setTokenPrice",
      "outputs": [],
      "stateMutability": "nonpayable",
      "type": "function"
    },
    {
      "inputs": [],
      "name": "symbol",
      "outputs": [
        {
          "internalType": "string",
          "name": "",
          "type": "string"
        }
      ],
      "stateMutability": "view",
      "type": "function"
    },
    {
      "inputs": [],
      "name": "tokenPrice",
      "outputs": [
        {
          "internalType": "uint256",
          "name": "",
          "type": "uint256"
        }
      ],
      "stateMutability": "view",
      "type": "function"
    },
    {
      "inputs": [],
      "name": "totalRewardSupply",
      "outputs": [
        {
          "internalType": "uint256",
          "name": "",
          "type": "uint256"
        }
      ],
      "stateMutability": "view",
      "type": "function"
    },
    {
      "inputs": [],
      "name": "totalSaleSupply",
      "outputs": [
        {
          "internalType": "uint256",
          "name": "",
          "type": "uint256"
        }
      ],
      "stateMutability": "view",
      "type": "function"
    },
    {
      "inputs": [],
      "name": "totalSupply",
      "outputs": [
        {
          "internalType": "uint256",
          "name": "",
          "type": "uint256"
        }
      ],
      "stateMutability": "view",
      "type": "function"
    },
    {
      "inputs": [
        {
          "internalType": "address",
          "name": "to",
          "type": "address"
        },
        {
          "internalType": "uint256",
          "name": "amount",
          "type": "uint256"
        }
      ],
      "name": "transfer",
      "outputs": [
        {
          "internalType": "bool",
          "name": "",
          "type": "bool"
        }
      ],
      "stateMutability": "nonpayable",
      "type": "function"
    },
    {
      "inputs": [
        {
          "internalType": "address",
          "name": "from",
          "type": "address"
        },
        {
          "internalType": "address",
          "name": "to",
          "type": "address"
        },
        {
          "internalType": "uint256",
          "name": "amount",
          "type": "uint256"
        }
      ],
      "name": "transferFrom",
      "outputs": [
        {
          "internalType": "bool",
          "name": "",
          "type": "bool"
        }
      ],
      "stateMutability": "nonpayable",
      "type": "function"
    },
    {
      "inputs": [
        {
          "internalType": "address",
          "name": "newOwner",
          "type": "address"
        }
      ],
      "name": "transferOwnership",
      "outputs": [],
      "stateMutability": "nonpayable",
      "type": "function"
    },
    {
      "inputs": [
        {
          "internalType": "address payable",
          "name": "_address",
          "type": "address"
        }
      ],
      "name": "withDraw",
      "outputs": [],
      "stateMutability": "nonpayable",
      "type": "function"
    }
  ],
  "bytecode": "0x60806040526000600660006101000a81548173ffffffffffffffffffffffffffffffffffffffff021916908373ffffffffffffffffffffffffffffffffffffffff1602179055506000600755600060085560006009553480156200006257600080fd5b5060405162002379380380620023798339818101604052810190620000889190620002eb565b6040518060400160405280600981526020017f456c756d546f6b656e00000000000000000000000000000000000000000000008152506040518060400160405280600481526020017f456c756d0000000000000000000000000000000000000000000000000000000081525081600390805190602001906200010c92919062000224565b5080600490805190602001906200012592919062000224565b505050620001486200013c6200015660201b60201c565b6200015e60201b60201c565b8060098190555050620003a0565b600033905090565b6000600560009054906101000a900473ffffffffffffffffffffffffffffffffffffffff16905081600560006101000a81548173ffffffffffffffffffffffffffffffffffffffff021916908373ffffffffffffffffffffffffffffffffffffffff1602179055508173ffffffffffffffffffffffffffffffffffffffff168173ffffffffffffffffffffffffffffffffffffffff167f8be0079c531659141344cd1fd0a4f28419497f9722a3daafe3b4186f6b6457e060405160405180910390a35050565b828054620002329062000321565b90600052602060002090601f016020900481019282620002565760008555620002a2565b82601f106200027157805160ff1916838001178555620002a2565b82800160010185558215620002a2579182015b82811115620002a157825182559160200191906001019062000284565b5b509050620002b19190620002b5565b5090565b5b80821115620002d0576000816000905550600101620002b6565b5090565b600081519050620002e58162000386565b92915050565b600060208284031215620002fe57600080fd5b60006200030e84828501620002d4565b91505092915050565b6000819050919050565b600060028204905060018216806200033a57607f821691505b6020821081141562000351576200035062000357565b5b50919050565b7f4e487b7100000000000000000000000000000000000000000000000000000000600052602260045260246000fd5b620003918162000317565b81146200039d57600080fd5b50565b611fc980620003b06000396000f3fe6080604052600436106101815760003560e01c806370a08231116100d157806395d89b411161008a578063a96af0f411610064578063a96af0f414610579578063d5abeb01146105a4578063dd62ed3e146105cf578063f2fde38b1461060c57610181565b806395d89b41146104d4578063a457c2d7146104ff578063a9059cbb1461053c57610181565b806370a08231146103d4578063715018a61461041157806378231978146104285780637ff9b596146104535780638a8a759e1461047e5780638da5cb5b146104a957610181565b806334b4117d1161013e57806351508f0a1161011857806351508f0a1461032c5780636a61e5fc146103555780636b0c341b1461037e5780636ea69d62146103a957610181565b806334b4117d146102aa5780633610724e146102d357806339509351146102ef57610181565b806306fdde0314610186578063095ea7b3146101b15780630a67d2c7146101ee57806318160ddd1461021757806323b872dd14610242578063313ce5671461027f575b600080fd5b34801561019257600080fd5b5061019b610635565b6040516101a89190611819565b60405180910390f35b3480156101bd57600080fd5b506101d860048036038101906101d39190611565565b6106c7565b6040516101e591906117fe565b60405180910390f35b3480156101fa57600080fd5b50610215600480360381019061021091906114b1565b6106ea565b005b34801561022357600080fd5b5061022c61073c565b60405161023991906119bb565b60405180910390f35b34801561024e57600080fd5b5061026960048036038101906102649190611516565b610746565b60405161027691906117fe565b60405180910390f35b34801561028b57600080fd5b50610294610775565b6040516102a191906119d6565b60405180910390f35b3480156102b657600080fd5b506102d160048036038101906102cc91906115a1565b61077e565b005b6102ed60048036038101906102e891906115a1565b61081c565b005b3480156102fb57600080fd5b5061031660048036038101906103119190611565565b6108e6565b60405161032391906117fe565b60405180910390f35b34801561033857600080fd5b50610353600480360381019061034e9190611488565b61091d565b005b34801561036157600080fd5b5061037c600480360381019061037791906115a1565b610969565b005b34801561038a57600080fd5b5061039361097b565b6040516103a091906119bb565b60405180910390f35b3480156103b557600080fd5b506103be610981565b6040516103cb91906117e3565b60405180910390f35b3480156103e057600080fd5b506103fb60048036038101906103f69190611488565b6109a7565b60405161040891906119bb565b60405180910390f35b34801561041d57600080fd5b506104266109ef565b005b34801561043457600080fd5b5061043d610a03565b60405161044a91906119bb565b60405180910390f35b34801561045f57600080fd5b50610468610a24565b60405161047591906119bb565b60405180910390f35b34801561048a57600080fd5b50610493610a2a565b6040516104a091906119bb565b60405180910390f35b3480156104b557600080fd5b506104be610a4b565b6040516104cb91906117e3565b60405180910390f35b3480156104e057600080fd5b506104e9610a75565b6040516104f69190611819565b60405180910390f35b34801561050b57600080fd5b5061052660048036038101906105219190611565565b610b07565b60405161053391906117fe565b60405180910390f35b34801561054857600080fd5b50610563600480360381019061055e9190611565565b610b7e565b60405161057091906117fe565b60405180910390f35b34801561058557600080fd5b5061058e610ba1565b60405161059b91906119bb565b60405180910390f35b3480156105b057600080fd5b506105b9610ba7565b6040516105c691906119bb565b60405180910390f35b3480156105db57600080fd5b506105f660048036038101906105f191906114da565b610bb0565b60405161060391906119bb565b60405180910390f35b34801561061857600080fd5b50610633600480360381019061062e9190611488565b610c37565b005b60606003805461064490611b88565b80601f016020809104026020016040519081016040528092919081815260200182805461067090611b88565b80156106bd5780601f10610692576101008083540402835291602001916106bd565b820191906000526020600020905b8154815290600101906020018083116106a057829003601f168201915b5050505050905090565b6000806106d2610cbb565b90506106df818585610cc3565b600191505092915050565b6106f2610e8e565b8073ffffffffffffffffffffffffffffffffffffffff166108fc479081150290604051600060405180830381858888f19350505050158015610738573d6000803e3d6000fd5b5050565b6000600254905090565b600080610751610cbb565b905061075e858285610f0c565b610769858585610f98565b60019150509392505050565b60006012905090565b600660009054906101000a900473ffffffffffffffffffffffffffffffffffffffff1673ffffffffffffffffffffffffffffffffffffffff163373ffffffffffffffffffffffffffffffffffffffff16146107d857600080fd5b600a60076404a817c8006107ec9190611a94565b6107f69190611a63565b816007546108049190611a0d565b111561080f57600080fd5b6108193382611219565b50565b6009548161082a9190611a94565b34101561086c576040517f08c379a00000000000000000000000000000000000000000000000000000000081526004016108639061189b565b60405180910390fd5b600a60016404a817c8006108809190611a94565b61088a9190611a63565b816008546108989190611a0d565b11156108d9576040517f08c379a00000000000000000000000000000000000000000000000000000000081526004016108d09061191b565b60405180910390fd5b6108e33382611219565b50565b6000806108f1610cbb565b90506109128185856109038589610bb0565b61090d9190611a0d565b610cc3565b600191505092915050565b610925610e8e565b80600660006101000a81548173ffffffffffffffffffffffffffffffffffffffff021916908373ffffffffffffffffffffffffffffffffffffffff16021790555050565b610971610e8e565b8060098190555050565b60075481565b600660009054906101000a900473ffffffffffffffffffffffffffffffffffffffff1681565b60008060008373ffffffffffffffffffffffffffffffffffffffff1673ffffffffffffffffffffffffffffffffffffffff168152602001908152602001600020549050919050565b6109f7610e8e565b610a016000611379565b565b600a60016404a817c800610a179190611a94565b610a219190611a63565b81565b60095481565b600a60076404a817c800610a3e9190611a94565b610a489190611a63565b81565b6000600560009054906101000a900473ffffffffffffffffffffffffffffffffffffffff16905090565b606060048054610a8490611b88565b80601f0160208091040260200160405190810160405280929190818152602001828054610ab090611b88565b8015610afd5780601f10610ad257610100808354040283529160200191610afd565b820191906000526020600020905b815481529060010190602001808311610ae057829003601f168201915b5050505050905090565b600080610b12610cbb565b90506000610b208286610bb0565b905083811015610b65576040517f08c379a0000000000000000000000000000000000000000000000000000000008152600401610b5c9061197b565b60405180910390fd5b610b728286868403610cc3565b60019250505092915050565b600080610b89610cbb565b9050610b96818585610f98565b600191505092915050565b60085481565b6404a817c80081565b6000600160008473ffffffffffffffffffffffffffffffffffffffff1673ffffffffffffffffffffffffffffffffffffffff16815260200190815260200160002060008373ffffffffffffffffffffffffffffffffffffffff1673ffffffffffffffffffffffffffffffffffffffff16815260200190815260200160002054905092915050565b610c3f610e8e565b600073ffffffffffffffffffffffffffffffffffffffff168173ffffffffffffffffffffffffffffffffffffffff161415610caf576040517f08c379a0000000000000000000000000000000000000000000000000000000008152600401610ca69061185b565b60405180910390fd5b610cb881611379565b50565b600033905090565b600073ffffffffffffffffffffffffffffffffffffffff168373ffffffffffffffffffffffffffffffffffffffff161415610d33576040517f08c379a0000000000000000000000000000000000000000000000000000000008152600401610d2a9061195b565b60405180910390fd5b600073ffffffffffffffffffffffffffffffffffffffff168273ffffffffffffffffffffffffffffffffffffffff161415610da3576040517f08c379a0000000000000000000000000000000000000000000000000000000008152600401610d9a9061187b565b60405180910390fd5b80600160008573ffffffffffffffffffffffffffffffffffffffff1673ffffffffffffffffffffffffffffffffffffffff16815260200190815260200160002060008473ffffffffffffffffffffffffffffffffffffffff1673ffffffffffffffffffffffffffffffffffffffff168152602001908152602001600020819055508173ffffffffffffffffffffffffffffffffffffffff168373ffffffffffffffffffffffffffffffffffffffff167f8c5be1e5ebec7d5bd14f71427d1e84f3dd0314c0f7b2291e5b200ac8c7c3b92583604051610e8191906119bb565b60405180910390a3505050565b610e96610cbb565b73ffffffffffffffffffffffffffffffffffffffff16610eb4610a4b565b73ffffffffffffffffffffffffffffffffffffffff1614610f0a576040517f08c379a0000000000000000000000000000000000000000000000000000000008152600401610f01906118fb565b60405180910390fd5b565b6000610f188484610bb0565b90507fffffffffffffffffffffffffffffffffffffffffffffffffffffffffffffffff8114610f925781811015610f84576040517f08c379a0000000000000000000000000000000000000000000000000000000008152600401610f7b906118bb565b60405180910390fd5b610f918484848403610cc3565b5b50505050565b600073ffffffffffffffffffffffffffffffffffffffff168373ffffffffffffffffffffffffffffffffffffffff161415611008576040517f08c379a0000000000000000000000000000000000000000000000000000000008152600401610fff9061193b565b60405180910390fd5b600073ffffffffffffffffffffffffffffffffffffffff168273ffffffffffffffffffffffffffffffffffffffff161415611078576040517f08c379a000000000000000000000000000000000000000000000000000000000815260040161106f9061183b565b60405180910390fd5b61108383838361143f565b60008060008573ffffffffffffffffffffffffffffffffffffffff1673ffffffffffffffffffffffffffffffffffffffff16815260200190815260200160002054905081811015611109576040517f08c379a0000000000000000000000000000000000000000000000000000000008152600401611100906118db565b60405180910390fd5b8181036000808673ffffffffffffffffffffffffffffffffffffffff1673ffffffffffffffffffffffffffffffffffffffff16815260200190815260200160002081905550816000808573ffffffffffffffffffffffffffffffffffffffff1673ffffffffffffffffffffffffffffffffffffffff168152602001908152602001600020600082825461119c9190611a0d565b925050819055508273ffffffffffffffffffffffffffffffffffffffff168473ffffffffffffffffffffffffffffffffffffffff167fddf252ad1be2c89b69c2b068fc378daa952ba7f163c4a11628f55a4df523b3ef8460405161120091906119bb565b60405180910390a3611213848484611444565b50505050565b600073ffffffffffffffffffffffffffffffffffffffff168273ffffffffffffffffffffffffffffffffffffffff161415611289576040517f08c379a00000000000000000000000000000000000000000000000000000000081526004016112809061199b565b60405180910390fd5b6112956000838361143f565b80600260008282546112a79190611a0d565b92505081905550806000808473ffffffffffffffffffffffffffffffffffffffff1673ffffffffffffffffffffffffffffffffffffffff16815260200190815260200160002060008282546112fc9190611a0d565b925050819055508173ffffffffffffffffffffffffffffffffffffffff16600073ffffffffffffffffffffffffffffffffffffffff167fddf252ad1be2c89b69c2b068fc378daa952ba7f163c4a11628f55a4df523b3ef8360405161136191906119bb565b60405180910390a361137560008383611444565b5050565b6000600560009054906101000a900473ffffffffffffffffffffffffffffffffffffffff16905081600560006101000a81548173ffffffffffffffffffffffffffffffffffffffff021916908373ffffffffffffffffffffffffffffffffffffffff1602179055508173ffffffffffffffffffffffffffffffffffffffff168173ffffffffffffffffffffffffffffffffffffffff167f8be0079c531659141344cd1fd0a4f28419497f9722a3daafe3b4186f6b6457e060405160405180910390a35050565b505050565b505050565b60008135905061145881611f4e565b92915050565b60008135905061146d81611f65565b92915050565b60008135905061148281611f7c565b92915050565b60006020828403121561149a57600080fd5b60006114a884828501611449565b91505092915050565b6000602082840312156114c357600080fd5b60006114d18482850161145e565b91505092915050565b600080604083850312156114ed57600080fd5b60006114fb85828601611449565b925050602061150c85828601611449565b9150509250929050565b60008060006060848603121561152b57600080fd5b600061153986828701611449565b935050602061154a86828701611449565b925050604061155b86828701611473565b9150509250925092565b6000806040838503121561157857600080fd5b600061158685828601611449565b925050602061159785828601611473565b9150509250929050565b6000602082840312156115b357600080fd5b60006115c184828501611473565b91505092915050565b6115d381611aee565b82525050565b6115e281611b12565b82525050565b60006115f3826119f1565b6115fd81856119fc565b935061160d818560208601611b55565b61161681611c47565b840191505092915050565b600061162e6023836119fc565b915061163982611c58565b604082019050919050565b60006116516026836119fc565b915061165c82611ca7565b604082019050919050565b60006116746022836119fc565b915061167f82611cf6565b604082019050919050565b60006116976013836119fc565b91506116a282611d45565b602082019050919050565b60006116ba601d836119fc565b91506116c582611d6e565b602082019050919050565b60006116dd6026836119fc565b91506116e882611d97565b604082019050919050565b60006117006020836119fc565b915061170b82611de6565b602082019050919050565b60006117236013836119fc565b915061172e82611e0f565b602082019050919050565b60006117466025836119fc565b915061175182611e38565b604082019050919050565b60006117696024836119fc565b915061177482611e87565b604082019050919050565b600061178c6025836119fc565b915061179782611ed6565b604082019050919050565b60006117af601f836119fc565b91506117ba82611f25565b602082019050919050565b6117ce81611b3e565b82525050565b6117dd81611b48565b82525050565b60006020820190506117f860008301846115ca565b92915050565b600060208201905061181360008301846115d9565b92915050565b6000602082019050818103600083015261183381846115e8565b905092915050565b6000602082019050818103600083015261185481611621565b9050919050565b6000602082019050818103600083015261187481611644565b9050919050565b6000602082019050818103600083015261189481611667565b9050919050565b600060208201905081810360008301526118b48161168a565b9050919050565b600060208201905081810360008301526118d4816116ad565b9050919050565b600060208201905081810360008301526118f4816116d0565b9050919050565b60006020820190508181036000830152611914816116f3565b9050919050565b6000602082019050818103600083015261193481611716565b9050919050565b6000602082019050818103600083015261195481611739565b9050919050565b600060208201905081810360008301526119748161175c565b9050919050565b600060208201905081810360008301526119948161177f565b9050919050565b600060208201905081810360008301526119b4816117a2565b9050919050565b60006020820190506119d060008301846117c5565b92915050565b60006020820190506119eb60008301846117d4565b92915050565b600081519050919050565b600082825260208201905092915050565b6000611a1882611b3e565b9150611a2383611b3e565b9250827fffffffffffffffffffffffffffffffffffffffffffffffffffffffffffffffff03821115611a5857611a57611bba565b5b828201905092915050565b6000611a6e82611b3e565b9150611a7983611b3e565b925082611a8957611a88611be9565b5b828204905092915050565b6000611a9f82611b3e565b9150611aaa83611b3e565b9250817fffffffffffffffffffffffffffffffffffffffffffffffffffffffffffffffff0483118215151615611ae357611ae2611bba565b5b828202905092915050565b6000611af982611b1e565b9050919050565b6000611b0b82611b1e565b9050919050565b60008115159050919050565b600073ffffffffffffffffffffffffffffffffffffffff82169050919050565b6000819050919050565b600060ff82169050919050565b60005b83811015611b73578082015181840152602081019050611b58565b83811115611b82576000848401525b50505050565b60006002820490506001821680611ba057607f821691505b60208210811415611bb457611bb3611c18565b5b50919050565b7f4e487b7100000000000000000000000000000000000000000000000000000000600052601160045260246000fd5b7f4e487b7100000000000000000000000000000000000000000000000000000000600052601260045260246000fd5b7f4e487b7100000000000000000000000000000000000000000000000000000000600052602260045260246000fd5b6000601f19601f8301169050919050565b7f45524332303a207472616e7366657220746f20746865207a65726f206164647260008201527f6573730000000000000000000000000000000000000000000000000000000000602082015250565b7f4f776e61626c653a206e6577206f776e657220697320746865207a65726f206160008201527f6464726573730000000000000000000000000000000000000000000000000000602082015250565b7f45524332303a20617070726f766520746f20746865207a65726f20616464726560008201527f7373000000000000000000000000000000000000000000000000000000000000602082015250565b7f4e6f7420656e6f756768207061796d656e742e00000000000000000000000000600082015250565b7f45524332303a20696e73756666696369656e7420616c6c6f77616e6365000000600082015250565b7f45524332303a207472616e7366657220616d6f756e742065786365656473206260008201527f616c616e63650000000000000000000000000000000000000000000000000000602082015250565b7f4f776e61626c653a2063616c6c6572206973206e6f7420746865206f776e6572600082015250565b7f4e6f7420656e6f7567682062616c616e63652e00000000000000000000000000600082015250565b7f45524332303a207472616e736665722066726f6d20746865207a65726f20616460008201527f6472657373000000000000000000000000000000000000000000000000000000602082015250565b7f45524332303a20617070726f76652066726f6d20746865207a65726f2061646460008201527f7265737300000000000000000000000000000000000000000000000000000000602082015250565b7f45524332303a2064656372656173656420616c6c6f77616e63652062656c6f7760008201527f207a65726f000000000000000000000000000000000000000000000000000000602082015250565b7f45524332303a206d696e7420746f20746865207a65726f206164647265737300600082015250565b611f5781611aee565b8114611f6257600080fd5b50565b611f6e81611b00565b8114611f7957600080fd5b50565b611f8581611b3e565b8114611f9057600080fd5b5056fea26469706673582212202d57af7ea6f27ac657bb0b4701c3679f21c0274bc083d05e6928a227b07b8d5b64736f6c63430008040033",
  "linkReferences": {},
  "deployedLinkReferences": {}
}