{
  "_format": "hh-sol-artifact-1",
  "contractName": "ElumNFT",
  "sourceName": "contracts/ElumNFT.sol",
  "abi": [
    {
      "anonymous": false,
      "inputs": [
        {
          "indexed": false,
          "internalType": "address[]",
          "name": "",
          "type": "address[]"
        },
        {
          "indexed": false,
          "internalType": "bool",
          "name": "",
          "type": "bool"
        }
      ],
      "name": "AffectWhiteList",
      "type": "event"
    },
    {
      "anonymous": false,
      "inputs": [
        {
          "indexed": true,
          "internalType": "address",
          "name": "previousOwner",
          "type": "address"
        },
        {
          "indexed": true,
          "internalType": "address",
          "name": "newOwner",
          "type": "address"
        }
      ],
      "name": "OwnershipTransferred",
      "type": "event"
    },
    {
      "inputs": [],
      "name": "NFT_ID_COUNTER",
      "outputs": [
        {
          "internalType": "uint256",
          "name": "",
          "type": "uint256"
        }
      ],
      "stateMutability": "view",
      "type": "function"
    },
    {
      "inputs": [
        {
          "internalType": "uint256",
          "name": "",
          "type": "uint256"
        }
      ],
      "name": "NFT_TO_INFO",
      "outputs": [
        {
          "internalType": "address",
          "name": "owner",
          "type": "address"
        },
        {
          "internalType": "uint256",
          "name": "nftType",
          "type": "uint256"
        },
        {
          "internalType": "uint256",
          "name": "acquireTime",
          "type": "uint256"
        },
        {
          "internalType": "uint256",
          "name": "index",
          "type": "uint256"
        }
      ],
      "stateMutability": "view",
      "type": "function"
    },
    {
      "inputs": [],
      "name": "NFT_TYPE_COUNTER",
      "outputs": [
        {
          "internalType": "uint256",
          "name": "",
          "type": "uint256"
        }
      ],
      "stateMutability": "view",
      "type": "function"
    },
    {
      "inputs": [
        {
          "internalType": "uint256",
          "name": "",
          "type": "uint256"
        }
      ],
      "name": "NFT_TYPE_INFO",
      "outputs": [
        {
          "internalType": "string",
          "name": "metadataURI",
          "type": "string"
        },
        {
          "internalType": "uint256",
          "name": "price",
          "type": "uint256"
        },
        {
          "internalType": "uint256",
          "name": "totalSupply",
          "type": "uint256"
        },
        {
          "internalType": "uint256",
          "name": "remainSupply",
          "type": "uint256"
        }
      ],
      "stateMutability": "view",
      "type": "function"
    },
    {
      "inputs": [
        {
          "internalType": "string",
          "name": "metadataURI",
          "type": "string"
        },
        {
          "internalType": "uint256",
          "name": "price",
          "type": "uint256"
        }
      ],
      "name": "addNewType",
      "outputs": [
        {
          "internalType": "uint256",
          "name": "",
          "type": "uint256"
        }
      ],
      "stateMutability": "nonpayable",
      "type": "function"
    },
    {
      "inputs": [
        {
          "internalType": "address[]",
          "name": "_addressList",
          "type": "address[]"
        },
        {
          "internalType": "bool",
          "name": "isApprove",
          "type": "bool"
        }
      ],
      "name": "affectWhiteList",
      "outputs": [],
      "stateMutability": "nonpayable",
      "type": "function"
    },
    {
      "inputs": [
        {
          "internalType": "address",
          "name": "_address",
          "type": "address"
        }
      ],
      "name": "balanceOf",
      "outputs": [
        {
          "internalType": "uint256[]",
          "name": "",
          "type": "uint256[]"
        }
      ],
      "stateMutability": "view",
      "type": "function"
    },
    {
      "inputs": [
        {
          "internalType": "uint256",
          "name": "nftType",
          "type": "uint256"
        },
        {
          "internalType": "uint256",
          "name": "amount",
          "type": "uint256"
        }
      ],
      "name": "buyNFT",
      "outputs": [
        {
          "internalType": "bool",
          "name": "",
          "type": "bool"
        }
      ],
      "stateMutability": "payable",
      "type": "function"
    },
    {
      "inputs": [
        {
          "internalType": "address",
          "name": "_address",
          "type": "address"
        }
      ],
      "name": "getAcquiredTime",
      "outputs": [
        {
          "internalType": "uint256",
          "name": "",
          "type": "uint256"
        }
      ],
      "stateMutability": "view",
      "type": "function"
    },
    {
      "inputs": [
        {
          "internalType": "address",
          "name": "_address",
          "type": "address"
        },
        {
          "internalType": "uint256",
          "name": "nftID",
          "type": "uint256"
        }
      ],
      "name": "isOwner",
      "outputs": [
        {
          "internalType": "bool",
          "name": "",
          "type": "bool"
        }
      ],
      "stateMutability": "view",
      "type": "function"
    },
    {
      "inputs": [
        {
          "internalType": "address",
          "name": "addr",
          "type": "address"
        }
      ],
      "name": "isWhiteLists",
      "outputs": [
        {
          "internalType": "bool",
          "name": "",
          "type": "bool"
        }
      ],
      "stateMutability": "view",
      "type": "function"
    },
    {
      "inputs": [
        {
          "internalType": "uint256[]",
          "name": "ids",
          "type": "uint256[]"
        },
        {
          "internalType": "uint256[]",
          "name": "amounts",
          "type": "uint256[]"
        }
      ],
      "name": "mint",
      "outputs": [
        {
          "internalType": "bool",
          "name": "",
          "type": "bool"
        }
      ],
      "stateMutability": "nonpayable",
      "type": "function"
    },
    {
      "inputs": [],
      "name": "owner",
      "outputs": [
        {
          "internalType": "address",
          "name": "",
          "type": "address"
        }
      ],
      "stateMutability": "view",
      "type": "function"
    },
    {
      "inputs": [],
      "name": "renounceOwnership",
      "outputs": [],
      "stateMutability": "nonpayable",
      "type": "function"
    },
    {
      "inputs": [
        {
          "internalType": "address",
          "name": "_token_address",
          "type": "address"
        }
      ],
      "name": "setTokenAddress",
      "outputs": [],
      "stateMutability": "nonpayable",
      "type": "function"
    },
    {
      "inputs": [],
      "name": "token_address",
      "outputs": [
        {
          "internalType": "address",
          "name": "",
          "type": "address"
        }
      ],
      "stateMutability": "view",
      "type": "function"
    },
    {
      "inputs": [
        {
          "internalType": "uint256[]",
          "name": "ids",
          "type": "uint256[]"
        },
        {
          "internalType": "address",
          "name": "to",
          "type": "address"
        }
      ],
      "name": "transferNFT",
      "outputs": [],
      "stateMutability": "nonpayable",
      "type": "function"
    },
    {
      "inputs": [
        {
          "internalType": "address",
          "name": "newOwner",
          "type": "address"
        }
      ],
      "name": "transferOwnership",
      "outputs": [],
      "stateMutability": "nonpayable",
      "type": "function"
    },
    {
      "inputs": [
        {
          "internalType": "uint256",
          "name": "nftID",
          "type": "uint256"
        },
        {
          "internalType": "string",
          "name": "metadataURI",
          "type": "string"
        },
        {
          "internalType": "uint256",
          "name": "price",
          "type": "uint256"
        }
      ],
      "name": "updateType",
      "outputs": [],
      "stateMutability": "nonpayable",
      "type": "function"
    },
    {
      "inputs": [
        {
          "internalType": "address",
          "name": "",
          "type": "address"
        }
      ],
      "name": "whiteLists",
      "outputs": [
        {
          "internalType": "bool",
          "name": "",
          "type": "bool"
        }
      ],
      "stateMutability": "view",
      "type": "function"
    }
  ],
  "bytecode": "0x6080604052600060015560006002553480156200001b57600080fd5b506200003c620000306200004260201b60201c565b6200004a60201b60201c565b6200010e565b600033905090565b60008060009054906101000a900473ffffffffffffffffffffffffffffffffffffffff169050816000806101000a81548173ffffffffffffffffffffffffffffffffffffffff021916908373ffffffffffffffffffffffffffffffffffffffff1602179055508173ffffffffffffffffffffffffffffffffffffffff168173ffffffffffffffffffffffffffffffffffffffff167f8be0079c531659141344cd1fd0a4f28419497f9722a3daafe3b4186f6b6457e060405160405180910390a35050565b612e65806200011e6000396000f3fe60806040526004361061011f5760003560e01c8063715018a6116100a0578063e327a6af11610064578063e327a6af14610404578063e832565b14610441578063f2fde38b1461047e578063fcc2278b146104a7578063ffc47c59146104e45761011f565b8063715018a6146103315780638c8e8fee146103485780638da5cb5b14610373578063bb5495361461039e578063e2bea1ec146103db5761011f565b80633d5d190c116100e75780633d5d190c14610226578063490a27c41461026357806353dc840b1461028c5780636b01e751146102c957806370a08231146102f45761011f565b806303356c4014610124578063047b7b41146101645780631d85bf03146101a457806326a4e8d2146101d4578063337b81f6146101fd575b600080fd5b34801561013057600080fd5b5061014b60048036038101906101469190611e83565b61050f565b60405161015b9493929190612408565b60405180910390f35b34801561017057600080fd5b5061018b60048036038101906101869190611e83565b6105c7565b60405161019b9493929190612354565b60405180910390f35b6101be60048036038101906101b99190611f18565b610617565b6040516101cb91906123ed565b60405180910390f35b3480156101e057600080fd5b506101fb60048036038101906101f69190611ca1565b6108ff565b005b34801561020957600080fd5b50610224600480360381019061021f9190611eac565b6109bb565b005b34801561023257600080fd5b5061024d60048036038101906102489190611db6565b610a86565b60405161025a91906123ed565b60405180910390f35b34801561026f57600080fd5b5061028a60048036038101906102859190611d06565b610cdf565b005b34801561029857600080fd5b506102b360048036038101906102ae9190611ca1565b610ded565b6040516102c091906123ed565b60405180910390f35b3480156102d557600080fd5b506102de610e0d565b6040516102eb9190612694565b60405180910390f35b34801561030057600080fd5b5061031b60048036038101906103169190611ca1565b610e13565b60405161032891906123cb565b60405180910390f35b34801561033d57600080fd5b50610346610ead565b005b34801561035457600080fd5b5061035d610ec1565b60405161036a9190612339565b60405180910390f35b34801561037f57600080fd5b50610388610ee7565b6040516103959190612339565b60405180910390f35b3480156103aa57600080fd5b506103c560048036038101906103c09190611ca1565b610f10565b6040516103d291906123ed565b60405180910390f35b3480156103e757600080fd5b5061040260048036038101906103fd9190611d5e565b610f66565b005b34801561041057600080fd5b5061042b60048036038101906104269190611cca565b6116af565b60405161043891906123ed565b60405180910390f35b34801561044d57600080fd5b5061046860048036038101906104639190611ca1565b6117d2565b6040516104759190612694565b60405180910390f35b34801561048a57600080fd5b506104a560048036038101906104a09190611ca1565b611855565b005b3480156104b357600080fd5b506104ce60048036038101906104c99190611e2b565b6118d9565b6040516104db9190612694565b60405180910390f35b3480156104f057600080fd5b506104f9611991565b6040516105069190612694565b60405180910390f35b6003602052806000526040600020600091509050806000018054610532906128a2565b80601f016020809104026020016040519081016040528092919081815260200182805461055e906128a2565b80156105ab5780601f10610580576101008083540402835291602001916105ab565b820191906000526020600020905b81548152906001019060200180831161058e57829003601f168201915b5050505050908060010154908060020154908060030154905084565b60056020528060005260406000206000915090508060000160009054906101000a900473ffffffffffffffffffffffffffffffffffffffff16908060010154908060020154908060030154905084565b600061062233610f10565b610661576040517f08c379a000000000000000000000000000000000000000000000000000000000815260040161065890612494565b60405180910390fd5b60015483106106a5576040517f08c379a000000000000000000000000000000000000000000000000000000000815260040161069c90612574565b60405180910390fd5b81600360008581526020019081526020016000206003015410156106fe576040517f08c379a00000000000000000000000000000000000000000000000000000000081526004016106f590612634565b60405180910390fd5b6003600084815260200190815260200160002060010154826107209190612799565b341015610762576040517f08c379a0000000000000000000000000000000000000000000000000000000008152600401610759906124f4565b60405180910390fd5b60005b828110156108f4573360056000600254815260200190815260200160002060000160006101000a81548173ffffffffffffffffffffffffffffffffffffffff021916908373ffffffffffffffffffffffffffffffffffffffff16021790555083600560006002548152602001908152602001600020600101819055504260056000600254815260200190815260200160002060020181905550600460003373ffffffffffffffffffffffffffffffffffffffff1673ffffffffffffffffffffffffffffffffffffffff1681526020019081526020016000206000018054905060056000600254815260200190815260200160002060030181905550600460003373ffffffffffffffffffffffffffffffffffffffff1673ffffffffffffffffffffffffffffffffffffffff16815260200190815260200160002060000160025490806001815401808255809150506001900390600052602060002001600090919091909150556002600081546108da906128d4565b9190508190555080806108ec906128d4565b915050610765565b506001905092915050565b610907611997565b600073ffffffffffffffffffffffffffffffffffffffff168173ffffffffffffffffffffffffffffffffffffffff161415610977576040517f08c379a000000000000000000000000000000000000000000000000000000000815260040161096e906124b4565b60405180910390fd5b80600760006101000a81548173ffffffffffffffffffffffffffffffffffffffff021916908373ffffffffffffffffffffffffffffffffffffffff16021790555050565b6109c3611997565b6001548410610a07576040517f08c379a00000000000000000000000000000000000000000000000000000000081526004016109fe90612654565b60405180910390fd5b8282600360008781526020019081526020016000206000019190610a2c929190611ae1565b50806003600086815260200190815260200160002060010181905550600060036000868152602001908152602001600020600201819055506000600360008681526020019081526020016000206003018190555050505050565b6000610a90611997565b828290508585905014610ad8576040517f08c379a0000000000000000000000000000000000000000000000000000000008152600401610acf90612594565b60405180910390fd5b60005b85859050811015610cd257600154868683818110610b22577f4e487b7100000000000000000000000000000000000000000000000000000000600052603260045260246000fd5b9050602002013510610b69576040517f08c379a0000000000000000000000000000000000000000000000000000000008152600401610b6090612654565b60405180910390fd5b838382818110610ba2577f4e487b7100000000000000000000000000000000000000000000000000000000600052603260045260246000fd5b9050602002013560036000888885818110610be6577f4e487b7100000000000000000000000000000000000000000000000000000000600052603260045260246000fd5b9050602002013581526020019081526020016000206002016000828254610c0d9190612743565b92505081905550838382818110610c4d577f4e487b7100000000000000000000000000000000000000000000000000000000600052603260045260246000fd5b9050602002013560036000888885818110610c91577f4e487b7100000000000000000000000000000000000000000000000000000000600052603260045260246000fd5b9050602002013581526020019081526020016000206003016000828254610cb89190612743565b925050819055508080610cca906128d4565b915050610adb565b5060019050949350505050565b610ce7611997565b60005b83839050811015610dac578160066000868685818110610d33577f4e487b7100000000000000000000000000000000000000000000000000000000600052603260045260246000fd5b9050602002016020810190610d489190611ca1565b73ffffffffffffffffffffffffffffffffffffffff1673ffffffffffffffffffffffffffffffffffffffff16815260200190815260200160002060006101000a81548160ff0219169083151502179055508080610da4906128d4565b915050610cea565b507fab5e233cc7db745f9ab86a3beed645c8318493782c05f0b9518571d2f45802aa838383604051610de093929190612399565b60405180910390a1505050565b60066020528060005260406000206000915054906101000a900460ff1681565b60025481565b6060600460008373ffffffffffffffffffffffffffffffffffffffff1673ffffffffffffffffffffffffffffffffffffffff168152602001908152602001600020600001805480602002602001604051908101604052809291908181526020018280548015610ea157602002820191906000526020600020905b815481526020019060010190808311610e8d575b50505050509050919050565b610eb5611997565b610ebf6000611a15565b565b600760009054906101000a900473ffffffffffffffffffffffffffffffffffffffff1681565b60008060009054906101000a900473ffffffffffffffffffffffffffffffffffffffff16905090565b6000600660008373ffffffffffffffffffffffffffffffffffffffff1673ffffffffffffffffffffffffffffffffffffffff16815260200190815260200160002060009054906101000a900460ff169050919050565b600073ffffffffffffffffffffffffffffffffffffffff168173ffffffffffffffffffffffffffffffffffffffff161415610fd6576040517f08c379a0000000000000000000000000000000000000000000000000000000008152600401610fcd90612534565b60405180910390fd5b610fdf33610f10565b61101e576040517f08c379a0000000000000000000000000000000000000000000000000000000008152600401611015906125f4565b60405180910390fd5b61102781610f10565b611066576040517f08c379a000000000000000000000000000000000000000000000000000000000815260040161105d906125d4565b60405180910390fd5b60005b838390508110156116a95760008484838181106110af577f4e487b7100000000000000000000000000000000000000000000000000000000600052603260045260246000fd5b90506020020135905060025481106110fc576040517f08c379a00000000000000000000000000000000000000000000000000000000081526004016110f390612454565b60405180910390fd5b3373ffffffffffffffffffffffffffffffffffffffff166005600083815260200190815260200160002060000160009054906101000a900473ffffffffffffffffffffffffffffffffffffffff1673ffffffffffffffffffffffffffffffffffffffff16146111a0576040517f08c379a000000000000000000000000000000000000000000000000000000000815260040161119790612674565b60405180910390fd5b826005600083815260200190815260200160002060000160006101000a81548173ffffffffffffffffffffffffffffffffffffffff021916908373ffffffffffffffffffffffffffffffffffffffff16021790555042600560008381526020019081526020016000206002018190555060006005600083815260200190815260200160002060030154905081600460003373ffffffffffffffffffffffffffffffffffffffff1673ffffffffffffffffffffffffffffffffffffffff16815260200190815260200160002060000182815481106112a6577f4e487b7100000000000000000000000000000000000000000000000000000000600052603260045260246000fd5b9060005260206000200154146112f1576040517f08c379a00000000000000000000000000000000000000000000000000000000081526004016112e890612474565b60405180910390fd5b6000600460003373ffffffffffffffffffffffffffffffffffffffff1673ffffffffffffffffffffffffffffffffffffffff1681526020019081526020016000206000018054905090506000811161137e576040517f08c379a000000000000000000000000000000000000000000000000000000000815260040161137590612514565b60405180910390fd5b600460003373ffffffffffffffffffffffffffffffffffffffff1673ffffffffffffffffffffffffffffffffffffffff1681526020019081526020016000206000016001826113cd91906127f3565b81548110611404577f4e487b7100000000000000000000000000000000000000000000000000000000600052603260045260246000fd5b9060005260206000200154600460003373ffffffffffffffffffffffffffffffffffffffff1673ffffffffffffffffffffffffffffffffffffffff1681526020019081526020016000206000018381548110611489577f4e487b7100000000000000000000000000000000000000000000000000000000600052603260045260246000fd5b90600052602060002001819055508160056000600460003373ffffffffffffffffffffffffffffffffffffffff1673ffffffffffffffffffffffffffffffffffffffff1681526020019081526020016000206000018581548110611516577f4e487b7100000000000000000000000000000000000000000000000000000000600052603260045260246000fd5b9060005260206000200154815260200190815260200160002060030181905550600460003373ffffffffffffffffffffffffffffffffffffffff1673ffffffffffffffffffffffffffffffffffffffff1681526020019081526020016000206000018054806115ae577f4e487b7100000000000000000000000000000000000000000000000000000000600052603160045260246000fd5b600190038181906000526020600020016000905590556000600460008773ffffffffffffffffffffffffffffffffffffffff1673ffffffffffffffffffffffffffffffffffffffff168152602001908152602001600020600001805490509050600460008773ffffffffffffffffffffffffffffffffffffffff1673ffffffffffffffffffffffffffffffffffffffff1681526020019081526020016000206000018490806001815401808255809150506001900390600052602060002001600090919091909150558060056000868152602001908152602001600020600301819055505050505080806116a1906128d4565b915050611069565b50505050565b600060025482106116f5576040517f08c379a00000000000000000000000000000000000000000000000000000000081526004016116ec906125b4565b60405180910390fd5b600073ffffffffffffffffffffffffffffffffffffffff168373ffffffffffffffffffffffffffffffffffffffff161415611765576040517f08c379a000000000000000000000000000000000000000000000000000000000815260040161175c90612554565b60405180910390fd5b8273ffffffffffffffffffffffffffffffffffffffff166005600084815260200190815260200160002060000160009054906101000a900473ffffffffffffffffffffffffffffffffffffffff1673ffffffffffffffffffffffffffffffffffffffff1614905092915050565b6000806117de83610e13565b90506000815114156117f4576000915050611850565b6005600082600081518110611832577f4e487b7100000000000000000000000000000000000000000000000000000000600052603260045260246000fd5b60200260200101518152602001908152602001600020600201549150505b919050565b61185d611997565b600073ffffffffffffffffffffffffffffffffffffffff168173ffffffffffffffffffffffffffffffffffffffff1614156118cd576040517f08c379a00000000000000000000000000000000000000000000000000000000081526004016118c4906124d4565b60405180910390fd5b6118d681611a15565b50565b60006118e3611997565b8383600360006001548152602001908152602001600020600001919061190a929190611ae1565b508160036000600154815260200190815260200160002060010181905550600060036000600154815260200190815260200160002060020181905550600060036000600154815260200190815260200160002060030181905550600160008154611973906128d4565b919050819055506001805461198891906127f3565b90509392505050565b60015481565b61199f611ad9565b73ffffffffffffffffffffffffffffffffffffffff166119bd610ee7565b73ffffffffffffffffffffffffffffffffffffffff1614611a13576040517f08c379a0000000000000000000000000000000000000000000000000000000008152600401611a0a90612614565b60405180910390fd5b565b60008060009054906101000a900473ffffffffffffffffffffffffffffffffffffffff169050816000806101000a81548173ffffffffffffffffffffffffffffffffffffffff021916908373ffffffffffffffffffffffffffffffffffffffff1602179055508173ffffffffffffffffffffffffffffffffffffffff168173ffffffffffffffffffffffffffffffffffffffff167f8be0079c531659141344cd1fd0a4f28419497f9722a3daafe3b4186f6b6457e060405160405180910390a35050565b600033905090565b828054611aed906128a2565b90600052602060002090601f016020900481019282611b0f5760008555611b56565b82601f10611b2857803560ff1916838001178555611b56565b82800160010185558215611b56579182015b82811115611b55578235825591602001919060010190611b3a565b5b509050611b639190611b67565b5090565b5b80821115611b80576000816000905550600101611b68565b5090565b600081359050611b9381612dea565b92915050565b60008083601f840112611bab57600080fd5b8235905067ffffffffffffffff811115611bc457600080fd5b602083019150836020820283011115611bdc57600080fd5b9250929050565b60008083601f840112611bf557600080fd5b8235905067ffffffffffffffff811115611c0e57600080fd5b602083019150836020820283011115611c2657600080fd5b9250929050565b600081359050611c3c81612e01565b92915050565b60008083601f840112611c5457600080fd5b8235905067ffffffffffffffff811115611c6d57600080fd5b602083019150836001820283011115611c8557600080fd5b9250929050565b600081359050611c9b81612e18565b92915050565b600060208284031215611cb357600080fd5b6000611cc184828501611b84565b91505092915050565b60008060408385031215611cdd57600080fd5b6000611ceb85828601611b84565b9250506020611cfc85828601611c8c565b9150509250929050565b600080600060408486031215611d1b57600080fd5b600084013567ffffffffffffffff811115611d3557600080fd5b611d4186828701611b99565b93509350506020611d5486828701611c2d565b9150509250925092565b600080600060408486031215611d7357600080fd5b600084013567ffffffffffffffff811115611d8d57600080fd5b611d9986828701611be3565b93509350506020611dac86828701611b84565b9150509250925092565b60008060008060408587031215611dcc57600080fd5b600085013567ffffffffffffffff811115611de657600080fd5b611df287828801611be3565b9450945050602085013567ffffffffffffffff811115611e1157600080fd5b611e1d87828801611be3565b925092505092959194509250565b600080600060408486031215611e4057600080fd5b600084013567ffffffffffffffff811115611e5a57600080fd5b611e6686828701611c42565b93509350506020611e7986828701611c8c565b9150509250925092565b600060208284031215611e9557600080fd5b6000611ea384828501611c8c565b91505092915050565b60008060008060608587031215611ec257600080fd5b6000611ed087828801611c8c565b945050602085013567ffffffffffffffff811115611eed57600080fd5b611ef987828801611c42565b93509350506040611f0c87828801611c8c565b91505092959194509250565b60008060408385031215611f2b57600080fd5b6000611f3985828601611c8c565b9250506020611f4a85828601611c8c565b9150509250929050565b6000611f608383611f84565b60208301905092915050565b6000611f78838361231b565b60208301905092915050565b611f8d81612827565b82525050565b611f9c81612827565b82525050565b6000611fae83856126f9565b9350611fb9826126af565b8060005b85811015611ff257611fcf828461272c565b611fd98882611f54565b9750611fe4836126df565b925050600181019050611fbd565b5085925050509392505050565b600061200a826126c9565b612014818561270a565b935061201f836126b9565b8060005b838110156120505781516120378882611f6c565b9750612042836126ec565b925050600181019050612023565b5085935050505092915050565b61206681612839565b82525050565b6000612077826126d4565b612081818561271b565b935061209181856020860161286f565b61209a8161297b565b840191505092915050565b60006120b2602b8361271b565b91506120bd8261298c565b604082019050919050565b60006120d5601b8361271b565b91506120e0826129db565b602082019050919050565b60006120f860328361271b565b915061210382612a04565b604082019050919050565b600061211b60158361271b565b915061212682612a53565b602082019050919050565b600061213e60268361271b565b915061214982612a7c565b604082019050919050565b600061216160138361271b565b915061216c82612acb565b602082019050919050565b6000612184602d8361271b565b915061218f82612af4565b604082019050919050565b60006121a7601d8361271b565b91506121b282612b43565b602082019050919050565b60006121ca60168361271b565b91506121d582612b6c565b602082019050919050565b60006121ed602d8361271b565b91506121f882612b95565b604082019050919050565b6000612210602b8361271b565b915061221b82612be4565b604082019050919050565b600061223360298361271b565b915061223e82612c33565b604082019050919050565b6000612256602b8361271b565b915061226182612c82565b604082019050919050565b6000612279602b8361271b565b915061228482612cd1565b604082019050919050565b600061229c60208361271b565b91506122a782612d20565b602082019050919050565b60006122bf60128361271b565b91506122ca82612d49565b602082019050919050565b60006122e260278361271b565b91506122ed82612d72565b604082019050919050565b600061230560168361271b565b915061231082612dc1565b602082019050919050565b61232481612865565b82525050565b61233381612865565b82525050565b600060208201905061234e6000830184611f93565b92915050565b60006080820190506123696000830187611f93565b612376602083018661232a565b612383604083018561232a565b612390606083018461232a565b95945050505050565b600060408201905081810360008301526123b4818587611fa2565b90506123c3602083018461205d565b949350505050565b600060208201905081810360008301526123e58184611fff565b905092915050565b6000602082019050612402600083018461205d565b92915050565b60006080820190508181036000830152612422818761206c565b9050612431602083018661232a565b61243e604083018561232a565b61244b606083018461232a565b95945050505050565b6000602082019050818103600083015261246d816120a5565b9050919050565b6000602082019050818103600083015261248d816120c8565b9050919050565b600060208201905081810360008301526124ad816120eb565b9050919050565b600060208201905081810360008301526124cd8161210e565b9050919050565b600060208201905081810360008301526124ed81612131565b9050919050565b6000602082019050818103600083015261250d81612154565b9050919050565b6000602082019050818103600083015261252d81612177565b9050919050565b6000602082019050818103600083015261254d8161219a565b9050919050565b6000602082019050818103600083015261256d816121bd565b9050919050565b6000602082019050818103600083015261258d816121e0565b9050919050565b600060208201905081810360008301526125ad81612203565b9050919050565b600060208201905081810360008301526125cd81612226565b9050919050565b600060208201905081810360008301526125ed81612249565b9050919050565b6000602082019050818103600083015261260d8161226c565b9050919050565b6000602082019050818103600083015261262d8161228f565b9050919050565b6000602082019050818103600083015261264d816122b2565b9050919050565b6000602082019050818103600083015261266d816122d5565b9050919050565b6000602082019050818103600083015261268d816122f8565b9050919050565b60006020820190506126a9600083018461232a565b92915050565b6000819050919050565b6000819050602082019050919050565b600081519050919050565b600081519050919050565b6000602082019050919050565b6000602082019050919050565b600082825260208201905092915050565b600082825260208201905092915050565b600082825260208201905092915050565b600061273b6020840184611b84565b905092915050565b600061274e82612865565b915061275983612865565b9250827fffffffffffffffffffffffffffffffffffffffffffffffffffffffffffffffff0382111561278e5761278d61291d565b5b828201905092915050565b60006127a482612865565b91506127af83612865565b9250817fffffffffffffffffffffffffffffffffffffffffffffffffffffffffffffffff04831182151516156127e8576127e761291d565b5b828202905092915050565b60006127fe82612865565b915061280983612865565b92508282101561281c5761281b61291d565b5b828203905092915050565b600061283282612845565b9050919050565b60008115159050919050565b600073ffffffffffffffffffffffffffffffffffffffff82169050919050565b6000819050919050565b60005b8381101561288d578082015181840152602081019050612872565b8381111561289c576000848401525b50505050565b600060028204905060018216806128ba57607f821691505b602082108114156128ce576128cd61294c565b5b50919050565b60006128df82612865565b91507fffffffffffffffffffffffffffffffffffffffffffffffffffffffffffffffff8214156129125761291161291d565b5b600182019050919050565b7f4e487b7100000000000000000000000000000000000000000000000000000000600052601160045260246000fd5b7f4e487b7100000000000000000000000000000000000000000000000000000000600052602260045260246000fd5b6000601f19601f8301169050919050565b7f49442076616c75652073686f756c64206265206c657373207468616e204e465460008201527f5f49445f434f554e544552000000000000000000000000000000000000000000602082015250565b7f69642e696e6465782073686f756c6420626520636f72726563742e0000000000600082015250565b7f5468652077616c6c657420616464726573732073686f756c6420626520696e2060008201527f74686520617070726f766564206c6973742e0000000000000000000000000000602082015250565b7f696e76616c696420746f6b656e20616464726573730000000000000000000000600082015250565b7f4f776e61626c653a206e6577206f776e657220697320746865207a65726f206160008201527f6464726573730000000000000000000000000000000000000000000000000000602082015250565b7f4e6f7420656e6f756768207061796d656e742e00000000000000000000000000600082015250565b7f4f6c6420557365722042616c616e63652073686f756c6420626520677265617460008201527f6572207468616e207a65726f2e00000000000000000000000000000000000000602082015250565b7f54617267657420616464726573732063616e6e6f74206265206e756c6c000000600082015250565b7f416464726573732063616e6e6f74206265206e756c6c00000000000000000000600082015250565b7f4e465420547970652073686f756c64206265206c657373207468616e204e465460008201527f5f545950455f434f554e54455200000000000000000000000000000000000000602082015250565b7f496420616e6420416d6f756e74206172726179206c656e6774682073686f756c60008201527f6420626520657175616c2e000000000000000000000000000000000000000000602082015250565b7f4e46542049442073686f756c64206265206c657373207468616e204e46545f4960008201527f445f434f554e5445520000000000000000000000000000000000000000000000602082015250565b7f64737420616464726573732073686f756c6420626520696e207468652061707060008201527f726f766564206c6973742e000000000000000000000000000000000000000000602082015250565b7f73726320616464726573732073686f756c6420626520696e207468652061707060008201527f726f766564206c6973742e000000000000000000000000000000000000000000602082015250565b7f4f776e61626c653a2063616c6c6572206973206e6f7420746865206f776e6572600082015250565b7f4e6f7420656e6f75676820737570706c792e0000000000000000000000000000600082015250565b7f69642073686f756c64206265206c657373207468616e204e46545f545950455f60008201527f434f554e54455200000000000000000000000000000000000000000000000000602082015250565b7f53726320617265206e6f7420746865206f776e65722e00000000000000000000600082015250565b612df381612827565b8114612dfe57600080fd5b50565b612e0a81612839565b8114612e1557600080fd5b50565b612e2181612865565b8114612e2c57600080fd5b5056fea26469706673582212201d297f683b6230889db911442dbd4bdd640d5301b7dd00c84e82b9ef8a779e3c64736f6c63430008040033",
  "linkReferences": {},
  "deployedLinkReferences": {}
}