{
  "_format": "hh-sol-artifact-1",
  "contractName": "NFT",
  "sourceName": "contracts/NFT.sol",
  "abi": [
    {
      "inputs": [
        {
          "internalType": "address",
          "name": "_token_address",
          "type": "address"
        },
        {
          "internalType": "uint256",
          "name": "_maxNormalSupply",
          "type": "uint256"
        },
        {
          "internalType": "uint256",
          "name": "_priceNormalNFT",
          "type": "uint256"
        },
        {
          "internalType": "uint256",
          "name": "_maxSpecialSupply",
          "type": "uint256"
        },
        {
          "internalType": "uint256",
          "name": "_priceSpecialNFT",
          "type": "uint256"
        }
      ],
      "stateMutability": "nonpayable",
      "type": "constructor"
    },
    {
      "anonymous": false,
      "inputs": [
        {
          "indexed": true,
          "internalType": "address",
          "name": "previousOwner",
          "type": "address"
        },
        {
          "indexed": true,
          "internalType": "address",
          "name": "newOwner",
          "type": "address"
        }
      ],
      "name": "OwnershipTransferred",
      "type": "event"
    },
    {
      "inputs": [
        {
          "internalType": "address",
          "name": "account",
          "type": "address"
        }
      ],
      "name": "balanceOf",
      "outputs": [
        {
          "internalType": "uint256",
          "name": "normalNFT",
          "type": "uint256"
        },
        {
          "internalType": "uint256",
          "name": "specialNFT",
          "type": "uint256"
        }
      ],
      "stateMutability": "view",
      "type": "function"
    },
    {
      "inputs": [
        {
          "internalType": "address",
          "name": "addr",
          "type": "address"
        }
      ],
      "name": "insertWhiteList",
      "outputs": [],
      "stateMutability": "nonpayable",
      "type": "function"
    },
    {
      "inputs": [
        {
          "internalType": "address",
          "name": "addr",
          "type": "address"
        }
      ],
      "name": "isWhiteLists",
      "outputs": [
        {
          "internalType": "bool",
          "name": "",
          "type": "bool"
        }
      ],
      "stateMutability": "view",
      "type": "function"
    },
    {
      "inputs": [],
      "name": "maxNormalSupply",
      "outputs": [
        {
          "internalType": "uint256",
          "name": "",
          "type": "uint256"
        }
      ],
      "stateMutability": "view",
      "type": "function"
    },
    {
      "inputs": [],
      "name": "maxSpecialSupply",
      "outputs": [
        {
          "internalType": "uint256",
          "name": "",
          "type": "uint256"
        }
      ],
      "stateMutability": "view",
      "type": "function"
    },
    {
      "inputs": [],
      "name": "owner",
      "outputs": [
        {
          "internalType": "address",
          "name": "",
          "type": "address"
        }
      ],
      "stateMutability": "view",
      "type": "function"
    },
    {
      "inputs": [],
      "name": "priceNormalNFT",
      "outputs": [
        {
          "internalType": "uint256",
          "name": "",
          "type": "uint256"
        }
      ],
      "stateMutability": "view",
      "type": "function"
    },
    {
      "inputs": [],
      "name": "priceSpecialNFT",
      "outputs": [
        {
          "internalType": "uint256",
          "name": "",
          "type": "uint256"
        }
      ],
      "stateMutability": "view",
      "type": "function"
    },
    {
      "inputs": [
        {
          "internalType": "address",
          "name": "addr",
          "type": "address"
        }
      ],
      "name": "removeWhiteList",
      "outputs": [],
      "stateMutability": "nonpayable",
      "type": "function"
    },
    {
      "inputs": [],
      "name": "renounceOwnership",
      "outputs": [],
      "stateMutability": "nonpayable",
      "type": "function"
    },
    {
      "inputs": [
        {
          "internalType": "uint256",
          "name": "_maxNormalSupply",
          "type": "uint256"
        }
      ],
      "name": "setMaxNormalSupply",
      "outputs": [],
      "stateMutability": "nonpayable",
      "type": "function"
    },
    {
      "inputs": [
        {
          "internalType": "uint256",
          "name": "_maxSpecialSupply",
          "type": "uint256"
        }
      ],
      "name": "setMaxSpecialSupply",
      "outputs": [],
      "stateMutability": "nonpayable",
      "type": "function"
    },
    {
      "inputs": [
        {
          "internalType": "uint256",
          "name": "_priceNormalNFT",
          "type": "uint256"
        }
      ],
      "name": "setNormalPrice",
      "outputs": [],
      "stateMutability": "nonpayable",
      "type": "function"
    },
    {
      "inputs": [
        {
          "internalType": "uint256",
          "name": "_priceSpecialNFT",
          "type": "uint256"
        }
      ],
      "name": "setSpecialPrice",
      "outputs": [],
      "stateMutability": "nonpayable",
      "type": "function"
    },
    {
      "inputs": [
        {
          "internalType": "address",
          "name": "_token_address",
          "type": "address"
        }
      ],
      "name": "setTokenAddress",
      "outputs": [],
      "stateMutability": "nonpayable",
      "type": "function"
    },
    {
      "inputs": [],
      "name": "totalNormalSupply",
      "outputs": [
        {
          "internalType": "uint256",
          "name": "",
          "type": "uint256"
        }
      ],
      "stateMutability": "view",
      "type": "function"
    },
    {
      "inputs": [],
      "name": "totalSpecialSupply",
      "outputs": [
        {
          "internalType": "uint256",
          "name": "",
          "type": "uint256"
        }
      ],
      "stateMutability": "view",
      "type": "function"
    },
    {
      "inputs": [
        {
          "internalType": "uint256",
          "name": "_normalNFTCnt",
          "type": "uint256"
        },
        {
          "internalType": "uint256",
          "name": "_specialNFTCnt",
          "type": "uint256"
        },
        {
          "internalType": "address",
          "name": "to",
          "type": "address"
        }
      ],
      "name": "transferNFT",
      "outputs": [
        {
          "internalType": "bool",
          "name": "",
          "type": "bool"
        }
      ],
      "stateMutability": "nonpayable",
      "type": "function"
    },
    {
      "inputs": [
        {
          "internalType": "address",
          "name": "newOwner",
          "type": "address"
        }
      ],
      "name": "transferOwnership",
      "outputs": [],
      "stateMutability": "nonpayable",
      "type": "function"
    },
    {
      "inputs": [
        {
          "internalType": "uint256",
          "name": "_normalNFTCnt",
          "type": "uint256"
        },
        {
          "internalType": "uint256",
          "name": "_specialNFTCnt",
          "type": "uint256"
        }
      ],
      "name": "verifyNFT",
      "outputs": [
        {
          "internalType": "bool",
          "name": "",
          "type": "bool"
        }
      ],
      "stateMutability": "payable",
      "type": "function"
    }
  ],
  "bytecode": "0x60806040526000600155600060025560006003556000600555600060065560006007553480156200002f57600080fd5b5060405162001be038038062001be083398181016040528101906200005591906200024a565b62000075620000696200015060201b60201c565b6200015860201b60201c565b600073ffffffffffffffffffffffffffffffffffffffff168573ffffffffffffffffffffffffffffffffffffffff161415620000e8576040517f08c379a0000000000000000000000000000000000000000000000000000000008152600401620000df90620002f3565b60405180910390fd5b84600a60006101000a81548173ffffffffffffffffffffffffffffffffffffffff021916908373ffffffffffffffffffffffffffffffffffffffff160217905550836001819055508160058190555082600281905550806006819055505050505050620003c1565b600033905090565b60008060009054906101000a900473ffffffffffffffffffffffffffffffffffffffff169050816000806101000a81548173ffffffffffffffffffffffffffffffffffffffff021916908373ffffffffffffffffffffffffffffffffffffffff1602179055508173ffffffffffffffffffffffffffffffffffffffff168173ffffffffffffffffffffffffffffffffffffffff167f8be0079c531659141344cd1fd0a4f28419497f9722a3daafe3b4186f6b6457e060405160405180910390a35050565b6000815190506200022d816200038d565b92915050565b6000815190506200024481620003a7565b92915050565b600080600080600060a086880312156200026357600080fd5b600062000273888289016200021c565b9550506020620002868882890162000233565b9450506040620002998882890162000233565b9350506060620002ac8882890162000233565b9250506080620002bf8882890162000233565b9150509295509295909350565b6000620002db60158362000315565b9150620002e88262000364565b602082019050919050565b600060208201905081810360008301526200030e81620002cc565b9050919050565b600082825260208201905092915050565b600062000333826200033a565b9050919050565b600073ffffffffffffffffffffffffffffffffffffffff82169050919050565b6000819050919050565b7f696e76616c696420746f6b656e20616464726573730000000000000000000000600082015250565b620003988162000326565b8114620003a457600080fd5b50565b620003b2816200035a565b8114620003be57600080fd5b50565b61180f80620003d16000396000f3fe60806040526004361061011e5760003560e01c806370a08231116100a0578063ad32898b11610064578063ad32898b146103b2578063b4d276a4146103dd578063bb54953614610408578063d263a21b14610445578063f2fde38b1461046e5761011e565b806370a08231146102cc578063715018a61461030a5780638894c446146103215780638da5cb5b1461035e57806397333b0d146103895761011e565b806326a4e8d2116100e757806326a4e8d2146101fb578063395c2776146102245780633d2b959e1461024f57806340eac6bc14610278578063657d8092146102a15761011e565b80626db2ff1461012357806310b2d71a1461015357806316ca74671461017c5780631e303bd4146101a75780632042e5c2146101d2575b600080fd5b61013d60048036038101906101389190610fab565b610497565b60405161014a91906111ff565b60405180910390f35b34801561015f57600080fd5b5061017a60048036038101906101759190610f82565b6106e2565b005b34801561018857600080fd5b506101916106f4565b60405161019e919061137a565b60405180910390f35b3480156101b357600080fd5b506101bc6106fa565b6040516101c9919061137a565b60405180910390f35b3480156101de57600080fd5b506101f960048036038101906101f49190610f59565b610700565b005b34801561020757600080fd5b50610222600480360381019061021d9190610f59565b610763565b005b34801561023057600080fd5b5061023961081f565b604051610246919061137a565b60405180910390f35b34801561025b57600080fd5b5061027660048036038101906102719190610f59565b610825565b005b34801561028457600080fd5b5061029f600480360381019061029a9190610f82565b610888565b005b3480156102ad57600080fd5b506102b66108a9565b6040516102c3919061137a565b60405180910390f35b3480156102d857600080fd5b506102f360048036038101906102ee9190610f59565b6108af565b604051610301929190611395565b60405180910390f35b34801561031657600080fd5b5061031f61093b565b005b34801561032d57600080fd5b5061034860048036038101906103439190610fe7565b61094f565b60405161035591906111ff565b60405180910390f35b34801561036a57600080fd5b50610373610c28565b60405161038091906111e4565b60405180910390f35b34801561039557600080fd5b506103b060048036038101906103ab9190610f82565b610c51565b005b3480156103be57600080fd5b506103c7610ca8565b6040516103d4919061137a565b60405180910390f35b3480156103e957600080fd5b506103f2610cae565b6040516103ff919061137a565b60405180910390f35b34801561041457600080fd5b5061042f600480360381019061042a9190610f59565b610cb4565b60405161043c91906111ff565b60405180910390f35b34801561045157600080fd5b5061046c60048036038101906104679190610f82565b610d0a565b005b34801561047a57600080fd5b5061049560048036038101906104909190610f59565b610d61565b005b6000600154836003546104aa91906113cf565b11156104eb576040517f08c379a00000000000000000000000000000000000000000000000000000000081526004016104e2906112da565b60405180910390fd5b600554826007546104fc91906113cf565b111561053d576040517f08c379a0000000000000000000000000000000000000000000000000000000008152600401610534906112da565b60405180910390fd5b6001151561054a33610cb4565b15151461058c576040517f08c379a00000000000000000000000000000000000000000000000000000000081526004016105839061131a565b60405180910390fd5b60006006548361059c9190611425565b600254856105aa9190611425565b6105b491906113cf565b9050803410156105f9576040517f08c379a00000000000000000000000000000000000000000000000000000000081526004016105f0906112ba565b60405180910390fd5b836003600082825461060b91906113cf565b92505081905550826007600082825461062491906113cf565b9250508190555083600460003373ffffffffffffffffffffffffffffffffffffffff1673ffffffffffffffffffffffffffffffffffffffff168152602001908152602001600020600082825461067a91906113cf565b9250508190555082600860003373ffffffffffffffffffffffffffffffffffffffff1673ffffffffffffffffffffffffffffffffffffffff16815260200190815260200160002060008282546106d091906113cf565b92505081905550600191505092915050565b6106ea610de5565b8060028190555050565b60035481565b60015481565b610708610de5565b6000600960008373ffffffffffffffffffffffffffffffffffffffff1673ffffffffffffffffffffffffffffffffffffffff16815260200190815260200160002060006101000a81548160ff02191690831515021790555050565b61076b610de5565b600073ffffffffffffffffffffffffffffffffffffffff168173ffffffffffffffffffffffffffffffffffffffff1614156107db576040517f08c379a00000000000000000000000000000000000000000000000000000000081526004016107d29061123a565b60405180910390fd5b80600a60006101000a81548173ffffffffffffffffffffffffffffffffffffffff021916908373ffffffffffffffffffffffffffffffffffffffff16021790555050565b60025481565b61082d610de5565b6001600960008373ffffffffffffffffffffffffffffffffffffffff1673ffffffffffffffffffffffffffffffffffffffff16815260200190815260200160002060006101000a81548160ff02191690831515021790555050565b610890610de5565b60025481101561089f57600080fd5b8060068190555050565b60075481565b600080600460008473ffffffffffffffffffffffffffffffffffffffff1673ffffffffffffffffffffffffffffffffffffffff16815260200190815260200160002054600860008573ffffffffffffffffffffffffffffffffffffffff1673ffffffffffffffffffffffffffffffffffffffff1681526020019081526020016000205491509150915091565b610943610de5565b61094d6000610e63565b565b6000600460003373ffffffffffffffffffffffffffffffffffffffff1673ffffffffffffffffffffffffffffffffffffffff168152602001908152602001600020548411156109d3576040517f08c379a00000000000000000000000000000000000000000000000000000000081526004016109ca9061121a565b60405180910390fd5b600860003373ffffffffffffffffffffffffffffffffffffffff1673ffffffffffffffffffffffffffffffffffffffff16815260200190815260200160002054831115610a55576040517f08c379a0000000000000000000000000000000000000000000000000000000008152600401610a4c9061133a565b60405180910390fd5b600073ffffffffffffffffffffffffffffffffffffffff168273ffffffffffffffffffffffffffffffffffffffff161415610ac5576040517f08c379a0000000000000000000000000000000000000000000000000000000008152600401610abc9061129a565b60405180910390fd5b83600460003373ffffffffffffffffffffffffffffffffffffffff1673ffffffffffffffffffffffffffffffffffffffff1681526020019081526020016000206000828254610b14919061147f565b9250508190555083600460008473ffffffffffffffffffffffffffffffffffffffff1673ffffffffffffffffffffffffffffffffffffffff1681526020019081526020016000206000828254610b6a91906113cf565b9250508190555082600860003373ffffffffffffffffffffffffffffffffffffffff1673ffffffffffffffffffffffffffffffffffffffff1681526020019081526020016000206000828254610bc0919061147f565b9250508190555082600860008473ffffffffffffffffffffffffffffffffffffffff1673ffffffffffffffffffffffffffffffffffffffff1681526020019081526020016000206000828254610c1691906113cf565b92505081905550600190509392505050565b60008060009054906101000a900473ffffffffffffffffffffffffffffffffffffffff16905090565b610c59610de5565b600354811015610c9e576040517f08c379a0000000000000000000000000000000000000000000000000000000008152600401610c959061127a565b60405180910390fd5b8060018190555050565b60055481565b60065481565b6000600960008373ffffffffffffffffffffffffffffffffffffffff1673ffffffffffffffffffffffffffffffffffffffff16815260200190815260200160002060009054906101000a900460ff169050919050565b610d12610de5565b600754811015610d57576040517f08c379a0000000000000000000000000000000000000000000000000000000008152600401610d4e9061135a565b60405180910390fd5b8060058190555050565b610d69610de5565b600073ffffffffffffffffffffffffffffffffffffffff168173ffffffffffffffffffffffffffffffffffffffff161415610dd9576040517f08c379a0000000000000000000000000000000000000000000000000000000008152600401610dd09061125a565b60405180910390fd5b610de281610e63565b50565b610ded610f27565b73ffffffffffffffffffffffffffffffffffffffff16610e0b610c28565b73ffffffffffffffffffffffffffffffffffffffff1614610e61576040517f08c379a0000000000000000000000000000000000000000000000000000000008152600401610e58906112fa565b60405180910390fd5b565b60008060009054906101000a900473ffffffffffffffffffffffffffffffffffffffff169050816000806101000a81548173ffffffffffffffffffffffffffffffffffffffff021916908373ffffffffffffffffffffffffffffffffffffffff1602179055508173ffffffffffffffffffffffffffffffffffffffff168173ffffffffffffffffffffffffffffffffffffffff167f8be0079c531659141344cd1fd0a4f28419497f9722a3daafe3b4186f6b6457e060405160405180910390a35050565b600033905090565b600081359050610f3e816117ab565b92915050565b600081359050610f53816117c2565b92915050565b600060208284031215610f6b57600080fd5b6000610f7984828501610f2f565b91505092915050565b600060208284031215610f9457600080fd5b6000610fa284828501610f44565b91505092915050565b60008060408385031215610fbe57600080fd5b6000610fcc85828601610f44565b9250506020610fdd85828601610f44565b9150509250929050565b600080600060608486031215610ffc57600080fd5b600061100a86828701610f44565b935050602061101b86828701610f44565b925050604061102c86828701610f2f565b9150509250925092565b61103f816114b3565b82525050565b61104e816114c5565b82525050565b60006110616022836113be565b915061106c8261152a565b604082019050919050565b60006110846015836113be565b915061108f82611579565b602082019050919050565b60006110a76026836113be565b91506110b2826115a2565b604082019050919050565b60006110ca6038836113be565b91506110d5826115f1565b604082019050919050565b60006110ed6018836113be565b91506110f882611640565b602082019050919050565b60006111106012836113be565b915061111b82611669565b602082019050919050565b60006111336014836113be565b915061113e82611692565b602082019050919050565b60006111566020836113be565b9150611161826116bb565b602082019050919050565b6000611179601a836113be565b9150611184826116e4565b602082019050919050565b600061119c6023836113be565b91506111a78261170d565b604082019050919050565b60006111bf603a836113be565b91506111ca8261175c565b604082019050919050565b6111de816114f1565b82525050565b60006020820190506111f96000830184611036565b92915050565b60006020820190506112146000830184611045565b92915050565b6000602082019050818103600083015261123381611054565b9050919050565b6000602082019050818103600083015261125381611077565b9050919050565b600060208201905081810360008301526112738161109a565b9050919050565b60006020820190508181036000830152611293816110bd565b9050919050565b600060208201905081810360008301526112b3816110e0565b9050919050565b600060208201905081810360008301526112d381611103565b9050919050565b600060208201905081810360008301526112f381611126565b9050919050565b6000602082019050818103600083015261131381611149565b9050919050565b600060208201905081810360008301526113338161116c565b9050919050565b600060208201905081810360008301526113538161118f565b9050919050565b60006020820190508181036000830152611373816111b2565b9050919050565b600060208201905061138f60008301846111d5565b92915050565b60006040820190506113aa60008301856111d5565b6113b760208301846111d5565b9392505050565b600082825260208201905092915050565b60006113da826114f1565b91506113e5836114f1565b9250827fffffffffffffffffffffffffffffffffffffffffffffffffffffffffffffffff0382111561141a576114196114fb565b5b828201905092915050565b6000611430826114f1565b915061143b836114f1565b9250817fffffffffffffffffffffffffffffffffffffffffffffffffffffffffffffffff0483118215151615611474576114736114fb565b5b828202905092915050565b600061148a826114f1565b9150611495836114f1565b9250828210156114a8576114a76114fb565b5b828203905092915050565b60006114be826114d1565b9050919050565b60008115159050919050565b600073ffffffffffffffffffffffffffffffffffffffff82169050919050565b6000819050919050565b7f4e487b7100000000000000000000000000000000000000000000000000000000600052601160045260246000fd5b7f6e6f7420656e6f756768206e6f726d616c204e46547320746f207472616e736660008201527f6572000000000000000000000000000000000000000000000000000000000000602082015250565b7f696e76616c696420746f6b656e20616464726573730000000000000000000000600082015250565b7f4f776e61626c653a206e6577206f776e657220697320746865207a65726f206160008201527f6464726573730000000000000000000000000000000000000000000000000000602082015250565b7f6d61784e6f726d616c537570706c792073686f756c642062652067726561746560008201527f72207468616e20746f74616c4e6f726d616c537570706c790000000000000000602082015250565b7f696e76616c6964207472616e7366657220616464726573730000000000000000600082015250565b7f6e6f7420656e6f7567682062616c616e63650000000000000000000000000000600082015250565b7f6e6f7420656e6f756768204e465473206c656674000000000000000000000000600082015250565b7f4f776e61626c653a2063616c6c6572206973206e6f7420746865206f776e6572600082015250565b7f596f7520617265206e6f7420612062657461207465737465722e000000000000600082015250565b7f6e6f7420656e6f756768207370656369616c204e46547320746f207472616e7360008201527f6665720000000000000000000000000000000000000000000000000000000000602082015250565b7f6d61785370656369616c537570706c792073686f756c6420626520677265617460008201527f6572207468616e20746f74616c5370656369616c537570706c79000000000000602082015250565b6117b4816114b3565b81146117bf57600080fd5b50565b6117cb816114f1565b81146117d657600080fd5b5056fea2646970667358221220d1bb0fd9fd132f267e057d26a659e18bef2a96cf61b4fc04a4324d1acb40e51f64736f6c63430008040033",
  "linkReferences": {},
  "deployedLinkReferences": {}
}