{
  "_format": "hh-sol-artifact-1",
  "contractName": "ElumStaking",
  "sourceName": "contracts/ElumStaking.sol",
  "abi": [
    {
      "anonymous": false,
      "inputs": [
        {
          "indexed": true,
          "internalType": "address",
          "name": "previousOwner",
          "type": "address"
        },
        {
          "indexed": true,
          "internalType": "address",
          "name": "newOwner",
          "type": "address"
        }
      ],
      "name": "OwnershipTransferred",
      "type": "event"
    },
    {
      "inputs": [
        {
          "internalType": "uint256",
          "name": "",
          "type": "uint256"
        }
      ],
      "name": "NFT_TO_INFO",
      "outputs": [
        {
          "internalType": "uint256",
          "name": "type_id",
          "type": "uint256"
        },
        {
          "internalType": "uint256",
          "name": "startTime",
          "type": "uint256"
        },
        {
          "internalType": "uint256",
          "name": "amount",
          "type": "uint256"
        },
        {
          "internalType": "address",
          "name": "staker",
          "type": "address"
        }
      ],
      "stateMutability": "view",
      "type": "function"
    },
    {
      "inputs": [
        {
          "internalType": "uint256",
          "name": "period",
          "type": "uint256"
        },
        {
          "internalType": "uint256",
          "name": "amount",
          "type": "uint256"
        },
        {
          "internalType": "uint256",
          "name": "multiplier",
          "type": "uint256"
        }
      ],
      "name": "addStakeType",
      "outputs": [],
      "stateMutability": "nonpayable",
      "type": "function"
    },
    {
      "inputs": [
        {
          "internalType": "uint256[]",
          "name": "period",
          "type": "uint256[]"
        },
        {
          "internalType": "uint256[]",
          "name": "amount",
          "type": "uint256[]"
        },
        {
          "internalType": "uint256[]",
          "name": "multiplier",
          "type": "uint256[]"
        }
      ],
      "name": "addStakeTypeList",
      "outputs": [],
      "stateMutability": "nonpayable",
      "type": "function"
    },
    {
      "inputs": [
        {
          "internalType": "uint256",
          "name": "nftID",
          "type": "uint256"
        }
      ],
      "name": "isStakingExist",
      "outputs": [
        {
          "internalType": "bool",
          "name": "",
          "type": "bool"
        }
      ],
      "stateMutability": "view",
      "type": "function"
    },
    {
      "inputs": [],
      "name": "nft_address",
      "outputs": [
        {
          "internalType": "address",
          "name": "",
          "type": "address"
        }
      ],
      "stateMutability": "view",
      "type": "function"
    },
    {
      "inputs": [],
      "name": "owner",
      "outputs": [
        {
          "internalType": "address",
          "name": "",
          "type": "address"
        }
      ],
      "stateMutability": "view",
      "type": "function"
    },
    {
      "inputs": [],
      "name": "renounceOwnership",
      "outputs": [],
      "stateMutability": "nonpayable",
      "type": "function"
    },
    {
      "inputs": [
        {
          "internalType": "address",
          "name": "_nft_address",
          "type": "address"
        }
      ],
      "name": "setNFTAddress",
      "outputs": [],
      "stateMutability": "nonpayable",
      "type": "function"
    },
    {
      "inputs": [
        {
          "internalType": "address",
          "name": "_token_address",
          "type": "address"
        }
      ],
      "name": "setTokenAddress",
      "outputs": [],
      "stateMutability": "nonpayable",
      "type": "function"
    },
    {
      "inputs": [
        {
          "internalType": "uint256",
          "name": "nftID",
          "type": "uint256"
        },
        {
          "internalType": "uint256",
          "name": "stakeType",
          "type": "uint256"
        }
      ],
      "name": "stakeNFT",
      "outputs": [],
      "stateMutability": "nonpayable",
      "type": "function"
    },
    {
      "inputs": [
        {
          "internalType": "uint256",
          "name": "",
          "type": "uint256"
        }
      ],
      "name": "stakeTypeList",
      "outputs": [
        {
          "internalType": "uint256",
          "name": "id",
          "type": "uint256"
        },
        {
          "internalType": "uint256",
          "name": "period",
          "type": "uint256"
        },
        {
          "internalType": "uint256",
          "name": "amount",
          "type": "uint256"
        },
        {
          "internalType": "uint256",
          "name": "multiplier",
          "type": "uint256"
        }
      ],
      "stateMutability": "view",
      "type": "function"
    },
    {
      "inputs": [],
      "name": "token_address",
      "outputs": [
        {
          "internalType": "address",
          "name": "",
          "type": "address"
        }
      ],
      "stateMutability": "view",
      "type": "function"
    },
    {
      "inputs": [
        {
          "internalType": "address",
          "name": "newOwner",
          "type": "address"
        }
      ],
      "name": "transferOwnership",
      "outputs": [],
      "stateMutability": "nonpayable",
      "type": "function"
    },
    {
      "inputs": [
        {
          "internalType": "uint256",
          "name": "index",
          "type": "uint256"
        },
        {
          "internalType": "uint256",
          "name": "period",
          "type": "uint256"
        },
        {
          "internalType": "uint256",
          "name": "amount",
          "type": "uint256"
        },
        {
          "internalType": "uint256",
          "name": "multiplier",
          "type": "uint256"
        }
      ],
      "name": "updateStakeType",
      "outputs": [],
      "stateMutability": "nonpayable",
      "type": "function"
    },
    {
      "inputs": [
        {
          "internalType": "uint256",
          "name": "nftID",
          "type": "uint256"
        }
      ],
      "name": "withdrawStaker",
      "outputs": [],
      "stateMutability": "nonpayable",
      "type": "function"
    },
    {
      "inputs": [
        {
          "internalType": "uint256",
          "name": "nftID",
          "type": "uint256"
        }
      ],
      "name": "withdrawToken",
      "outputs": [],
      "stateMutability": "nonpayable",
      "type": "function"
    }
  ],
  "bytecode": "0x60806040523480156200001157600080fd5b5062000032620000266200003860201b60201c565b6200004060201b60201c565b62000104565b600033905090565b60008060009054906101000a900473ffffffffffffffffffffffffffffffffffffffff169050816000806101000a81548173ffffffffffffffffffffffffffffffffffffffff021916908373ffffffffffffffffffffffffffffffffffffffff1602179055508173ffffffffffffffffffffffffffffffffffffffff168173ffffffffffffffffffffffffffffffffffffffff167f8be0079c531659141344cd1fd0a4f28419497f9722a3daafe3b4186f6b6457e060405160405180910390a35050565b612bed80620001146000396000f3fe608060405234801561001057600080fd5b50600436106101005760003560e01c80638a44efcb11610097578063c78de70911610066578063c78de7091461025e578063cbf6e4641461027c578063ea9fb0c3146102af578063f2fde38b146102df57610100565b80638a44efcb146101ea5780638c8e8fee146102065780638da5cb5b14610224578063aaa269c51461024257610100565b806351cecc80116100d357806351cecc801461018c57806363dbdebf146101a857806369d03738146101c4578063715018a6146101e057610100565b8063047b7b411461010557806326a4e8d2146101385780634ec80a4c1461015457806350baa62214610170575b600080fd5b61011f600480360381019061011a9190611e99565b6102fb565b60405161012f949392919061257b565b60405180910390f35b610152600480360381019061014d9190611da3565b61034b565b005b61016e60048036038101906101699190611f76565b610407565b005b61018a60048036038101906101859190611e99565b610591565b005b6101a660048036038101906101a19190611eeb565b6108a0565b005b6101c260048036038101906101bd9190611dcc565b6112f1565b005b6101de60048036038101906101d99190611da3565b611444565b005b6101e8611500565b005b61020460048036038101906101ff9190611e99565b611514565b005b61020e611615565b60405161021b919061227c565b60405180910390f35b61022c61163b565b604051610239919061227c565b60405180910390f35b61025c60048036038101906102579190611f27565b611664565b005b610266611733565b604051610273919061227c565b60405180910390f35b61029660048036038101906102919190611e99565b611759565b6040516102a694939291906125c0565b60405180910390f35b6102c960048036038101906102c49190611e99565b611799565b6040516102d69190612320565b60405180910390f35b6102f960048036038101906102f49190611da3565b611924565b005b60046020528060005260406000206000915090508060000154908060010154908060020154908060030160009054906101000a900473ffffffffffffffffffffffffffffffffffffffff16905084565b6103536119a8565b600073ffffffffffffffffffffffffffffffffffffffff168173ffffffffffffffffffffffffffffffffffffffff1614156103c3576040517f08c379a00000000000000000000000000000000000000000000000000000000081526004016103ba9061233b565b60405180910390fd5b80600160006101000a81548173ffffffffffffffffffffffffffffffffffffffff021916908373ffffffffffffffffffffffffffffffffffffffff16021790555050565b61040f6119a8565b6003805490508410610456576040517f08c379a000000000000000000000000000000000000000000000000000000000815260040161044d9061239b565b60405180910390fd5b61271081101561049b576040517f08c379a00000000000000000000000000000000000000000000000000000000081526004016104929061253b565b60405180910390fd5b82600385815481106104d6577f4e487b7100000000000000000000000000000000000000000000000000000000600052603260045260246000fd5b9060005260206000209060040201600101819055508160038581548110610526577f4e487b7100000000000000000000000000000000000000000000000000000000600052603260045260246000fd5b9060005260206000209060040201600201819055508060038581548110610576577f4e487b7100000000000000000000000000000000000000000000000000000000600052603260045260246000fd5b90600052602060002090600402016003018190555050505050565b6001151561059e82611799565b1515146105e0576040517f08c379a00000000000000000000000000000000000000000000000000000000081526004016105d79061249b565b60405180910390fd5b600073ffffffffffffffffffffffffffffffffffffffff166004600083815260200190815260200160002060030160009054906101000a900473ffffffffffffffffffffffffffffffffffffffff1673ffffffffffffffffffffffffffffffffffffffff161415610686576040517f08c379a000000000000000000000000000000000000000000000000000000000815260040161067d906124fb565b60405180910390fd5b600060046000838152602001908152602001600020600001549050600381815481106106db577f4e487b7100000000000000000000000000000000000000000000000000000000600052603260045260246000fd5b906000526020600020906004020160020154600460008481526020019081526020016000206002015411610744576040517f08c379a000000000000000000000000000000000000000000000000000000000815260040161073b906123db565b60405180910390fd5b600060038281548110610780577f4e487b7100000000000000000000000000000000000000000000000000000000600052603260045260246000fd5b90600052602060002090600402016002015460046000858152602001908152602001600020600201546107b3919061266c565b9050600160009054906101000a900473ffffffffffffffffffffffffffffffffffffffff1673ffffffffffffffffffffffffffffffffffffffff1663a9059cbb6004600086815260200190815260200160002060030160009054906101000a900473ffffffffffffffffffffffffffffffffffffffff16836040518363ffffffff1660e01b81526004016108489291906122f7565b602060405180830381600087803b15801561086257600080fd5b505af1158015610876573d6000803e3d6000fd5b505050506040513d601f19601f8201168201806040525081019061089a9190611e70565b50505050565b81600260009054906101000a900473ffffffffffffffffffffffffffffffffffffffff1673ffffffffffffffffffffffffffffffffffffffff1663e327a6af33836040518363ffffffff1660e01b81526004016108fe9291906122f7565b60206040518083038186803b15801561091657600080fd5b505afa15801561092a573d6000803e3d6000fd5b505050506040513d601f19601f8201168201806040525081019061094e9190611e70565b61098d576040517f08c379a00000000000000000000000000000000000000000000000000000000081526004016109849061243b565b60405180910390fd5b61099681611799565b1580610a0357503373ffffffffffffffffffffffffffffffffffffffff166004600083815260200190815260200160002060030160009054906101000a900473ffffffffffffffffffffffffffffffffffffffff1673ffffffffffffffffffffffffffffffffffffffff16145b610a42576040517f08c379a0000000000000000000000000000000000000000000000000000000008152600401610a39906123bb565b60405180910390fd5b6003805490508210610a89576040517f08c379a0000000000000000000000000000000000000000000000000000000008152600401610a80906124db565b60405180910390fd5b600060038381548110610ac5577f4e487b7100000000000000000000000000000000000000000000000000000000600052603260045260246000fd5b9060005260206000209060040201600201549050600060038481548110610b15577f4e487b7100000000000000000000000000000000000000000000000000000000600052603260045260246000fd5b9060005260206000209060040201600101549050610b3285611799565b156110995760006004600087815260200190815260200160002060030160009054906101000a900473ffffffffffffffffffffffffffffffffffffffff1690503373ffffffffffffffffffffffffffffffffffffffff168173ffffffffffffffffffffffffffffffffffffffff1614610be0576040517f08c379a0000000000000000000000000000000000000000000000000000000008152600401610bd79061245b565b60405180910390fd5b600060046000888152602001908152602001600020600001549050600060038281548110610c37577f4e487b7100000000000000000000000000000000000000000000000000000000600052603260045260246000fd5b9060005260206000209060040201600201549050600060038381548110610c87577f4e487b7100000000000000000000000000000000000000000000000000000000600052603260045260246000fd5b9060005260206000209060040201600101549050858211158015610cab5750848111155b610cea576040517f08c379a0000000000000000000000000000000000000000000000000000000008152600401610ce19061241b565b60405180910390fd5b6000600460008b815260200190815260200160002060020154905080831115610d48576040517f08c379a0000000000000000000000000000000000000000000000000000000008152600401610d3f906124bb565b60405180910390fd5b6000818811610d58576000610d65565b8188610d64919061266c565b5b905080600160009054906101000a900473ffffffffffffffffffffffffffffffffffffffff1673ffffffffffffffffffffffffffffffffffffffff1663dd62ed3e33306040518363ffffffff1660e01b8152600401610dc5929190612297565b60206040518083038186803b158015610ddd57600080fd5b505afa158015610df1573d6000803e3d6000fd5b505050506040513d601f19601f82011682018060405250810190610e159190611ec2565b1015610e56576040517f08c379a0000000000000000000000000000000000000000000000000000000008152600401610e4d906123fb565b60405180910390fd5b6000811115610f1257600160009054906101000a900473ffffffffffffffffffffffffffffffffffffffff1673ffffffffffffffffffffffffffffffffffffffff166323b872dd3330846040518463ffffffff1660e01b8152600401610ebe939291906122c0565b602060405180830381600087803b158015610ed857600080fd5b505af1158015610eec573d6000803e3d6000fd5b505050506040513d601f19601f82011682018060405250810190610f109190611e70565b505b6000888383610f219190612616565b610f2b919061266c565b90506000811115610fe757600160009054906101000a900473ffffffffffffffffffffffffffffffffffffffff1673ffffffffffffffffffffffffffffffffffffffff1663a9059cbb33836040518363ffffffff1660e01b8152600401610f939291906122f7565b602060405180830381600087803b158015610fad57600080fd5b505af1158015610fc1573d6000803e3d6000fd5b505050506040513d601f19601f82011682018060405250810190610fe59190611e70565b505b88600460008e8152602001908152602001600020600201819055508a600460008e81526020019081526020016000206000018190555033600460008e815260200190815260200160002060030160006101000a81548173ffffffffffffffffffffffffffffffffffffffff021916908373ffffffffffffffffffffffffffffffffffffffff16021790555042600460008e815260200190815260200160002060010181905550505050505050506112ea565b6110a285611a26565b81600160009054906101000a900473ffffffffffffffffffffffffffffffffffffffff1673ffffffffffffffffffffffffffffffffffffffff1663dd62ed3e33306040518363ffffffff1660e01b8152600401611100929190612297565b60206040518083038186803b15801561111857600080fd5b505afa15801561112c573d6000803e3d6000fd5b505050506040513d601f19601f820116820180604052508101906111509190611ec2565b1015611191576040517f08c379a0000000000000000000000000000000000000000000000000000000008152600401611188906123fb565b60405180910390fd5b600160009054906101000a900473ffffffffffffffffffffffffffffffffffffffff1673ffffffffffffffffffffffffffffffffffffffff166323b872dd3330856040518463ffffffff1660e01b81526004016111f0939291906122c0565b602060405180830381600087803b15801561120a57600080fd5b505af115801561121e573d6000803e3d6000fd5b505050506040513d601f19601f820116820180604052508101906112429190611e70565b50336004600087815260200190815260200160002060030160006101000a81548173ffffffffffffffffffffffffffffffffffffffff021916908373ffffffffffffffffffffffffffffffffffffffff1602179055508160046000878152602001908152602001600020600201819055508360046000878152602001908152602001600020600001819055504260046000878152602001908152602001600020600101819055505b5050505050565b6112f96119a8565b838390508686905014801561131357508181905084849050145b611352576040517f08c379a00000000000000000000000000000000000000000000000000000000081526004016113499061255b565b60405180910390fd5b60005b8686905081101561143b5761142887878381811061139c577f4e487b7100000000000000000000000000000000000000000000000000000000600052603260045260246000fd5b905060200201358686848181106113dc577f4e487b7100000000000000000000000000000000000000000000000000000000600052603260045260246000fd5b9050602002013585858581811061141c577f4e487b7100000000000000000000000000000000000000000000000000000000600052603260045260246000fd5b90506020020135611664565b8080611433906126e8565b915050611355565b50505050505050565b61144c6119a8565b600073ffffffffffffffffffffffffffffffffffffffff168173ffffffffffffffffffffffffffffffffffffffff1614156114bc576040517f08c379a00000000000000000000000000000000000000000000000000000000081526004016114b39061235b565b60405180910390fd5b80600260006101000a81548173ffffffffffffffffffffffffffffffffffffffff021916908373ffffffffffffffffffffffffffffffffffffffff16021790555050565b6115086119a8565b6115126000611c11565b565b6000151561152182611799565b151514611563576040517f08c379a000000000000000000000000000000000000000000000000000000000815260040161155a9061251b565b60405180910390fd5b600073ffffffffffffffffffffffffffffffffffffffff166004600083815260200190815260200160002060030160009054906101000a900473ffffffffffffffffffffffffffffffffffffffff1673ffffffffffffffffffffffffffffffffffffffff161415611609576040517f08c379a0000000000000000000000000000000000000000000000000000000008152600401611600906123db565b60405180910390fd5b61161281611a26565b50565b600160009054906101000a900473ffffffffffffffffffffffffffffffffffffffff1681565b60008060009054906101000a900473ffffffffffffffffffffffffffffffffffffffff16905090565b61166c6119a8565b6127108110156116b1576040517f08c379a00000000000000000000000000000000000000000000000000000000081526004016116a89061253b565b60405180910390fd5b6116b9611cdd565b838160200181815250508281604001818152505081816060018181525050600381908060018154018082558091505060019003906000526020600020906004020160009091909190915060008201518160000155602082015181600101556040820151816002015560608201518160030155505050505050565b600260009054906101000a900473ffffffffffffffffffffffffffffffffffffffff1681565b6003818154811061176957600080fd5b90600052602060002090600402016000915090508060000154908060010154908060020154908060030154905084565b60008073ffffffffffffffffffffffffffffffffffffffff166004600084815260200190815260200160002060030160009054906101000a900473ffffffffffffffffffffffffffffffffffffffff1673ffffffffffffffffffffffffffffffffffffffff16141561180e576000905061191f565b60006004600084815260200190815260200160002060000154905060038181548110611863577f4e487b7100000000000000000000000000000000000000000000000000000000600052603260045260246000fd5b9060005260206000209060040201600201546004600085815260200190815260200160002060020154101561189c57600091505061191f565b600381815481106118d6577f4e487b7100000000000000000000000000000000000000000000000000000000600052603260045260246000fd5b90600052602060002090600402016001015460046000858152602001908152602001600020600101544261190a919061266c565b1061191957600091505061191f565b60019150505b919050565b61192c6119a8565b600073ffffffffffffffffffffffffffffffffffffffff168173ffffffffffffffffffffffffffffffffffffffff16141561199c576040517f08c379a00000000000000000000000000000000000000000000000000000000081526004016119939061237b565b60405180910390fd5b6119a581611c11565b50565b6119b0611cd5565b73ffffffffffffffffffffffffffffffffffffffff166119ce61163b565b73ffffffffffffffffffffffffffffffffffffffff1614611a24576040517f08c379a0000000000000000000000000000000000000000000000000000000008152600401611a1b9061247b565b60405180910390fd5b565b60006004600083815260200190815260200160002060030160009054906101000a900473ffffffffffffffffffffffffffffffffffffffff169050600073ffffffffffffffffffffffffffffffffffffffff168173ffffffffffffffffffffffffffffffffffffffff161415611a9c5750611c0e565b600160009054906101000a900473ffffffffffffffffffffffffffffffffffffffff1673ffffffffffffffffffffffffffffffffffffffff1663a9059cbb8260046000868152602001908152602001600020600201546040518363ffffffff1660e01b8152600401611b0f9291906122f7565b602060405180830381600087803b158015611b2957600080fd5b505af1158015611b3d573d6000803e3d6000fd5b505050506040513d601f19601f82011682018060405250810190611b619190611e70565b50600060046000848152602001908152602001600020600001819055506000600460008481526020019081526020016000206001018190555060006004600084815260200190815260200160002060030160006101000a81548173ffffffffffffffffffffffffffffffffffffffff021916908373ffffffffffffffffffffffffffffffffffffffff16021790555060006004600084815260200190815260200160002060020181905550505b50565b60008060009054906101000a900473ffffffffffffffffffffffffffffffffffffffff169050816000806101000a81548173ffffffffffffffffffffffffffffffffffffffff021916908373ffffffffffffffffffffffffffffffffffffffff1602179055508173ffffffffffffffffffffffffffffffffffffffff168173ffffffffffffffffffffffffffffffffffffffff167f8be0079c531659141344cd1fd0a4f28419497f9722a3daafe3b4186f6b6457e060405160405180910390a35050565b600033905090565b6040518060800160405280600081526020016000815260200160008152602001600081525090565b600081359050611d1481612b72565b92915050565b60008083601f840112611d2c57600080fd5b8235905067ffffffffffffffff811115611d4557600080fd5b602083019150836020820283011115611d5d57600080fd5b9250929050565b600081519050611d7381612b89565b92915050565b600081359050611d8881612ba0565b92915050565b600081519050611d9d81612ba0565b92915050565b600060208284031215611db557600080fd5b6000611dc384828501611d05565b91505092915050565b60008060008060008060608789031215611de557600080fd5b600087013567ffffffffffffffff811115611dff57600080fd5b611e0b89828a01611d1a565b9650965050602087013567ffffffffffffffff811115611e2a57600080fd5b611e3689828a01611d1a565b9450945050604087013567ffffffffffffffff811115611e5557600080fd5b611e6189828a01611d1a565b92509250509295509295509295565b600060208284031215611e8257600080fd5b6000611e9084828501611d64565b91505092915050565b600060208284031215611eab57600080fd5b6000611eb984828501611d79565b91505092915050565b600060208284031215611ed457600080fd5b6000611ee284828501611d8e565b91505092915050565b60008060408385031215611efe57600080fd5b6000611f0c85828601611d79565b9250506020611f1d85828601611d79565b9150509250929050565b600080600060608486031215611f3c57600080fd5b6000611f4a86828701611d79565b9350506020611f5b86828701611d79565b9250506040611f6c86828701611d79565b9150509250925092565b60008060008060808587031215611f8c57600080fd5b6000611f9a87828801611d79565b9450506020611fab87828801611d79565b9350506040611fbc87828801611d79565b9250506060611fcd87828801611d79565b91505092959194509250565b611fe2816126a0565b82525050565b611ff1816126b2565b82525050565b6000612004601583612605565b915061200f82612760565b602082019050919050565b6000612027601383612605565b915061203282612789565b602082019050919050565b600061204a602683612605565b9150612055826127b2565b604082019050919050565b600061206d602e83612605565b915061207882612801565b604082019050919050565b6000612090601983612605565b915061209b82612850565b602082019050919050565b60006120b3601483612605565b91506120be82612879565b602082019050919050565b60006120d6602c83612605565b91506120e1826128a2565b604082019050919050565b60006120f9601783612605565b9150612104826128f1565b602082019050919050565b600061211c601c83612605565b91506121278261291a565b602082019050919050565b600061213f601483612605565b915061214a82612943565b602082019050919050565b6000612162602083612605565b915061216d8261296c565b602082019050919050565b6000612185602c83612605565b915061219082612995565b604082019050919050565b60006121a8603783612605565b91506121b3826129e4565b604082019050919050565b60006121cb603283612605565b91506121d682612a33565b604082019050919050565b60006121ee600e83612605565b91506121f982612a82565b602082019050919050565b6000612211601f83612605565b915061221c82612aab565b602082019050919050565b6000612234602583612605565b915061223f82612ad4565b604082019050919050565b6000612257603483612605565b915061226282612b23565b604082019050919050565b612276816126de565b82525050565b60006020820190506122916000830184611fd9565b92915050565b60006040820190506122ac6000830185611fd9565b6122b96020830184611fd9565b9392505050565b60006060820190506122d56000830186611fd9565b6122e26020830185611fd9565b6122ef604083018461226d565b949350505050565b600060408201905061230c6000830185611fd9565b612319602083018461226d565b9392505050565b60006020820190506123356000830184611fe8565b92915050565b6000602082019050818103600083015261235481611ff7565b9050919050565b600060208201905081810360008301526123748161201a565b9050919050565b600060208201905081810360008301526123948161203d565b9050919050565b600060208201905081810360008301526123b481612060565b9050919050565b600060208201905081810360008301526123d481612083565b9050919050565b600060208201905081810360008301526123f4816120a6565b9050919050565b60006020820190508181036000830152612414816120c9565b9050919050565b60006020820190508181036000830152612434816120ec565b9050919050565b600060208201905081810360008301526124548161210f565b9050919050565b6000602082019050818103600083015261247481612132565b9050919050565b6000602082019050818103600083015261249481612155565b9050919050565b600060208201905081810360008301526124b481612178565b9050919050565b600060208201905081810360008301526124d48161219b565b9050919050565b600060208201905081810360008301526124f4816121be565b9050919050565b60006020820190508181036000830152612514816121e1565b9050919050565b6000602082019050818103600083015261253481612204565b9050919050565b6000602082019050818103600083015261255481612227565b9050919050565b600060208201905081810360008301526125748161224a565b9050919050565b6000608082019050612590600083018761226d565b61259d602083018661226d565b6125aa604083018561226d565b6125b76060830184611fd9565b95945050505050565b60006080820190506125d5600083018761226d565b6125e2602083018661226d565b6125ef604083018561226d565b6125fc606083018461226d565b95945050505050565b600082825260208201905092915050565b6000612621826126de565b915061262c836126de565b9250827fffffffffffffffffffffffffffffffffffffffffffffffffffffffffffffffff0382111561266157612660612731565b5b828201905092915050565b6000612677826126de565b9150612682836126de565b92508282101561269557612694612731565b5b828203905092915050565b60006126ab826126be565b9050919050565b60008115159050919050565b600073ffffffffffffffffffffffffffffffffffffffff82169050919050565b6000819050919050565b60006126f3826126de565b91507fffffffffffffffffffffffffffffffffffffffffffffffffffffffffffffffff82141561272657612725612731565b5b600182019050919050565b7f4e487b7100000000000000000000000000000000000000000000000000000000600052601160045260246000fd5b7f696e76616c696420746f6b656e20616464726573730000000000000000000000600082015250565b7f696e76616c6964206e6674206164647265737300000000000000000000000000600082015250565b7f4f776e61626c653a206e6577206f776e657220697320746865207a65726f206160008201527f6464726573730000000000000000000000000000000000000000000000000000602082015250565b7f696e6465782073686f756c64206265206c657373207468616e207374616b655460008201527f7970654c6973742e6c656e677468000000000000000000000000000000000000602082015250565b7f5374616b657220697320616e6f7468657220706572736f6e2e00000000000000600082015250565b7f4e6f7468696e6720746f2077697468647261772e000000000000000000000000600082015250565b7f526571756972656420416d6f756e74206f6620546f6b656e732073686f756c6460008201527f20626520616c6c6f7765642e0000000000000000000000000000000000000000602082015250565b7f43616e206f6e6c792062652075706772616461626c652e000000000000000000600082015250565b7f596f752073686f756c6420626520746865204e4654204f776e65722e00000000600082015250565b7f5374616b657220616c7265616479206578697374000000000000000000000000600082015250565b7f4f776e61626c653a2063616c6c6572206973206e6f7420746865206f776e6572600082015250565b7f43616c6c2077697468647261775374616b657220696e73746561644f6620776960008201527f746864726177546f6b656e2e0000000000000000000000000000000000000000602082015250565b7f496e7465726e616c204572726f723a206f6c64416d6f756e742073686f756c6460008201527f206265206c657373207468616e20637572416d6f756e74000000000000000000602082015250565b7f7374616b65547970652073686f756c64206265206c657373207468616e20737460008201527f616b65547970654c6973742e6c656e6774680000000000000000000000000000602082015250565b7f6e6f207374616b65722068657265000000000000000000000000000000000000600082015250565b7f43616e6e6f74207769746864726177207374616b696e6720546f6b656e732e00600082015250565b7f4d756c7469706c6965722073686f756c6420626520677265617465722074686160008201527f6e20312e30000000000000000000000000000000000000000000000000000000602082015250565b7f706572696f64202620616d6f756e742026206d756c7469706c696572206c656e60008201527f6774682073686f756c6420626520657175616c2e000000000000000000000000602082015250565b612b7b816126a0565b8114612b8657600080fd5b50565b612b92816126b2565b8114612b9d57600080fd5b50565b612ba9816126de565b8114612bb457600080fd5b5056fea26469706673582212200c28479f1de9adb1fb56fd2697ed46383b8030d28b9449e6fdbbe5a650f71ab964736f6c63430008040033",
  "linkReferences": {},
  "deployedLinkReferences": {}
}