{
  "_format": "hh-sol-artifact-1",
  "contractName": "ElumStaking",
  "sourceName": "contracts/ElumStaking.sol",
  "abi": [
    {
      "anonymous": false,
      "inputs": [
        {
          "indexed": true,
          "internalType": "address",
          "name": "previousOwner",
          "type": "address"
        },
        {
          "indexed": true,
          "internalType": "address",
          "name": "newOwner",
          "type": "address"
        }
      ],
      "name": "OwnershipTransferred",
      "type": "event"
    },
    {
      "inputs": [
        {
          "internalType": "address",
          "name": "",
          "type": "address"
        }
      ],
      "name": "ADDRESS_TO_INFO",
      "outputs": [
        {
          "internalType": "uint256",
          "name": "type_id",
          "type": "uint256"
        },
        {
          "internalType": "uint256",
          "name": "startTime",
          "type": "uint256"
        },
        {
          "internalType": "uint256",
          "name": "expireTime",
          "type": "uint256"
        },
        {
          "internalType": "uint256",
          "name": "amount",
          "type": "uint256"
        }
      ],
      "stateMutability": "view",
      "type": "function"
    },
    {
      "inputs": [
        {
          "internalType": "uint256",
          "name": "period",
          "type": "uint256"
        }
      ],
      "name": "addStakeType",
      "outputs": [],
      "stateMutability": "nonpayable",
      "type": "function"
    },
    {
      "inputs": [
        {
          "internalType": "uint256[]",
          "name": "period",
          "type": "uint256[]"
        }
      ],
      "name": "addStakeTypeList",
      "outputs": [],
      "stateMutability": "nonpayable",
      "type": "function"
    },
    {
      "inputs": [],
      "name": "getStakeTypeList",
      "outputs": [
        {
          "components": [
            {
              "internalType": "uint256",
              "name": "id",
              "type": "uint256"
            },
            {
              "internalType": "uint256",
              "name": "period",
              "type": "uint256"
            }
          ],
          "internalType": "struct STAKE_TYPE[]",
          "name": "",
          "type": "tuple[]"
        }
      ],
      "stateMutability": "view",
      "type": "function"
    },
    {
      "inputs": [],
      "name": "owner",
      "outputs": [
        {
          "internalType": "address",
          "name": "",
          "type": "address"
        }
      ],
      "stateMutability": "view",
      "type": "function"
    },
    {
      "inputs": [],
      "name": "renounceOwnership",
      "outputs": [],
      "stateMutability": "nonpayable",
      "type": "function"
    },
    {
      "inputs": [
        {
          "internalType": "address",
          "name": "_token_address",
          "type": "address"
        }
      ],
      "name": "setTokenAddress",
      "outputs": [],
      "stateMutability": "nonpayable",
      "type": "function"
    },
    {
      "inputs": [
        {
          "internalType": "uint256",
          "name": "stakeType",
          "type": "uint256"
        },
        {
          "internalType": "uint256",
          "name": "amount",
          "type": "uint256"
        }
      ],
      "name": "stake",
      "outputs": [],
      "stateMutability": "nonpayable",
      "type": "function"
    },
    {
      "inputs": [
        {
          "internalType": "uint256",
          "name": "",
          "type": "uint256"
        }
      ],
      "name": "stakeTypeList",
      "outputs": [
        {
          "internalType": "uint256",
          "name": "id",
          "type": "uint256"
        },
        {
          "internalType": "uint256",
          "name": "period",
          "type": "uint256"
        }
      ],
      "stateMutability": "view",
      "type": "function"
    },
    {
      "inputs": [],
      "name": "token_address",
      "outputs": [
        {
          "internalType": "address",
          "name": "",
          "type": "address"
        }
      ],
      "stateMutability": "view",
      "type": "function"
    },
    {
      "inputs": [
        {
          "internalType": "address",
          "name": "newOwner",
          "type": "address"
        }
      ],
      "name": "transferOwnership",
      "outputs": [],
      "stateMutability": "nonpayable",
      "type": "function"
    },
    {
      "inputs": [
        {
          "internalType": "uint256",
          "name": "index",
          "type": "uint256"
        },
        {
          "internalType": "uint256",
          "name": "period",
          "type": "uint256"
        }
      ],
      "name": "updateStakeType",
      "outputs": [],
      "stateMutability": "nonpayable",
      "type": "function"
    },
    {
      "inputs": [
        {
          "internalType": "address",
          "name": "_address",
          "type": "address"
        }
      ],
      "name": "withdrawStaker",
      "outputs": [],
      "stateMutability": "nonpayable",
      "type": "function"
    }
  ],
  "bytecode": "0x608060405234801561001057600080fd5b5061002d61002261003260201b60201c565b61003a60201b60201c565b6100fe565b600033905090565b60008060009054906101000a900473ffffffffffffffffffffffffffffffffffffffff169050816000806101000a81548173ffffffffffffffffffffffffffffffffffffffff021916908373ffffffffffffffffffffffffffffffffffffffff1602179055508173ffffffffffffffffffffffffffffffffffffffff168173ffffffffffffffffffffffffffffffffffffffff167f8be0079c531659141344cd1fd0a4f28419497f9722a3daafe3b4186f6b6457e060405160405180910390a35050565b6118d38061010d6000396000f3fe608060405234801561001057600080fd5b50600436106100cf5760003560e01c80638c8e8fee1161008c578063ba934a8211610066578063ba934a82146101db578063cbf6e464146101f7578063efee95da14610228578063f2fde38b14610244576100cf565b80638c8e8fee146101815780638da5cb5b1461019f5780639ee397c1146101bd576100cf565b8063235c96cb146100d457806326a4e8d2146100f05780634d0250f71461010c57806359882f8114610128578063715018a61461015b5780637b0472f014610165575b600080fd5b6100ee60048036038101906100e99190610f6c565b610260565b005b61010a60048036038101906101059190610f43565b6102d6565b005b6101266004803603810190610121919061102c565b610392565b005b610142600480360381019061013d9190610f43565b610435565b6040516101529493929190611484565b60405180910390f35b610163610465565b005b61017f600480360381019061017a919061102c565b610479565b005b610189610911565b6040516101969190611275565b60405180910390f35b6101a7610937565b6040516101b49190611275565b60405180910390f35b6101c5610960565b6040516101d29190611319565b60405180910390f35b6101f560048036038101906101f09190610fda565b6109d3565b005b610211600480360381019061020c9190610fda565b610a42565b60405161021f92919061145b565b60405180910390f35b610242600480360381019061023d9190610f43565b610a76565b005b61025e60048036038101906102599190610f43565b610cbd565b005b610268610d41565b60005b828290508110156102d1576102be8383838181106102b2577f4e487b7100000000000000000000000000000000000000000000000000000000600052603260045260246000fd5b905060200201356109d3565b80806102c9906115b1565b91505061026b565b505050565b6102de610d41565b600073ffffffffffffffffffffffffffffffffffffffff168173ffffffffffffffffffffffffffffffffffffffff16141561034e576040517f08c379a00000000000000000000000000000000000000000000000000000000081526004016103459061133b565b60405180910390fd5b80600160006101000a81548173ffffffffffffffffffffffffffffffffffffffff021916908373ffffffffffffffffffffffffffffffffffffffff16021790555050565b61039a610d41565b60028054905082106103e1576040517f08c379a00000000000000000000000000000000000000000000000000000000081526004016103d89061137b565b60405180910390fd5b806002838154811061041c577f4e487b7100000000000000000000000000000000000000000000000000000000600052603260045260246000fd5b9060005260206000209060020201600101819055505050565b60036020528060005260406000206000915090508060000154908060010154908060020154908060030154905084565b61046d610d41565b6104776000610dbf565b565b60028054905082106104c0576040517f08c379a00000000000000000000000000000000000000000000000000000000081526004016104b7906113db565b60405180910390fd5b80600160009054906101000a900473ffffffffffffffffffffffffffffffffffffffff1673ffffffffffffffffffffffffffffffffffffffff1663dd62ed3e33306040518363ffffffff1660e01b815260040161051e929190611290565b60206040518083038186803b15801561053657600080fd5b505afa15801561054a573d6000803e3d6000fd5b505050506040513d601f19601f8201168201806040525081019061056e9190611003565b10156105af576040517f08c379a00000000000000000000000000000000000000000000000000000000081526004016105a69061143b565b60405180910390fd5b6000600283815481106105eb577f4e487b7100000000000000000000000000000000000000000000000000000000600052603260045260246000fd5b90600052602060002090600202016001015490506000600360003373ffffffffffffffffffffffffffffffffffffffff1673ffffffffffffffffffffffffffffffffffffffff1681526020019081526020016000206003015411156107215760006002600360003373ffffffffffffffffffffffffffffffffffffffff1673ffffffffffffffffffffffffffffffffffffffff16815260200190815260200160002060000154815481106106c8577f4e487b7100000000000000000000000000000000000000000000000000000000600052603260045260246000fd5b90600052602060002090600202016001015490508181111561071f576040517f08c379a00000000000000000000000000000000000000000000000000000000081526004016107169061139b565b60405180910390fd5b505b600160009054906101000a900473ffffffffffffffffffffffffffffffffffffffff1673ffffffffffffffffffffffffffffffffffffffff166323b872dd3330856040518463ffffffff1660e01b8152600401610780939291906112b9565b602060405180830381600087803b15801561079a57600080fd5b505af11580156107ae573d6000803e3d6000fd5b505050506040513d601f19601f820116820180604052508101906107d29190610fb1565b5082600360003373ffffffffffffffffffffffffffffffffffffffff1673ffffffffffffffffffffffffffffffffffffffff1681526020019081526020016000206000018190555042600360003373ffffffffffffffffffffffffffffffffffffffff1673ffffffffffffffffffffffffffffffffffffffff16815260200190815260200160002060010181905550804261086d9190611513565b600360003373ffffffffffffffffffffffffffffffffffffffff1673ffffffffffffffffffffffffffffffffffffffff1681526020019081526020016000206002018190555081600360003373ffffffffffffffffffffffffffffffffffffffff1673ffffffffffffffffffffffffffffffffffffffff16815260200190815260200160002060030160008282546109059190611513565b92505081905550505050565b600160009054906101000a900473ffffffffffffffffffffffffffffffffffffffff1681565b60008060009054906101000a900473ffffffffffffffffffffffffffffffffffffffff16905090565b60606002805480602002602001604051908101604052809291908181526020016000905b828210156109ca57838290600052602060002090600202016040518060400160405290816000820154815260200160018201548152505081526020019060010190610984565b50505050905090565b6109db610d41565b6109e3610e8b565b600280549050816000018181525050818160200181815250506002819080600181540180825580915050600190039060005260206000209060020201600090919091909150600082015181600001556020820151816001015550505050565b60028181548110610a5257600080fd5b90600052602060002090600202016000915090508060000154908060010154905082565b6000600360008373ffffffffffffffffffffffffffffffffffffffff1673ffffffffffffffffffffffffffffffffffffffff1681526020019081526020016000206003015411610afb576040517f08c379a0000000000000000000000000000000000000000000000000000000008152600401610af2906113fb565b60405180910390fd5b42600360008373ffffffffffffffffffffffffffffffffffffffff1673ffffffffffffffffffffffffffffffffffffffff168152602001908152602001600020600201541115610b80576040517f08c379a0000000000000000000000000000000000000000000000000000000008152600401610b779061141b565b60405180910390fd5b600160009054906101000a900473ffffffffffffffffffffffffffffffffffffffff1673ffffffffffffffffffffffffffffffffffffffff1663a9059cbb82600360008573ffffffffffffffffffffffffffffffffffffffff1673ffffffffffffffffffffffffffffffffffffffff168152602001908152602001600020600301546040518363ffffffff1660e01b8152600401610c1f9291906112f0565b602060405180830381600087803b158015610c3957600080fd5b505af1158015610c4d573d6000803e3d6000fd5b505050506040513d601f19601f82011682018060405250810190610c719190610fb1565b506000600360008373ffffffffffffffffffffffffffffffffffffffff1673ffffffffffffffffffffffffffffffffffffffff1681526020019081526020016000206003018190555050565b610cc5610d41565b600073ffffffffffffffffffffffffffffffffffffffff168173ffffffffffffffffffffffffffffffffffffffff161415610d35576040517f08c379a0000000000000000000000000000000000000000000000000000000008152600401610d2c9061135b565b60405180910390fd5b610d3e81610dbf565b50565b610d49610e83565b73ffffffffffffffffffffffffffffffffffffffff16610d67610937565b73ffffffffffffffffffffffffffffffffffffffff1614610dbd576040517f08c379a0000000000000000000000000000000000000000000000000000000008152600401610db4906113bb565b60405180910390fd5b565b60008060009054906101000a900473ffffffffffffffffffffffffffffffffffffffff169050816000806101000a81548173ffffffffffffffffffffffffffffffffffffffff021916908373ffffffffffffffffffffffffffffffffffffffff1602179055508173ffffffffffffffffffffffffffffffffffffffff168173ffffffffffffffffffffffffffffffffffffffff167f8be0079c531659141344cd1fd0a4f28419497f9722a3daafe3b4186f6b6457e060405160405180910390a35050565b600033905090565b604051806040016040528060008152602001600081525090565b600081359050610eb481611858565b92915050565b60008083601f840112610ecc57600080fd5b8235905067ffffffffffffffff811115610ee557600080fd5b602083019150836020820283011115610efd57600080fd5b9250929050565b600081519050610f138161186f565b92915050565b600081359050610f2881611886565b92915050565b600081519050610f3d81611886565b92915050565b600060208284031215610f5557600080fd5b6000610f6384828501610ea5565b91505092915050565b60008060208385031215610f7f57600080fd5b600083013567ffffffffffffffff811115610f9957600080fd5b610fa585828601610eba565b92509250509250929050565b600060208284031215610fc357600080fd5b6000610fd184828501610f04565b91505092915050565b600060208284031215610fec57600080fd5b6000610ffa84828501610f19565b91505092915050565b60006020828403121561101557600080fd5b600061102384828501610f2e565b91505092915050565b6000806040838503121561103f57600080fd5b600061104d85828601610f19565b925050602061105e85828601610f19565b9150509250929050565b60006110748383611228565b60408301905092915050565b61108981611569565b82525050565b600061109a826114d9565b6110a481856114f1565b93506110af836114c9565b8060005b838110156110e05781516110c78882611068565b97506110d2836114e4565b9250506001810190506110b3565b5085935050505092915050565b60006110fa601583611502565b915061110582611629565b602082019050919050565b600061111d602683611502565b915061112882611652565b604082019050919050565b6000611140602e83611502565b915061114b826116a1565b604082019050919050565b6000611163601c83611502565b915061116e826116f0565b602082019050919050565b6000611186602083611502565b915061119182611719565b602082019050919050565b60006111a9603283611502565b91506111b482611742565b604082019050919050565b60006111cc602983611502565b91506111d782611791565b604082019050919050565b60006111ef601e83611502565b91506111fa826117e0565b602082019050919050565b6000611212602383611502565b915061121d82611809565b604082019050919050565b60408201600082015161123e6000850182611257565b5060208201516112516020850182611257565b50505050565b611260816115a7565b82525050565b61126f816115a7565b82525050565b600060208201905061128a6000830184611080565b92915050565b60006040820190506112a56000830185611080565b6112b26020830184611080565b9392505050565b60006060820190506112ce6000830186611080565b6112db6020830185611080565b6112e86040830184611266565b949350505050565b60006040820190506113056000830185611080565b6113126020830184611266565b9392505050565b60006020820190508181036000830152611333818461108f565b905092915050565b60006020820190508181036000830152611354816110ed565b9050919050565b6000602082019050818103600083015261137481611110565b9050919050565b6000602082019050818103600083015261139481611133565b9050919050565b600060208201905081810360008301526113b481611156565b9050919050565b600060208201905081810360008301526113d481611179565b9050919050565b600060208201905081810360008301526113f48161119c565b9050919050565b60006020820190508181036000830152611414816111bf565b9050919050565b60006020820190508181036000830152611434816111e2565b9050919050565b6000602082019050818103600083015261145481611205565b9050919050565b60006040820190506114706000830185611266565b61147d6020830184611266565b9392505050565b60006080820190506114996000830187611266565b6114a66020830186611266565b6114b36040830185611266565b6114c06060830184611266565b95945050505050565b6000819050602082019050919050565b600081519050919050565b6000602082019050919050565b600082825260208201905092915050565b600082825260208201905092915050565b600061151e826115a7565b9150611529836115a7565b9250827fffffffffffffffffffffffffffffffffffffffffffffffffffffffffffffffff0382111561155e5761155d6115fa565b5b828201905092915050565b600061157482611587565b9050919050565b60008115159050919050565b600073ffffffffffffffffffffffffffffffffffffffff82169050919050565b6000819050919050565b60006115bc826115a7565b91507fffffffffffffffffffffffffffffffffffffffffffffffffffffffffffffffff8214156115ef576115ee6115fa565b5b600182019050919050565b7f4e487b7100000000000000000000000000000000000000000000000000000000600052601160045260246000fd5b7f696e76616c696420746f6b656e20616464726573730000000000000000000000600082015250565b7f4f776e61626c653a206e6577206f776e657220697320746865207a65726f206160008201527f6464726573730000000000000000000000000000000000000000000000000000602082015250565b7f696e6465782073686f756c64206265206c657373207468616e207374616b655460008201527f7970654c6973742e6c656e677468000000000000000000000000000000000000602082015250565b7f506572696f642063616e206f6e6c7920626520657874656e6465642e00000000600082015250565b7f4f776e61626c653a2063616c6c6572206973206e6f7420746865206f776e6572600082015250565b7f5374616b65547970652073686f756c64206265206c657373207468616e20737460008201527f616b65547970654c6973742e6c656e6774680000000000000000000000000000602082015250565b7f5374616b696e6720416d6f756e742073686f756c6420626520706f736974697660008201527f65206e756d6265722e0000000000000000000000000000000000000000000000602082015250565b7f5374616b696e6720506572696f64206861736e277420657870697265642e0000600082015250565b7f416d6f756e74206f6620546f6b656e732073686f756c6420626520616c6c6f7760008201527f65642e0000000000000000000000000000000000000000000000000000000000602082015250565b61186181611569565b811461186c57600080fd5b50565b6118788161157b565b811461188357600080fd5b50565b61188f816115a7565b811461189a57600080fd5b5056fea2646970667358221220c00c57714cea59d3053e260e47b22b6674b37ce0338d5b8dd7e060b84f3eb87164736f6c63430008040033",
  "linkReferences": {},
  "deployedLinkReferences": {}
}