{
  "_format": "hh-sol-artifact-1",
  "contractName": "ElumStaking",
  "sourceName": "contracts/ElumStaking.sol",
  "abi": [
    {
      "anonymous": false,
      "inputs": [
        {
          "indexed": true,
          "internalType": "address",
          "name": "previousOwner",
          "type": "address"
        },
        {
          "indexed": true,
          "internalType": "address",
          "name": "newOwner",
          "type": "address"
        }
      ],
      "name": "OwnershipTransferred",
      "type": "event"
    },
    {
      "inputs": [
        {
          "internalType": "uint256",
          "name": "",
          "type": "uint256"
        }
      ],
      "name": "NFT_TO_INFO",
      "outputs": [
        {
          "internalType": "uint256",
          "name": "type_id",
          "type": "uint256"
        },
        {
          "internalType": "uint256",
          "name": "startTime",
          "type": "uint256"
        },
        {
          "internalType": "uint256",
          "name": "amount",
          "type": "uint256"
        },
        {
          "internalType": "address",
          "name": "staker",
          "type": "address"
        }
      ],
      "stateMutability": "view",
      "type": "function"
    },
    {
      "inputs": [
        {
          "internalType": "uint256",
          "name": "period",
          "type": "uint256"
        },
        {
          "internalType": "uint256",
          "name": "amount",
          "type": "uint256"
        },
        {
          "internalType": "uint256",
          "name": "multiplier",
          "type": "uint256"
        }
      ],
      "name": "addStakeType",
      "outputs": [],
      "stateMutability": "nonpayable",
      "type": "function"
    },
    {
      "inputs": [
        {
          "internalType": "uint256[]",
          "name": "period",
          "type": "uint256[]"
        },
        {
          "internalType": "uint256[]",
          "name": "amount",
          "type": "uint256[]"
        },
        {
          "internalType": "uint256[]",
          "name": "multiplier",
          "type": "uint256[]"
        }
      ],
      "name": "addStakeTypeList",
      "outputs": [],
      "stateMutability": "nonpayable",
      "type": "function"
    },
    {
      "inputs": [],
      "name": "getStakeTypeList",
      "outputs": [
        {
          "components": [
            {
              "internalType": "uint256",
              "name": "id",
              "type": "uint256"
            },
            {
              "internalType": "uint256",
              "name": "period",
              "type": "uint256"
            },
            {
              "internalType": "uint256",
              "name": "amount",
              "type": "uint256"
            },
            {
              "internalType": "uint256",
              "name": "multiplier",
              "type": "uint256"
            }
          ],
          "internalType": "struct STAKE_TYPE[]",
          "name": "",
          "type": "tuple[]"
        }
      ],
      "stateMutability": "view",
      "type": "function"
    },
    {
      "inputs": [
        {
          "internalType": "uint256",
          "name": "nftID",
          "type": "uint256"
        }
      ],
      "name": "isStakingExist",
      "outputs": [
        {
          "internalType": "bool",
          "name": "",
          "type": "bool"
        }
      ],
      "stateMutability": "view",
      "type": "function"
    },
    {
      "inputs": [],
      "name": "nft_address",
      "outputs": [
        {
          "internalType": "address",
          "name": "",
          "type": "address"
        }
      ],
      "stateMutability": "view",
      "type": "function"
    },
    {
      "inputs": [],
      "name": "owner",
      "outputs": [
        {
          "internalType": "address",
          "name": "",
          "type": "address"
        }
      ],
      "stateMutability": "view",
      "type": "function"
    },
    {
      "inputs": [],
      "name": "renounceOwnership",
      "outputs": [],
      "stateMutability": "nonpayable",
      "type": "function"
    },
    {
      "inputs": [
        {
          "internalType": "address",
          "name": "_nft_address",
          "type": "address"
        }
      ],
      "name": "setNFTAddress",
      "outputs": [],
      "stateMutability": "nonpayable",
      "type": "function"
    },
    {
      "inputs": [
        {
          "internalType": "address",
          "name": "_token_address",
          "type": "address"
        }
      ],
      "name": "setTokenAddress",
      "outputs": [],
      "stateMutability": "nonpayable",
      "type": "function"
    },
    {
      "inputs": [
        {
          "internalType": "uint256",
          "name": "nftID",
          "type": "uint256"
        },
        {
          "internalType": "uint256",
          "name": "stakeType",
          "type": "uint256"
        }
      ],
      "name": "stakeNFT",
      "outputs": [],
      "stateMutability": "nonpayable",
      "type": "function"
    },
    {
      "inputs": [
        {
          "internalType": "uint256",
          "name": "",
          "type": "uint256"
        }
      ],
      "name": "stakeTypeList",
      "outputs": [
        {
          "internalType": "uint256",
          "name": "id",
          "type": "uint256"
        },
        {
          "internalType": "uint256",
          "name": "period",
          "type": "uint256"
        },
        {
          "internalType": "uint256",
          "name": "amount",
          "type": "uint256"
        },
        {
          "internalType": "uint256",
          "name": "multiplier",
          "type": "uint256"
        }
      ],
      "stateMutability": "view",
      "type": "function"
    },
    {
      "inputs": [],
      "name": "token_address",
      "outputs": [
        {
          "internalType": "address",
          "name": "",
          "type": "address"
        }
      ],
      "stateMutability": "view",
      "type": "function"
    },
    {
      "inputs": [
        {
          "internalType": "address",
          "name": "newOwner",
          "type": "address"
        }
      ],
      "name": "transferOwnership",
      "outputs": [],
      "stateMutability": "nonpayable",
      "type": "function"
    },
    {
      "inputs": [
        {
          "internalType": "uint256",
          "name": "index",
          "type": "uint256"
        },
        {
          "internalType": "uint256",
          "name": "period",
          "type": "uint256"
        },
        {
          "internalType": "uint256",
          "name": "amount",
          "type": "uint256"
        },
        {
          "internalType": "uint256",
          "name": "multiplier",
          "type": "uint256"
        }
      ],
      "name": "updateStakeType",
      "outputs": [],
      "stateMutability": "nonpayable",
      "type": "function"
    },
    {
      "inputs": [
        {
          "internalType": "uint256",
          "name": "nftID",
          "type": "uint256"
        }
      ],
      "name": "withdrawStaker",
      "outputs": [],
      "stateMutability": "nonpayable",
      "type": "function"
    },
    {
      "inputs": [
        {
          "internalType": "uint256",
          "name": "nftID",
          "type": "uint256"
        }
      ],
      "name": "withdrawToken",
      "outputs": [],
      "stateMutability": "nonpayable",
      "type": "function"
    }
  ],
  "bytecode": "0x60806040523480156200001157600080fd5b5062000032620000266200003860201b60201c565b6200004060201b60201c565b62000104565b600033905090565b60008060009054906101000a900473ffffffffffffffffffffffffffffffffffffffff169050816000806101000a81548173ffffffffffffffffffffffffffffffffffffffff021916908373ffffffffffffffffffffffffffffffffffffffff1602179055508173ffffffffffffffffffffffffffffffffffffffff168173ffffffffffffffffffffffffffffffffffffffff167f8be0079c531659141344cd1fd0a4f28419497f9722a3daafe3b4186f6b6457e060405160405180910390a35050565b612de180620001146000396000f3fe608060405234801561001057600080fd5b506004361061010b5760003560e01c80638a44efcb116100a2578063aaa269c511610071578063aaa269c51461026b578063c78de70914610287578063cbf6e464146102a5578063ea9fb0c3146102d8578063f2fde38b146103085761010b565b80638a44efcb146101f55780638c8e8fee146102115780638da5cb5b1461022f5780639ee397c11461024d5761010b565b806351cecc80116100de57806351cecc801461019757806363dbdebf146101b357806369d03738146101cf578063715018a6146101eb5761010b565b8063047b7b411461011057806326a4e8d2146101435780634ec80a4c1461015f57806350baa6221461017b575b600080fd5b61012a60048036038101906101259190611f58565b610324565b60405161013a9493929190612736565b60405180910390f35b61015d60048036038101906101589190611e62565b610374565b005b61017960048036038101906101749190612035565b610430565b005b61019560048036038101906101909190611f58565b6105ba565b005b6101b160048036038101906101ac9190611faa565b6108c9565b005b6101cd60048036038101906101c89190611e8b565b61131a565b005b6101e960048036038101906101e49190611e62565b61146d565b005b6101f3611529565b005b61020f600480360381019061020a9190611f58565b61153d565b005b61021961163e565b6040516102269190612415565b60405180910390f35b610237611664565b6040516102449190612415565b60405180910390f35b61025561168d565b60405161026291906124b9565b60405180910390f35b61028560048036038101906102809190611fe6565b611714565b005b61028f6117f2565b60405161029c9190612415565b60405180910390f35b6102bf60048036038101906102ba9190611f58565b611818565b6040516102cf949392919061277b565b60405180910390f35b6102f260048036038101906102ed9190611f58565b611858565b6040516102ff91906124db565b60405180910390f35b610322600480360381019061031d9190611e62565b6119e3565b005b60046020528060005260406000206000915090508060000154908060010154908060020154908060030160009054906101000a900473ffffffffffffffffffffffffffffffffffffffff16905084565b61037c611a67565b600073ffffffffffffffffffffffffffffffffffffffff168173ffffffffffffffffffffffffffffffffffffffff1614156103ec576040517f08c379a00000000000000000000000000000000000000000000000000000000081526004016103e3906124f6565b60405180910390fd5b80600160006101000a81548173ffffffffffffffffffffffffffffffffffffffff021916908373ffffffffffffffffffffffffffffffffffffffff16021790555050565b610438611a67565b600380549050841061047f576040517f08c379a000000000000000000000000000000000000000000000000000000000815260040161047690612556565b60405180910390fd5b6127108110156104c4576040517f08c379a00000000000000000000000000000000000000000000000000000000081526004016104bb906126f6565b60405180910390fd5b82600385815481106104ff577f4e487b7100000000000000000000000000000000000000000000000000000000600052603260045260246000fd5b906000526020600020906004020160010181905550816003858154811061054f577f4e487b7100000000000000000000000000000000000000000000000000000000600052603260045260246000fd5b906000526020600020906004020160020181905550806003858154811061059f577f4e487b7100000000000000000000000000000000000000000000000000000000600052603260045260246000fd5b90600052602060002090600402016003018190555050505050565b600115156105c782611858565b151514610609576040517f08c379a000000000000000000000000000000000000000000000000000000000815260040161060090612656565b60405180910390fd5b600073ffffffffffffffffffffffffffffffffffffffff166004600083815260200190815260200160002060030160009054906101000a900473ffffffffffffffffffffffffffffffffffffffff1673ffffffffffffffffffffffffffffffffffffffff1614156106af576040517f08c379a00000000000000000000000000000000000000000000000000000000081526004016106a6906126b6565b60405180910390fd5b60006004600083815260200190815260200160002060000154905060038181548110610704577f4e487b7100000000000000000000000000000000000000000000000000000000600052603260045260246000fd5b90600052602060002090600402016002015460046000848152602001908152602001600020600201541161076d576040517f08c379a000000000000000000000000000000000000000000000000000000000815260040161076490612596565b60405180910390fd5b6000600382815481106107a9577f4e487b7100000000000000000000000000000000000000000000000000000000600052603260045260246000fd5b90600052602060002090600402016002015460046000858152602001908152602001600020600201546107dc9190612860565b9050600160009054906101000a900473ffffffffffffffffffffffffffffffffffffffff1673ffffffffffffffffffffffffffffffffffffffff1663a9059cbb6004600086815260200190815260200160002060030160009054906101000a900473ffffffffffffffffffffffffffffffffffffffff16836040518363ffffffff1660e01b8152600401610871929190612490565b602060405180830381600087803b15801561088b57600080fd5b505af115801561089f573d6000803e3d6000fd5b505050506040513d601f19601f820116820180604052508101906108c39190611f2f565b50505050565b81600260009054906101000a900473ffffffffffffffffffffffffffffffffffffffff1673ffffffffffffffffffffffffffffffffffffffff1663e327a6af33836040518363ffffffff1660e01b8152600401610927929190612490565b60206040518083038186803b15801561093f57600080fd5b505afa158015610953573d6000803e3d6000fd5b505050506040513d601f19601f820116820180604052508101906109779190611f2f565b6109b6576040517f08c379a00000000000000000000000000000000000000000000000000000000081526004016109ad906125f6565b60405180910390fd5b6109bf81611858565b1580610a2c57503373ffffffffffffffffffffffffffffffffffffffff166004600083815260200190815260200160002060030160009054906101000a900473ffffffffffffffffffffffffffffffffffffffff1673ffffffffffffffffffffffffffffffffffffffff16145b610a6b576040517f08c379a0000000000000000000000000000000000000000000000000000000008152600401610a6290612576565b60405180910390fd5b6003805490508210610ab2576040517f08c379a0000000000000000000000000000000000000000000000000000000008152600401610aa990612696565b60405180910390fd5b600060038381548110610aee577f4e487b7100000000000000000000000000000000000000000000000000000000600052603260045260246000fd5b9060005260206000209060040201600201549050600060038481548110610b3e577f4e487b7100000000000000000000000000000000000000000000000000000000600052603260045260246000fd5b9060005260206000209060040201600101549050610b5b85611858565b156110c25760006004600087815260200190815260200160002060030160009054906101000a900473ffffffffffffffffffffffffffffffffffffffff1690503373ffffffffffffffffffffffffffffffffffffffff168173ffffffffffffffffffffffffffffffffffffffff1614610c09576040517f08c379a0000000000000000000000000000000000000000000000000000000008152600401610c0090612616565b60405180910390fd5b600060046000888152602001908152602001600020600001549050600060038281548110610c60577f4e487b7100000000000000000000000000000000000000000000000000000000600052603260045260246000fd5b9060005260206000209060040201600201549050600060038381548110610cb0577f4e487b7100000000000000000000000000000000000000000000000000000000600052603260045260246000fd5b9060005260206000209060040201600101549050858211158015610cd45750848111155b610d13576040517f08c379a0000000000000000000000000000000000000000000000000000000008152600401610d0a906125d6565b60405180910390fd5b6000600460008b815260200190815260200160002060020154905080831115610d71576040517f08c379a0000000000000000000000000000000000000000000000000000000008152600401610d6890612676565b60405180910390fd5b6000818811610d81576000610d8e565b8188610d8d9190612860565b5b905080600160009054906101000a900473ffffffffffffffffffffffffffffffffffffffff1673ffffffffffffffffffffffffffffffffffffffff1663dd62ed3e33306040518363ffffffff1660e01b8152600401610dee929190612430565b60206040518083038186803b158015610e0657600080fd5b505afa158015610e1a573d6000803e3d6000fd5b505050506040513d601f19601f82011682018060405250810190610e3e9190611f81565b1015610e7f576040517f08c379a0000000000000000000000000000000000000000000000000000000008152600401610e76906125b6565b60405180910390fd5b6000811115610f3b57600160009054906101000a900473ffffffffffffffffffffffffffffffffffffffff1673ffffffffffffffffffffffffffffffffffffffff166323b872dd3330846040518463ffffffff1660e01b8152600401610ee793929190612459565b602060405180830381600087803b158015610f0157600080fd5b505af1158015610f15573d6000803e3d6000fd5b505050506040513d601f19601f82011682018060405250810190610f399190611f2f565b505b6000888383610f4a919061280a565b610f549190612860565b9050600081111561101057600160009054906101000a900473ffffffffffffffffffffffffffffffffffffffff1673ffffffffffffffffffffffffffffffffffffffff1663a9059cbb33836040518363ffffffff1660e01b8152600401610fbc929190612490565b602060405180830381600087803b158015610fd657600080fd5b505af1158015610fea573d6000803e3d6000fd5b505050506040513d601f19601f8201168201806040525081019061100e9190611f2f565b505b88600460008e8152602001908152602001600020600201819055508a600460008e81526020019081526020016000206000018190555033600460008e815260200190815260200160002060030160006101000a81548173ffffffffffffffffffffffffffffffffffffffff021916908373ffffffffffffffffffffffffffffffffffffffff16021790555042600460008e81526020019081526020016000206001018190555050505050505050611313565b6110cb85611ae5565b81600160009054906101000a900473ffffffffffffffffffffffffffffffffffffffff1673ffffffffffffffffffffffffffffffffffffffff1663dd62ed3e33306040518363ffffffff1660e01b8152600401611129929190612430565b60206040518083038186803b15801561114157600080fd5b505afa158015611155573d6000803e3d6000fd5b505050506040513d601f19601f820116820180604052508101906111799190611f81565b10156111ba576040517f08c379a00000000000000000000000000000000000000000000000000000000081526004016111b1906125b6565b60405180910390fd5b600160009054906101000a900473ffffffffffffffffffffffffffffffffffffffff1673ffffffffffffffffffffffffffffffffffffffff166323b872dd3330856040518463ffffffff1660e01b815260040161121993929190612459565b602060405180830381600087803b15801561123357600080fd5b505af1158015611247573d6000803e3d6000fd5b505050506040513d601f19601f8201168201806040525081019061126b9190611f2f565b50336004600087815260200190815260200160002060030160006101000a81548173ffffffffffffffffffffffffffffffffffffffff021916908373ffffffffffffffffffffffffffffffffffffffff1602179055508160046000878152602001908152602001600020600201819055508360046000878152602001908152602001600020600001819055504260046000878152602001908152602001600020600101819055505b5050505050565b611322611a67565b838390508686905014801561133c57508181905084849050145b61137b576040517f08c379a000000000000000000000000000000000000000000000000000000000815260040161137290612716565b60405180910390fd5b60005b86869050811015611464576114518787838181106113c5577f4e487b7100000000000000000000000000000000000000000000000000000000600052603260045260246000fd5b90506020020135868684818110611405577f4e487b7100000000000000000000000000000000000000000000000000000000600052603260045260246000fd5b90506020020135858585818110611445577f4e487b7100000000000000000000000000000000000000000000000000000000600052603260045260246000fd5b90506020020135611714565b808061145c906128dc565b91505061137e565b50505050505050565b611475611a67565b600073ffffffffffffffffffffffffffffffffffffffff168173ffffffffffffffffffffffffffffffffffffffff1614156114e5576040517f08c379a00000000000000000000000000000000000000000000000000000000081526004016114dc90612516565b60405180910390fd5b80600260006101000a81548173ffffffffffffffffffffffffffffffffffffffff021916908373ffffffffffffffffffffffffffffffffffffffff16021790555050565b611531611a67565b61153b6000611cd0565b565b6000151561154a82611858565b15151461158c576040517f08c379a0000000000000000000000000000000000000000000000000000000008152600401611583906126d6565b60405180910390fd5b600073ffffffffffffffffffffffffffffffffffffffff166004600083815260200190815260200160002060030160009054906101000a900473ffffffffffffffffffffffffffffffffffffffff1673ffffffffffffffffffffffffffffffffffffffff161415611632576040517f08c379a000000000000000000000000000000000000000000000000000000000815260040161162990612596565b60405180910390fd5b61163b81611ae5565b50565b600160009054906101000a900473ffffffffffffffffffffffffffffffffffffffff1681565b60008060009054906101000a900473ffffffffffffffffffffffffffffffffffffffff16905090565b60606003805480602002602001604051908101604052809291908181526020016000905b8282101561170b5783829060005260206000209060040201604051806080016040529081600082015481526020016001820154815260200160028201548152602001600382015481525050815260200190600101906116b1565b50505050905090565b61171c611a67565b612710811015611761576040517f08c379a0000000000000000000000000000000000000000000000000000000008152600401611758906126f6565b60405180910390fd5b611769611d9c565b600380549050816000018181525050838160200181815250508281604001818152505081816060018181525050600381908060018154018082558091505060019003906000526020600020906004020160009091909190915060008201518160000155602082015181600101556040820151816002015560608201518160030155505050505050565b600260009054906101000a900473ffffffffffffffffffffffffffffffffffffffff1681565b6003818154811061182857600080fd5b90600052602060002090600402016000915090508060000154908060010154908060020154908060030154905084565b60008073ffffffffffffffffffffffffffffffffffffffff166004600084815260200190815260200160002060030160009054906101000a900473ffffffffffffffffffffffffffffffffffffffff1673ffffffffffffffffffffffffffffffffffffffff1614156118cd57600090506119de565b60006004600084815260200190815260200160002060000154905060038181548110611922577f4e487b7100000000000000000000000000000000000000000000000000000000600052603260045260246000fd5b9060005260206000209060040201600201546004600085815260200190815260200160002060020154101561195b5760009150506119de565b60038181548110611995577f4e487b7100000000000000000000000000000000000000000000000000000000600052603260045260246000fd5b9060005260206000209060040201600101546004600085815260200190815260200160002060010154426119c99190612860565b106119d85760009150506119de565b60019150505b919050565b6119eb611a67565b600073ffffffffffffffffffffffffffffffffffffffff168173ffffffffffffffffffffffffffffffffffffffff161415611a5b576040517f08c379a0000000000000000000000000000000000000000000000000000000008152600401611a5290612536565b60405180910390fd5b611a6481611cd0565b50565b611a6f611d94565b73ffffffffffffffffffffffffffffffffffffffff16611a8d611664565b73ffffffffffffffffffffffffffffffffffffffff1614611ae3576040517f08c379a0000000000000000000000000000000000000000000000000000000008152600401611ada90612636565b60405180910390fd5b565b60006004600083815260200190815260200160002060030160009054906101000a900473ffffffffffffffffffffffffffffffffffffffff169050600073ffffffffffffffffffffffffffffffffffffffff168173ffffffffffffffffffffffffffffffffffffffff161415611b5b5750611ccd565b600160009054906101000a900473ffffffffffffffffffffffffffffffffffffffff1673ffffffffffffffffffffffffffffffffffffffff1663a9059cbb8260046000868152602001908152602001600020600201546040518363ffffffff1660e01b8152600401611bce929190612490565b602060405180830381600087803b158015611be857600080fd5b505af1158015611bfc573d6000803e3d6000fd5b505050506040513d601f19601f82011682018060405250810190611c209190611f2f565b50600060046000848152602001908152602001600020600001819055506000600460008481526020019081526020016000206001018190555060006004600084815260200190815260200160002060030160006101000a81548173ffffffffffffffffffffffffffffffffffffffff021916908373ffffffffffffffffffffffffffffffffffffffff16021790555060006004600084815260200190815260200160002060020181905550505b50565b60008060009054906101000a900473ffffffffffffffffffffffffffffffffffffffff169050816000806101000a81548173ffffffffffffffffffffffffffffffffffffffff021916908373ffffffffffffffffffffffffffffffffffffffff1602179055508173ffffffffffffffffffffffffffffffffffffffff168173ffffffffffffffffffffffffffffffffffffffff167f8be0079c531659141344cd1fd0a4f28419497f9722a3daafe3b4186f6b6457e060405160405180910390a35050565b600033905090565b6040518060800160405280600081526020016000815260200160008152602001600081525090565b600081359050611dd381612d66565b92915050565b60008083601f840112611deb57600080fd5b8235905067ffffffffffffffff811115611e0457600080fd5b602083019150836020820283011115611e1c57600080fd5b9250929050565b600081519050611e3281612d7d565b92915050565b600081359050611e4781612d94565b92915050565b600081519050611e5c81612d94565b92915050565b600060208284031215611e7457600080fd5b6000611e8284828501611dc4565b91505092915050565b60008060008060008060608789031215611ea457600080fd5b600087013567ffffffffffffffff811115611ebe57600080fd5b611eca89828a01611dd9565b9650965050602087013567ffffffffffffffff811115611ee957600080fd5b611ef589828a01611dd9565b9450945050604087013567ffffffffffffffff811115611f1457600080fd5b611f2089828a01611dd9565b92509250509295509295509295565b600060208284031215611f4157600080fd5b6000611f4f84828501611e23565b91505092915050565b600060208284031215611f6a57600080fd5b6000611f7884828501611e38565b91505092915050565b600060208284031215611f9357600080fd5b6000611fa184828501611e4d565b91505092915050565b60008060408385031215611fbd57600080fd5b6000611fcb85828601611e38565b9250506020611fdc85828601611e38565b9150509250929050565b600080600060608486031215611ffb57600080fd5b600061200986828701611e38565b935050602061201a86828701611e38565b925050604061202b86828701611e38565b9150509250925092565b6000806000806080858703121561204b57600080fd5b600061205987828801611e38565b945050602061206a87828801611e38565b935050604061207b87828801611e38565b925050606061208c87828801611e38565b91505092959194509250565b60006120a483836123a2565b60808301905092915050565b6120b981612894565b82525050565b60006120ca826127d0565b6120d481856127e8565b93506120df836127c0565b8060005b838110156121105781516120f78882612098565b9750612102836127db565b9250506001810190506120e3565b5085935050505092915050565b612126816128a6565b82525050565b60006121396015836127f9565b915061214482612954565b602082019050919050565b600061215c6013836127f9565b91506121678261297d565b602082019050919050565b600061217f6026836127f9565b915061218a826129a6565b604082019050919050565b60006121a2602e836127f9565b91506121ad826129f5565b604082019050919050565b60006121c56019836127f9565b91506121d082612a44565b602082019050919050565b60006121e86014836127f9565b91506121f382612a6d565b602082019050919050565b600061220b602c836127f9565b915061221682612a96565b604082019050919050565b600061222e6017836127f9565b915061223982612ae5565b602082019050919050565b6000612251601c836127f9565b915061225c82612b0e565b602082019050919050565b60006122746014836127f9565b915061227f82612b37565b602082019050919050565b60006122976020836127f9565b91506122a282612b60565b602082019050919050565b60006122ba602c836127f9565b91506122c582612b89565b604082019050919050565b60006122dd6037836127f9565b91506122e882612bd8565b604082019050919050565b60006123006032836127f9565b915061230b82612c27565b604082019050919050565b6000612323600e836127f9565b915061232e82612c76565b602082019050919050565b6000612346601f836127f9565b915061235182612c9f565b602082019050919050565b60006123696025836127f9565b915061237482612cc8565b604082019050919050565b600061238c6034836127f9565b915061239782612d17565b604082019050919050565b6080820160008201516123b860008501826123f7565b5060208201516123cb60208501826123f7565b5060408201516123de60408501826123f7565b5060608201516123f160608501826123f7565b50505050565b612400816128d2565b82525050565b61240f816128d2565b82525050565b600060208201905061242a60008301846120b0565b92915050565b600060408201905061244560008301856120b0565b61245260208301846120b0565b9392505050565b600060608201905061246e60008301866120b0565b61247b60208301856120b0565b6124886040830184612406565b949350505050565b60006040820190506124a560008301856120b0565b6124b26020830184612406565b9392505050565b600060208201905081810360008301526124d381846120bf565b905092915050565b60006020820190506124f0600083018461211d565b92915050565b6000602082019050818103600083015261250f8161212c565b9050919050565b6000602082019050818103600083015261252f8161214f565b9050919050565b6000602082019050818103600083015261254f81612172565b9050919050565b6000602082019050818103600083015261256f81612195565b9050919050565b6000602082019050818103600083015261258f816121b8565b9050919050565b600060208201905081810360008301526125af816121db565b9050919050565b600060208201905081810360008301526125cf816121fe565b9050919050565b600060208201905081810360008301526125ef81612221565b9050919050565b6000602082019050818103600083015261260f81612244565b9050919050565b6000602082019050818103600083015261262f81612267565b9050919050565b6000602082019050818103600083015261264f8161228a565b9050919050565b6000602082019050818103600083015261266f816122ad565b9050919050565b6000602082019050818103600083015261268f816122d0565b9050919050565b600060208201905081810360008301526126af816122f3565b9050919050565b600060208201905081810360008301526126cf81612316565b9050919050565b600060208201905081810360008301526126ef81612339565b9050919050565b6000602082019050818103600083015261270f8161235c565b9050919050565b6000602082019050818103600083015261272f8161237f565b9050919050565b600060808201905061274b6000830187612406565b6127586020830186612406565b6127656040830185612406565b61277260608301846120b0565b95945050505050565b60006080820190506127906000830187612406565b61279d6020830186612406565b6127aa6040830185612406565b6127b76060830184612406565b95945050505050565b6000819050602082019050919050565b600081519050919050565b6000602082019050919050565b600082825260208201905092915050565b600082825260208201905092915050565b6000612815826128d2565b9150612820836128d2565b9250827fffffffffffffffffffffffffffffffffffffffffffffffffffffffffffffffff0382111561285557612854612925565b5b828201905092915050565b600061286b826128d2565b9150612876836128d2565b92508282101561288957612888612925565b5b828203905092915050565b600061289f826128b2565b9050919050565b60008115159050919050565b600073ffffffffffffffffffffffffffffffffffffffff82169050919050565b6000819050919050565b60006128e7826128d2565b91507fffffffffffffffffffffffffffffffffffffffffffffffffffffffffffffffff82141561291a57612919612925565b5b600182019050919050565b7f4e487b7100000000000000000000000000000000000000000000000000000000600052601160045260246000fd5b7f696e76616c696420746f6b656e20616464726573730000000000000000000000600082015250565b7f696e76616c6964206e6674206164647265737300000000000000000000000000600082015250565b7f4f776e61626c653a206e6577206f776e657220697320746865207a65726f206160008201527f6464726573730000000000000000000000000000000000000000000000000000602082015250565b7f696e6465782073686f756c64206265206c657373207468616e207374616b655460008201527f7970654c6973742e6c656e677468000000000000000000000000000000000000602082015250565b7f5374616b657220697320616e6f7468657220706572736f6e2e00000000000000600082015250565b7f4e6f7468696e6720746f2077697468647261772e000000000000000000000000600082015250565b7f526571756972656420416d6f756e74206f6620546f6b656e732073686f756c6460008201527f20626520616c6c6f7765642e0000000000000000000000000000000000000000602082015250565b7f43616e206f6e6c792062652075706772616461626c652e000000000000000000600082015250565b7f596f752073686f756c6420626520746865204e4654204f776e65722e00000000600082015250565b7f5374616b657220616c7265616479206578697374000000000000000000000000600082015250565b7f4f776e61626c653a2063616c6c6572206973206e6f7420746865206f776e6572600082015250565b7f43616c6c2077697468647261775374616b657220696e73746561644f6620776960008201527f746864726177546f6b656e2e0000000000000000000000000000000000000000602082015250565b7f496e7465726e616c204572726f723a206f6c64416d6f756e742073686f756c6460008201527f206265206c657373207468616e20637572416d6f756e74000000000000000000602082015250565b7f7374616b65547970652073686f756c64206265206c657373207468616e20737460008201527f616b65547970654c6973742e6c656e6774680000000000000000000000000000602082015250565b7f6e6f207374616b65722068657265000000000000000000000000000000000000600082015250565b7f43616e6e6f74207769746864726177207374616b696e6720546f6b656e732e00600082015250565b7f4d756c7469706c6965722073686f756c6420626520677265617465722074686160008201527f6e20312e30000000000000000000000000000000000000000000000000000000602082015250565b7f706572696f64202620616d6f756e742026206d756c7469706c696572206c656e60008201527f6774682073686f756c6420626520657175616c2e000000000000000000000000602082015250565b612d6f81612894565b8114612d7a57600080fd5b50565b612d86816128a6565b8114612d9157600080fd5b50565b612d9d816128d2565b8114612da857600080fd5b5056fea2646970667358221220421f979477304e591249ab05e688e3e1fb5f202867685296c6ad0dbed922fb4f64736f6c63430008040033",
  "linkReferences": {},
  "deployedLinkReferences": {}
}