{
  "_format": "hh-sol-artifact-1",
  "contractName": "ElumStaking",
  "sourceName": "contracts/ElumStaking.sol",
  "abi": [
    {
      "anonymous": false,
      "inputs": [
        {
          "indexed": true,
          "internalType": "address",
          "name": "previousOwner",
          "type": "address"
        },
        {
          "indexed": true,
          "internalType": "address",
          "name": "newOwner",
          "type": "address"
        }
      ],
      "name": "OwnershipTransferred",
      "type": "event"
    },
    {
      "inputs": [
        {
          "internalType": "address",
          "name": "",
          "type": "address"
        }
      ],
      "name": "ADDRESS_TO_INFO",
      "outputs": [
        {
          "internalType": "uint256",
          "name": "type_id",
          "type": "uint256"
        },
        {
          "internalType": "uint256",
          "name": "startTime",
          "type": "uint256"
        },
        {
          "internalType": "uint256",
          "name": "expireTime",
          "type": "uint256"
        },
        {
          "internalType": "uint256",
          "name": "amount",
          "type": "uint256"
        }
      ],
      "stateMutability": "view",
      "type": "function"
    },
    {
      "inputs": [
        {
          "internalType": "uint256",
          "name": "period",
          "type": "uint256"
        },
        {
          "internalType": "string",
          "name": "label",
          "type": "string"
        }
      ],
      "name": "addStakeType",
      "outputs": [],
      "stateMutability": "nonpayable",
      "type": "function"
    },
    {
      "inputs": [
        {
          "internalType": "uint256[]",
          "name": "period",
          "type": "uint256[]"
        },
        {
          "internalType": "string[]",
          "name": "label",
          "type": "string[]"
        }
      ],
      "name": "addStakeTypeList",
      "outputs": [],
      "stateMutability": "nonpayable",
      "type": "function"
    },
    {
      "inputs": [],
      "name": "getStakeTypeList",
      "outputs": [
        {
          "components": [
            {
              "internalType": "uint256",
              "name": "id",
              "type": "uint256"
            },
            {
              "internalType": "uint256",
              "name": "period",
              "type": "uint256"
            },
            {
              "internalType": "string",
              "name": "label",
              "type": "string"
            }
          ],
          "internalType": "struct STAKE_TYPE[]",
          "name": "",
          "type": "tuple[]"
        }
      ],
      "stateMutability": "view",
      "type": "function"
    },
    {
      "inputs": [],
      "name": "owner",
      "outputs": [
        {
          "internalType": "address",
          "name": "",
          "type": "address"
        }
      ],
      "stateMutability": "view",
      "type": "function"
    },
    {
      "inputs": [],
      "name": "renounceOwnership",
      "outputs": [],
      "stateMutability": "nonpayable",
      "type": "function"
    },
    {
      "inputs": [
        {
          "internalType": "address",
          "name": "_token_address",
          "type": "address"
        }
      ],
      "name": "setTokenAddress",
      "outputs": [],
      "stateMutability": "nonpayable",
      "type": "function"
    },
    {
      "inputs": [
        {
          "internalType": "uint256",
          "name": "stakeType",
          "type": "uint256"
        },
        {
          "internalType": "uint256",
          "name": "amount",
          "type": "uint256"
        }
      ],
      "name": "stake",
      "outputs": [],
      "stateMutability": "nonpayable",
      "type": "function"
    },
    {
      "inputs": [
        {
          "internalType": "uint256",
          "name": "",
          "type": "uint256"
        }
      ],
      "name": "stakeTypeList",
      "outputs": [
        {
          "internalType": "uint256",
          "name": "id",
          "type": "uint256"
        },
        {
          "internalType": "uint256",
          "name": "period",
          "type": "uint256"
        },
        {
          "internalType": "string",
          "name": "label",
          "type": "string"
        }
      ],
      "stateMutability": "view",
      "type": "function"
    },
    {
      "inputs": [],
      "name": "token_address",
      "outputs": [
        {
          "internalType": "address",
          "name": "",
          "type": "address"
        }
      ],
      "stateMutability": "view",
      "type": "function"
    },
    {
      "inputs": [
        {
          "internalType": "address",
          "name": "newOwner",
          "type": "address"
        }
      ],
      "name": "transferOwnership",
      "outputs": [],
      "stateMutability": "nonpayable",
      "type": "function"
    },
    {
      "inputs": [
        {
          "internalType": "uint256",
          "name": "index",
          "type": "uint256"
        },
        {
          "internalType": "uint256",
          "name": "period",
          "type": "uint256"
        },
        {
          "internalType": "string",
          "name": "label",
          "type": "string"
        }
      ],
      "name": "updateStakeType",
      "outputs": [],
      "stateMutability": "nonpayable",
      "type": "function"
    },
    {
      "inputs": [
        {
          "internalType": "address",
          "name": "_address",
          "type": "address"
        }
      ],
      "name": "withdrawStaker",
      "outputs": [],
      "stateMutability": "nonpayable",
      "type": "function"
    }
  ],
  "bytecode": "0x608060405234801561001057600080fd5b5061002d61002261003260201b60201c565b61003a60201b60201c565b6100fe565b600033905090565b60008060009054906101000a900473ffffffffffffffffffffffffffffffffffffffff169050816000806101000a81548173ffffffffffffffffffffffffffffffffffffffff021916908373ffffffffffffffffffffffffffffffffffffffff1602179055508173ffffffffffffffffffffffffffffffffffffffff168173ffffffffffffffffffffffffffffffffffffffff167f8be0079c531659141344cd1fd0a4f28419497f9722a3daafe3b4186f6b6457e060405160405180910390a35050565b6120ab806200010e6000396000f3fe608060405234801561001057600080fd5b50600436106100cf5760003560e01c80637e9ad9341161008c5780639ee397c1116100665780639ee397c1146101d9578063cbf6e464146101f7578063efee95da14610229578063f2fde38b14610245576100cf565b80637e9ad934146101815780638c8e8fee1461019d5780638da5cb5b146101bb576100cf565b80630fb041d1146100d457806326a4e8d2146100f057806359882f811461010c578063715018a61461013f578063771d1000146101495780637b0472f014610165575b600080fd5b6100ee60048036038101906100e9919061144a565b610261565b005b61010a60048036038101906101059190611336565b6102f7565b005b61012660048036038101906101219190611336565b6103b3565b6040516101369493929190611a5b565b60405180910390f35b6101476103e3565b005b610163600480360381019061015e919061135f565b6103f7565b005b61017f600480360381019061017a919061149e565b6104f5565b005b61019b600480360381019061019691906114da565b61098d565b005b6101a5610a91565b6040516101b29190611817565b60405180910390f35b6101c3610ab7565b6040516101d09190611817565b60405180910390f35b6101e1610ae0565b6040516101ee91906118bb565b60405180910390f35b610211600480360381019061020c91906113f8565b610be5565b60405161022093929190611a1d565b60405180910390f35b610243600480360381019061023e9190611336565b610ca7565b005b61025f600480360381019061025a9190611336565b610eee565b005b610269610f72565b6102716110bc565b600280549050816000018181525050828160200181815250508181604001819052506002819080600181540180825580915050600190039060005260206000209060030201600090919091909150600082015181600001556020820151816001015560408201518160020190805190602001906102ef9291906110dd565b505050505050565b6102ff610f72565b600073ffffffffffffffffffffffffffffffffffffffff168173ffffffffffffffffffffffffffffffffffffffff16141561036f576040517f08c379a0000000000000000000000000000000000000000000000000000000008152600401610366906118dd565b60405180910390fd5b80600160006101000a81548173ffffffffffffffffffffffffffffffffffffffff021916908373ffffffffffffffffffffffffffffffffffffffff16021790555050565b60036020528060005260406000206000915090508060000154908060010154908060020154908060030154905084565b6103eb610f72565b6103f56000610ff0565b565b6103ff610f72565b80518383905014610445576040517f08c379a000000000000000000000000000000000000000000000000000000000815260040161043c9061195d565b60405180910390fd5b60005b838390508110156104ef576104dc84848381811061048f577f4e487b7100000000000000000000000000000000000000000000000000000000600052603260045260246000fd5b905060200201358383815181106104cf577f4e487b7100000000000000000000000000000000000000000000000000000000600052603260045260246000fd5b6020026020010151610261565b80806104e790611ccb565b915050610448565b50505050565b600280549050821061053c576040517f08c379a00000000000000000000000000000000000000000000000000000000081526004016105339061199d565b60405180910390fd5b80600160009054906101000a900473ffffffffffffffffffffffffffffffffffffffff1673ffffffffffffffffffffffffffffffffffffffff1663dd62ed3e33306040518363ffffffff1660e01b815260040161059a929190611832565b60206040518083038186803b1580156105b257600080fd5b505afa1580156105c6573d6000803e3d6000fd5b505050506040513d601f19601f820116820180604052508101906105ea9190611421565b101561062b576040517f08c379a0000000000000000000000000000000000000000000000000000000008152600401610622906119fd565b60405180910390fd5b600060028381548110610667577f4e487b7100000000000000000000000000000000000000000000000000000000600052603260045260246000fd5b90600052602060002090600302016001015490506000600360003373ffffffffffffffffffffffffffffffffffffffff1673ffffffffffffffffffffffffffffffffffffffff16815260200190815260200160002060030154111561079d5760006002600360003373ffffffffffffffffffffffffffffffffffffffff1673ffffffffffffffffffffffffffffffffffffffff1681526020019081526020016000206000015481548110610744577f4e487b7100000000000000000000000000000000000000000000000000000000600052603260045260246000fd5b90600052602060002090600302016001015490508181111561079b576040517f08c379a00000000000000000000000000000000000000000000000000000000081526004016107929061193d565b60405180910390fd5b505b600160009054906101000a900473ffffffffffffffffffffffffffffffffffffffff1673ffffffffffffffffffffffffffffffffffffffff166323b872dd3330856040518463ffffffff1660e01b81526004016107fc9392919061185b565b602060405180830381600087803b15801561081657600080fd5b505af115801561082a573d6000803e3d6000fd5b505050506040513d601f19601f8201168201806040525081019061084e91906113cf565b5082600360003373ffffffffffffffffffffffffffffffffffffffff1673ffffffffffffffffffffffffffffffffffffffff1681526020019081526020016000206000018190555042600360003373ffffffffffffffffffffffffffffffffffffffff1673ffffffffffffffffffffffffffffffffffffffff1681526020019081526020016000206001018190555080426108e99190611b88565b600360003373ffffffffffffffffffffffffffffffffffffffff1673ffffffffffffffffffffffffffffffffffffffff1681526020019081526020016000206002018190555081600360003373ffffffffffffffffffffffffffffffffffffffff1673ffffffffffffffffffffffffffffffffffffffff16815260200190815260200160002060030160008282546109819190611b88565b92505081905550505050565b610995610f72565b60028054905083106109dc576040517f08c379a00000000000000000000000000000000000000000000000000000000081526004016109d39061191d565b60405180910390fd5b8160028481548110610a17577f4e487b7100000000000000000000000000000000000000000000000000000000600052603260045260246000fd5b9060005260206000209060030201600101819055508060028481548110610a67577f4e487b7100000000000000000000000000000000000000000000000000000000600052603260045260246000fd5b90600052602060002090600302016002019080519060200190610a8b9291906110dd565b50505050565b600160009054906101000a900473ffffffffffffffffffffffffffffffffffffffff1681565b60008060009054906101000a900473ffffffffffffffffffffffffffffffffffffffff16905090565b60606002805480602002602001604051908101604052809291908181526020016000905b82821015610bdc57838290600052602060002090600302016040518060600160405290816000820154815260200160018201548152602001600282018054610b4b90611c68565b80601f0160208091040260200160405190810160405280929190818152602001828054610b7790611c68565b8015610bc45780601f10610b9957610100808354040283529160200191610bc4565b820191906000526020600020905b815481529060010190602001808311610ba757829003601f168201915b50505050508152505081526020019060010190610b04565b50505050905090565b60028181548110610bf557600080fd5b9060005260206000209060030201600091509050806000015490806001015490806002018054610c2490611c68565b80601f0160208091040260200160405190810160405280929190818152602001828054610c5090611c68565b8015610c9d5780601f10610c7257610100808354040283529160200191610c9d565b820191906000526020600020905b815481529060010190602001808311610c8057829003601f168201915b5050505050905083565b6000600360008373ffffffffffffffffffffffffffffffffffffffff1673ffffffffffffffffffffffffffffffffffffffff1681526020019081526020016000206003015411610d2c576040517f08c379a0000000000000000000000000000000000000000000000000000000008152600401610d23906119bd565b60405180910390fd5b42600360008373ffffffffffffffffffffffffffffffffffffffff1673ffffffffffffffffffffffffffffffffffffffff168152602001908152602001600020600201541115610db1576040517f08c379a0000000000000000000000000000000000000000000000000000000008152600401610da8906119dd565b60405180910390fd5b600160009054906101000a900473ffffffffffffffffffffffffffffffffffffffff1673ffffffffffffffffffffffffffffffffffffffff1663a9059cbb82600360008573ffffffffffffffffffffffffffffffffffffffff1673ffffffffffffffffffffffffffffffffffffffff168152602001908152602001600020600301546040518363ffffffff1660e01b8152600401610e50929190611892565b602060405180830381600087803b158015610e6a57600080fd5b505af1158015610e7e573d6000803e3d6000fd5b505050506040513d601f19601f82011682018060405250810190610ea291906113cf565b506000600360008373ffffffffffffffffffffffffffffffffffffffff1673ffffffffffffffffffffffffffffffffffffffff1681526020019081526020016000206003018190555050565b610ef6610f72565b600073ffffffffffffffffffffffffffffffffffffffff168173ffffffffffffffffffffffffffffffffffffffff161415610f66576040517f08c379a0000000000000000000000000000000000000000000000000000000008152600401610f5d906118fd565b60405180910390fd5b610f6f81610ff0565b50565b610f7a6110b4565b73ffffffffffffffffffffffffffffffffffffffff16610f98610ab7565b73ffffffffffffffffffffffffffffffffffffffff1614610fee576040517f08c379a0000000000000000000000000000000000000000000000000000000008152600401610fe59061197d565b60405180910390fd5b565b60008060009054906101000a900473ffffffffffffffffffffffffffffffffffffffff169050816000806101000a81548173ffffffffffffffffffffffffffffffffffffffff021916908373ffffffffffffffffffffffffffffffffffffffff1602179055508173ffffffffffffffffffffffffffffffffffffffff168173ffffffffffffffffffffffffffffffffffffffff167f8be0079c531659141344cd1fd0a4f28419497f9722a3daafe3b4186f6b6457e060405160405180910390a35050565b600033905090565b60405180606001604052806000815260200160008152602001606081525090565b8280546110e990611c68565b90600052602060002090601f01602090048101928261110b5760008555611152565b82601f1061112457805160ff1916838001178555611152565b82800160010185558215611152579182015b82811115611151578251825591602001919060010190611136565b5b50905061115f9190611163565b5090565b5b8082111561117c576000816000905550600101611164565b5090565b600061119361118e84611ac5565b611aa0565b905080838252602082019050828560208602820111156111b257600080fd5b60005b858110156111fc57813567ffffffffffffffff8111156111d457600080fd5b8086016111e189826112e2565b855260208501945060208401935050506001810190506111b5565b5050509392505050565b600061121961121484611af1565b611aa0565b90508281526020810184848401111561123157600080fd5b61123c848285611c26565b509392505050565b60008135905061125381612030565b92915050565b600082601f83011261126a57600080fd5b813561127a848260208601611180565b91505092915050565b60008083601f84011261129557600080fd5b8235905067ffffffffffffffff8111156112ae57600080fd5b6020830191508360208202830111156112c657600080fd5b9250929050565b6000815190506112dc81612047565b92915050565b600082601f8301126112f357600080fd5b8135611303848260208601611206565b91505092915050565b60008135905061131b8161205e565b92915050565b6000815190506113308161205e565b92915050565b60006020828403121561134857600080fd5b600061135684828501611244565b91505092915050565b60008060006040848603121561137457600080fd5b600084013567ffffffffffffffff81111561138e57600080fd5b61139a86828701611283565b9350935050602084013567ffffffffffffffff8111156113b957600080fd5b6113c586828701611259565b9150509250925092565b6000602082840312156113e157600080fd5b60006113ef848285016112cd565b91505092915050565b60006020828403121561140a57600080fd5b60006114188482850161130c565b91505092915050565b60006020828403121561143357600080fd5b600061144184828501611321565b91505092915050565b6000806040838503121561145d57600080fd5b600061146b8582860161130c565b925050602083013567ffffffffffffffff81111561148857600080fd5b611494858286016112e2565b9150509250929050565b600080604083850312156114b157600080fd5b60006114bf8582860161130c565b92505060206114d08582860161130c565b9150509250929050565b6000806000606084860312156114ef57600080fd5b60006114fd8682870161130c565b935050602061150e8682870161130c565b925050604084013567ffffffffffffffff81111561152b57600080fd5b611537868287016112e2565b9150509250925092565b600061154d83836117a9565b905092915050565b61155e81611bde565b82525050565b600061156f82611b32565b6115798185611b55565b93508360208202850161158b85611b22565b8060005b858110156115c757848403895281516115a88582611541565b94506115b383611b48565b925060208a0199505060018101905061158f565b50829750879550505050505092915050565b60006115e482611b3d565b6115ee8185611b66565b93506115fe818560208601611c35565b61160781611da1565b840191505092915050565b600061161d82611b3d565b6116278185611b77565b9350611637818560208601611c35565b61164081611da1565b840191505092915050565b6000611658601583611b77565b915061166382611db2565b602082019050919050565b600061167b602683611b77565b915061168682611ddb565b604082019050919050565b600061169e602e83611b77565b91506116a982611e2a565b604082019050919050565b60006116c1601c83611b77565b91506116cc82611e79565b602082019050919050565b60006116e4602583611b77565b91506116ef82611ea2565b604082019050919050565b6000611707602083611b77565b915061171282611ef1565b602082019050919050565b600061172a603283611b77565b915061173582611f1a565b604082019050919050565b600061174d602983611b77565b915061175882611f69565b604082019050919050565b6000611770601e83611b77565b915061177b82611fb8565b602082019050919050565b6000611793602383611b77565b915061179e82611fe1565b604082019050919050565b60006060830160008301516117c160008601826117f9565b5060208301516117d460208601826117f9565b50604083015184820360408601526117ec82826115d9565b9150508091505092915050565b61180281611c1c565b82525050565b61181181611c1c565b82525050565b600060208201905061182c6000830184611555565b92915050565b60006040820190506118476000830185611555565b6118546020830184611555565b9392505050565b60006060820190506118706000830186611555565b61187d6020830185611555565b61188a6040830184611808565b949350505050565b60006040820190506118a76000830185611555565b6118b46020830184611808565b9392505050565b600060208201905081810360008301526118d58184611564565b905092915050565b600060208201905081810360008301526118f68161164b565b9050919050565b600060208201905081810360008301526119168161166e565b9050919050565b6000602082019050818103600083015261193681611691565b9050919050565b60006020820190508181036000830152611956816116b4565b9050919050565b60006020820190508181036000830152611976816116d7565b9050919050565b60006020820190508181036000830152611996816116fa565b9050919050565b600060208201905081810360008301526119b68161171d565b9050919050565b600060208201905081810360008301526119d681611740565b9050919050565b600060208201905081810360008301526119f681611763565b9050919050565b60006020820190508181036000830152611a1681611786565b9050919050565b6000606082019050611a326000830186611808565b611a3f6020830185611808565b8181036040830152611a518184611612565b9050949350505050565b6000608082019050611a706000830187611808565b611a7d6020830186611808565b611a8a6040830185611808565b611a976060830184611808565b95945050505050565b6000611aaa611abb565b9050611ab68282611c9a565b919050565b6000604051905090565b600067ffffffffffffffff821115611ae057611adf611d72565b5b602082029050602081019050919050565b600067ffffffffffffffff821115611b0c57611b0b611d72565b5b611b1582611da1565b9050602081019050919050565b6000819050602082019050919050565b600081519050919050565b600081519050919050565b6000602082019050919050565b600082825260208201905092915050565b600082825260208201905092915050565b600082825260208201905092915050565b6000611b9382611c1c565b9150611b9e83611c1c565b9250827fffffffffffffffffffffffffffffffffffffffffffffffffffffffffffffffff03821115611bd357611bd2611d14565b5b828201905092915050565b6000611be982611bfc565b9050919050565b60008115159050919050565b600073ffffffffffffffffffffffffffffffffffffffff82169050919050565b6000819050919050565b82818337600083830152505050565b60005b83811015611c53578082015181840152602081019050611c38565b83811115611c62576000848401525b50505050565b60006002820490506001821680611c8057607f821691505b60208210811415611c9457611c93611d43565b5b50919050565b611ca382611da1565b810181811067ffffffffffffffff82111715611cc257611cc1611d72565b5b80604052505050565b6000611cd682611c1c565b91507fffffffffffffffffffffffffffffffffffffffffffffffffffffffffffffffff821415611d0957611d08611d14565b5b600182019050919050565b7f4e487b7100000000000000000000000000000000000000000000000000000000600052601160045260246000fd5b7f4e487b7100000000000000000000000000000000000000000000000000000000600052602260045260246000fd5b7f4e487b7100000000000000000000000000000000000000000000000000000000600052604160045260246000fd5b6000601f19601f8301169050919050565b7f696e76616c696420746f6b656e20616464726573730000000000000000000000600082015250565b7f4f776e61626c653a206e6577206f776e657220697320746865207a65726f206160008201527f6464726573730000000000000000000000000000000000000000000000000000602082015250565b7f696e6465782073686f756c64206265206c657373207468616e207374616b655460008201527f7970654c6973742e6c656e677468000000000000000000000000000000000000602082015250565b7f506572696f642063616e206f6e6c7920626520657874656e6465642e00000000600082015250565b7f74776f206172726179206c656e677468732073686f756c64206265207468652060008201527f73616d652e000000000000000000000000000000000000000000000000000000602082015250565b7f4f776e61626c653a2063616c6c6572206973206e6f7420746865206f776e6572600082015250565b7f5374616b65547970652073686f756c64206265206c657373207468616e20737460008201527f616b65547970654c6973742e6c656e6774680000000000000000000000000000602082015250565b7f5374616b696e6720416d6f756e742073686f756c6420626520706f736974697660008201527f65206e756d6265722e0000000000000000000000000000000000000000000000602082015250565b7f5374616b696e6720506572696f64206861736e277420657870697265642e0000600082015250565b7f416d6f756e74206f6620546f6b656e732073686f756c6420626520616c6c6f7760008201527f65642e0000000000000000000000000000000000000000000000000000000000602082015250565b61203981611bde565b811461204457600080fd5b50565b61205081611bf0565b811461205b57600080fd5b50565b61206781611c1c565b811461207257600080fd5b5056fea2646970667358221220343e02b519cb1f81fa5649c15a0c8762dc42fc7dfe7048687982a149d65383e764736f6c63430008040033",
  "linkReferences": {},
  "deployedLinkReferences": {}
}