{
  "_format": "hh-sol-artifact-1",
  "contractName": "ElumStaking",
  "sourceName": "contracts/ElumStaking.sol",
  "abi": [
    {
      "anonymous": false,
      "inputs": [
        {
          "indexed": true,
          "internalType": "address",
          "name": "previousOwner",
          "type": "address"
        },
        {
          "indexed": true,
          "internalType": "address",
          "name": "newOwner",
          "type": "address"
        }
      ],
      "name": "OwnershipTransferred",
      "type": "event"
    },
    {
      "inputs": [
        {
          "internalType": "uint256",
          "name": "",
          "type": "uint256"
        }
      ],
      "name": "NFT_TO_INFO",
      "outputs": [
        {
          "internalType": "uint256",
          "name": "type_id",
          "type": "uint256"
        },
        {
          "internalType": "uint256",
          "name": "startTime",
          "type": "uint256"
        },
        {
          "internalType": "uint256",
          "name": "amount",
          "type": "uint256"
        },
        {
          "internalType": "address",
          "name": "staker",
          "type": "address"
        }
      ],
      "stateMutability": "view",
      "type": "function"
    },
    {
      "inputs": [
        {
          "internalType": "address",
          "name": "",
          "type": "address"
        }
      ],
      "name": "STAKED_TOKENS",
      "outputs": [
        {
          "internalType": "uint256",
          "name": "",
          "type": "uint256"
        }
      ],
      "stateMutability": "view",
      "type": "function"
    },
    {
      "inputs": [
        {
          "internalType": "uint256",
          "name": "period",
          "type": "uint256"
        },
        {
          "internalType": "uint256",
          "name": "amount",
          "type": "uint256"
        },
        {
          "internalType": "uint256",
          "name": "multiplier",
          "type": "uint256"
        }
      ],
      "name": "addStakeType",
      "outputs": [],
      "stateMutability": "nonpayable",
      "type": "function"
    },
    {
      "inputs": [
        {
          "internalType": "uint256[]",
          "name": "period",
          "type": "uint256[]"
        },
        {
          "internalType": "uint256[]",
          "name": "amount",
          "type": "uint256[]"
        },
        {
          "internalType": "uint256[]",
          "name": "multiplier",
          "type": "uint256[]"
        }
      ],
      "name": "addStakeTypeList",
      "outputs": [],
      "stateMutability": "nonpayable",
      "type": "function"
    },
    {
      "inputs": [],
      "name": "getStakeTypeList",
      "outputs": [
        {
          "components": [
            {
              "internalType": "uint256",
              "name": "id",
              "type": "uint256"
            },
            {
              "internalType": "uint256",
              "name": "period",
              "type": "uint256"
            },
            {
              "internalType": "uint256",
              "name": "amount",
              "type": "uint256"
            },
            {
              "internalType": "uint256",
              "name": "multiplier",
              "type": "uint256"
            }
          ],
          "internalType": "struct STAKE_TYPE[]",
          "name": "",
          "type": "tuple[]"
        }
      ],
      "stateMutability": "view",
      "type": "function"
    },
    {
      "inputs": [
        {
          "internalType": "uint256",
          "name": "nftID",
          "type": "uint256"
        }
      ],
      "name": "isStakingExist",
      "outputs": [
        {
          "internalType": "bool",
          "name": "",
          "type": "bool"
        }
      ],
      "stateMutability": "view",
      "type": "function"
    },
    {
      "inputs": [],
      "name": "nft_address",
      "outputs": [
        {
          "internalType": "address",
          "name": "",
          "type": "address"
        }
      ],
      "stateMutability": "view",
      "type": "function"
    },
    {
      "inputs": [],
      "name": "owner",
      "outputs": [
        {
          "internalType": "address",
          "name": "",
          "type": "address"
        }
      ],
      "stateMutability": "view",
      "type": "function"
    },
    {
      "inputs": [],
      "name": "renounceOwnership",
      "outputs": [],
      "stateMutability": "nonpayable",
      "type": "function"
    },
    {
      "inputs": [
        {
          "internalType": "address",
          "name": "_nft_address",
          "type": "address"
        }
      ],
      "name": "setNFTAddress",
      "outputs": [],
      "stateMutability": "nonpayable",
      "type": "function"
    },
    {
      "inputs": [
        {
          "internalType": "address",
          "name": "_token_address",
          "type": "address"
        }
      ],
      "name": "setTokenAddress",
      "outputs": [],
      "stateMutability": "nonpayable",
      "type": "function"
    },
    {
      "inputs": [
        {
          "internalType": "uint256",
          "name": "nftID",
          "type": "uint256"
        },
        {
          "internalType": "uint256",
          "name": "stakeType",
          "type": "uint256"
        }
      ],
      "name": "stakeNFT",
      "outputs": [],
      "stateMutability": "nonpayable",
      "type": "function"
    },
    {
      "inputs": [
        {
          "internalType": "uint256",
          "name": "",
          "type": "uint256"
        }
      ],
      "name": "stakeTypeList",
      "outputs": [
        {
          "internalType": "uint256",
          "name": "id",
          "type": "uint256"
        },
        {
          "internalType": "uint256",
          "name": "period",
          "type": "uint256"
        },
        {
          "internalType": "uint256",
          "name": "amount",
          "type": "uint256"
        },
        {
          "internalType": "uint256",
          "name": "multiplier",
          "type": "uint256"
        }
      ],
      "stateMutability": "view",
      "type": "function"
    },
    {
      "inputs": [],
      "name": "token_address",
      "outputs": [
        {
          "internalType": "address",
          "name": "",
          "type": "address"
        }
      ],
      "stateMutability": "view",
      "type": "function"
    },
    {
      "inputs": [
        {
          "internalType": "address",
          "name": "newOwner",
          "type": "address"
        }
      ],
      "name": "transferOwnership",
      "outputs": [],
      "stateMutability": "nonpayable",
      "type": "function"
    },
    {
      "inputs": [
        {
          "internalType": "uint256",
          "name": "index",
          "type": "uint256"
        },
        {
          "internalType": "uint256",
          "name": "period",
          "type": "uint256"
        },
        {
          "internalType": "uint256",
          "name": "amount",
          "type": "uint256"
        },
        {
          "internalType": "uint256",
          "name": "multiplier",
          "type": "uint256"
        }
      ],
      "name": "updateStakeType",
      "outputs": [],
      "stateMutability": "nonpayable",
      "type": "function"
    },
    {
      "inputs": [
        {
          "internalType": "uint256",
          "name": "nftID",
          "type": "uint256"
        }
      ],
      "name": "withdrawStaker",
      "outputs": [],
      "stateMutability": "nonpayable",
      "type": "function"
    }
  ],
  "bytecode": "0x60806040523480156200001157600080fd5b5062000032620000266200003860201b60201c565b6200004060201b60201c565b62000104565b600033905090565b60008060009054906101000a900473ffffffffffffffffffffffffffffffffffffffff169050816000806101000a81548173ffffffffffffffffffffffffffffffffffffffff021916908373ffffffffffffffffffffffffffffffffffffffff1602179055508173ffffffffffffffffffffffffffffffffffffffff168173ffffffffffffffffffffffffffffffffffffffff167f8be0079c531659141344cd1fd0a4f28419497f9722a3daafe3b4186f6b6457e060405160405180910390a35050565b612b8980620001146000396000f3fe608060405234801561001057600080fd5b506004361061010b5760003560e01c80638c8e8fee116100a2578063c78de70911610071578063c78de7091461026b578063cbf6e46414610289578063d7787780146102bc578063ea9fb0c3146102ec578063f2fde38b1461031c5761010b565b80638c8e8fee146101f55780638da5cb5b146102135780639ee397c114610231578063aaa269c51461024f5761010b565b806363dbdebf116100de57806363dbdebf1461019757806369d03738146101b3578063715018a6146101cf5780638a44efcb146101d95761010b565b8063047b7b411461011057806326a4e8d2146101435780634ec80a4c1461015f57806351cecc801461017b575b600080fd5b61012a60048036038101906101259190611de3565b610338565b60405161013a9493929190612556565b60405180910390f35b61015d60048036038101906101589190611ced565b610388565b005b61017960048036038101906101749190611ec0565b610444565b005b61019560048036038101906101909190611e35565b6105ce565b005b6101b160048036038101906101ac9190611d16565b611121565b005b6101cd60048036038101906101c89190611ced565b611274565b005b6101d7611330565b005b6101f360048036038101906101ee9190611de3565b611344565b005b6101fd611445565b60405161020a919061225a565b60405180910390f35b61021b61146b565b604051610228919061225a565b60405180910390f35b610239611494565b60405161024691906122fe565b60405180910390f35b61026960048036038101906102649190611e71565b61151b565b005b6102736115f9565b604051610280919061225a565b60405180910390f35b6102a3600480360381019061029e9190611de3565b61161f565b6040516102b3949392919061259b565b60405180910390f35b6102d660048036038101906102d19190611ced565b61165f565b6040516102e3919061253b565b60405180910390f35b61030660048036038101906103019190611de3565b611677565b6040516103139190612320565b60405180910390f35b61033660048036038101906103319190611ced565b611802565b005b60046020528060005260406000206000915090508060000154908060010154908060020154908060030160009054906101000a900473ffffffffffffffffffffffffffffffffffffffff16905084565b610390611886565b600073ffffffffffffffffffffffffffffffffffffffff168173ffffffffffffffffffffffffffffffffffffffff161415610400576040517f08c379a00000000000000000000000000000000000000000000000000000000081526004016103f79061233b565b60405180910390fd5b80600160006101000a81548173ffffffffffffffffffffffffffffffffffffffff021916908373ffffffffffffffffffffffffffffffffffffffff16021790555050565b61044c611886565b6003805490508410610493576040517f08c379a000000000000000000000000000000000000000000000000000000000815260040161048a9061239b565b60405180910390fd5b6127108110156104d8576040517f08c379a00000000000000000000000000000000000000000000000000000000081526004016104cf906124fb565b60405180910390fd5b8260038581548110610513577f4e487b7100000000000000000000000000000000000000000000000000000000600052603260045260246000fd5b9060005260206000209060040201600101819055508160038581548110610563577f4e487b7100000000000000000000000000000000000000000000000000000000600052603260045260246000fd5b90600052602060002090600402016002018190555080600385815481106105b3577f4e487b7100000000000000000000000000000000000000000000000000000000600052603260045260246000fd5b90600052602060002090600402016003018190555050505050565b81600260009054906101000a900473ffffffffffffffffffffffffffffffffffffffff1673ffffffffffffffffffffffffffffffffffffffff1663e327a6af33836040518363ffffffff1660e01b815260040161062c9291906122d5565b60206040518083038186803b15801561064457600080fd5b505afa158015610658573d6000803e3d6000fd5b505050506040513d601f19601f8201168201806040525081019061067c9190611dba565b6106bb576040517f08c379a00000000000000000000000000000000000000000000000000000000081526004016106b29061243b565b60405180910390fd5b6106c481611677565b158061073157503373ffffffffffffffffffffffffffffffffffffffff166004600083815260200190815260200160002060030160009054906101000a900473ffffffffffffffffffffffffffffffffffffffff1673ffffffffffffffffffffffffffffffffffffffff16145b610770576040517f08c379a0000000000000000000000000000000000000000000000000000000008152600401610767906123bb565b60405180910390fd5b60038054905082106107b7576040517f08c379a00000000000000000000000000000000000000000000000000000000081526004016107ae906124bb565b60405180910390fd5b6000600383815481106107f3577f4e487b7100000000000000000000000000000000000000000000000000000000600052603260045260246000fd5b9060005260206000209060040201600201549050600060038481548110610843577f4e487b7100000000000000000000000000000000000000000000000000000000600052603260045260246000fd5b906000526020600020906004020160010154905061086085611677565b15610e735760006004600087815260200190815260200160002060030160009054906101000a900473ffffffffffffffffffffffffffffffffffffffff1690503373ffffffffffffffffffffffffffffffffffffffff168173ffffffffffffffffffffffffffffffffffffffff161461090e576040517f08c379a00000000000000000000000000000000000000000000000000000000081526004016109059061245b565b60405180910390fd5b600060046000888152602001908152602001600020600001549050600060038281548110610965577f4e487b7100000000000000000000000000000000000000000000000000000000600052603260045260246000fd5b90600052602060002090600402016002015490506000600383815481106109b5577f4e487b7100000000000000000000000000000000000000000000000000000000600052603260045260246000fd5b90600052602060002090600402016001015490508582111580156109d95750848111155b610a18576040517f08c379a0000000000000000000000000000000000000000000000000000000008152600401610a0f9061241b565b60405180910390fd5b6000600460008b815260200190815260200160002060020154905080831115610a76576040517f08c379a0000000000000000000000000000000000000000000000000000000008152600401610a6d9061249b565b60405180910390fd5b6000818811610a86576000610a93565b8188610a929190612680565b5b905080600160009054906101000a900473ffffffffffffffffffffffffffffffffffffffff1673ffffffffffffffffffffffffffffffffffffffff1663dd62ed3e33306040518363ffffffff1660e01b8152600401610af3929190612275565b60206040518083038186803b158015610b0b57600080fd5b505afa158015610b1f573d6000803e3d6000fd5b505050506040513d601f19601f82011682018060405250810190610b439190611e0c565b1015610b84576040517f08c379a0000000000000000000000000000000000000000000000000000000008152600401610b7b906123fb565b60405180910390fd5b6000811115610c9657600160009054906101000a900473ffffffffffffffffffffffffffffffffffffffff1673ffffffffffffffffffffffffffffffffffffffff166323b872dd3330846040518463ffffffff1660e01b8152600401610bec9392919061229e565b602060405180830381600087803b158015610c0657600080fd5b505af1158015610c1a573d6000803e3d6000fd5b505050506040513d601f19601f82011682018060405250810190610c3e9190611dba565b5080600560003373ffffffffffffffffffffffffffffffffffffffff1673ffffffffffffffffffffffffffffffffffffffff1681526020019081526020016000206000828254610c8e919061262a565b925050819055505b6000888383610ca5919061262a565b610caf9190612680565b90506000811115610dc157600160009054906101000a900473ffffffffffffffffffffffffffffffffffffffff1673ffffffffffffffffffffffffffffffffffffffff1663a9059cbb33836040518363ffffffff1660e01b8152600401610d179291906122d5565b602060405180830381600087803b158015610d3157600080fd5b505af1158015610d45573d6000803e3d6000fd5b505050506040513d601f19601f82011682018060405250810190610d699190611dba565b5080600560003373ffffffffffffffffffffffffffffffffffffffff1673ffffffffffffffffffffffffffffffffffffffff1681526020019081526020016000206000828254610db99190612680565b925050819055505b88600460008e8152602001908152602001600020600201819055508a600460008e81526020019081526020016000206000018190555033600460008e815260200190815260200160002060030160006101000a81548173ffffffffffffffffffffffffffffffffffffffff021916908373ffffffffffffffffffffffffffffffffffffffff16021790555042600460008e8152602001908152602001600020600101819055505050505050505061111a565b610e7c85611904565b81600160009054906101000a900473ffffffffffffffffffffffffffffffffffffffff1673ffffffffffffffffffffffffffffffffffffffff1663dd62ed3e33306040518363ffffffff1660e01b8152600401610eda929190612275565b60206040518083038186803b158015610ef257600080fd5b505afa158015610f06573d6000803e3d6000fd5b505050506040513d601f19601f82011682018060405250810190610f2a9190611e0c565b1015610f6b576040517f08c379a0000000000000000000000000000000000000000000000000000000008152600401610f62906123fb565b60405180910390fd5b600160009054906101000a900473ffffffffffffffffffffffffffffffffffffffff1673ffffffffffffffffffffffffffffffffffffffff166323b872dd3330856040518463ffffffff1660e01b8152600401610fca9392919061229e565b602060405180830381600087803b158015610fe457600080fd5b505af1158015610ff8573d6000803e3d6000fd5b505050506040513d601f19601f8201168201806040525081019061101c9190611dba565b5081600560003373ffffffffffffffffffffffffffffffffffffffff1673ffffffffffffffffffffffffffffffffffffffff168152602001908152602001600020600082825461106c919061262a565b92505081905550336004600087815260200190815260200160002060030160006101000a81548173ffffffffffffffffffffffffffffffffffffffff021916908373ffffffffffffffffffffffffffffffffffffffff1602179055508160046000878152602001908152602001600020600201819055508360046000878152602001908152602001600020600001819055504260046000878152602001908152602001600020600101819055505b5050505050565b611129611886565b838390508686905014801561114357508181905084849050145b611182576040517f08c379a00000000000000000000000000000000000000000000000000000000081526004016111799061251b565b60405180910390fd5b60005b8686905081101561126b576112588787838181106111cc577f4e487b7100000000000000000000000000000000000000000000000000000000600052603260045260246000fd5b9050602002013586868481811061120c577f4e487b7100000000000000000000000000000000000000000000000000000000600052603260045260246000fd5b9050602002013585858581811061124c577f4e487b7100000000000000000000000000000000000000000000000000000000600052603260045260246000fd5b9050602002013561151b565b8080611263906126fc565b915050611185565b50505050505050565b61127c611886565b600073ffffffffffffffffffffffffffffffffffffffff168173ffffffffffffffffffffffffffffffffffffffff1614156112ec576040517f08c379a00000000000000000000000000000000000000000000000000000000081526004016112e39061235b565b60405180910390fd5b80600260006101000a81548173ffffffffffffffffffffffffffffffffffffffff021916908373ffffffffffffffffffffffffffffffffffffffff16021790555050565b611338611886565b6113426000611b5b565b565b6000151561135182611677565b151514611393576040517f08c379a000000000000000000000000000000000000000000000000000000000815260040161138a906124db565b60405180910390fd5b600073ffffffffffffffffffffffffffffffffffffffff166004600083815260200190815260200160002060030160009054906101000a900473ffffffffffffffffffffffffffffffffffffffff1673ffffffffffffffffffffffffffffffffffffffff161415611439576040517f08c379a0000000000000000000000000000000000000000000000000000000008152600401611430906123db565b60405180910390fd5b61144281611904565b50565b600160009054906101000a900473ffffffffffffffffffffffffffffffffffffffff1681565b60008060009054906101000a900473ffffffffffffffffffffffffffffffffffffffff16905090565b60606003805480602002602001604051908101604052809291908181526020016000905b828210156115125783829060005260206000209060040201604051806080016040529081600082015481526020016001820154815260200160028201548152602001600382015481525050815260200190600101906114b8565b50505050905090565b611523611886565b612710811015611568576040517f08c379a000000000000000000000000000000000000000000000000000000000815260040161155f906124fb565b60405180910390fd5b611570611c27565b600380549050816000018181525050838160200181815250508281604001818152505081816060018181525050600381908060018154018082558091505060019003906000526020600020906004020160009091909190915060008201518160000155602082015181600101556040820151816002015560608201518160030155505050505050565b600260009054906101000a900473ffffffffffffffffffffffffffffffffffffffff1681565b6003818154811061162f57600080fd5b90600052602060002090600402016000915090508060000154908060010154908060020154908060030154905084565b60056020528060005260406000206000915090505481565b60008073ffffffffffffffffffffffffffffffffffffffff166004600084815260200190815260200160002060030160009054906101000a900473ffffffffffffffffffffffffffffffffffffffff1673ffffffffffffffffffffffffffffffffffffffff1614156116ec57600090506117fd565b60006004600084815260200190815260200160002060000154905060038181548110611741577f4e487b7100000000000000000000000000000000000000000000000000000000600052603260045260246000fd5b9060005260206000209060040201600201546004600085815260200190815260200160002060020154101561177a5760009150506117fd565b600381815481106117b4577f4e487b7100000000000000000000000000000000000000000000000000000000600052603260045260246000fd5b9060005260206000209060040201600101546004600085815260200190815260200160002060010154426117e89190612680565b106117f75760009150506117fd565b60019150505b919050565b61180a611886565b600073ffffffffffffffffffffffffffffffffffffffff168173ffffffffffffffffffffffffffffffffffffffff16141561187a576040517f08c379a00000000000000000000000000000000000000000000000000000000081526004016118719061237b565b60405180910390fd5b61188381611b5b565b50565b61188e611c1f565b73ffffffffffffffffffffffffffffffffffffffff166118ac61146b565b73ffffffffffffffffffffffffffffffffffffffff1614611902576040517f08c379a00000000000000000000000000000000000000000000000000000000081526004016118f99061247b565b60405180910390fd5b565b60006004600083815260200190815260200160002060030160009054906101000a900473ffffffffffffffffffffffffffffffffffffffff169050600073ffffffffffffffffffffffffffffffffffffffff168173ffffffffffffffffffffffffffffffffffffffff16141561197a5750611b58565b6004600083815260200190815260200160002060020154600560008373ffffffffffffffffffffffffffffffffffffffff1673ffffffffffffffffffffffffffffffffffffffff16815260200190815260200160002060008282546119df9190612680565b92505081905550600160009054906101000a900473ffffffffffffffffffffffffffffffffffffffff1673ffffffffffffffffffffffffffffffffffffffff1663a9059cbb8260046000868152602001908152602001600020600201546040518363ffffffff1660e01b8152600401611a599291906122d5565b602060405180830381600087803b158015611a7357600080fd5b505af1158015611a87573d6000803e3d6000fd5b505050506040513d601f19601f82011682018060405250810190611aab9190611dba565b50600060046000848152602001908152602001600020600001819055506000600460008481526020019081526020016000206001018190555060006004600084815260200190815260200160002060030160006101000a81548173ffffffffffffffffffffffffffffffffffffffff021916908373ffffffffffffffffffffffffffffffffffffffff16021790555060006004600084815260200190815260200160002060020181905550505b50565b60008060009054906101000a900473ffffffffffffffffffffffffffffffffffffffff169050816000806101000a81548173ffffffffffffffffffffffffffffffffffffffff021916908373ffffffffffffffffffffffffffffffffffffffff1602179055508173ffffffffffffffffffffffffffffffffffffffff168173ffffffffffffffffffffffffffffffffffffffff167f8be0079c531659141344cd1fd0a4f28419497f9722a3daafe3b4186f6b6457e060405160405180910390a35050565b600033905090565b6040518060800160405280600081526020016000815260200160008152602001600081525090565b600081359050611c5e81612b0e565b92915050565b60008083601f840112611c7657600080fd5b8235905067ffffffffffffffff811115611c8f57600080fd5b602083019150836020820283011115611ca757600080fd5b9250929050565b600081519050611cbd81612b25565b92915050565b600081359050611cd281612b3c565b92915050565b600081519050611ce781612b3c565b92915050565b600060208284031215611cff57600080fd5b6000611d0d84828501611c4f565b91505092915050565b60008060008060008060608789031215611d2f57600080fd5b600087013567ffffffffffffffff811115611d4957600080fd5b611d5589828a01611c64565b9650965050602087013567ffffffffffffffff811115611d7457600080fd5b611d8089828a01611c64565b9450945050604087013567ffffffffffffffff811115611d9f57600080fd5b611dab89828a01611c64565b92509250509295509295509295565b600060208284031215611dcc57600080fd5b6000611dda84828501611cae565b91505092915050565b600060208284031215611df557600080fd5b6000611e0384828501611cc3565b91505092915050565b600060208284031215611e1e57600080fd5b6000611e2c84828501611cd8565b91505092915050565b60008060408385031215611e4857600080fd5b6000611e5685828601611cc3565b9250506020611e6785828601611cc3565b9150509250929050565b600080600060608486031215611e8657600080fd5b6000611e9486828701611cc3565b9350506020611ea586828701611cc3565b9250506040611eb686828701611cc3565b9150509250925092565b60008060008060808587031215611ed657600080fd5b6000611ee487828801611cc3565b9450506020611ef587828801611cc3565b9350506040611f0687828801611cc3565b9250506060611f1787828801611cc3565b91505092959194509250565b6000611f2f83836121e7565b60808301905092915050565b611f44816126b4565b82525050565b6000611f55826125f0565b611f5f8185612608565b9350611f6a836125e0565b8060005b83811015611f9b578151611f828882611f23565b9750611f8d836125fb565b925050600181019050611f6e565b5085935050505092915050565b611fb1816126c6565b82525050565b6000611fc4601583612619565b9150611fcf82612774565b602082019050919050565b6000611fe7601383612619565b9150611ff28261279d565b602082019050919050565b600061200a602683612619565b9150612015826127c6565b604082019050919050565b600061202d602e83612619565b915061203882612815565b604082019050919050565b6000612050601983612619565b915061205b82612864565b602082019050919050565b6000612073601483612619565b915061207e8261288d565b602082019050919050565b6000612096602c83612619565b91506120a1826128b6565b604082019050919050565b60006120b9601783612619565b91506120c482612905565b602082019050919050565b60006120dc601c83612619565b91506120e78261292e565b602082019050919050565b60006120ff601483612619565b915061210a82612957565b602082019050919050565b6000612122602083612619565b915061212d82612980565b602082019050919050565b6000612145603783612619565b9150612150826129a9565b604082019050919050565b6000612168603283612619565b9150612173826129f8565b604082019050919050565b600061218b601f83612619565b915061219682612a47565b602082019050919050565b60006121ae602583612619565b91506121b982612a70565b604082019050919050565b60006121d1603483612619565b91506121dc82612abf565b604082019050919050565b6080820160008201516121fd600085018261223c565b506020820151612210602085018261223c565b506040820151612223604085018261223c565b506060820151612236606085018261223c565b50505050565b612245816126f2565b82525050565b612254816126f2565b82525050565b600060208201905061226f6000830184611f3b565b92915050565b600060408201905061228a6000830185611f3b565b6122976020830184611f3b565b9392505050565b60006060820190506122b36000830186611f3b565b6122c06020830185611f3b565b6122cd604083018461224b565b949350505050565b60006040820190506122ea6000830185611f3b565b6122f7602083018461224b565b9392505050565b600060208201905081810360008301526123188184611f4a565b905092915050565b60006020820190506123356000830184611fa8565b92915050565b6000602082019050818103600083015261235481611fb7565b9050919050565b6000602082019050818103600083015261237481611fda565b9050919050565b6000602082019050818103600083015261239481611ffd565b9050919050565b600060208201905081810360008301526123b481612020565b9050919050565b600060208201905081810360008301526123d481612043565b9050919050565b600060208201905081810360008301526123f481612066565b9050919050565b6000602082019050818103600083015261241481612089565b9050919050565b60006020820190508181036000830152612434816120ac565b9050919050565b60006020820190508181036000830152612454816120cf565b9050919050565b60006020820190508181036000830152612474816120f2565b9050919050565b6000602082019050818103600083015261249481612115565b9050919050565b600060208201905081810360008301526124b481612138565b9050919050565b600060208201905081810360008301526124d48161215b565b9050919050565b600060208201905081810360008301526124f48161217e565b9050919050565b60006020820190508181036000830152612514816121a1565b9050919050565b60006020820190508181036000830152612534816121c4565b9050919050565b6000602082019050612550600083018461224b565b92915050565b600060808201905061256b600083018761224b565b612578602083018661224b565b612585604083018561224b565b6125926060830184611f3b565b95945050505050565b60006080820190506125b0600083018761224b565b6125bd602083018661224b565b6125ca604083018561224b565b6125d7606083018461224b565b95945050505050565b6000819050602082019050919050565b600081519050919050565b6000602082019050919050565b600082825260208201905092915050565b600082825260208201905092915050565b6000612635826126f2565b9150612640836126f2565b9250827fffffffffffffffffffffffffffffffffffffffffffffffffffffffffffffffff0382111561267557612674612745565b5b828201905092915050565b600061268b826126f2565b9150612696836126f2565b9250828210156126a9576126a8612745565b5b828203905092915050565b60006126bf826126d2565b9050919050565b60008115159050919050565b600073ffffffffffffffffffffffffffffffffffffffff82169050919050565b6000819050919050565b6000612707826126f2565b91507fffffffffffffffffffffffffffffffffffffffffffffffffffffffffffffffff82141561273a57612739612745565b5b600182019050919050565b7f4e487b7100000000000000000000000000000000000000000000000000000000600052601160045260246000fd5b7f696e76616c696420746f6b656e20616464726573730000000000000000000000600082015250565b7f696e76616c6964206e6674206164647265737300000000000000000000000000600082015250565b7f4f776e61626c653a206e6577206f776e657220697320746865207a65726f206160008201527f6464726573730000000000000000000000000000000000000000000000000000602082015250565b7f696e6465782073686f756c64206265206c657373207468616e207374616b655460008201527f7970654c6973742e6c656e677468000000000000000000000000000000000000602082015250565b7f5374616b657220697320616e6f7468657220706572736f6e2e00000000000000600082015250565b7f4e6f7468696e6720746f2077697468647261772e000000000000000000000000600082015250565b7f526571756972656420416d6f756e74206f6620546f6b656e732073686f756c6460008201527f20626520616c6c6f7765642e0000000000000000000000000000000000000000602082015250565b7f43616e206f6e6c792062652075706772616461626c652e000000000000000000600082015250565b7f596f752073686f756c6420626520746865204e4654204f776e65722e00000000600082015250565b7f5374616b657220616c7265616479206578697374000000000000000000000000600082015250565b7f4f776e61626c653a2063616c6c6572206973206e6f7420746865206f776e6572600082015250565b7f496e7465726e616c204572726f723a206f6c64416d6f756e742073686f756c6460008201527f206265206c657373207468616e20637572416d6f756e74000000000000000000602082015250565b7f7374616b65547970652073686f756c64206265206c657373207468616e20737460008201527f616b65547970654c6973742e6c656e6774680000000000000000000000000000602082015250565b7f43616e6e6f74207769746864726177207374616b696e6720546f6b656e732e00600082015250565b7f4d756c7469706c6965722073686f756c6420626520677265617465722074686160008201527f6e20312e30000000000000000000000000000000000000000000000000000000602082015250565b7f706572696f64202620616d6f756e742026206d756c7469706c696572206c656e60008201527f6774682073686f756c6420626520657175616c2e000000000000000000000000602082015250565b612b17816126b4565b8114612b2257600080fd5b50565b612b2e816126c6565b8114612b3957600080fd5b50565b612b45816126f2565b8114612b5057600080fd5b5056fea26469706673582212203e7da60fe8f863986eb5dd90efb53eff034a8fce696f3a4bcd5e62e28ad836c564736f6c63430008040033",
  "linkReferences": {},
  "deployedLinkReferences": {}
}