{
  "_format": "hh-sol-artifact-1",
  "contractName": "ElumNFT",
  "sourceName": "contracts/ElumNFT.sol",
  "abi": [
    {
      "anonymous": false,
      "inputs": [
        {
          "indexed": false,
          "internalType": "address[]",
          "name": "",
          "type": "address[]"
        },
        {
          "indexed": false,
          "internalType": "bool",
          "name": "",
          "type": "bool"
        }
      ],
      "name": "AffectWhiteList",
      "type": "event"
    },
    {
      "anonymous": false,
      "inputs": [
        {
          "indexed": true,
          "internalType": "address",
          "name": "previousOwner",
          "type": "address"
        },
        {
          "indexed": true,
          "internalType": "address",
          "name": "newOwner",
          "type": "address"
        }
      ],
      "name": "OwnershipTransferred",
      "type": "event"
    },
    {
      "inputs": [],
      "name": "NFT_ID_COUNTER",
      "outputs": [
        {
          "internalType": "uint256",
          "name": "",
          "type": "uint256"
        }
      ],
      "stateMutability": "view",
      "type": "function"
    },
    {
      "inputs": [
        {
          "internalType": "uint256",
          "name": "",
          "type": "uint256"
        }
      ],
      "name": "NFT_TO_INFO",
      "outputs": [
        {
          "internalType": "address",
          "name": "owner",
          "type": "address"
        },
        {
          "internalType": "uint256",
          "name": "nftType",
          "type": "uint256"
        },
        {
          "internalType": "uint256",
          "name": "acquireTime",
          "type": "uint256"
        },
        {
          "internalType": "uint256",
          "name": "index",
          "type": "uint256"
        }
      ],
      "stateMutability": "view",
      "type": "function"
    },
    {
      "inputs": [],
      "name": "NFT_TYPE_COUNTER",
      "outputs": [
        {
          "internalType": "uint256",
          "name": "",
          "type": "uint256"
        }
      ],
      "stateMutability": "view",
      "type": "function"
    },
    {
      "inputs": [
        {
          "internalType": "uint256",
          "name": "",
          "type": "uint256"
        }
      ],
      "name": "NFT_TYPE_INFO",
      "outputs": [
        {
          "internalType": "string",
          "name": "metadataURI",
          "type": "string"
        },
        {
          "internalType": "uint256",
          "name": "price",
          "type": "uint256"
        },
        {
          "internalType": "uint256",
          "name": "totalSupply",
          "type": "uint256"
        },
        {
          "internalType": "uint256",
          "name": "remainSupply",
          "type": "uint256"
        }
      ],
      "stateMutability": "view",
      "type": "function"
    },
    {
      "inputs": [
        {
          "internalType": "string",
          "name": "metadataURI",
          "type": "string"
        },
        {
          "internalType": "uint256",
          "name": "price",
          "type": "uint256"
        }
      ],
      "name": "addNewType",
      "outputs": [
        {
          "internalType": "uint256",
          "name": "",
          "type": "uint256"
        }
      ],
      "stateMutability": "nonpayable",
      "type": "function"
    },
    {
      "inputs": [
        {
          "internalType": "address[]",
          "name": "_addressList",
          "type": "address[]"
        },
        {
          "internalType": "bool",
          "name": "isApprove",
          "type": "bool"
        }
      ],
      "name": "affectWhiteList",
      "outputs": [],
      "stateMutability": "nonpayable",
      "type": "function"
    },
    {
      "inputs": [
        {
          "internalType": "address",
          "name": "_address",
          "type": "address"
        }
      ],
      "name": "balanceOf",
      "outputs": [
        {
          "internalType": "uint256[]",
          "name": "",
          "type": "uint256[]"
        }
      ],
      "stateMutability": "view",
      "type": "function"
    },
    {
      "inputs": [
        {
          "internalType": "uint256",
          "name": "nftType",
          "type": "uint256"
        },
        {
          "internalType": "uint256",
          "name": "amount",
          "type": "uint256"
        }
      ],
      "name": "buyNFT",
      "outputs": [
        {
          "internalType": "bool",
          "name": "",
          "type": "bool"
        }
      ],
      "stateMutability": "payable",
      "type": "function"
    },
    {
      "inputs": [
        {
          "internalType": "address",
          "name": "_address",
          "type": "address"
        }
      ],
      "name": "getAcquiredTime",
      "outputs": [
        {
          "internalType": "uint256",
          "name": "",
          "type": "uint256"
        }
      ],
      "stateMutability": "view",
      "type": "function"
    },
    {
      "inputs": [],
      "name": "getNFTTypeInfo",
      "outputs": [
        {
          "components": [
            {
              "internalType": "string",
              "name": "metadataURI",
              "type": "string"
            },
            {
              "internalType": "uint256",
              "name": "price",
              "type": "uint256"
            },
            {
              "internalType": "uint256",
              "name": "totalSupply",
              "type": "uint256"
            },
            {
              "internalType": "uint256",
              "name": "remainSupply",
              "type": "uint256"
            }
          ],
          "internalType": "struct NFT_TYPE[]",
          "name": "",
          "type": "tuple[]"
        }
      ],
      "stateMutability": "view",
      "type": "function"
    },
    {
      "inputs": [
        {
          "internalType": "address",
          "name": "_address",
          "type": "address"
        },
        {
          "internalType": "uint256",
          "name": "nftID",
          "type": "uint256"
        }
      ],
      "name": "isOwner",
      "outputs": [
        {
          "internalType": "bool",
          "name": "",
          "type": "bool"
        }
      ],
      "stateMutability": "view",
      "type": "function"
    },
    {
      "inputs": [
        {
          "internalType": "address",
          "name": "addr",
          "type": "address"
        }
      ],
      "name": "isWhiteLists",
      "outputs": [
        {
          "internalType": "bool",
          "name": "",
          "type": "bool"
        }
      ],
      "stateMutability": "view",
      "type": "function"
    },
    {
      "inputs": [
        {
          "internalType": "uint256[]",
          "name": "ids",
          "type": "uint256[]"
        },
        {
          "internalType": "uint256[]",
          "name": "amounts",
          "type": "uint256[]"
        }
      ],
      "name": "mint",
      "outputs": [
        {
          "internalType": "bool",
          "name": "",
          "type": "bool"
        }
      ],
      "stateMutability": "nonpayable",
      "type": "function"
    },
    {
      "inputs": [],
      "name": "owner",
      "outputs": [
        {
          "internalType": "address",
          "name": "",
          "type": "address"
        }
      ],
      "stateMutability": "view",
      "type": "function"
    },
    {
      "inputs": [],
      "name": "renounceOwnership",
      "outputs": [],
      "stateMutability": "nonpayable",
      "type": "function"
    },
    {
      "inputs": [
        {
          "internalType": "address",
          "name": "_token_address",
          "type": "address"
        }
      ],
      "name": "setTokenAddress",
      "outputs": [],
      "stateMutability": "nonpayable",
      "type": "function"
    },
    {
      "inputs": [],
      "name": "token_address",
      "outputs": [
        {
          "internalType": "address",
          "name": "",
          "type": "address"
        }
      ],
      "stateMutability": "view",
      "type": "function"
    },
    {
      "inputs": [
        {
          "internalType": "uint256[]",
          "name": "ids",
          "type": "uint256[]"
        },
        {
          "internalType": "address",
          "name": "to",
          "type": "address"
        }
      ],
      "name": "transferNFT",
      "outputs": [],
      "stateMutability": "nonpayable",
      "type": "function"
    },
    {
      "inputs": [
        {
          "internalType": "address",
          "name": "newOwner",
          "type": "address"
        }
      ],
      "name": "transferOwnership",
      "outputs": [],
      "stateMutability": "nonpayable",
      "type": "function"
    },
    {
      "inputs": [
        {
          "internalType": "uint256",
          "name": "nftID",
          "type": "uint256"
        },
        {
          "internalType": "string",
          "name": "metadataURI",
          "type": "string"
        },
        {
          "internalType": "uint256",
          "name": "price",
          "type": "uint256"
        }
      ],
      "name": "updateType",
      "outputs": [],
      "stateMutability": "nonpayable",
      "type": "function"
    },
    {
      "inputs": [
        {
          "internalType": "address",
          "name": "",
          "type": "address"
        }
      ],
      "name": "whiteLists",
      "outputs": [
        {
          "internalType": "bool",
          "name": "",
          "type": "bool"
        }
      ],
      "stateMutability": "view",
      "type": "function"
    }
  ],
  "bytecode": "0x6080604052600060015560006002553480156200001b57600080fd5b506200003c620000306200004260201b60201c565b6200004a60201b60201c565b6200010e565b600033905090565b60008060009054906101000a900473ffffffffffffffffffffffffffffffffffffffff169050816000806101000a81548173ffffffffffffffffffffffffffffffffffffffff021916908373ffffffffffffffffffffffffffffffffffffffff1602179055508173ffffffffffffffffffffffffffffffffffffffff168173ffffffffffffffffffffffffffffffffffffffff167f8be0079c531659141344cd1fd0a4f28419497f9722a3daafe3b4186f6b6457e060405160405180910390a35050565b613461806200011e6000396000f3fe60806040526004361061012a5760003560e01c806370a08231116100ab578063e2bea1ec1161006f578063e2bea1ec14610411578063e327a6af1461043a578063e832565b14610477578063f2fde38b146104b4578063fcc2278b146104dd578063ffc47c591461051a5761012a565b806370a082311461032a578063715018a6146103675780638c8e8fee1461037e5780638da5cb5b146103a9578063bb549536146103d45761012a565b8063337b81f6116100f2578063337b81f6146102335780633d5d190c1461025c578063490a27c41461029957806353dc840b146102c25780636b01e751146102ff5761012a565b806303356c401461012f578063047b7b411461016f57806305f693cf146101af5780631d85bf03146101da57806326a4e8d21461020a575b600080fd5b34801561013b57600080fd5b50610156600480360381019061015191906122ee565b610545565b60405161016694939291906129ba565b60405180910390f35b34801561017b57600080fd5b50610196600480360381019061019191906122ee565b61060d565b6040516101a694939291906128e4565b60405180910390f35b3480156101bb57600080fd5b506101c461065d565b6040516101d1919061295b565b60405180910390f35b6101f460048036038101906101ef9190612383565b61076c565b604051610201919061299f565b60405180910390f35b34801561021657600080fd5b50610231600480360381019061022c919061210c565b610b20565b005b34801561023f57600080fd5b5061025a60048036038101906102559190612317565b610bdc565b005b34801561026857600080fd5b50610283600480360381019061027e9190612221565b610d7b565b604051610290919061299f565b60405180910390f35b3480156102a557600080fd5b506102c060048036038101906102bb9190612171565b61103e565b005b3480156102ce57600080fd5b506102e960048036038101906102e4919061210c565b61114c565b6040516102f6919061299f565b60405180910390f35b34801561030b57600080fd5b5061031461116c565b6040516103219190612c46565b60405180910390f35b34801561033657600080fd5b50610351600480360381019061034c919061210c565b611172565b60405161035e919061297d565b60405180910390f35b34801561037357600080fd5b5061037c61120c565b005b34801561038a57600080fd5b50610393611220565b6040516103a091906128c9565b60405180910390f35b3480156103b557600080fd5b506103be611246565b6040516103cb91906128c9565b60405180910390f35b3480156103e057600080fd5b506103fb60048036038101906103f6919061210c565b61126f565b604051610408919061299f565b60405180910390f35b34801561041d57600080fd5b50610438600480360381019061043391906121c9565b6112c5565b005b34801561044657600080fd5b50610461600480360381019061045c9190612135565b611a0e565b60405161046e919061299f565b60405180910390f35b34801561048357600080fd5b5061049e6004803603810190610499919061210c565b611b31565b6040516104ab9190612c46565b60405180910390f35b3480156104c057600080fd5b506104db60048036038101906104d6919061210c565b611bb4565b005b3480156104e957600080fd5b5061050460048036038101906104ff9190612296565b611c38565b6040516105119190612c46565b60405180910390f35b34801561052657600080fd5b5061052f611d4e565b60405161053c9190612c46565b60405180910390f35b6003818154811061055557600080fd5b906000526020600020906004020160009150905080600001805461057890612e9e565b80601f01602080910402602001604051908101604052809291908181526020018280546105a490612e9e565b80156105f15780601f106105c6576101008083540402835291602001916105f1565b820191906000526020600020905b8154815290600101906020018083116105d457829003601f168201915b5050505050908060010154908060020154908060030154905084565b60056020528060005260406000206000915090508060000160009054906101000a900473ffffffffffffffffffffffffffffffffffffffff16908060010154908060020154908060030154905084565b60606003805480602002602001604051908101604052809291908181526020016000905b8282101561076357838290600052602060002090600402016040518060800160405290816000820180546106b490612e9e565b80601f01602080910402602001604051908101604052809291908181526020018280546106e090612e9e565b801561072d5780601f106107025761010080835404028352916020019161072d565b820191906000526020600020905b81548152906001019060200180831161071057829003601f168201915b50505050508152602001600182015481526020016002820154815260200160038201548152505081526020019060010190610681565b50505050905090565b60006107773361126f565b6107b6576040517f08c379a00000000000000000000000000000000000000000000000000000000081526004016107ad90612a46565b60405180910390fd5b60015483106107fa576040517f08c379a00000000000000000000000000000000000000000000000000000000081526004016107f190612b26565b60405180910390fd5b8160038481548110610835577f4e487b7100000000000000000000000000000000000000000000000000000000600052603260045260246000fd5b9060005260206000209060040201600301541015610888576040517f08c379a000000000000000000000000000000000000000000000000000000000815260040161087f90612be6565b60405180910390fd5b600383815481106108c2577f4e487b7100000000000000000000000000000000000000000000000000000000600052603260045260246000fd5b906000526020600020906004020160010154826108df9190612d95565b341015610921576040517f08c379a000000000000000000000000000000000000000000000000000000000815260040161091890612aa6565b60405180910390fd5b60005b82811015610ab3573360056000600254815260200190815260200160002060000160006101000a81548173ffffffffffffffffffffffffffffffffffffffff021916908373ffffffffffffffffffffffffffffffffffffffff16021790555083600560006002548152602001908152602001600020600101819055504260056000600254815260200190815260200160002060020181905550600460003373ffffffffffffffffffffffffffffffffffffffff1673ffffffffffffffffffffffffffffffffffffffff1681526020019081526020016000206000018054905060056000600254815260200190815260200160002060030181905550600460003373ffffffffffffffffffffffffffffffffffffffff1673ffffffffffffffffffffffffffffffffffffffff1681526020019081526020016000206000016002549080600181540180825580915050600190039060005260206000200160009091909190915055600260008154610a9990612ed0565b919050819055508080610aab90612ed0565b915050610924565b508160038481548110610aef577f4e487b7100000000000000000000000000000000000000000000000000000000600052603260045260246000fd5b90600052602060002090600402016003016000828254610b0f9190612def565b925050819055506001905092915050565b610b28611d54565b600073ffffffffffffffffffffffffffffffffffffffff168173ffffffffffffffffffffffffffffffffffffffff161415610b98576040517f08c379a0000000000000000000000000000000000000000000000000000000008152600401610b8f90612a66565b60405180910390fd5b80600760006101000a81548173ffffffffffffffffffffffffffffffffffffffff021916908373ffffffffffffffffffffffffffffffffffffffff16021790555050565b610be4611d54565b6001548410610c28576040517f08c379a0000000000000000000000000000000000000000000000000000000008152600401610c1f90612c06565b60405180910390fd5b828260038681548110610c64577f4e487b7100000000000000000000000000000000000000000000000000000000600052603260045260246000fd5b90600052602060002090600402016000019190610c82929190611e9e565b508060038581548110610cbe577f4e487b7100000000000000000000000000000000000000000000000000000000600052603260045260246000fd5b906000526020600020906004020160010181905550600060038581548110610d0f577f4e487b7100000000000000000000000000000000000000000000000000000000600052603260045260246000fd5b906000526020600020906004020160020181905550600060038581548110610d60577f4e487b7100000000000000000000000000000000000000000000000000000000600052603260045260246000fd5b90600052602060002090600402016003018190555050505050565b6000610d85611d54565b828290508585905014610dcd576040517f08c379a0000000000000000000000000000000000000000000000000000000008152600401610dc490612b46565b60405180910390fd5b60005b8585905081101561103157600154868683818110610e17577f4e487b7100000000000000000000000000000000000000000000000000000000600052603260045260246000fd5b9050602002013510610e5e576040517f08c379a0000000000000000000000000000000000000000000000000000000008152600401610e5590612c06565b60405180910390fd5b838382818110610e97577f4e487b7100000000000000000000000000000000000000000000000000000000600052603260045260246000fd5b905060200201356003878784818110610ed9577f4e487b7100000000000000000000000000000000000000000000000000000000600052603260045260246000fd5b9050602002013581548110610f17577f4e487b7100000000000000000000000000000000000000000000000000000000600052603260045260246000fd5b90600052602060002090600402016002016000828254610f379190612d3f565b92505081905550838382818110610f77577f4e487b7100000000000000000000000000000000000000000000000000000000600052603260045260246000fd5b905060200201356003878784818110610fb9577f4e487b7100000000000000000000000000000000000000000000000000000000600052603260045260246000fd5b9050602002013581548110610ff7577f4e487b7100000000000000000000000000000000000000000000000000000000600052603260045260246000fd5b906000526020600020906004020160030160008282546110179190612d3f565b92505081905550808061102990612ed0565b915050610dd0565b5060019050949350505050565b611046611d54565b60005b8383905081101561110b578160066000868685818110611092577f4e487b7100000000000000000000000000000000000000000000000000000000600052603260045260246000fd5b90506020020160208101906110a7919061210c565b73ffffffffffffffffffffffffffffffffffffffff1673ffffffffffffffffffffffffffffffffffffffff16815260200190815260200160002060006101000a81548160ff021916908315150217905550808061110390612ed0565b915050611049565b507fab5e233cc7db745f9ab86a3beed645c8318493782c05f0b9518571d2f45802aa83838360405161113f93929190612929565b60405180910390a1505050565b60066020528060005260406000206000915054906101000a900460ff1681565b60025481565b6060600460008373ffffffffffffffffffffffffffffffffffffffff1673ffffffffffffffffffffffffffffffffffffffff16815260200190815260200160002060000180548060200260200160405190810160405280929190818152602001828054801561120057602002820191906000526020600020905b8154815260200190600101908083116111ec575b50505050509050919050565b611214611d54565b61121e6000611dd2565b565b600760009054906101000a900473ffffffffffffffffffffffffffffffffffffffff1681565b60008060009054906101000a900473ffffffffffffffffffffffffffffffffffffffff16905090565b6000600660008373ffffffffffffffffffffffffffffffffffffffff1673ffffffffffffffffffffffffffffffffffffffff16815260200190815260200160002060009054906101000a900460ff169050919050565b600073ffffffffffffffffffffffffffffffffffffffff168173ffffffffffffffffffffffffffffffffffffffff161415611335576040517f08c379a000000000000000000000000000000000000000000000000000000000815260040161132c90612ae6565b60405180910390fd5b61133e3361126f565b61137d576040517f08c379a000000000000000000000000000000000000000000000000000000000815260040161137490612ba6565b60405180910390fd5b6113868161126f565b6113c5576040517f08c379a00000000000000000000000000000000000000000000000000000000081526004016113bc90612b86565b60405180910390fd5b60005b83839050811015611a0857600084848381811061140e577f4e487b7100000000000000000000000000000000000000000000000000000000600052603260045260246000fd5b905060200201359050600254811061145b576040517f08c379a000000000000000000000000000000000000000000000000000000000815260040161145290612a06565b60405180910390fd5b3373ffffffffffffffffffffffffffffffffffffffff166005600083815260200190815260200160002060000160009054906101000a900473ffffffffffffffffffffffffffffffffffffffff1673ffffffffffffffffffffffffffffffffffffffff16146114ff576040517f08c379a00000000000000000000000000000000000000000000000000000000081526004016114f690612c26565b60405180910390fd5b826005600083815260200190815260200160002060000160006101000a81548173ffffffffffffffffffffffffffffffffffffffff021916908373ffffffffffffffffffffffffffffffffffffffff16021790555042600560008381526020019081526020016000206002018190555060006005600083815260200190815260200160002060030154905081600460003373ffffffffffffffffffffffffffffffffffffffff1673ffffffffffffffffffffffffffffffffffffffff1681526020019081526020016000206000018281548110611605577f4e487b7100000000000000000000000000000000000000000000000000000000600052603260045260246000fd5b906000526020600020015414611650576040517f08c379a000000000000000000000000000000000000000000000000000000000815260040161164790612a26565b60405180910390fd5b6000600460003373ffffffffffffffffffffffffffffffffffffffff1673ffffffffffffffffffffffffffffffffffffffff168152602001908152602001600020600001805490509050600081116116dd576040517f08c379a00000000000000000000000000000000000000000000000000000000081526004016116d490612ac6565b60405180910390fd5b600460003373ffffffffffffffffffffffffffffffffffffffff1673ffffffffffffffffffffffffffffffffffffffff16815260200190815260200160002060000160018261172c9190612def565b81548110611763577f4e487b7100000000000000000000000000000000000000000000000000000000600052603260045260246000fd5b9060005260206000200154600460003373ffffffffffffffffffffffffffffffffffffffff1673ffffffffffffffffffffffffffffffffffffffff16815260200190815260200160002060000183815481106117e8577f4e487b7100000000000000000000000000000000000000000000000000000000600052603260045260246000fd5b90600052602060002001819055508160056000600460003373ffffffffffffffffffffffffffffffffffffffff1673ffffffffffffffffffffffffffffffffffffffff1681526020019081526020016000206000018581548110611875577f4e487b7100000000000000000000000000000000000000000000000000000000600052603260045260246000fd5b9060005260206000200154815260200190815260200160002060030181905550600460003373ffffffffffffffffffffffffffffffffffffffff1673ffffffffffffffffffffffffffffffffffffffff16815260200190815260200160002060000180548061190d577f4e487b7100000000000000000000000000000000000000000000000000000000600052603160045260246000fd5b600190038181906000526020600020016000905590556000600460008773ffffffffffffffffffffffffffffffffffffffff1673ffffffffffffffffffffffffffffffffffffffff168152602001908152602001600020600001805490509050600460008773ffffffffffffffffffffffffffffffffffffffff1673ffffffffffffffffffffffffffffffffffffffff168152602001908152602001600020600001849080600181540180825580915050600190039060005260206000200160009091909190915055806005600086815260200190815260200160002060030181905550505050508080611a0090612ed0565b9150506113c8565b50505050565b60006002548210611a54576040517f08c379a0000000000000000000000000000000000000000000000000000000008152600401611a4b90612b66565b60405180910390fd5b600073ffffffffffffffffffffffffffffffffffffffff168373ffffffffffffffffffffffffffffffffffffffff161415611ac4576040517f08c379a0000000000000000000000000000000000000000000000000000000008152600401611abb90612b06565b60405180910390fd5b8273ffffffffffffffffffffffffffffffffffffffff166005600084815260200190815260200160002060000160009054906101000a900473ffffffffffffffffffffffffffffffffffffffff1673ffffffffffffffffffffffffffffffffffffffff1614905092915050565b600080611b3d83611172565b9050600081511415611b53576000915050611baf565b6005600082600081518110611b91577f4e487b7100000000000000000000000000000000000000000000000000000000600052603260045260246000fd5b60200260200101518152602001908152602001600020600201549150505b919050565b611bbc611d54565b600073ffffffffffffffffffffffffffffffffffffffff168173ffffffffffffffffffffffffffffffffffffffff161415611c2c576040517f08c379a0000000000000000000000000000000000000000000000000000000008152600401611c2390612a86565b60405180910390fd5b611c3581611dd2565b50565b6000611c42611d54565b611c4a611f24565b84848080601f016020809104026020016040519081016040528093929190818152602001838380828437600081840152601f19601f820116905080830192505050505050508160000181905250828160200181815250506000816040018181525050600081606001818152505060038190806001815401808255809150506001900390600052602060002090600402016000909190919091506000820151816000019080519060200190611cff929190611f4c565b506020820151816001015560408201518160020155606082015181600301555050600160008154611d2f90612ed0565b9190508190555060018054611d449190612def565b9150509392505050565b60015481565b611d5c611e96565b73ffffffffffffffffffffffffffffffffffffffff16611d7a611246565b73ffffffffffffffffffffffffffffffffffffffff1614611dd0576040517f08c379a0000000000000000000000000000000000000000000000000000000008152600401611dc790612bc6565b60405180910390fd5b565b60008060009054906101000a900473ffffffffffffffffffffffffffffffffffffffff169050816000806101000a81548173ffffffffffffffffffffffffffffffffffffffff021916908373ffffffffffffffffffffffffffffffffffffffff1602179055508173ffffffffffffffffffffffffffffffffffffffff168173ffffffffffffffffffffffffffffffffffffffff167f8be0079c531659141344cd1fd0a4f28419497f9722a3daafe3b4186f6b6457e060405160405180910390a35050565b600033905090565b828054611eaa90612e9e565b90600052602060002090601f016020900481019282611ecc5760008555611f13565b82601f10611ee557803560ff1916838001178555611f13565b82800160010185558215611f13579182015b82811115611f12578235825591602001919060010190611ef7565b5b509050611f209190611fd2565b5090565b6040518060800160405280606081526020016000815260200160008152602001600081525090565b828054611f5890612e9e565b90600052602060002090601f016020900481019282611f7a5760008555611fc1565b82601f10611f9357805160ff1916838001178555611fc1565b82800160010185558215611fc1579182015b82811115611fc0578251825591602001919060010190611fa5565b5b509050611fce9190611fd2565b5090565b5b80821115611feb576000816000905550600101611fd3565b5090565b600081359050611ffe816133e6565b92915050565b60008083601f84011261201657600080fd5b8235905067ffffffffffffffff81111561202f57600080fd5b60208301915083602082028301111561204757600080fd5b9250929050565b60008083601f84011261206057600080fd5b8235905067ffffffffffffffff81111561207957600080fd5b60208301915083602082028301111561209157600080fd5b9250929050565b6000813590506120a7816133fd565b92915050565b60008083601f8401126120bf57600080fd5b8235905067ffffffffffffffff8111156120d857600080fd5b6020830191508360018202830111156120f057600080fd5b9250929050565b60008135905061210681613414565b92915050565b60006020828403121561211e57600080fd5b600061212c84828501611fef565b91505092915050565b6000806040838503121561214857600080fd5b600061215685828601611fef565b9250506020612167858286016120f7565b9150509250929050565b60008060006040848603121561218657600080fd5b600084013567ffffffffffffffff8111156121a057600080fd5b6121ac86828701612004565b935093505060206121bf86828701612098565b9150509250925092565b6000806000604084860312156121de57600080fd5b600084013567ffffffffffffffff8111156121f857600080fd5b6122048682870161204e565b9350935050602061221786828701611fef565b9150509250925092565b6000806000806040858703121561223757600080fd5b600085013567ffffffffffffffff81111561225157600080fd5b61225d8782880161204e565b9450945050602085013567ffffffffffffffff81111561227c57600080fd5b6122888782880161204e565b925092505092959194509250565b6000806000604084860312156122ab57600080fd5b600084013567ffffffffffffffff8111156122c557600080fd5b6122d1868287016120ad565b935093505060206122e4868287016120f7565b9150509250925092565b60006020828403121561230057600080fd5b600061230e848285016120f7565b91505092915050565b6000806000806060858703121561232d57600080fd5b600061233b878288016120f7565b945050602085013567ffffffffffffffff81111561235857600080fd5b612364878288016120ad565b93509350506040612377878288016120f7565b91505092959194509250565b6000806040838503121561239657600080fd5b60006123a4858286016120f7565b92505060206123b5858286016120f7565b9150509250929050565b60006123cb8383612403565b60208301905092915050565b60006123e38383612848565b905092915050565b60006123f783836128ab565b60208301905092915050565b61240c81612e23565b82525050565b61241b81612e23565b82525050565b600061242d8385612cd3565b935061243882612c61565b8060005b858110156124715761244e8284612d28565b61245888826123bf565b975061246383612cac565b92505060018101905061243c565b5085925050509392505050565b600061248982612c8b565b6124938185612ce4565b9350836020820285016124a585612c6b565b8060005b858110156124e157848403895281516124c285826123d7565b94506124cd83612cb9565b925060208a019950506001810190506124a9565b50829750879550505050505092915050565b60006124fe82612c96565b6125088185612cf5565b935061251383612c7b565b8060005b8381101561254457815161252b88826123eb565b975061253683612cc6565b925050600181019050612517565b5085935050505092915050565b61255a81612e35565b82525050565b600061256b82612ca1565b6125758185612d06565b9350612585818560208601612e6b565b61258e81612f77565b840191505092915050565b60006125a482612ca1565b6125ae8185612d17565b93506125be818560208601612e6b565b6125c781612f77565b840191505092915050565b60006125df602b83612d17565b91506125ea82612f88565b604082019050919050565b6000612602601b83612d17565b915061260d82612fd7565b602082019050919050565b6000612625603283612d17565b915061263082613000565b604082019050919050565b6000612648601583612d17565b91506126538261304f565b602082019050919050565b600061266b602683612d17565b915061267682613078565b604082019050919050565b600061268e601383612d17565b9150612699826130c7565b602082019050919050565b60006126b1602d83612d17565b91506126bc826130f0565b604082019050919050565b60006126d4601d83612d17565b91506126df8261313f565b602082019050919050565b60006126f7601683612d17565b915061270282613168565b602082019050919050565b600061271a602d83612d17565b915061272582613191565b604082019050919050565b600061273d602b83612d17565b9150612748826131e0565b604082019050919050565b6000612760602983612d17565b915061276b8261322f565b604082019050919050565b6000612783602b83612d17565b915061278e8261327e565b604082019050919050565b60006127a6602b83612d17565b91506127b1826132cd565b604082019050919050565b60006127c9602083612d17565b91506127d48261331c565b602082019050919050565b60006127ec601283612d17565b91506127f782613345565b602082019050919050565b600061280f602783612d17565b915061281a8261336e565b604082019050919050565b6000612832601683612d17565b915061283d826133bd565b602082019050919050565b600060808301600083015184820360008601526128658282612560565b915050602083015161287a60208601826128ab565b50604083015161288d60408601826128ab565b5060608301516128a060608601826128ab565b508091505092915050565b6128b481612e61565b82525050565b6128c381612e61565b82525050565b60006020820190506128de6000830184612412565b92915050565b60006080820190506128f96000830187612412565b61290660208301866128ba565b61291360408301856128ba565b61292060608301846128ba565b95945050505050565b60006040820190508181036000830152612944818587612421565b90506129536020830184612551565b949350505050565b60006020820190508181036000830152612975818461247e565b905092915050565b6000602082019050818103600083015261299781846124f3565b905092915050565b60006020820190506129b46000830184612551565b92915050565b600060808201905081810360008301526129d48187612599565b90506129e360208301866128ba565b6129f060408301856128ba565b6129fd60608301846128ba565b95945050505050565b60006020820190508181036000830152612a1f816125d2565b9050919050565b60006020820190508181036000830152612a3f816125f5565b9050919050565b60006020820190508181036000830152612a5f81612618565b9050919050565b60006020820190508181036000830152612a7f8161263b565b9050919050565b60006020820190508181036000830152612a9f8161265e565b9050919050565b60006020820190508181036000830152612abf81612681565b9050919050565b60006020820190508181036000830152612adf816126a4565b9050919050565b60006020820190508181036000830152612aff816126c7565b9050919050565b60006020820190508181036000830152612b1f816126ea565b9050919050565b60006020820190508181036000830152612b3f8161270d565b9050919050565b60006020820190508181036000830152612b5f81612730565b9050919050565b60006020820190508181036000830152612b7f81612753565b9050919050565b60006020820190508181036000830152612b9f81612776565b9050919050565b60006020820190508181036000830152612bbf81612799565b9050919050565b60006020820190508181036000830152612bdf816127bc565b9050919050565b60006020820190508181036000830152612bff816127df565b9050919050565b60006020820190508181036000830152612c1f81612802565b9050919050565b60006020820190508181036000830152612c3f81612825565b9050919050565b6000602082019050612c5b60008301846128ba565b92915050565b6000819050919050565b6000819050602082019050919050565b6000819050602082019050919050565b600081519050919050565b600081519050919050565b600081519050919050565b6000602082019050919050565b6000602082019050919050565b6000602082019050919050565b600082825260208201905092915050565b600082825260208201905092915050565b600082825260208201905092915050565b600082825260208201905092915050565b600082825260208201905092915050565b6000612d376020840184611fef565b905092915050565b6000612d4a82612e61565b9150612d5583612e61565b9250827fffffffffffffffffffffffffffffffffffffffffffffffffffffffffffffffff03821115612d8a57612d89612f19565b5b828201905092915050565b6000612da082612e61565b9150612dab83612e61565b9250817fffffffffffffffffffffffffffffffffffffffffffffffffffffffffffffffff0483118215151615612de457612de3612f19565b5b828202905092915050565b6000612dfa82612e61565b9150612e0583612e61565b925082821015612e1857612e17612f19565b5b828203905092915050565b6000612e2e82612e41565b9050919050565b60008115159050919050565b600073ffffffffffffffffffffffffffffffffffffffff82169050919050565b6000819050919050565b60005b83811015612e89578082015181840152602081019050612e6e565b83811115612e98576000848401525b50505050565b60006002820490506001821680612eb657607f821691505b60208210811415612eca57612ec9612f48565b5b50919050565b6000612edb82612e61565b91507fffffffffffffffffffffffffffffffffffffffffffffffffffffffffffffffff821415612f0e57612f0d612f19565b5b600182019050919050565b7f4e487b7100000000000000000000000000000000000000000000000000000000600052601160045260246000fd5b7f4e487b7100000000000000000000000000000000000000000000000000000000600052602260045260246000fd5b6000601f19601f8301169050919050565b7f49442076616c75652073686f756c64206265206c657373207468616e204e465460008201527f5f49445f434f554e544552000000000000000000000000000000000000000000602082015250565b7f69642e696e6465782073686f756c6420626520636f72726563742e0000000000600082015250565b7f5468652077616c6c657420616464726573732073686f756c6420626520696e2060008201527f74686520617070726f766564206c6973742e0000000000000000000000000000602082015250565b7f696e76616c696420746f6b656e20616464726573730000000000000000000000600082015250565b7f4f776e61626c653a206e6577206f776e657220697320746865207a65726f206160008201527f6464726573730000000000000000000000000000000000000000000000000000602082015250565b7f4e6f7420656e6f756768207061796d656e742e00000000000000000000000000600082015250565b7f4f6c6420557365722042616c616e63652073686f756c6420626520677265617460008201527f6572207468616e207a65726f2e00000000000000000000000000000000000000602082015250565b7f54617267657420616464726573732063616e6e6f74206265206e756c6c000000600082015250565b7f416464726573732063616e6e6f74206265206e756c6c00000000000000000000600082015250565b7f4e465420547970652073686f756c64206265206c657373207468616e204e465460008201527f5f545950455f434f554e54455200000000000000000000000000000000000000602082015250565b7f496420616e6420416d6f756e74206172726179206c656e6774682073686f756c60008201527f6420626520657175616c2e000000000000000000000000000000000000000000602082015250565b7f4e46542049442073686f756c64206265206c657373207468616e204e46545f4960008201527f445f434f554e5445520000000000000000000000000000000000000000000000602082015250565b7f64737420616464726573732073686f756c6420626520696e207468652061707060008201527f726f766564206c6973742e000000000000000000000000000000000000000000602082015250565b7f73726320616464726573732073686f756c6420626520696e207468652061707060008201527f726f766564206c6973742e000000000000000000000000000000000000000000602082015250565b7f4f776e61626c653a2063616c6c6572206973206e6f7420746865206f776e6572600082015250565b7f4e6f7420656e6f75676820737570706c792e0000000000000000000000000000600082015250565b7f69642073686f756c64206265206c657373207468616e204e46545f545950455f60008201527f434f554e54455200000000000000000000000000000000000000000000000000602082015250565b7f53726320617265206e6f7420746865206f776e65722e00000000000000000000600082015250565b6133ef81612e23565b81146133fa57600080fd5b50565b61340681612e35565b811461341157600080fd5b50565b61341d81612e61565b811461342857600080fd5b5056fea2646970667358221220fc8b450ee324ada62a05f552566b8a152f534d6dd0082b4f6b30902d52692a8c64736f6c63430008040033",
  "linkReferences": {},
  "deployedLinkReferences": {}
}