{
  "_format": "hh-sol-artifact-1",
  "contractName": "ElumNFT",
  "sourceName": "contracts/ElumNFT.sol",
  "abi": [
    {
      "anonymous": false,
      "inputs": [
        {
          "indexed": true,
          "internalType": "address",
          "name": "previousOwner",
          "type": "address"
        },
        {
          "indexed": true,
          "internalType": "address",
          "name": "newOwner",
          "type": "address"
        }
      ],
      "name": "OwnershipTransferred",
      "type": "event"
    },
    {
      "inputs": [],
      "name": "MAX_NFT_PER_WALLET",
      "outputs": [
        {
          "internalType": "uint256",
          "name": "",
          "type": "uint256"
        }
      ],
      "stateMutability": "view",
      "type": "function"
    },
    {
      "inputs": [],
      "name": "NFT_ID_COUNTER",
      "outputs": [
        {
          "internalType": "uint256",
          "name": "",
          "type": "uint256"
        }
      ],
      "stateMutability": "view",
      "type": "function"
    },
    {
      "inputs": [
        {
          "internalType": "uint256",
          "name": "",
          "type": "uint256"
        }
      ],
      "name": "NFT_TO_INFO",
      "outputs": [
        {
          "internalType": "address",
          "name": "owner",
          "type": "address"
        },
        {
          "internalType": "uint256",
          "name": "nftType",
          "type": "uint256"
        },
        {
          "internalType": "uint256",
          "name": "acquireTime",
          "type": "uint256"
        },
        {
          "internalType": "uint256",
          "name": "index",
          "type": "uint256"
        }
      ],
      "stateMutability": "view",
      "type": "function"
    },
    {
      "inputs": [],
      "name": "NFT_TYPE_COUNTER",
      "outputs": [
        {
          "internalType": "uint256",
          "name": "",
          "type": "uint256"
        }
      ],
      "stateMutability": "view",
      "type": "function"
    },
    {
      "inputs": [
        {
          "internalType": "uint256",
          "name": "",
          "type": "uint256"
        }
      ],
      "name": "NFT_TYPE_INFO",
      "outputs": [
        {
          "internalType": "string",
          "name": "metadataURI",
          "type": "string"
        },
        {
          "internalType": "uint256",
          "name": "price",
          "type": "uint256"
        },
        {
          "internalType": "uint256",
          "name": "totalSupply",
          "type": "uint256"
        },
        {
          "internalType": "uint256",
          "name": "remainSupply",
          "type": "uint256"
        }
      ],
      "stateMutability": "view",
      "type": "function"
    },
    {
      "inputs": [
        {
          "internalType": "string",
          "name": "metadataURI",
          "type": "string"
        },
        {
          "internalType": "uint256",
          "name": "price",
          "type": "uint256"
        }
      ],
      "name": "addNewType",
      "outputs": [
        {
          "internalType": "uint256",
          "name": "",
          "type": "uint256"
        }
      ],
      "stateMutability": "nonpayable",
      "type": "function"
    },
    {
      "inputs": [
        {
          "internalType": "address",
          "name": "_address",
          "type": "address"
        }
      ],
      "name": "balanceOf",
      "outputs": [
        {
          "internalType": "uint256[]",
          "name": "",
          "type": "uint256[]"
        }
      ],
      "stateMutability": "view",
      "type": "function"
    },
    {
      "inputs": [
        {
          "internalType": "uint256",
          "name": "nftType",
          "type": "uint256"
        },
        {
          "internalType": "uint256",
          "name": "amount",
          "type": "uint256"
        }
      ],
      "name": "buyNFT",
      "outputs": [
        {
          "internalType": "bool",
          "name": "",
          "type": "bool"
        }
      ],
      "stateMutability": "payable",
      "type": "function"
    },
    {
      "inputs": [
        {
          "internalType": "address",
          "name": "_address",
          "type": "address"
        }
      ],
      "name": "getAcquiredTime",
      "outputs": [
        {
          "internalType": "uint256",
          "name": "",
          "type": "uint256"
        }
      ],
      "stateMutability": "view",
      "type": "function"
    },
    {
      "inputs": [],
      "name": "getNFTTypeInfo",
      "outputs": [
        {
          "components": [
            {
              "internalType": "string",
              "name": "metadataURI",
              "type": "string"
            },
            {
              "internalType": "uint256",
              "name": "price",
              "type": "uint256"
            },
            {
              "internalType": "uint256",
              "name": "totalSupply",
              "type": "uint256"
            },
            {
              "internalType": "uint256",
              "name": "remainSupply",
              "type": "uint256"
            }
          ],
          "internalType": "struct NFT_TYPE[]",
          "name": "",
          "type": "tuple[]"
        }
      ],
      "stateMutability": "view",
      "type": "function"
    },
    {
      "inputs": [],
      "name": "getTotalNFT",
      "outputs": [
        {
          "internalType": "uint256",
          "name": "",
          "type": "uint256"
        }
      ],
      "stateMutability": "view",
      "type": "function"
    },
    {
      "inputs": [
        {
          "internalType": "address",
          "name": "_address",
          "type": "address"
        },
        {
          "internalType": "uint256",
          "name": "nftID",
          "type": "uint256"
        }
      ],
      "name": "isOwner",
      "outputs": [
        {
          "internalType": "bool",
          "name": "",
          "type": "bool"
        }
      ],
      "stateMutability": "view",
      "type": "function"
    },
    {
      "inputs": [
        {
          "internalType": "uint256[]",
          "name": "ids",
          "type": "uint256[]"
        },
        {
          "internalType": "uint256[]",
          "name": "amounts",
          "type": "uint256[]"
        }
      ],
      "name": "mint",
      "outputs": [
        {
          "internalType": "bool",
          "name": "",
          "type": "bool"
        }
      ],
      "stateMutability": "nonpayable",
      "type": "function"
    },
    {
      "inputs": [],
      "name": "owner",
      "outputs": [
        {
          "internalType": "address",
          "name": "",
          "type": "address"
        }
      ],
      "stateMutability": "view",
      "type": "function"
    },
    {
      "inputs": [],
      "name": "renounceOwnership",
      "outputs": [],
      "stateMutability": "nonpayable",
      "type": "function"
    },
    {
      "inputs": [
        {
          "internalType": "uint256",
          "name": "count",
          "type": "uint256"
        }
      ],
      "name": "setMaxNFTPerWallet",
      "outputs": [
        {
          "internalType": "bool",
          "name": "",
          "type": "bool"
        }
      ],
      "stateMutability": "nonpayable",
      "type": "function"
    },
    {
      "inputs": [
        {
          "internalType": "address",
          "name": "_token_address",
          "type": "address"
        }
      ],
      "name": "setTokenAddress",
      "outputs": [],
      "stateMutability": "nonpayable",
      "type": "function"
    },
    {
      "inputs": [],
      "name": "token_address",
      "outputs": [
        {
          "internalType": "address",
          "name": "",
          "type": "address"
        }
      ],
      "stateMutability": "view",
      "type": "function"
    },
    {
      "inputs": [
        {
          "internalType": "uint256[]",
          "name": "ids",
          "type": "uint256[]"
        },
        {
          "internalType": "address",
          "name": "to",
          "type": "address"
        }
      ],
      "name": "transferNFT",
      "outputs": [],
      "stateMutability": "nonpayable",
      "type": "function"
    },
    {
      "inputs": [
        {
          "internalType": "address",
          "name": "newOwner",
          "type": "address"
        }
      ],
      "name": "transferOwnership",
      "outputs": [],
      "stateMutability": "nonpayable",
      "type": "function"
    },
    {
      "inputs": [
        {
          "internalType": "uint256",
          "name": "nftID",
          "type": "uint256"
        },
        {
          "internalType": "string",
          "name": "metadataURI",
          "type": "string"
        },
        {
          "internalType": "uint256",
          "name": "price",
          "type": "uint256"
        }
      ],
      "name": "updateType",
      "outputs": [],
      "stateMutability": "nonpayable",
      "type": "function"
    }
  ],
  "bytecode": "0x60806040526000600155600060025560006003553480156200002057600080fd5b5062000041620000356200004760201b60201c565b6200004f60201b60201c565b62000113565b600033905090565b60008060009054906101000a900473ffffffffffffffffffffffffffffffffffffffff169050816000806101000a81548173ffffffffffffffffffffffffffffffffffffffff021916908373ffffffffffffffffffffffffffffffffffffffff1602179055508173ffffffffffffffffffffffffffffffffffffffff168173ffffffffffffffffffffffffffffffffffffffff167f8be0079c531659141344cd1fd0a4f28419497f9722a3daafe3b4186f6b6457e060405160405180910390a35050565b61303f80620001236000396000f3fe60806040526004361061012a5760003560e01c80638c8e8fee116100ab578063e2bea1ec1161006f578063e2bea1ec14610401578063e327a6af1461042a578063e832565b14610467578063f2fde38b146104a4578063fcc2278b146104cd578063ffc47c591461050a5761012a565b80638c8e8fee146103185780638da5cb5b14610343578063b5a372601461036e578063bcf16f2d146103ab578063d7b1b216146103d65761012a565b8063337b81f6116100f2578063337b81f6146102335780633d5d190c1461025c5780636b01e7511461029957806370a08231146102c4578063715018a6146103015761012a565b806303356c401461012f578063047b7b411461016f57806305f693cf146101af5780631d85bf03146101da57806326a4e8d21461020a575b600080fd5b34801561013b57600080fd5b5061015660048036038101906101519190612122565b610535565b60405161016694939291906126f2565b60405180910390f35b34801561017b57600080fd5b5061019660048036038101906101919190612122565b6105fd565b6040516101a6949392919061264e565b60405180910390f35b3480156101bb57600080fd5b506101c461064d565b6040516101d19190612693565b60405180910390f35b6101f460048036038101906101ef91906121b7565b61075c565b60405161020191906126d7565b60405180910390f35b34801561021657600080fd5b50610231600480360381019061022c9190611f98565b610b5d565b005b34801561023f57600080fd5b5061025a6004803603810190610255919061214b565b610c19565b005b34801561026857600080fd5b50610283600480360381019061027e9190612055565b610db8565b60405161029091906126d7565b60405180910390f35b3480156102a557600080fd5b506102ae61107b565b6040516102bb919061293e565b60405180910390f35b3480156102d057600080fd5b506102eb60048036038101906102e69190611f98565b611081565b6040516102f891906126b5565b60405180910390f35b34801561030d57600080fd5b5061031661111b565b005b34801561032457600080fd5b5061032d61112f565b60405161033a9190612633565b60405180910390f35b34801561034f57600080fd5b50610358611155565b6040516103659190612633565b60405180910390f35b34801561037a57600080fd5b5061039560048036038101906103909190612122565b61117e565b6040516103a291906126d7565b60405180910390f35b3480156103b757600080fd5b506103c0611198565b6040516103cd919061293e565b60405180910390f35b3480156103e257600080fd5b506103eb6111a2565b6040516103f8919061293e565b60405180910390f35b34801561040d57600080fd5b5061042860048036038101906104239190611ffd565b6111a8565b005b34801561043657600080fd5b50610451600480360381019061044c9190611fc1565b6118f9565b60405161045e91906126d7565b60405180910390f35b34801561047357600080fd5b5061048e60048036038101906104899190611f98565b611a1c565b60405161049b919061293e565b60405180910390f35b3480156104b057600080fd5b506104cb60048036038101906104c69190611f98565b611a9f565b005b3480156104d957600080fd5b506104f460048036038101906104ef91906120ca565b611b23565b604051610501919061293e565b60405180910390f35b34801561051657600080fd5b5061051f611c39565b60405161052c919061293e565b60405180910390f35b6004818154811061054557600080fd5b906000526020600020906004020160009150905080600001805461056890612b57565b80601f016020809104026020016040519081016040528092919081815260200182805461059490612b57565b80156105e15780601f106105b6576101008083540402835291602001916105e1565b820191906000526020600020905b8154815290600101906020018083116105c457829003601f168201915b5050505050908060010154908060020154908060030154905084565b60066020528060005260406000206000915090508060000160009054906101000a900473ffffffffffffffffffffffffffffffffffffffff16908060010154908060020154908060030154905084565b60606004805480602002602001604051908101604052809291908181526020016000905b8282101561075357838290600052602060002090600402016040518060800160405290816000820180546106a490612b57565b80601f01602080910402602001604051908101604052809291908181526020018280546106d090612b57565b801561071d5780601f106106f25761010080835404028352916020019161071d565b820191906000526020600020905b81548152906001019060200180831161070057829003601f168201915b50505050508152602001600182015481526020016002820154815260200160038201548152505081526020019060010190610671565b50505050905090565b600060015483106107a2576040517f08c379a00000000000000000000000000000000000000000000000000000000081526004016107999061283e565b60405180910390fd5b81600484815481106107dd577f4e487b7100000000000000000000000000000000000000000000000000000000600052603260045260246000fd5b9060005260206000209060040201600301541015610830576040517f08c379a0000000000000000000000000000000000000000000000000000000008152600401610827906128de565b60405180910390fd5b6004838154811061086a577f4e487b7100000000000000000000000000000000000000000000000000000000600052603260045260246000fd5b906000526020600020906004020160010154826108879190612a4e565b3410156108c9576040517f08c379a00000000000000000000000000000000000000000000000000000000081526004016108c0906127be565b60405180910390fd5b60035482600560003373ffffffffffffffffffffffffffffffffffffffff1673ffffffffffffffffffffffffffffffffffffffff1681526020019081526020016000206000018054905061091d91906129f8565b111561095e576040517f08c379a00000000000000000000000000000000000000000000000000000000081526004016109559061289e565b60405180910390fd5b60005b82811015610af0573360066000600254815260200190815260200160002060000160006101000a81548173ffffffffffffffffffffffffffffffffffffffff021916908373ffffffffffffffffffffffffffffffffffffffff16021790555083600660006002548152602001908152602001600020600101819055504260066000600254815260200190815260200160002060020181905550600560003373ffffffffffffffffffffffffffffffffffffffff1673ffffffffffffffffffffffffffffffffffffffff1681526020019081526020016000206000018054905060066000600254815260200190815260200160002060030181905550600560003373ffffffffffffffffffffffffffffffffffffffff1673ffffffffffffffffffffffffffffffffffffffff1681526020019081526020016000206000016002549080600181540180825580915050600190039060005260206000200160009091909190915055600260008154610ad690612b89565b919050819055508080610ae890612b89565b915050610961565b508160048481548110610b2c577f4e487b7100000000000000000000000000000000000000000000000000000000600052603260045260246000fd5b90600052602060002090600402016003016000828254610b4c9190612aa8565b925050819055506001905092915050565b610b65611c3f565b600073ffffffffffffffffffffffffffffffffffffffff168173ffffffffffffffffffffffffffffffffffffffff161415610bd5576040517f08c379a0000000000000000000000000000000000000000000000000000000008152600401610bcc9061277e565b60405180910390fd5b80600760006101000a81548173ffffffffffffffffffffffffffffffffffffffff021916908373ffffffffffffffffffffffffffffffffffffffff16021790555050565b610c21611c3f565b6001548410610c65576040517f08c379a0000000000000000000000000000000000000000000000000000000008152600401610c5c906128fe565b60405180910390fd5b828260048681548110610ca1577f4e487b7100000000000000000000000000000000000000000000000000000000600052603260045260246000fd5b90600052602060002090600402016000019190610cbf929190611d89565b508060048581548110610cfb577f4e487b7100000000000000000000000000000000000000000000000000000000600052603260045260246000fd5b906000526020600020906004020160010181905550600060048581548110610d4c577f4e487b7100000000000000000000000000000000000000000000000000000000600052603260045260246000fd5b906000526020600020906004020160020181905550600060048581548110610d9d577f4e487b7100000000000000000000000000000000000000000000000000000000600052603260045260246000fd5b90600052602060002090600402016003018190555050505050565b6000610dc2611c3f565b828290508585905014610e0a576040517f08c379a0000000000000000000000000000000000000000000000000000000008152600401610e019061285e565b60405180910390fd5b60005b8585905081101561106e57600154868683818110610e54577f4e487b7100000000000000000000000000000000000000000000000000000000600052603260045260246000fd5b9050602002013510610e9b576040517f08c379a0000000000000000000000000000000000000000000000000000000008152600401610e92906128fe565b60405180910390fd5b838382818110610ed4577f4e487b7100000000000000000000000000000000000000000000000000000000600052603260045260246000fd5b905060200201356004878784818110610f16577f4e487b7100000000000000000000000000000000000000000000000000000000600052603260045260246000fd5b9050602002013581548110610f54577f4e487b7100000000000000000000000000000000000000000000000000000000600052603260045260246000fd5b90600052602060002090600402016002016000828254610f7491906129f8565b92505081905550838382818110610fb4577f4e487b7100000000000000000000000000000000000000000000000000000000600052603260045260246000fd5b905060200201356004878784818110610ff6577f4e487b7100000000000000000000000000000000000000000000000000000000600052603260045260246000fd5b9050602002013581548110611034577f4e487b7100000000000000000000000000000000000000000000000000000000600052603260045260246000fd5b9060005260206000209060040201600301600082825461105491906129f8565b92505081905550808061106690612b89565b915050610e0d565b5060019050949350505050565b60025481565b6060600560008373ffffffffffffffffffffffffffffffffffffffff1673ffffffffffffffffffffffffffffffffffffffff16815260200190815260200160002060000180548060200260200160405190810160405280929190818152602001828054801561110f57602002820191906000526020600020905b8154815260200190600101908083116110fb575b50505050509050919050565b611123611c3f565b61112d6000611cbd565b565b600760009054906101000a900473ffffffffffffffffffffffffffffffffffffffff1681565b60008060009054906101000a900473ffffffffffffffffffffffffffffffffffffffff16905090565b6000611188611c3f565b8160038190555060019050919050565b6000600254905090565b60035481565b600073ffffffffffffffffffffffffffffffffffffffff168173ffffffffffffffffffffffffffffffffffffffff161415611218576040517f08c379a000000000000000000000000000000000000000000000000000000000815260040161120f906127fe565b60405180910390fd5b60035483839050600560008473ffffffffffffffffffffffffffffffffffffffff1673ffffffffffffffffffffffffffffffffffffffff1681526020019081526020016000206000018054905061126f91906129f8565b11156112b0576040517f08c379a00000000000000000000000000000000000000000000000000000000081526004016112a79061289e565b60405180910390fd5b60005b838390508110156118f35760008484838181106112f9577f4e487b7100000000000000000000000000000000000000000000000000000000600052603260045260246000fd5b9050602002013590506002548110611346576040517f08c379a000000000000000000000000000000000000000000000000000000000815260040161133d9061273e565b60405180910390fd5b3373ffffffffffffffffffffffffffffffffffffffff166006600083815260200190815260200160002060000160009054906101000a900473ffffffffffffffffffffffffffffffffffffffff1673ffffffffffffffffffffffffffffffffffffffff16146113ea576040517f08c379a00000000000000000000000000000000000000000000000000000000081526004016113e19061291e565b60405180910390fd5b826006600083815260200190815260200160002060000160006101000a81548173ffffffffffffffffffffffffffffffffffffffff021916908373ffffffffffffffffffffffffffffffffffffffff16021790555042600660008381526020019081526020016000206002018190555060006006600083815260200190815260200160002060030154905081600560003373ffffffffffffffffffffffffffffffffffffffff1673ffffffffffffffffffffffffffffffffffffffff16815260200190815260200160002060000182815481106114f0577f4e487b7100000000000000000000000000000000000000000000000000000000600052603260045260246000fd5b90600052602060002001541461153b576040517f08c379a00000000000000000000000000000000000000000000000000000000081526004016115329061275e565b60405180910390fd5b6000600560003373ffffffffffffffffffffffffffffffffffffffff1673ffffffffffffffffffffffffffffffffffffffff168152602001908152602001600020600001805490509050600081116115c8576040517f08c379a00000000000000000000000000000000000000000000000000000000081526004016115bf906127de565b60405180910390fd5b600560003373ffffffffffffffffffffffffffffffffffffffff1673ffffffffffffffffffffffffffffffffffffffff1681526020019081526020016000206000016001826116179190612aa8565b8154811061164e577f4e487b7100000000000000000000000000000000000000000000000000000000600052603260045260246000fd5b9060005260206000200154600560003373ffffffffffffffffffffffffffffffffffffffff1673ffffffffffffffffffffffffffffffffffffffff16815260200190815260200160002060000183815481106116d3577f4e487b7100000000000000000000000000000000000000000000000000000000600052603260045260246000fd5b90600052602060002001819055508160066000600560003373ffffffffffffffffffffffffffffffffffffffff1673ffffffffffffffffffffffffffffffffffffffff1681526020019081526020016000206000018581548110611760577f4e487b7100000000000000000000000000000000000000000000000000000000600052603260045260246000fd5b9060005260206000200154815260200190815260200160002060030181905550600560003373ffffffffffffffffffffffffffffffffffffffff1673ffffffffffffffffffffffffffffffffffffffff1681526020019081526020016000206000018054806117f8577f4e487b7100000000000000000000000000000000000000000000000000000000600052603160045260246000fd5b600190038181906000526020600020016000905590556000600560008773ffffffffffffffffffffffffffffffffffffffff1673ffffffffffffffffffffffffffffffffffffffff168152602001908152602001600020600001805490509050600560008773ffffffffffffffffffffffffffffffffffffffff1673ffffffffffffffffffffffffffffffffffffffff1681526020019081526020016000206000018490806001815401808255809150506001900390600052602060002001600090919091909150558060066000868152602001908152602001600020600301819055505050505080806118eb90612b89565b9150506112b3565b50505050565b6000600254821061193f576040517f08c379a00000000000000000000000000000000000000000000000000000000081526004016119369061287e565b60405180910390fd5b600073ffffffffffffffffffffffffffffffffffffffff168373ffffffffffffffffffffffffffffffffffffffff1614156119af576040517f08c379a00000000000000000000000000000000000000000000000000000000081526004016119a69061281e565b60405180910390fd5b8273ffffffffffffffffffffffffffffffffffffffff166006600084815260200190815260200160002060000160009054906101000a900473ffffffffffffffffffffffffffffffffffffffff1673ffffffffffffffffffffffffffffffffffffffff1614905092915050565b600080611a2883611081565b9050600081511415611a3e576000915050611a9a565b6006600082600081518110611a7c577f4e487b7100000000000000000000000000000000000000000000000000000000600052603260045260246000fd5b60200260200101518152602001908152602001600020600201549150505b919050565b611aa7611c3f565b600073ffffffffffffffffffffffffffffffffffffffff168173ffffffffffffffffffffffffffffffffffffffff161415611b17576040517f08c379a0000000000000000000000000000000000000000000000000000000008152600401611b0e9061279e565b60405180910390fd5b611b2081611cbd565b50565b6000611b2d611c3f565b611b35611e0f565b84848080601f016020809104026020016040519081016040528093929190818152602001838380828437600081840152601f19601f820116905080830192505050505050508160000181905250828160200181815250506000816040018181525050600081606001818152505060048190806001815401808255809150506001900390600052602060002090600402016000909190919091506000820151816000019080519060200190611bea929190611e37565b506020820151816001015560408201518160020155606082015181600301555050600160008154611c1a90612b89565b9190508190555060018054611c2f9190612aa8565b9150509392505050565b60015481565b611c47611d81565b73ffffffffffffffffffffffffffffffffffffffff16611c65611155565b73ffffffffffffffffffffffffffffffffffffffff1614611cbb576040517f08c379a0000000000000000000000000000000000000000000000000000000008152600401611cb2906128be565b60405180910390fd5b565b60008060009054906101000a900473ffffffffffffffffffffffffffffffffffffffff169050816000806101000a81548173ffffffffffffffffffffffffffffffffffffffff021916908373ffffffffffffffffffffffffffffffffffffffff1602179055508173ffffffffffffffffffffffffffffffffffffffff168173ffffffffffffffffffffffffffffffffffffffff167f8be0079c531659141344cd1fd0a4f28419497f9722a3daafe3b4186f6b6457e060405160405180910390a35050565b600033905090565b828054611d9590612b57565b90600052602060002090601f016020900481019282611db75760008555611dfe565b82601f10611dd057803560ff1916838001178555611dfe565b82800160010185558215611dfe579182015b82811115611dfd578235825591602001919060010190611de2565b5b509050611e0b9190611ebd565b5090565b6040518060800160405280606081526020016000815260200160008152602001600081525090565b828054611e4390612b57565b90600052602060002090601f016020900481019282611e655760008555611eac565b82601f10611e7e57805160ff1916838001178555611eac565b82800160010185558215611eac579182015b82811115611eab578251825591602001919060010190611e90565b5b509050611eb99190611ebd565b5090565b5b80821115611ed6576000816000905550600101611ebe565b5090565b600081359050611ee981612fdb565b92915050565b60008083601f840112611f0157600080fd5b8235905067ffffffffffffffff811115611f1a57600080fd5b602083019150836020820283011115611f3257600080fd5b9250929050565b60008083601f840112611f4b57600080fd5b8235905067ffffffffffffffff811115611f6457600080fd5b602083019150836001820283011115611f7c57600080fd5b9250929050565b600081359050611f9281612ff2565b92915050565b600060208284031215611faa57600080fd5b6000611fb884828501611eda565b91505092915050565b60008060408385031215611fd457600080fd5b6000611fe285828601611eda565b9250506020611ff385828601611f83565b9150509250929050565b60008060006040848603121561201257600080fd5b600084013567ffffffffffffffff81111561202c57600080fd5b61203886828701611eef565b9350935050602061204b86828701611eda565b9150509250925092565b6000806000806040858703121561206b57600080fd5b600085013567ffffffffffffffff81111561208557600080fd5b61209187828801611eef565b9450945050602085013567ffffffffffffffff8111156120b057600080fd5b6120bc87828801611eef565b925092505092959194509250565b6000806000604084860312156120df57600080fd5b600084013567ffffffffffffffff8111156120f957600080fd5b61210586828701611f39565b9350935050602061211886828701611f83565b9150509250925092565b60006020828403121561213457600080fd5b600061214284828501611f83565b91505092915050565b6000806000806060858703121561216157600080fd5b600061216f87828801611f83565b945050602085013567ffffffffffffffff81111561218c57600080fd5b61219887828801611f39565b935093505060406121ab87828801611f83565b91505092959194509250565b600080604083850312156121ca57600080fd5b60006121d885828601611f83565b92505060206121e985828601611f83565b9150509250929050565b60006121ff83836125b2565b905092915050565b60006122138383612615565b60208301905092915050565b61222881612adc565b82525050565b600061223982612979565b61224381856129b4565b93508360208202850161225585612959565b8060005b85811015612291578484038952815161227285826121f3565b945061227d8361299a565b925060208a01995050600181019050612259565b50829750879550505050505092915050565b60006122ae82612984565b6122b881856129c5565b93506122c383612969565b8060005b838110156122f45781516122db8882612207565b97506122e6836129a7565b9250506001810190506122c7565b5085935050505092915050565b61230a81612aee565b82525050565b600061231b8261298f565b61232581856129d6565b9350612335818560208601612b24565b61233e81612c30565b840191505092915050565b60006123548261298f565b61235e81856129e7565b935061236e818560208601612b24565b61237781612c30565b840191505092915050565b600061238f602b836129e7565b915061239a82612c41565b604082019050919050565b60006123b2601b836129e7565b91506123bd82612c90565b602082019050919050565b60006123d56015836129e7565b91506123e082612cb9565b602082019050919050565b60006123f86026836129e7565b915061240382612ce2565b604082019050919050565b600061241b6013836129e7565b915061242682612d31565b602082019050919050565b600061243e602d836129e7565b915061244982612d5a565b604082019050919050565b6000612461601d836129e7565b915061246c82612da9565b602082019050919050565b60006124846016836129e7565b915061248f82612dd2565b602082019050919050565b60006124a7602d836129e7565b91506124b282612dfb565b604082019050919050565b60006124ca602b836129e7565b91506124d582612e4a565b604082019050919050565b60006124ed6029836129e7565b91506124f882612e99565b604082019050919050565b6000612510601f836129e7565b915061251b82612ee8565b602082019050919050565b60006125336020836129e7565b915061253e82612f11565b602082019050919050565b60006125566012836129e7565b915061256182612f3a565b602082019050919050565b60006125796027836129e7565b915061258482612f63565b604082019050919050565b600061259c6016836129e7565b91506125a782612fb2565b602082019050919050565b600060808301600083015184820360008601526125cf8282612310565b91505060208301516125e46020860182612615565b5060408301516125f76040860182612615565b50606083015161260a6060860182612615565b508091505092915050565b61261e81612b1a565b82525050565b61262d81612b1a565b82525050565b6000602082019050612648600083018461221f565b92915050565b6000608082019050612663600083018761221f565b6126706020830186612624565b61267d6040830185612624565b61268a6060830184612624565b95945050505050565b600060208201905081810360008301526126ad818461222e565b905092915050565b600060208201905081810360008301526126cf81846122a3565b905092915050565b60006020820190506126ec6000830184612301565b92915050565b6000608082019050818103600083015261270c8187612349565b905061271b6020830186612624565b6127286040830185612624565b6127356060830184612624565b95945050505050565b6000602082019050818103600083015261275781612382565b9050919050565b60006020820190508181036000830152612777816123a5565b9050919050565b60006020820190508181036000830152612797816123c8565b9050919050565b600060208201905081810360008301526127b7816123eb565b9050919050565b600060208201905081810360008301526127d78161240e565b9050919050565b600060208201905081810360008301526127f781612431565b9050919050565b6000602082019050818103600083015261281781612454565b9050919050565b6000602082019050818103600083015261283781612477565b9050919050565b600060208201905081810360008301526128578161249a565b9050919050565b60006020820190508181036000830152612877816124bd565b9050919050565b60006020820190508181036000830152612897816124e0565b9050919050565b600060208201905081810360008301526128b781612503565b9050919050565b600060208201905081810360008301526128d781612526565b9050919050565b600060208201905081810360008301526128f781612549565b9050919050565b600060208201905081810360008301526129178161256c565b9050919050565b600060208201905081810360008301526129378161258f565b9050919050565b60006020820190506129536000830184612624565b92915050565b6000819050602082019050919050565b6000819050602082019050919050565b600081519050919050565b600081519050919050565b600081519050919050565b6000602082019050919050565b6000602082019050919050565b600082825260208201905092915050565b600082825260208201905092915050565b600082825260208201905092915050565b600082825260208201905092915050565b6000612a0382612b1a565b9150612a0e83612b1a565b9250827fffffffffffffffffffffffffffffffffffffffffffffffffffffffffffffffff03821115612a4357612a42612bd2565b5b828201905092915050565b6000612a5982612b1a565b9150612a6483612b1a565b9250817fffffffffffffffffffffffffffffffffffffffffffffffffffffffffffffffff0483118215151615612a9d57612a9c612bd2565b5b828202905092915050565b6000612ab382612b1a565b9150612abe83612b1a565b925082821015612ad157612ad0612bd2565b5b828203905092915050565b6000612ae782612afa565b9050919050565b60008115159050919050565b600073ffffffffffffffffffffffffffffffffffffffff82169050919050565b6000819050919050565b60005b83811015612b42578082015181840152602081019050612b27565b83811115612b51576000848401525b50505050565b60006002820490506001821680612b6f57607f821691505b60208210811415612b8357612b82612c01565b5b50919050565b6000612b9482612b1a565b91507fffffffffffffffffffffffffffffffffffffffffffffffffffffffffffffffff821415612bc757612bc6612bd2565b5b600182019050919050565b7f4e487b7100000000000000000000000000000000000000000000000000000000600052601160045260246000fd5b7f4e487b7100000000000000000000000000000000000000000000000000000000600052602260045260246000fd5b6000601f19601f8301169050919050565b7f49442076616c75652073686f756c64206265206c657373207468616e204e465460008201527f5f49445f434f554e544552000000000000000000000000000000000000000000602082015250565b7f69642e696e6465782073686f756c6420626520636f72726563742e0000000000600082015250565b7f696e76616c696420746f6b656e20616464726573730000000000000000000000600082015250565b7f4f776e61626c653a206e6577206f776e657220697320746865207a65726f206160008201527f6464726573730000000000000000000000000000000000000000000000000000602082015250565b7f4e6f7420656e6f756768207061796d656e742e00000000000000000000000000600082015250565b7f4f6c6420557365722042616c616e63652073686f756c6420626520677265617460008201527f6572207468616e207a65726f2e00000000000000000000000000000000000000602082015250565b7f54617267657420616464726573732063616e6e6f74206265206e756c6c000000600082015250565b7f416464726573732063616e6e6f74206265206e756c6c00000000000000000000600082015250565b7f4e465420547970652073686f756c64206265206c657373207468616e204e465460008201527f5f545950455f434f554e54455200000000000000000000000000000000000000602082015250565b7f496420616e6420416d6f756e74206172726179206c656e6774682073686f756c60008201527f6420626520657175616c2e000000000000000000000000000000000000000000602082015250565b7f4e46542049442073686f756c64206265206c657373207468616e204e46545f4960008201527f445f434f554e5445520000000000000000000000000000000000000000000000602082015250565b7f54686520746f74616c206e756d6265722063616e6e6f74206578636565642e00600082015250565b7f4f776e61626c653a2063616c6c6572206973206e6f7420746865206f776e6572600082015250565b7f4e6f7420656e6f75676820737570706c792e0000000000000000000000000000600082015250565b7f69642073686f756c64206265206c657373207468616e204e46545f545950455f60008201527f434f554e54455200000000000000000000000000000000000000000000000000602082015250565b7f53726320617265206e6f7420746865206f776e65722e00000000000000000000600082015250565b612fe481612adc565b8114612fef57600080fd5b50565b612ffb81612b1a565b811461300657600080fd5b5056fea26469706673582212202d805868a927ddf232dcf547ab2a36b1f9687327fa9ecfb6a5c269b94cde9db464736f6c63430008040033",
  "linkReferences": {},
  "deployedLinkReferences": {}
}