{
  "_format": "hh-sol-artifact-1",
  "contractName": "ElumNFT",
  "sourceName": "contracts/ElumNFT.sol",
  "abi": [
    {
      "anonymous": false,
      "inputs": [
        {
          "indexed": false,
          "internalType": "address[]",
          "name": "",
          "type": "address[]"
        },
        {
          "indexed": false,
          "internalType": "bool",
          "name": "",
          "type": "bool"
        }
      ],
      "name": "AffectWhiteList",
      "type": "event"
    },
    {
      "anonymous": false,
      "inputs": [
        {
          "indexed": true,
          "internalType": "address",
          "name": "previousOwner",
          "type": "address"
        },
        {
          "indexed": true,
          "internalType": "address",
          "name": "newOwner",
          "type": "address"
        }
      ],
      "name": "OwnershipTransferred",
      "type": "event"
    },
    {
      "inputs": [],
      "name": "NFT_ID_COUNTER",
      "outputs": [
        {
          "internalType": "uint256",
          "name": "",
          "type": "uint256"
        }
      ],
      "stateMutability": "view",
      "type": "function"
    },
    {
      "inputs": [],
      "name": "NFT_TYPE_COUNTER",
      "outputs": [
        {
          "internalType": "uint256",
          "name": "",
          "type": "uint256"
        }
      ],
      "stateMutability": "view",
      "type": "function"
    },
    {
      "inputs": [
        {
          "internalType": "string",
          "name": "metadataURI",
          "type": "string"
        },
        {
          "internalType": "uint256",
          "name": "price",
          "type": "uint256"
        }
      ],
      "name": "addNewType",
      "outputs": [
        {
          "internalType": "uint256",
          "name": "",
          "type": "uint256"
        }
      ],
      "stateMutability": "nonpayable",
      "type": "function"
    },
    {
      "inputs": [
        {
          "internalType": "address[]",
          "name": "_addressList",
          "type": "address[]"
        },
        {
          "internalType": "bool",
          "name": "isApprove",
          "type": "bool"
        }
      ],
      "name": "affectWhiteList",
      "outputs": [],
      "stateMutability": "nonpayable",
      "type": "function"
    },
    {
      "inputs": [
        {
          "internalType": "address",
          "name": "_address",
          "type": "address"
        }
      ],
      "name": "balanceOf",
      "outputs": [
        {
          "internalType": "uint256[]",
          "name": "",
          "type": "uint256[]"
        }
      ],
      "stateMutability": "view",
      "type": "function"
    },
    {
      "inputs": [
        {
          "internalType": "uint256",
          "name": "nftType",
          "type": "uint256"
        },
        {
          "internalType": "uint256",
          "name": "amount",
          "type": "uint256"
        }
      ],
      "name": "buyNFT",
      "outputs": [
        {
          "internalType": "bool",
          "name": "",
          "type": "bool"
        }
      ],
      "stateMutability": "payable",
      "type": "function"
    },
    {
      "inputs": [
        {
          "internalType": "address",
          "name": "addr",
          "type": "address"
        }
      ],
      "name": "isWhiteLists",
      "outputs": [
        {
          "internalType": "bool",
          "name": "",
          "type": "bool"
        }
      ],
      "stateMutability": "view",
      "type": "function"
    },
    {
      "inputs": [
        {
          "internalType": "uint256[]",
          "name": "ids",
          "type": "uint256[]"
        },
        {
          "internalType": "uint256[]",
          "name": "amounts",
          "type": "uint256[]"
        }
      ],
      "name": "mint",
      "outputs": [
        {
          "internalType": "bool",
          "name": "",
          "type": "bool"
        }
      ],
      "stateMutability": "nonpayable",
      "type": "function"
    },
    {
      "inputs": [],
      "name": "owner",
      "outputs": [
        {
          "internalType": "address",
          "name": "",
          "type": "address"
        }
      ],
      "stateMutability": "view",
      "type": "function"
    },
    {
      "inputs": [],
      "name": "renounceOwnership",
      "outputs": [],
      "stateMutability": "nonpayable",
      "type": "function"
    },
    {
      "inputs": [
        {
          "internalType": "address",
          "name": "_token_address",
          "type": "address"
        }
      ],
      "name": "setTokenAddress",
      "outputs": [],
      "stateMutability": "nonpayable",
      "type": "function"
    },
    {
      "inputs": [],
      "name": "token_address",
      "outputs": [
        {
          "internalType": "address",
          "name": "",
          "type": "address"
        }
      ],
      "stateMutability": "view",
      "type": "function"
    },
    {
      "inputs": [
        {
          "internalType": "uint256[]",
          "name": "ids",
          "type": "uint256[]"
        },
        {
          "internalType": "address",
          "name": "to",
          "type": "address"
        }
      ],
      "name": "transferNFT",
      "outputs": [],
      "stateMutability": "nonpayable",
      "type": "function"
    },
    {
      "inputs": [
        {
          "internalType": "address",
          "name": "newOwner",
          "type": "address"
        }
      ],
      "name": "transferOwnership",
      "outputs": [],
      "stateMutability": "nonpayable",
      "type": "function"
    },
    {
      "inputs": [
        {
          "internalType": "uint256",
          "name": "nftID",
          "type": "uint256"
        },
        {
          "internalType": "string",
          "name": "metadataURI",
          "type": "string"
        },
        {
          "internalType": "uint256",
          "name": "price",
          "type": "uint256"
        }
      ],
      "name": "updateType",
      "outputs": [],
      "stateMutability": "nonpayable",
      "type": "function"
    }
  ],
  "bytecode": "0x6080604052600060015560006002553480156200001b57600080fd5b506200003c620000306200004260201b60201c565b6200004a60201b60201c565b6200010e565b600033905090565b60008060009054906101000a900473ffffffffffffffffffffffffffffffffffffffff169050816000806101000a81548173ffffffffffffffffffffffffffffffffffffffff021916908373ffffffffffffffffffffffffffffffffffffffff1602179055508173ffffffffffffffffffffffffffffffffffffffff168173ffffffffffffffffffffffffffffffffffffffff167f8be0079c531659141344cd1fd0a4f28419497f9722a3daafe3b4186f6b6457e060405160405180910390a35050565b61270b806200011e6000396000f3fe6080604052600436106100e85760003560e01c8063715018a61161008a578063e2bea1ec11610059578063e2bea1ec146102e7578063f2fde38b14610310578063fcc2278b14610339578063ffc47c5914610376576100e8565b8063715018a61461023d5780638c8e8fee146102545780638da5cb5b1461027f578063bb549536146102aa576100e8565b80633d5d190c116100c65780633d5d190c1461016f578063490a27c4146101ac5780636b01e751146101d557806370a0823114610200576100e8565b80631d85bf03146100ed57806326a4e8d21461011d578063337b81f614610146575b600080fd5b61010760048036038101906101029190611a41565b6103a1565b6040516101149190611e2f565b60405180910390f35b34801561012957600080fd5b50610144600480360381019061013f919061182f565b610653565b005b34801561015257600080fd5b5061016d600480360381019061016891906119d5565b61070f565b005b34801561017b57600080fd5b5061019660048036038101906101919190611908565b6107da565b6040516101a39190611e2f565b60405180910390f35b3480156101b857600080fd5b506101d360048036038101906101ce9190611858565b610a33565b005b3480156101e157600080fd5b506101ea610b41565b6040516101f7919061202a565b60405180910390f35b34801561020c57600080fd5b506102276004803603810190610222919061182f565b610b47565b6040516102349190611e0d565b60405180910390f35b34801561024957600080fd5b50610252610be1565b005b34801561026057600080fd5b50610269610bf5565b6040516102769190611dc0565b60405180910390f35b34801561028b57600080fd5b50610294610c1b565b6040516102a19190611dc0565b60405180910390f35b3480156102b657600080fd5b506102d160048036038101906102cc919061182f565b610c44565b6040516102de9190611e2f565b60405180910390f35b3480156102f357600080fd5b5061030e600480360381019061030991906118b0565b610c9a565b005b34801561031c57600080fd5b506103376004803603810190610332919061182f565b6113e3565b005b34801561034557600080fd5b50610360600480360381019061035b919061197d565b611467565b60405161036d919061202a565b60405180910390f35b34801561038257600080fd5b5061038b61151f565b604051610398919061202a565b60405180910390f35b60006103ac33610c44565b6103eb576040517f08c379a00000000000000000000000000000000000000000000000000000000081526004016103e290611e8a565b60405180910390fd5b600154831061042f576040517f08c379a000000000000000000000000000000000000000000000000000000000815260040161042690611f2a565b60405180910390fd5b8160036000858152602001908152602001600020600301541015610488576040517f08c379a000000000000000000000000000000000000000000000000000000000815260040161047f90611fca565b60405180910390fd5b6003600084815260200190815260200160002060010154826104aa9190612124565b3410156104b657600080fd5b60005b82811015610648573360056000600254815260200190815260200160002060000160006101000a81548173ffffffffffffffffffffffffffffffffffffffff021916908373ffffffffffffffffffffffffffffffffffffffff16021790555083600560006002548152602001908152602001600020600101819055504260056000600254815260200190815260200160002060020181905550600460003373ffffffffffffffffffffffffffffffffffffffff1673ffffffffffffffffffffffffffffffffffffffff1681526020019081526020016000206000018054905060056000600254815260200190815260200160002060030181905550600460003373ffffffffffffffffffffffffffffffffffffffff1673ffffffffffffffffffffffffffffffffffffffff168152602001908152602001600020600001600254908060018154018082558091505060019003906000526020600020016000909190919091505560026000815461062e9061222c565b9190508190555080806106409061222c565b9150506104b9565b506001905092915050565b61065b611525565b600073ffffffffffffffffffffffffffffffffffffffff168173ffffffffffffffffffffffffffffffffffffffff1614156106cb576040517f08c379a00000000000000000000000000000000000000000000000000000000081526004016106c290611eaa565b60405180910390fd5b80600760006101000a81548173ffffffffffffffffffffffffffffffffffffffff021916908373ffffffffffffffffffffffffffffffffffffffff16021790555050565b610717611525565b600154841061075b576040517f08c379a000000000000000000000000000000000000000000000000000000000815260040161075290611fea565b60405180910390fd5b828260036000878152602001908152602001600020600001919061078092919061166f565b50806003600086815260200190815260200160002060010181905550600060036000868152602001908152602001600020600201819055506000600360008681526020019081526020016000206003018190555050505050565b60006107e4611525565b82829050858590501461082c576040517f08c379a000000000000000000000000000000000000000000000000000000000815260040161082390611f4a565b60405180910390fd5b60005b85859050811015610a2657600154868683818110610876577f4e487b7100000000000000000000000000000000000000000000000000000000600052603260045260246000fd5b90506020020135106108bd576040517f08c379a00000000000000000000000000000000000000000000000000000000081526004016108b490611fea565b60405180910390fd5b8383828181106108f6577f4e487b7100000000000000000000000000000000000000000000000000000000600052603260045260246000fd5b905060200201356003600088888581811061093a577f4e487b7100000000000000000000000000000000000000000000000000000000600052603260045260246000fd5b905060200201358152602001908152602001600020600201600082825461096191906120ce565b925050819055508383828181106109a1577f4e487b7100000000000000000000000000000000000000000000000000000000600052603260045260246000fd5b90506020020135600360008888858181106109e5577f4e487b7100000000000000000000000000000000000000000000000000000000600052603260045260246000fd5b9050602002013581526020019081526020016000206003016000828254610a0c91906120ce565b925050819055508080610a1e9061222c565b91505061082f565b5060019050949350505050565b610a3b611525565b60005b83839050811015610b00578160066000868685818110610a87577f4e487b7100000000000000000000000000000000000000000000000000000000600052603260045260246000fd5b9050602002016020810190610a9c919061182f565b73ffffffffffffffffffffffffffffffffffffffff1673ffffffffffffffffffffffffffffffffffffffff16815260200190815260200160002060006101000a81548160ff0219169083151502179055508080610af89061222c565b915050610a3e565b507fab5e233cc7db745f9ab86a3beed645c8318493782c05f0b9518571d2f45802aa838383604051610b3493929190611ddb565b60405180910390a1505050565b60025481565b6060600460008373ffffffffffffffffffffffffffffffffffffffff1673ffffffffffffffffffffffffffffffffffffffff168152602001908152602001600020600001805480602002602001604051908101604052809291908181526020018280548015610bd557602002820191906000526020600020905b815481526020019060010190808311610bc1575b50505050509050919050565b610be9611525565b610bf360006115a3565b565b600760009054906101000a900473ffffffffffffffffffffffffffffffffffffffff1681565b60008060009054906101000a900473ffffffffffffffffffffffffffffffffffffffff16905090565b6000600660008373ffffffffffffffffffffffffffffffffffffffff1673ffffffffffffffffffffffffffffffffffffffff16815260200190815260200160002060009054906101000a900460ff169050919050565b600073ffffffffffffffffffffffffffffffffffffffff168173ffffffffffffffffffffffffffffffffffffffff161415610d0a576040517f08c379a0000000000000000000000000000000000000000000000000000000008152600401610d0190611f0a565b60405180910390fd5b610d1333610c44565b610d52576040517f08c379a0000000000000000000000000000000000000000000000000000000008152600401610d4990611f8a565b60405180910390fd5b610d5b81610c44565b610d9a576040517f08c379a0000000000000000000000000000000000000000000000000000000008152600401610d9190611f6a565b60405180910390fd5b60005b838390508110156113dd576000848483818110610de3577f4e487b7100000000000000000000000000000000000000000000000000000000600052603260045260246000fd5b9050602002013590506002548110610e30576040517f08c379a0000000000000000000000000000000000000000000000000000000008152600401610e2790611e4a565b60405180910390fd5b3373ffffffffffffffffffffffffffffffffffffffff166005600083815260200190815260200160002060000160009054906101000a900473ffffffffffffffffffffffffffffffffffffffff1673ffffffffffffffffffffffffffffffffffffffff1614610ed4576040517f08c379a0000000000000000000000000000000000000000000000000000000008152600401610ecb9061200a565b60405180910390fd5b826005600083815260200190815260200160002060000160006101000a81548173ffffffffffffffffffffffffffffffffffffffff021916908373ffffffffffffffffffffffffffffffffffffffff16021790555042600560008381526020019081526020016000206002018190555060006005600083815260200190815260200160002060030154905081600460003373ffffffffffffffffffffffffffffffffffffffff1673ffffffffffffffffffffffffffffffffffffffff1681526020019081526020016000206000018281548110610fda577f4e487b7100000000000000000000000000000000000000000000000000000000600052603260045260246000fd5b906000526020600020015414611025576040517f08c379a000000000000000000000000000000000000000000000000000000000815260040161101c90611e6a565b60405180910390fd5b6000600460003373ffffffffffffffffffffffffffffffffffffffff1673ffffffffffffffffffffffffffffffffffffffff168152602001908152602001600020600001805490509050600081116110b2576040517f08c379a00000000000000000000000000000000000000000000000000000000081526004016110a990611eea565b60405180910390fd5b600460003373ffffffffffffffffffffffffffffffffffffffff1673ffffffffffffffffffffffffffffffffffffffff168152602001908152602001600020600001600182611101919061217e565b81548110611138577f4e487b7100000000000000000000000000000000000000000000000000000000600052603260045260246000fd5b9060005260206000200154600460003373ffffffffffffffffffffffffffffffffffffffff1673ffffffffffffffffffffffffffffffffffffffff16815260200190815260200160002060000183815481106111bd577f4e487b7100000000000000000000000000000000000000000000000000000000600052603260045260246000fd5b90600052602060002001819055508160056000600460003373ffffffffffffffffffffffffffffffffffffffff1673ffffffffffffffffffffffffffffffffffffffff168152602001908152602001600020600001858154811061124a577f4e487b7100000000000000000000000000000000000000000000000000000000600052603260045260246000fd5b9060005260206000200154815260200190815260200160002060030181905550600460003373ffffffffffffffffffffffffffffffffffffffff1673ffffffffffffffffffffffffffffffffffffffff1681526020019081526020016000206000018054806112e2577f4e487b7100000000000000000000000000000000000000000000000000000000600052603160045260246000fd5b600190038181906000526020600020016000905590556000600460008773ffffffffffffffffffffffffffffffffffffffff1673ffffffffffffffffffffffffffffffffffffffff168152602001908152602001600020600001805490509050600460008773ffffffffffffffffffffffffffffffffffffffff1673ffffffffffffffffffffffffffffffffffffffff1681526020019081526020016000206000018490806001815401808255809150506001900390600052602060002001600090919091909150558060056000868152602001908152602001600020600301819055505050505080806113d59061222c565b915050610d9d565b50505050565b6113eb611525565b600073ffffffffffffffffffffffffffffffffffffffff168173ffffffffffffffffffffffffffffffffffffffff16141561145b576040517f08c379a000000000000000000000000000000000000000000000000000000000815260040161145290611eca565b60405180910390fd5b611464816115a3565b50565b6000611471611525565b8383600360006001548152602001908152602001600020600001919061149892919061166f565b5081600360006001548152602001908152602001600020600101819055506000600360006001548152602001908152602001600020600201819055506000600360006001548152602001908152602001600020600301819055506001600081546115019061222c565b9190508190555060018054611516919061217e565b90509392505050565b60015481565b61152d611667565b73ffffffffffffffffffffffffffffffffffffffff1661154b610c1b565b73ffffffffffffffffffffffffffffffffffffffff16146115a1576040517f08c379a000000000000000000000000000000000000000000000000000000000815260040161159890611faa565b60405180910390fd5b565b60008060009054906101000a900473ffffffffffffffffffffffffffffffffffffffff169050816000806101000a81548173ffffffffffffffffffffffffffffffffffffffff021916908373ffffffffffffffffffffffffffffffffffffffff1602179055508173ffffffffffffffffffffffffffffffffffffffff168173ffffffffffffffffffffffffffffffffffffffff167f8be0079c531659141344cd1fd0a4f28419497f9722a3daafe3b4186f6b6457e060405160405180910390a35050565b600033905090565b82805461167b906121fa565b90600052602060002090601f01602090048101928261169d57600085556116e4565b82601f106116b657803560ff19168380011785556116e4565b828001600101855582156116e4579182015b828111156116e35782358255916020019190600101906116c8565b5b5090506116f191906116f5565b5090565b5b8082111561170e5760008160009055506001016116f6565b5090565b60008135905061172181612690565b92915050565b60008083601f84011261173957600080fd5b8235905067ffffffffffffffff81111561175257600080fd5b60208301915083602082028301111561176a57600080fd5b9250929050565b60008083601f84011261178357600080fd5b8235905067ffffffffffffffff81111561179c57600080fd5b6020830191508360208202830111156117b457600080fd5b9250929050565b6000813590506117ca816126a7565b92915050565b60008083601f8401126117e257600080fd5b8235905067ffffffffffffffff8111156117fb57600080fd5b60208301915083600182028301111561181357600080fd5b9250929050565b600081359050611829816126be565b92915050565b60006020828403121561184157600080fd5b600061184f84828501611712565b91505092915050565b60008060006040848603121561186d57600080fd5b600084013567ffffffffffffffff81111561188757600080fd5b61189386828701611727565b935093505060206118a6868287016117bb565b9150509250925092565b6000806000604084860312156118c557600080fd5b600084013567ffffffffffffffff8111156118df57600080fd5b6118eb86828701611771565b935093505060206118fe86828701611712565b9150509250925092565b6000806000806040858703121561191e57600080fd5b600085013567ffffffffffffffff81111561193857600080fd5b61194487828801611771565b9450945050602085013567ffffffffffffffff81111561196357600080fd5b61196f87828801611771565b925092505092959194509250565b60008060006040848603121561199257600080fd5b600084013567ffffffffffffffff8111156119ac57600080fd5b6119b8868287016117d0565b935093505060206119cb8682870161181a565b9150509250925092565b600080600080606085870312156119eb57600080fd5b60006119f98782880161181a565b945050602085013567ffffffffffffffff811115611a1657600080fd5b611a22878288016117d0565b93509350506040611a358782880161181a565b91505092959194509250565b60008060408385031215611a5457600080fd5b6000611a628582860161181a565b9250506020611a738582860161181a565b9150509250929050565b6000611a898383611aad565b60208301905092915050565b6000611aa18383611da2565b60208301905092915050565b611ab6816121b2565b82525050565b611ac5816121b2565b82525050565b6000611ad78385612084565b9350611ae282612045565b8060005b85811015611b1b57611af882846120b7565b611b028882611a7d565b9750611b0d8361206a565b925050600181019050611ae6565b5085925050509392505050565b6000611b338261205f565b611b3d8185612095565b9350611b488361204f565b8060005b83811015611b79578151611b608882611a95565b9750611b6b83612077565b925050600181019050611b4c565b5085935050505092915050565b611b8f816121c4565b82525050565b6000611ba2602b836120a6565b9150611bad826122d3565b604082019050919050565b6000611bc5601b836120a6565b9150611bd082612322565b602082019050919050565b6000611be86032836120a6565b9150611bf38261234b565b604082019050919050565b6000611c0b6015836120a6565b9150611c168261239a565b602082019050919050565b6000611c2e6026836120a6565b9150611c39826123c3565b604082019050919050565b6000611c51602d836120a6565b9150611c5c82612412565b604082019050919050565b6000611c74601d836120a6565b9150611c7f82612461565b602082019050919050565b6000611c97602d836120a6565b9150611ca28261248a565b604082019050919050565b6000611cba602b836120a6565b9150611cc5826124d9565b604082019050919050565b6000611cdd602b836120a6565b9150611ce882612528565b604082019050919050565b6000611d00602b836120a6565b9150611d0b82612577565b604082019050919050565b6000611d236020836120a6565b9150611d2e826125c6565b602082019050919050565b6000611d466012836120a6565b9150611d51826125ef565b602082019050919050565b6000611d696027836120a6565b9150611d7482612618565b604082019050919050565b6000611d8c6016836120a6565b9150611d9782612667565b602082019050919050565b611dab816121f0565b82525050565b611dba816121f0565b82525050565b6000602082019050611dd56000830184611abc565b92915050565b60006040820190508181036000830152611df6818587611acb565b9050611e056020830184611b86565b949350505050565b60006020820190508181036000830152611e278184611b28565b905092915050565b6000602082019050611e446000830184611b86565b92915050565b60006020820190508181036000830152611e6381611b95565b9050919050565b60006020820190508181036000830152611e8381611bb8565b9050919050565b60006020820190508181036000830152611ea381611bdb565b9050919050565b60006020820190508181036000830152611ec381611bfe565b9050919050565b60006020820190508181036000830152611ee381611c21565b9050919050565b60006020820190508181036000830152611f0381611c44565b9050919050565b60006020820190508181036000830152611f2381611c67565b9050919050565b60006020820190508181036000830152611f4381611c8a565b9050919050565b60006020820190508181036000830152611f6381611cad565b9050919050565b60006020820190508181036000830152611f8381611cd0565b9050919050565b60006020820190508181036000830152611fa381611cf3565b9050919050565b60006020820190508181036000830152611fc381611d16565b9050919050565b60006020820190508181036000830152611fe381611d39565b9050919050565b6000602082019050818103600083015261200381611d5c565b9050919050565b6000602082019050818103600083015261202381611d7f565b9050919050565b600060208201905061203f6000830184611db1565b92915050565b6000819050919050565b6000819050602082019050919050565b600081519050919050565b6000602082019050919050565b6000602082019050919050565b600082825260208201905092915050565b600082825260208201905092915050565b600082825260208201905092915050565b60006120c66020840184611712565b905092915050565b60006120d9826121f0565b91506120e4836121f0565b9250827fffffffffffffffffffffffffffffffffffffffffffffffffffffffffffffffff0382111561211957612118612275565b5b828201905092915050565b600061212f826121f0565b915061213a836121f0565b9250817fffffffffffffffffffffffffffffffffffffffffffffffffffffffffffffffff048311821515161561217357612172612275565b5b828202905092915050565b6000612189826121f0565b9150612194836121f0565b9250828210156121a7576121a6612275565b5b828203905092915050565b60006121bd826121d0565b9050919050565b60008115159050919050565b600073ffffffffffffffffffffffffffffffffffffffff82169050919050565b6000819050919050565b6000600282049050600182168061221257607f821691505b60208210811415612226576122256122a4565b5b50919050565b6000612237826121f0565b91507fffffffffffffffffffffffffffffffffffffffffffffffffffffffffffffffff82141561226a57612269612275565b5b600182019050919050565b7f4e487b7100000000000000000000000000000000000000000000000000000000600052601160045260246000fd5b7f4e487b7100000000000000000000000000000000000000000000000000000000600052602260045260246000fd5b7f49442076616c75652073686f756c64206265206c657373207468616e204e465460008201527f5f49445f434f554e544552000000000000000000000000000000000000000000602082015250565b7f69642e696e6465782073686f756c6420626520636f72726563742e0000000000600082015250565b7f5468652077616c6c657420616464726573732073686f756c6420626520696e2060008201527f74686520617070726f766564206c6973742e0000000000000000000000000000602082015250565b7f696e76616c696420746f6b656e20616464726573730000000000000000000000600082015250565b7f4f776e61626c653a206e6577206f776e657220697320746865207a65726f206160008201527f6464726573730000000000000000000000000000000000000000000000000000602082015250565b7f4f6c6420557365722042616c616e63652073686f756c6420626520677265617460008201527f6572207468616e207a65726f2e00000000000000000000000000000000000000602082015250565b7f54617267657420616464726573732063616e6e6f74206265206e756c6c000000600082015250565b7f4e465420547970652073686f756c64206265206c657373207468616e204e465460008201527f5f545950455f434f554e54455200000000000000000000000000000000000000602082015250565b7f496420616e6420416d6f756e74206172726179206c656e6774682073686f756c60008201527f6420626520657175616c2e000000000000000000000000000000000000000000602082015250565b7f64737420616464726573732073686f756c6420626520696e207468652061707060008201527f726f766564206c6973742e000000000000000000000000000000000000000000602082015250565b7f73726320616464726573732073686f756c6420626520696e207468652061707060008201527f726f766564206c6973742e000000000000000000000000000000000000000000602082015250565b7f4f776e61626c653a2063616c6c6572206973206e6f7420746865206f776e6572600082015250565b7f4e6f7420656e6f75676820737570706c792e0000000000000000000000000000600082015250565b7f69642073686f756c64206265206c657373207468616e204e46545f545950455f60008201527f434f554e54455200000000000000000000000000000000000000000000000000602082015250565b7f53726320617265206e6f7420746865206f776e65722e00000000000000000000600082015250565b612699816121b2565b81146126a457600080fd5b50565b6126b0816121c4565b81146126bb57600080fd5b50565b6126c7816121f0565b81146126d257600080fd5b5056fea264697066735822122049bd48d8388d78c3edf49c2253d22ff938f56bb2c86dc17df15ff5d4b4eb425564736f6c63430008040033",
  "linkReferences": {},
  "deployedLinkReferences": {}
}