{
  "_format": "hh-sol-artifact-1",
  "contractName": "ElumNFT",
  "sourceName": "contracts/ElumNFT.sol",
  "abi": [
    {
      "anonymous": false,
      "inputs": [
        {
          "indexed": true,
          "internalType": "address",
          "name": "previousOwner",
          "type": "address"
        },
        {
          "indexed": true,
          "internalType": "address",
          "name": "newOwner",
          "type": "address"
        }
      ],
      "name": "OwnershipTransferred",
      "type": "event"
    },
    {
      "inputs": [],
      "name": "MAX_NFT_PER_WALLET",
      "outputs": [
        {
          "internalType": "uint256",
          "name": "",
          "type": "uint256"
        }
      ],
      "stateMutability": "view",
      "type": "function"
    },
    {
      "inputs": [],
      "name": "NFT_ID_COUNTER",
      "outputs": [
        {
          "internalType": "uint256",
          "name": "",
          "type": "uint256"
        }
      ],
      "stateMutability": "view",
      "type": "function"
    },
    {
      "inputs": [
        {
          "internalType": "uint256",
          "name": "",
          "type": "uint256"
        }
      ],
      "name": "NFT_TO_INFO",
      "outputs": [
        {
          "internalType": "address",
          "name": "owner",
          "type": "address"
        },
        {
          "internalType": "uint256",
          "name": "nftType",
          "type": "uint256"
        },
        {
          "internalType": "uint256",
          "name": "acquireTime",
          "type": "uint256"
        },
        {
          "internalType": "uint256",
          "name": "index",
          "type": "uint256"
        }
      ],
      "stateMutability": "view",
      "type": "function"
    },
    {
      "inputs": [],
      "name": "NFT_TYPE_COUNTER",
      "outputs": [
        {
          "internalType": "uint256",
          "name": "",
          "type": "uint256"
        }
      ],
      "stateMutability": "view",
      "type": "function"
    },
    {
      "inputs": [
        {
          "internalType": "uint256",
          "name": "",
          "type": "uint256"
        }
      ],
      "name": "NFT_TYPE_INFO",
      "outputs": [
        {
          "internalType": "string",
          "name": "metadataURI",
          "type": "string"
        },
        {
          "internalType": "uint256",
          "name": "price",
          "type": "uint256"
        },
        {
          "internalType": "uint256",
          "name": "totalSupply",
          "type": "uint256"
        },
        {
          "internalType": "uint256",
          "name": "remainSupply",
          "type": "uint256"
        }
      ],
      "stateMutability": "view",
      "type": "function"
    },
    {
      "inputs": [
        {
          "internalType": "string",
          "name": "metadataURI",
          "type": "string"
        },
        {
          "internalType": "uint256",
          "name": "price",
          "type": "uint256"
        }
      ],
      "name": "addNewType",
      "outputs": [
        {
          "internalType": "uint256",
          "name": "",
          "type": "uint256"
        }
      ],
      "stateMutability": "nonpayable",
      "type": "function"
    },
    {
      "inputs": [
        {
          "internalType": "address",
          "name": "_address",
          "type": "address"
        }
      ],
      "name": "balanceOf",
      "outputs": [
        {
          "internalType": "uint256[]",
          "name": "",
          "type": "uint256[]"
        }
      ],
      "stateMutability": "view",
      "type": "function"
    },
    {
      "inputs": [
        {
          "internalType": "uint256",
          "name": "nftType",
          "type": "uint256"
        },
        {
          "internalType": "uint256",
          "name": "amount",
          "type": "uint256"
        }
      ],
      "name": "buyNFT",
      "outputs": [
        {
          "internalType": "bool",
          "name": "",
          "type": "bool"
        }
      ],
      "stateMutability": "payable",
      "type": "function"
    },
    {
      "inputs": [
        {
          "internalType": "address",
          "name": "_address",
          "type": "address"
        }
      ],
      "name": "getAcquiredTime",
      "outputs": [
        {
          "internalType": "uint256",
          "name": "",
          "type": "uint256"
        }
      ],
      "stateMutability": "view",
      "type": "function"
    },
    {
      "inputs": [],
      "name": "getMaxNFTPerWallet",
      "outputs": [
        {
          "internalType": "uint256",
          "name": "",
          "type": "uint256"
        }
      ],
      "stateMutability": "view",
      "type": "function"
    },
    {
      "inputs": [],
      "name": "getNFTTypeInfo",
      "outputs": [
        {
          "components": [
            {
              "internalType": "string",
              "name": "metadataURI",
              "type": "string"
            },
            {
              "internalType": "uint256",
              "name": "price",
              "type": "uint256"
            },
            {
              "internalType": "uint256",
              "name": "totalSupply",
              "type": "uint256"
            },
            {
              "internalType": "uint256",
              "name": "remainSupply",
              "type": "uint256"
            }
          ],
          "internalType": "struct NFT_TYPE[]",
          "name": "",
          "type": "tuple[]"
        }
      ],
      "stateMutability": "view",
      "type": "function"
    },
    {
      "inputs": [],
      "name": "getTotalNFT",
      "outputs": [
        {
          "internalType": "uint256",
          "name": "",
          "type": "uint256"
        }
      ],
      "stateMutability": "view",
      "type": "function"
    },
    {
      "inputs": [
        {
          "internalType": "address",
          "name": "_address",
          "type": "address"
        },
        {
          "internalType": "uint256",
          "name": "nftID",
          "type": "uint256"
        }
      ],
      "name": "isOwner",
      "outputs": [
        {
          "internalType": "bool",
          "name": "",
          "type": "bool"
        }
      ],
      "stateMutability": "view",
      "type": "function"
    },
    {
      "inputs": [
        {
          "internalType": "uint256[]",
          "name": "ids",
          "type": "uint256[]"
        },
        {
          "internalType": "uint256[]",
          "name": "amounts",
          "type": "uint256[]"
        }
      ],
      "name": "mint",
      "outputs": [
        {
          "internalType": "bool",
          "name": "",
          "type": "bool"
        }
      ],
      "stateMutability": "nonpayable",
      "type": "function"
    },
    {
      "inputs": [],
      "name": "owner",
      "outputs": [
        {
          "internalType": "address",
          "name": "",
          "type": "address"
        }
      ],
      "stateMutability": "view",
      "type": "function"
    },
    {
      "inputs": [],
      "name": "renounceOwnership",
      "outputs": [],
      "stateMutability": "nonpayable",
      "type": "function"
    },
    {
      "inputs": [
        {
          "internalType": "uint256",
          "name": "count",
          "type": "uint256"
        }
      ],
      "name": "setMaxNFTPerWallet",
      "outputs": [
        {
          "internalType": "bool",
          "name": "",
          "type": "bool"
        }
      ],
      "stateMutability": "nonpayable",
      "type": "function"
    },
    {
      "inputs": [
        {
          "internalType": "address",
          "name": "_token_address",
          "type": "address"
        }
      ],
      "name": "setTokenAddress",
      "outputs": [],
      "stateMutability": "nonpayable",
      "type": "function"
    },
    {
      "inputs": [],
      "name": "token_address",
      "outputs": [
        {
          "internalType": "address",
          "name": "",
          "type": "address"
        }
      ],
      "stateMutability": "view",
      "type": "function"
    },
    {
      "inputs": [
        {
          "internalType": "uint256[]",
          "name": "ids",
          "type": "uint256[]"
        },
        {
          "internalType": "address",
          "name": "to",
          "type": "address"
        }
      ],
      "name": "transferNFT",
      "outputs": [],
      "stateMutability": "nonpayable",
      "type": "function"
    },
    {
      "inputs": [
        {
          "internalType": "address",
          "name": "newOwner",
          "type": "address"
        }
      ],
      "name": "transferOwnership",
      "outputs": [],
      "stateMutability": "nonpayable",
      "type": "function"
    },
    {
      "inputs": [
        {
          "internalType": "uint256",
          "name": "nftID",
          "type": "uint256"
        },
        {
          "internalType": "string",
          "name": "metadataURI",
          "type": "string"
        },
        {
          "internalType": "uint256",
          "name": "price",
          "type": "uint256"
        }
      ],
      "name": "updateType",
      "outputs": [],
      "stateMutability": "nonpayable",
      "type": "function"
    }
  ],
  "bytecode": "0x60806040526000600155600060025560006003553480156200002057600080fd5b5062000041620000356200004760201b60201c565b6200004f60201b60201c565b62000113565b600033905090565b60008060009054906101000a900473ffffffffffffffffffffffffffffffffffffffff169050816000806101000a81548173ffffffffffffffffffffffffffffffffffffffff021916908373ffffffffffffffffffffffffffffffffffffffff1602179055508173ffffffffffffffffffffffffffffffffffffffff168173ffffffffffffffffffffffffffffffffffffffff167f8be0079c531659141344cd1fd0a4f28419497f9722a3daafe3b4186f6b6457e060405160405180910390a35050565b61307f80620001236000396000f3fe6080604052600436106101355760003560e01c80638c8e8fee116100ab578063e2bea1ec1161006f578063e2bea1ec14610437578063e327a6af14610460578063e832565b1461049d578063f2fde38b146104da578063fcc2278b14610503578063ffc47c591461054057610135565b80638c8e8fee1461034e5780638da5cb5b14610379578063b5a37260146103a4578063bcf16f2d146103e1578063d7b1b2161461040c57610135565b8063337b81f6116100fd578063337b81f61461023e5780633d5d190c1461026757806340691849146102a45780636b01e751146102cf57806370a08231146102fa578063715018a61461033757610135565b806303356c401461013a578063047b7b411461017a57806305f693cf146101ba5780631d85bf03146101e557806326a4e8d214610215575b600080fd5b34801561014657600080fd5b50610161600480360381019061015c9190612162565b61056b565b6040516101719493929190612732565b60405180910390f35b34801561018657600080fd5b506101a1600480360381019061019c9190612162565b610633565b6040516101b1949392919061268e565b60405180910390f35b3480156101c657600080fd5b506101cf610683565b6040516101dc91906126d3565b60405180910390f35b6101ff60048036038101906101fa91906121f7565b610792565b60405161020c9190612717565b60405180910390f35b34801561022157600080fd5b5061023c60048036038101906102379190611fd8565b610b93565b005b34801561024a57600080fd5b506102656004803603810190610260919061218b565b610c4f565b005b34801561027357600080fd5b5061028e60048036038101906102899190612095565b610dee565b60405161029b9190612717565b60405180910390f35b3480156102b057600080fd5b506102b96110b1565b6040516102c6919061297e565b60405180910390f35b3480156102db57600080fd5b506102e46110bb565b6040516102f1919061297e565b60405180910390f35b34801561030657600080fd5b50610321600480360381019061031c9190611fd8565b6110c1565b60405161032e91906126f5565b60405180910390f35b34801561034357600080fd5b5061034c61115b565b005b34801561035a57600080fd5b5061036361116f565b6040516103709190612673565b60405180910390f35b34801561038557600080fd5b5061038e611195565b60405161039b9190612673565b60405180910390f35b3480156103b057600080fd5b506103cb60048036038101906103c69190612162565b6111be565b6040516103d89190612717565b60405180910390f35b3480156103ed57600080fd5b506103f66111d8565b604051610403919061297e565b60405180910390f35b34801561041857600080fd5b506104216111e2565b60405161042e919061297e565b60405180910390f35b34801561044357600080fd5b5061045e6004803603810190610459919061203d565b6111e8565b005b34801561046c57600080fd5b5061048760048036038101906104829190612001565b611939565b6040516104949190612717565b60405180910390f35b3480156104a957600080fd5b506104c460048036038101906104bf9190611fd8565b611a5c565b6040516104d1919061297e565b60405180910390f35b3480156104e657600080fd5b5061050160048036038101906104fc9190611fd8565b611adf565b005b34801561050f57600080fd5b5061052a6004803603810190610525919061210a565b611b63565b604051610537919061297e565b60405180910390f35b34801561054c57600080fd5b50610555611c79565b604051610562919061297e565b60405180910390f35b6004818154811061057b57600080fd5b906000526020600020906004020160009150905080600001805461059e90612b97565b80601f01602080910402602001604051908101604052809291908181526020018280546105ca90612b97565b80156106175780601f106105ec57610100808354040283529160200191610617565b820191906000526020600020905b8154815290600101906020018083116105fa57829003601f168201915b5050505050908060010154908060020154908060030154905084565b60066020528060005260406000206000915090508060000160009054906101000a900473ffffffffffffffffffffffffffffffffffffffff16908060010154908060020154908060030154905084565b60606004805480602002602001604051908101604052809291908181526020016000905b8282101561078957838290600052602060002090600402016040518060800160405290816000820180546106da90612b97565b80601f016020809104026020016040519081016040528092919081815260200182805461070690612b97565b80156107535780601f1061072857610100808354040283529160200191610753565b820191906000526020600020905b81548152906001019060200180831161073657829003601f168201915b505050505081526020016001820154815260200160028201548152602001600382015481525050815260200190600101906106a7565b50505050905090565b600060015483106107d8576040517f08c379a00000000000000000000000000000000000000000000000000000000081526004016107cf9061287e565b60405180910390fd5b8160048481548110610813577f4e487b7100000000000000000000000000000000000000000000000000000000600052603260045260246000fd5b9060005260206000209060040201600301541015610866576040517f08c379a000000000000000000000000000000000000000000000000000000000815260040161085d9061291e565b60405180910390fd5b600483815481106108a0577f4e487b7100000000000000000000000000000000000000000000000000000000600052603260045260246000fd5b906000526020600020906004020160010154826108bd9190612a8e565b3410156108ff576040517f08c379a00000000000000000000000000000000000000000000000000000000081526004016108f6906127fe565b60405180910390fd5b60035482600560003373ffffffffffffffffffffffffffffffffffffffff1673ffffffffffffffffffffffffffffffffffffffff168152602001908152602001600020600001805490506109539190612a38565b1115610994576040517f08c379a000000000000000000000000000000000000000000000000000000000815260040161098b906128de565b60405180910390fd5b60005b82811015610b26573360066000600254815260200190815260200160002060000160006101000a81548173ffffffffffffffffffffffffffffffffffffffff021916908373ffffffffffffffffffffffffffffffffffffffff16021790555083600660006002548152602001908152602001600020600101819055504260066000600254815260200190815260200160002060020181905550600560003373ffffffffffffffffffffffffffffffffffffffff1673ffffffffffffffffffffffffffffffffffffffff1681526020019081526020016000206000018054905060066000600254815260200190815260200160002060030181905550600560003373ffffffffffffffffffffffffffffffffffffffff1673ffffffffffffffffffffffffffffffffffffffff1681526020019081526020016000206000016002549080600181540180825580915050600190039060005260206000200160009091909190915055600260008154610b0c90612bc9565b919050819055508080610b1e90612bc9565b915050610997565b508160048481548110610b62577f4e487b7100000000000000000000000000000000000000000000000000000000600052603260045260246000fd5b90600052602060002090600402016003016000828254610b829190612ae8565b925050819055506001905092915050565b610b9b611c7f565b600073ffffffffffffffffffffffffffffffffffffffff168173ffffffffffffffffffffffffffffffffffffffff161415610c0b576040517f08c379a0000000000000000000000000000000000000000000000000000000008152600401610c02906127be565b60405180910390fd5b80600760006101000a81548173ffffffffffffffffffffffffffffffffffffffff021916908373ffffffffffffffffffffffffffffffffffffffff16021790555050565b610c57611c7f565b6001548410610c9b576040517f08c379a0000000000000000000000000000000000000000000000000000000008152600401610c929061293e565b60405180910390fd5b828260048681548110610cd7577f4e487b7100000000000000000000000000000000000000000000000000000000600052603260045260246000fd5b90600052602060002090600402016000019190610cf5929190611dc9565b508060048581548110610d31577f4e487b7100000000000000000000000000000000000000000000000000000000600052603260045260246000fd5b906000526020600020906004020160010181905550600060048581548110610d82577f4e487b7100000000000000000000000000000000000000000000000000000000600052603260045260246000fd5b906000526020600020906004020160020181905550600060048581548110610dd3577f4e487b7100000000000000000000000000000000000000000000000000000000600052603260045260246000fd5b90600052602060002090600402016003018190555050505050565b6000610df8611c7f565b828290508585905014610e40576040517f08c379a0000000000000000000000000000000000000000000000000000000008152600401610e379061289e565b60405180910390fd5b60005b858590508110156110a457600154868683818110610e8a577f4e487b7100000000000000000000000000000000000000000000000000000000600052603260045260246000fd5b9050602002013510610ed1576040517f08c379a0000000000000000000000000000000000000000000000000000000008152600401610ec89061293e565b60405180910390fd5b838382818110610f0a577f4e487b7100000000000000000000000000000000000000000000000000000000600052603260045260246000fd5b905060200201356004878784818110610f4c577f4e487b7100000000000000000000000000000000000000000000000000000000600052603260045260246000fd5b9050602002013581548110610f8a577f4e487b7100000000000000000000000000000000000000000000000000000000600052603260045260246000fd5b90600052602060002090600402016002016000828254610faa9190612a38565b92505081905550838382818110610fea577f4e487b7100000000000000000000000000000000000000000000000000000000600052603260045260246000fd5b90506020020135600487878481811061102c577f4e487b7100000000000000000000000000000000000000000000000000000000600052603260045260246000fd5b905060200201358154811061106a577f4e487b7100000000000000000000000000000000000000000000000000000000600052603260045260246000fd5b9060005260206000209060040201600301600082825461108a9190612a38565b92505081905550808061109c90612bc9565b915050610e43565b5060019050949350505050565b6000600354905090565b60025481565b6060600560008373ffffffffffffffffffffffffffffffffffffffff1673ffffffffffffffffffffffffffffffffffffffff16815260200190815260200160002060000180548060200260200160405190810160405280929190818152602001828054801561114f57602002820191906000526020600020905b81548152602001906001019080831161113b575b50505050509050919050565b611163611c7f565b61116d6000611cfd565b565b600760009054906101000a900473ffffffffffffffffffffffffffffffffffffffff1681565b60008060009054906101000a900473ffffffffffffffffffffffffffffffffffffffff16905090565b60006111c8611c7f565b8160038190555060019050919050565b6000600254905090565b60035481565b600073ffffffffffffffffffffffffffffffffffffffff168173ffffffffffffffffffffffffffffffffffffffff161415611258576040517f08c379a000000000000000000000000000000000000000000000000000000000815260040161124f9061283e565b60405180910390fd5b60035483839050600560008473ffffffffffffffffffffffffffffffffffffffff1673ffffffffffffffffffffffffffffffffffffffff168152602001908152602001600020600001805490506112af9190612a38565b11156112f0576040517f08c379a00000000000000000000000000000000000000000000000000000000081526004016112e7906128de565b60405180910390fd5b60005b83839050811015611933576000848483818110611339577f4e487b7100000000000000000000000000000000000000000000000000000000600052603260045260246000fd5b9050602002013590506002548110611386576040517f08c379a000000000000000000000000000000000000000000000000000000000815260040161137d9061277e565b60405180910390fd5b3373ffffffffffffffffffffffffffffffffffffffff166006600083815260200190815260200160002060000160009054906101000a900473ffffffffffffffffffffffffffffffffffffffff1673ffffffffffffffffffffffffffffffffffffffff161461142a576040517f08c379a00000000000000000000000000000000000000000000000000000000081526004016114219061295e565b60405180910390fd5b826006600083815260200190815260200160002060000160006101000a81548173ffffffffffffffffffffffffffffffffffffffff021916908373ffffffffffffffffffffffffffffffffffffffff16021790555042600660008381526020019081526020016000206002018190555060006006600083815260200190815260200160002060030154905081600560003373ffffffffffffffffffffffffffffffffffffffff1673ffffffffffffffffffffffffffffffffffffffff1681526020019081526020016000206000018281548110611530577f4e487b7100000000000000000000000000000000000000000000000000000000600052603260045260246000fd5b90600052602060002001541461157b576040517f08c379a00000000000000000000000000000000000000000000000000000000081526004016115729061279e565b60405180910390fd5b6000600560003373ffffffffffffffffffffffffffffffffffffffff1673ffffffffffffffffffffffffffffffffffffffff16815260200190815260200160002060000180549050905060008111611608576040517f08c379a00000000000000000000000000000000000000000000000000000000081526004016115ff9061281e565b60405180910390fd5b600560003373ffffffffffffffffffffffffffffffffffffffff1673ffffffffffffffffffffffffffffffffffffffff1681526020019081526020016000206000016001826116579190612ae8565b8154811061168e577f4e487b7100000000000000000000000000000000000000000000000000000000600052603260045260246000fd5b9060005260206000200154600560003373ffffffffffffffffffffffffffffffffffffffff1673ffffffffffffffffffffffffffffffffffffffff1681526020019081526020016000206000018381548110611713577f4e487b7100000000000000000000000000000000000000000000000000000000600052603260045260246000fd5b90600052602060002001819055508160066000600560003373ffffffffffffffffffffffffffffffffffffffff1673ffffffffffffffffffffffffffffffffffffffff16815260200190815260200160002060000185815481106117a0577f4e487b7100000000000000000000000000000000000000000000000000000000600052603260045260246000fd5b9060005260206000200154815260200190815260200160002060030181905550600560003373ffffffffffffffffffffffffffffffffffffffff1673ffffffffffffffffffffffffffffffffffffffff168152602001908152602001600020600001805480611838577f4e487b7100000000000000000000000000000000000000000000000000000000600052603160045260246000fd5b600190038181906000526020600020016000905590556000600560008773ffffffffffffffffffffffffffffffffffffffff1673ffffffffffffffffffffffffffffffffffffffff168152602001908152602001600020600001805490509050600560008773ffffffffffffffffffffffffffffffffffffffff1673ffffffffffffffffffffffffffffffffffffffff16815260200190815260200160002060000184908060018154018082558091505060019003906000526020600020016000909190919091505580600660008681526020019081526020016000206003018190555050505050808061192b90612bc9565b9150506112f3565b50505050565b6000600254821061197f576040517f08c379a0000000000000000000000000000000000000000000000000000000008152600401611976906128be565b60405180910390fd5b600073ffffffffffffffffffffffffffffffffffffffff168373ffffffffffffffffffffffffffffffffffffffff1614156119ef576040517f08c379a00000000000000000000000000000000000000000000000000000000081526004016119e69061285e565b60405180910390fd5b8273ffffffffffffffffffffffffffffffffffffffff166006600084815260200190815260200160002060000160009054906101000a900473ffffffffffffffffffffffffffffffffffffffff1673ffffffffffffffffffffffffffffffffffffffff1614905092915050565b600080611a68836110c1565b9050600081511415611a7e576000915050611ada565b6006600082600081518110611abc577f4e487b7100000000000000000000000000000000000000000000000000000000600052603260045260246000fd5b60200260200101518152602001908152602001600020600201549150505b919050565b611ae7611c7f565b600073ffffffffffffffffffffffffffffffffffffffff168173ffffffffffffffffffffffffffffffffffffffff161415611b57576040517f08c379a0000000000000000000000000000000000000000000000000000000008152600401611b4e906127de565b60405180910390fd5b611b6081611cfd565b50565b6000611b6d611c7f565b611b75611e4f565b84848080601f016020809104026020016040519081016040528093929190818152602001838380828437600081840152601f19601f820116905080830192505050505050508160000181905250828160200181815250506000816040018181525050600081606001818152505060048190806001815401808255809150506001900390600052602060002090600402016000909190919091506000820151816000019080519060200190611c2a929190611e77565b506020820151816001015560408201518160020155606082015181600301555050600160008154611c5a90612bc9565b9190508190555060018054611c6f9190612ae8565b9150509392505050565b60015481565b611c87611dc1565b73ffffffffffffffffffffffffffffffffffffffff16611ca5611195565b73ffffffffffffffffffffffffffffffffffffffff1614611cfb576040517f08c379a0000000000000000000000000000000000000000000000000000000008152600401611cf2906128fe565b60405180910390fd5b565b60008060009054906101000a900473ffffffffffffffffffffffffffffffffffffffff169050816000806101000a81548173ffffffffffffffffffffffffffffffffffffffff021916908373ffffffffffffffffffffffffffffffffffffffff1602179055508173ffffffffffffffffffffffffffffffffffffffff168173ffffffffffffffffffffffffffffffffffffffff167f8be0079c531659141344cd1fd0a4f28419497f9722a3daafe3b4186f6b6457e060405160405180910390a35050565b600033905090565b828054611dd590612b97565b90600052602060002090601f016020900481019282611df75760008555611e3e565b82601f10611e1057803560ff1916838001178555611e3e565b82800160010185558215611e3e579182015b82811115611e3d578235825591602001919060010190611e22565b5b509050611e4b9190611efd565b5090565b6040518060800160405280606081526020016000815260200160008152602001600081525090565b828054611e8390612b97565b90600052602060002090601f016020900481019282611ea55760008555611eec565b82601f10611ebe57805160ff1916838001178555611eec565b82800160010185558215611eec579182015b82811115611eeb578251825591602001919060010190611ed0565b5b509050611ef99190611efd565b5090565b5b80821115611f16576000816000905550600101611efe565b5090565b600081359050611f298161301b565b92915050565b60008083601f840112611f4157600080fd5b8235905067ffffffffffffffff811115611f5a57600080fd5b602083019150836020820283011115611f7257600080fd5b9250929050565b60008083601f840112611f8b57600080fd5b8235905067ffffffffffffffff811115611fa457600080fd5b602083019150836001820283011115611fbc57600080fd5b9250929050565b600081359050611fd281613032565b92915050565b600060208284031215611fea57600080fd5b6000611ff884828501611f1a565b91505092915050565b6000806040838503121561201457600080fd5b600061202285828601611f1a565b925050602061203385828601611fc3565b9150509250929050565b60008060006040848603121561205257600080fd5b600084013567ffffffffffffffff81111561206c57600080fd5b61207886828701611f2f565b9350935050602061208b86828701611f1a565b9150509250925092565b600080600080604085870312156120ab57600080fd5b600085013567ffffffffffffffff8111156120c557600080fd5b6120d187828801611f2f565b9450945050602085013567ffffffffffffffff8111156120f057600080fd5b6120fc87828801611f2f565b925092505092959194509250565b60008060006040848603121561211f57600080fd5b600084013567ffffffffffffffff81111561213957600080fd5b61214586828701611f79565b9350935050602061215886828701611fc3565b9150509250925092565b60006020828403121561217457600080fd5b600061218284828501611fc3565b91505092915050565b600080600080606085870312156121a157600080fd5b60006121af87828801611fc3565b945050602085013567ffffffffffffffff8111156121cc57600080fd5b6121d887828801611f79565b935093505060406121eb87828801611fc3565b91505092959194509250565b6000806040838503121561220a57600080fd5b600061221885828601611fc3565b925050602061222985828601611fc3565b9150509250929050565b600061223f83836125f2565b905092915050565b60006122538383612655565b60208301905092915050565b61226881612b1c565b82525050565b6000612279826129b9565b61228381856129f4565b93508360208202850161229585612999565b8060005b858110156122d157848403895281516122b28582612233565b94506122bd836129da565b925060208a01995050600181019050612299565b50829750879550505050505092915050565b60006122ee826129c4565b6122f88185612a05565b9350612303836129a9565b8060005b8381101561233457815161231b8882612247565b9750612326836129e7565b925050600181019050612307565b5085935050505092915050565b61234a81612b2e565b82525050565b600061235b826129cf565b6123658185612a16565b9350612375818560208601612b64565b61237e81612c70565b840191505092915050565b6000612394826129cf565b61239e8185612a27565b93506123ae818560208601612b64565b6123b781612c70565b840191505092915050565b60006123cf602b83612a27565b91506123da82612c81565b604082019050919050565b60006123f2601b83612a27565b91506123fd82612cd0565b602082019050919050565b6000612415601583612a27565b915061242082612cf9565b602082019050919050565b6000612438602683612a27565b915061244382612d22565b604082019050919050565b600061245b601383612a27565b915061246682612d71565b602082019050919050565b600061247e602d83612a27565b915061248982612d9a565b604082019050919050565b60006124a1601d83612a27565b91506124ac82612de9565b602082019050919050565b60006124c4601683612a27565b91506124cf82612e12565b602082019050919050565b60006124e7602d83612a27565b91506124f282612e3b565b604082019050919050565b600061250a602b83612a27565b915061251582612e8a565b604082019050919050565b600061252d602983612a27565b915061253882612ed9565b604082019050919050565b6000612550601f83612a27565b915061255b82612f28565b602082019050919050565b6000612573602083612a27565b915061257e82612f51565b602082019050919050565b6000612596601283612a27565b91506125a182612f7a565b602082019050919050565b60006125b9602783612a27565b91506125c482612fa3565b604082019050919050565b60006125dc601683612a27565b91506125e782612ff2565b602082019050919050565b6000608083016000830151848203600086015261260f8282612350565b91505060208301516126246020860182612655565b5060408301516126376040860182612655565b50606083015161264a6060860182612655565b508091505092915050565b61265e81612b5a565b82525050565b61266d81612b5a565b82525050565b6000602082019050612688600083018461225f565b92915050565b60006080820190506126a3600083018761225f565b6126b06020830186612664565b6126bd6040830185612664565b6126ca6060830184612664565b95945050505050565b600060208201905081810360008301526126ed818461226e565b905092915050565b6000602082019050818103600083015261270f81846122e3565b905092915050565b600060208201905061272c6000830184612341565b92915050565b6000608082019050818103600083015261274c8187612389565b905061275b6020830186612664565b6127686040830185612664565b6127756060830184612664565b95945050505050565b60006020820190508181036000830152612797816123c2565b9050919050565b600060208201905081810360008301526127b7816123e5565b9050919050565b600060208201905081810360008301526127d781612408565b9050919050565b600060208201905081810360008301526127f78161242b565b9050919050565b600060208201905081810360008301526128178161244e565b9050919050565b6000602082019050818103600083015261283781612471565b9050919050565b6000602082019050818103600083015261285781612494565b9050919050565b60006020820190508181036000830152612877816124b7565b9050919050565b60006020820190508181036000830152612897816124da565b9050919050565b600060208201905081810360008301526128b7816124fd565b9050919050565b600060208201905081810360008301526128d781612520565b9050919050565b600060208201905081810360008301526128f781612543565b9050919050565b6000602082019050818103600083015261291781612566565b9050919050565b6000602082019050818103600083015261293781612589565b9050919050565b60006020820190508181036000830152612957816125ac565b9050919050565b60006020820190508181036000830152612977816125cf565b9050919050565b60006020820190506129936000830184612664565b92915050565b6000819050602082019050919050565b6000819050602082019050919050565b600081519050919050565b600081519050919050565b600081519050919050565b6000602082019050919050565b6000602082019050919050565b600082825260208201905092915050565b600082825260208201905092915050565b600082825260208201905092915050565b600082825260208201905092915050565b6000612a4382612b5a565b9150612a4e83612b5a565b9250827fffffffffffffffffffffffffffffffffffffffffffffffffffffffffffffffff03821115612a8357612a82612c12565b5b828201905092915050565b6000612a9982612b5a565b9150612aa483612b5a565b9250817fffffffffffffffffffffffffffffffffffffffffffffffffffffffffffffffff0483118215151615612add57612adc612c12565b5b828202905092915050565b6000612af382612b5a565b9150612afe83612b5a565b925082821015612b1157612b10612c12565b5b828203905092915050565b6000612b2782612b3a565b9050919050565b60008115159050919050565b600073ffffffffffffffffffffffffffffffffffffffff82169050919050565b6000819050919050565b60005b83811015612b82578082015181840152602081019050612b67565b83811115612b91576000848401525b50505050565b60006002820490506001821680612baf57607f821691505b60208210811415612bc357612bc2612c41565b5b50919050565b6000612bd482612b5a565b91507fffffffffffffffffffffffffffffffffffffffffffffffffffffffffffffffff821415612c0757612c06612c12565b5b600182019050919050565b7f4e487b7100000000000000000000000000000000000000000000000000000000600052601160045260246000fd5b7f4e487b7100000000000000000000000000000000000000000000000000000000600052602260045260246000fd5b6000601f19601f8301169050919050565b7f49442076616c75652073686f756c64206265206c657373207468616e204e465460008201527f5f49445f434f554e544552000000000000000000000000000000000000000000602082015250565b7f69642e696e6465782073686f756c6420626520636f72726563742e0000000000600082015250565b7f696e76616c696420746f6b656e20616464726573730000000000000000000000600082015250565b7f4f776e61626c653a206e6577206f776e657220697320746865207a65726f206160008201527f6464726573730000000000000000000000000000000000000000000000000000602082015250565b7f4e6f7420656e6f756768207061796d656e742e00000000000000000000000000600082015250565b7f4f6c6420557365722042616c616e63652073686f756c6420626520677265617460008201527f6572207468616e207a65726f2e00000000000000000000000000000000000000602082015250565b7f54617267657420616464726573732063616e6e6f74206265206e756c6c000000600082015250565b7f416464726573732063616e6e6f74206265206e756c6c00000000000000000000600082015250565b7f4e465420547970652073686f756c64206265206c657373207468616e204e465460008201527f5f545950455f434f554e54455200000000000000000000000000000000000000602082015250565b7f496420616e6420416d6f756e74206172726179206c656e6774682073686f756c60008201527f6420626520657175616c2e000000000000000000000000000000000000000000602082015250565b7f4e46542049442073686f756c64206265206c657373207468616e204e46545f4960008201527f445f434f554e5445520000000000000000000000000000000000000000000000602082015250565b7f54686520746f74616c206e756d6265722063616e6e6f74206578636565642e00600082015250565b7f4f776e61626c653a2063616c6c6572206973206e6f7420746865206f776e6572600082015250565b7f4e6f7420656e6f75676820737570706c792e0000000000000000000000000000600082015250565b7f69642073686f756c64206265206c657373207468616e204e46545f545950455f60008201527f434f554e54455200000000000000000000000000000000000000000000000000602082015250565b7f53726320617265206e6f7420746865206f776e65722e00000000000000000000600082015250565b61302481612b1c565b811461302f57600080fd5b50565b61303b81612b5a565b811461304657600080fd5b5056fea2646970667358221220ee41d24df5eff7169c22f77fecd8880a5b3ff3e226d79ad144c2ad88642a0ec864736f6c63430008040033",
  "linkReferences": {},
  "deployedLinkReferences": {}
}