{
  "_format": "hh-sol-artifact-1",
  "contractName": "DevicesRegistry",
  "sourceName": "contracts/DevicesRegistry.sol",
  "abi": [
    {
      "inputs": [],
      "stateMutability": "nonpayable",
      "type": "constructor"
    },
    {
      "anonymous": false,
      "inputs": [
        {
          "indexed": true,
          "internalType": "address",
          "name": "_deviceAddress",
          "type": "address"
        }
      ],
      "name": "DeviceActivated",
      "type": "event"
    },
    {
      "anonymous": false,
      "inputs": [
        {
          "indexed": true,
          "internalType": "address",
          "name": "_deviceAddress",
          "type": "address"
        }
      ],
      "name": "DeviceDeleted",
      "type": "event"
    },
    {
      "anonymous": false,
      "inputs": [
        {
          "indexed": true,
          "internalType": "address",
          "name": "_deviceAddress",
          "type": "address"
        }
      ],
      "name": "DeviceRegistered",
      "type": "event"
    },
    {
      "anonymous": false,
      "inputs": [
        {
          "indexed": true,
          "internalType": "address",
          "name": "_deviceAddress",
          "type": "address"
        }
      ],
      "name": "DeviceSuspended",
      "type": "event"
    },
    {
      "anonymous": false,
      "inputs": [
        {
          "indexed": true,
          "internalType": "address",
          "name": "previousOwner",
          "type": "address"
        },
        {
          "indexed": true,
          "internalType": "address",
          "name": "newOwner",
          "type": "address"
        }
      ],
      "name": "OwnershipTransferred",
      "type": "event"
    },
    {
      "inputs": [
        {
          "internalType": "address",
          "name": "",
          "type": "address"
        }
      ],
      "name": "AuthorizedDevices",
      "outputs": [
        {
          "internalType": "bool",
          "name": "isRegistered",
          "type": "bool"
        },
        {
          "internalType": "bool",
          "name": "isActive",
          "type": "bool"
        }
      ],
      "stateMutability": "view",
      "type": "function"
    },
    {
      "inputs": [
        {
          "internalType": "address",
          "name": "_deviceAddressToActivate",
          "type": "address"
        }
      ],
      "name": "activateDevice",
      "outputs": [],
      "stateMutability": "nonpayable",
      "type": "function"
    },
    {
      "inputs": [
        {
          "internalType": "address",
          "name": "_deviceAddress",
          "type": "address"
        }
      ],
      "name": "isAuthorizedDevice",
      "outputs": [
        {
          "internalType": "bool",
          "name": "",
          "type": "bool"
        }
      ],
      "stateMutability": "view",
      "type": "function"
    },
    {
      "inputs": [],
      "name": "owner",
      "outputs": [
        {
          "internalType": "address",
          "name": "",
          "type": "address"
        }
      ],
      "stateMutability": "view",
      "type": "function"
    },
    {
      "inputs": [
        {
          "internalType": "address",
          "name": "_newDeviceAddress",
          "type": "address"
        }
      ],
      "name": "registerDevice",
      "outputs": [],
      "stateMutability": "nonpayable",
      "type": "function"
    },
    {
      "inputs": [
        {
          "internalType": "address",
          "name": "_deviceAddressToRemove",
          "type": "address"
        }
      ],
      "name": "removeDevice",
      "outputs": [],
      "stateMutability": "nonpayable",
      "type": "function"
    },
    {
      "inputs": [],
      "name": "renounceOwnership",
      "outputs": [],
      "stateMutability": "nonpayable",
      "type": "function"
    },
    {
      "inputs": [
        {
          "internalType": "address",
          "name": "_dataSourseToSuspend",
          "type": "address"
        }
      ],
      "name": "suspendDevice",
      "outputs": [],
      "stateMutability": "nonpayable",
      "type": "function"
    },
    {
      "inputs": [
        {
          "internalType": "address",
          "name": "newOwner",
          "type": "address"
        }
      ],
      "name": "transferOwnership",
      "outputs": [],
      "stateMutability": "nonpayable",
      "type": "function"
    }
  ],
  "bytecode": "0x60806040523480156200001157600080fd5b5062000032620000266200006760201b60201c565b6200006f60201b60201c565b6200006160405180606001604052806022815260200162001601602291396200013360201b62000ced1760201c565b620002c7565b600033905090565b60008060009054906101000a900473ffffffffffffffffffffffffffffffffffffffff169050816000806101000a81548173ffffffffffffffffffffffffffffffffffffffff021916908373ffffffffffffffffffffffffffffffffffffffff1602179055508173ffffffffffffffffffffffffffffffffffffffff168173ffffffffffffffffffffffffffffffffffffffff167f8be0079c531659141344cd1fd0a4f28419497f9722a3daafe3b4186f6b6457e060405160405180910390a35050565b620001d3816040516024016200014a919062000240565b6040516020818303038152906040527f41304fac000000000000000000000000000000000000000000000000000000007bffffffffffffffffffffffffffffffffffffffffffffffffffffffff19166020820180517bffffffffffffffffffffffffffffffffffffffffffffffffffffffff8381831617835250505050620001d660201b60201c565b50565b60008151905060006a636f6e736f6c652e6c6f679050602083016000808483855afa5050505050565b60006200020c8262000264565b6200021881856200026f565b93506200022a81856020860162000280565b6200023581620002b6565b840191505092915050565b600060208201905081810360008301526200025c8184620001ff565b905092915050565b600081519050919050565b600082825260208201905092915050565b60005b83811015620002a057808201518184015260208101905062000283565b83811115620002b0576000848401525b50505050565b6000601f19601f8301169050919050565b61132a80620002d76000396000f3fe608060405234801561001057600080fd5b50600436106100935760003560e01c80638da5cb5b116100665780638da5cb5b146100f6578063a6fe66de14610114578063c9fd65c514610144578063e34b167014610160578063f2fde38b1461019157610093565b8063127157c3146100985780631f7b6324146100b45780636dc7b9a5146100d0578063715018a6146100ec575b600080fd5b6100b260048036038101906100ad9190610e90565b6101ad565b005b6100ce60048036038101906100c99190610e90565b6103ec565b005b6100ea60048036038101906100e59190610e90565b6105a9565b005b6100f461079a565b005b6100fe610822565b60405161010b9190610fe2565b60405180910390f35b61012e60048036038101906101299190610e90565b61084b565b60405161013b9190610ffd565b60405180910390f35b61015e60048036038101906101599190610e90565b610978565b005b61017a60048036038101906101759190610e90565b610bb7565b604051610188929190611018565b60405180910390f35b6101ab60048036038101906101a69190610e90565b610bf5565b005b6101b5610d86565b73ffffffffffffffffffffffffffffffffffffffff166101d3610822565b73ffffffffffffffffffffffffffffffffffffffff1614610229576040517f08c379a0000000000000000000000000000000000000000000000000000000008152600401610220906110c3565b60405180910390fd5b80600160008273ffffffffffffffffffffffffffffffffffffffff1673ffffffffffffffffffffffffffffffffffffffff16815260200190815260200160002060000160009054906101000a900460ff166102b9576040517f08c379a00000000000000000000000000000000000000000000000000000000081526004016102b0906110e3565b60405180910390fd5b81600160008273ffffffffffffffffffffffffffffffffffffffff1673ffffffffffffffffffffffffffffffffffffffff16815260200190815260200160002060000160019054906101000a900460ff161561034a576040517f08c379a0000000000000000000000000000000000000000000000000000000008152600401610341906110a3565b60405180910390fd5b60018060008573ffffffffffffffffffffffffffffffffffffffff1673ffffffffffffffffffffffffffffffffffffffff16815260200190815260200160002060000160016101000a81548160ff0219169083151502179055508273ffffffffffffffffffffffffffffffffffffffff167f6e6ce1da269ab1f571a737cdc56e1d5ffad073ff99aa5925df6d9d972fb2b3d460405160405180910390a2505050565b6103f4610d86565b73ffffffffffffffffffffffffffffffffffffffff16610412610822565b73ffffffffffffffffffffffffffffffffffffffff1614610468576040517f08c379a000000000000000000000000000000000000000000000000000000000815260040161045f906110c3565b60405180910390fd5b80600160008273ffffffffffffffffffffffffffffffffffffffff1673ffffffffffffffffffffffffffffffffffffffff16815260200190815260200160002060000160009054906101000a900460ff166104f8576040517f08c379a00000000000000000000000000000000000000000000000000000000081526004016104ef906110e3565b60405180910390fd5b600160008373ffffffffffffffffffffffffffffffffffffffff1673ffffffffffffffffffffffffffffffffffffffff168152602001908152602001600020600080820160006101000a81549060ff02191690556000820160016101000a81549060ff021916905550508173ffffffffffffffffffffffffffffffffffffffff167fbc120d0a6994481e0bbe15102da86b4b9022da8f1c61b652302a22a4d34c3b4060405160405180910390a25050565b6105b1610d86565b73ffffffffffffffffffffffffffffffffffffffff166105cf610822565b73ffffffffffffffffffffffffffffffffffffffff1614610625576040517f08c379a000000000000000000000000000000000000000000000000000000000815260040161061c906110c3565b60405180910390fd5b80600160008273ffffffffffffffffffffffffffffffffffffffff1673ffffffffffffffffffffffffffffffffffffffff16815260200190815260200160002060000160009054906101000a900460ff16156106b6576040517f08c379a00000000000000000000000000000000000000000000000000000000081526004016106ad90611083565b60405180910390fd5b604051806040016040528060011515815260200160011515815250600160008473ffffffffffffffffffffffffffffffffffffffff1673ffffffffffffffffffffffffffffffffffffffff16815260200190815260200160002060008201518160000160006101000a81548160ff02191690831515021790555060208201518160000160016101000a81548160ff0219169083151502179055509050508173ffffffffffffffffffffffffffffffffffffffff167f05d7f0c690676ba31675b45bcdb9ff4c34bb10744ec89d329eacd93c79ecc02960405160405180910390a25050565b6107a2610d86565b73ffffffffffffffffffffffffffffffffffffffff166107c0610822565b73ffffffffffffffffffffffffffffffffffffffff1614610816576040517f08c379a000000000000000000000000000000000000000000000000000000000815260040161080d906110c3565b60405180910390fd5b6108206000610d8e565b565b60008060009054906101000a900473ffffffffffffffffffffffffffffffffffffffff16905090565b600081600160008273ffffffffffffffffffffffffffffffffffffffff1673ffffffffffffffffffffffffffffffffffffffff16815260200190815260200160002060000160009054906101000a900460ff166108dd576040517f08c379a00000000000000000000000000000000000000000000000000000000081526004016108d4906110e3565b60405180910390fd5b82600160008273ffffffffffffffffffffffffffffffffffffffff1673ffffffffffffffffffffffffffffffffffffffff16815260200190815260200160002060000160019054906101000a900460ff1661096d576040517f08c379a000000000000000000000000000000000000000000000000000000000815260040161096490611103565b60405180910390fd5b600192505050919050565b610980610d86565b73ffffffffffffffffffffffffffffffffffffffff1661099e610822565b73ffffffffffffffffffffffffffffffffffffffff16146109f4576040517f08c379a00000000000000000000000000000000000000000000000000000000081526004016109eb906110c3565b60405180910390fd5b80600160008273ffffffffffffffffffffffffffffffffffffffff1673ffffffffffffffffffffffffffffffffffffffff16815260200190815260200160002060000160009054906101000a900460ff16610a84576040517f08c379a0000000000000000000000000000000000000000000000000000000008152600401610a7b906110e3565b60405180910390fd5b81600160008273ffffffffffffffffffffffffffffffffffffffff1673ffffffffffffffffffffffffffffffffffffffff16815260200190815260200160002060000160019054906101000a900460ff16610b14576040517f08c379a0000000000000000000000000000000000000000000000000000000008152600401610b0b90611103565b60405180910390fd5b6000600160008573ffffffffffffffffffffffffffffffffffffffff1673ffffffffffffffffffffffffffffffffffffffff16815260200190815260200160002060000160016101000a81548160ff0219169083151502179055508273ffffffffffffffffffffffffffffffffffffffff167f9fe2aea0a7bf9e602e4622d5ab172a7e5c371ad8f238ff80305cfb08e3d0073660405160405180910390a2505050565b60016020528060005260406000206000915090508060000160009054906101000a900460ff16908060000160019054906101000a900460ff16905082565b610bfd610d86565b73ffffffffffffffffffffffffffffffffffffffff16610c1b610822565b73ffffffffffffffffffffffffffffffffffffffff1614610c71576040517f08c379a0000000000000000000000000000000000000000000000000000000008152600401610c68906110c3565b60405180910390fd5b600073ffffffffffffffffffffffffffffffffffffffff168173ffffffffffffffffffffffffffffffffffffffff161415610ce1576040517f08c379a0000000000000000000000000000000000000000000000000000000008152600401610cd890611063565b60405180910390fd5b610cea81610d8e565b50565b610d8381604051602401610d019190611041565b6040516020818303038152906040527f41304fac000000000000000000000000000000000000000000000000000000007bffffffffffffffffffffffffffffffffffffffffffffffffffffffff19166020820180517bffffffffffffffffffffffffffffffffffffffffffffffffffffffff8381831617835250505050610e52565b50565b600033905090565b60008060009054906101000a900473ffffffffffffffffffffffffffffffffffffffff169050816000806101000a81548173ffffffffffffffffffffffffffffffffffffffff021916908373ffffffffffffffffffffffffffffffffffffffff1602179055508173ffffffffffffffffffffffffffffffffffffffff168173ffffffffffffffffffffffffffffffffffffffff167f8be0079c531659141344cd1fd0a4f28419497f9722a3daafe3b4186f6b6457e060405160405180910390a35050565b60008151905060006a636f6e736f6c652e6c6f679050602083016000808483855afa5050505050565b600081359050610e8a816112dd565b92915050565b600060208284031215610ea257600080fd5b6000610eb084828501610e7b565b91505092915050565b610ec28161113f565b82525050565b610ed181611151565b82525050565b6000610ee282611123565b610eec818561112e565b9350610efc81856020860161117d565b610f05816111b0565b840191505092915050565b6000610f1d60268361112e565b9150610f28826111c1565b604082019050919050565b6000610f40601e8361112e565b9150610f4b82611210565b602082019050919050565b6000610f6360158361112e565b9150610f6e82611239565b602082019050919050565b6000610f8660208361112e565b9150610f9182611262565b602082019050919050565b6000610fa9601d8361112e565b9150610fb48261128b565b602082019050919050565b6000610fcc60188361112e565b9150610fd7826112b4565b602082019050919050565b6000602082019050610ff76000830184610eb9565b92915050565b60006020820190506110126000830184610ec8565b92915050565b600060408201905061102d6000830185610ec8565b61103a6020830184610ec8565b9392505050565b6000602082019050818103600083015261105b8184610ed7565b905092915050565b6000602082019050818103600083015261107c81610f10565b9050919050565b6000602082019050818103600083015261109c81610f33565b9050919050565b600060208201905081810360008301526110bc81610f56565b9050919050565b600060208201905081810360008301526110dc81610f79565b9050919050565b600060208201905081810360008301526110fc81610f9c565b9050919050565b6000602082019050818103600083015261111c81610fbf565b9050919050565b600081519050919050565b600082825260208201905092915050565b600061114a8261115d565b9050919050565b60008115159050919050565b600073ffffffffffffffffffffffffffffffffffffffff82169050919050565b60005b8381101561119b578082015181840152602081019050611180565b838111156111aa576000848401525b50505050565b6000601f19601f8301169050919050565b7f4f776e61626c653a206e6577206f776e657220697320746865207a65726f206160008201527f6464726573730000000000000000000000000000000000000000000000000000602082015250565b7f4461746120536f7572636520616c726561647920726567697374657265640000600082015250565b7f4461746120536f75726365206973206163746976650000000000000000000000600082015250565b7f4f776e61626c653a2063616c6c6572206973206e6f7420746865206f776e6572600082015250565b7f4461746120536f75726365206973206e6f742072656769737465726564000000600082015250565b7f4461746120536f757263652069732073757370656e6465640000000000000000600082015250565b6112e68161113f565b81146112f157600080fd5b5056fea2646970667358221220ce39a7c6e5497857d30b8c0d520dcc9c27034a1728b534005e9d1c2ae29ffc1364736f6c634300080400334465706c6f79696e672044657669636573526567697374727920636f6e7472616374",
  "linkReferences": {},
  "deployedLinkReferences": {}
}