{
  "_format": "hh-sol-artifact-1",
  "contractName": "DevicesRegistry",
  "sourceName": "contracts/DevicesRegistry.sol",
  "abi": [
    {
      "inputs": [],
      "stateMutability": "nonpayable",
      "type": "constructor"
    },
    {
      "anonymous": false,
      "inputs": [
        {
          "indexed": true,
          "internalType": "address",
          "name": "_deviceAddress",
          "type": "address"
        }
      ],
      "name": "DeviceActivated",
      "type": "event"
    },
    {
      "anonymous": false,
      "inputs": [
        {
          "indexed": true,
          "internalType": "address",
          "name": "_deviceAddress",
          "type": "address"
        }
      ],
      "name": "DeviceDeleted",
      "type": "event"
    },
    {
      "anonymous": false,
      "inputs": [
        {
          "indexed": true,
          "internalType": "address",
          "name": "_deviceAddress",
          "type": "address"
        }
      ],
      "name": "DeviceRegistered",
      "type": "event"
    },
    {
      "anonymous": false,
      "inputs": [
        {
          "indexed": true,
          "internalType": "address",
          "name": "_deviceAddress",
          "type": "address"
        }
      ],
      "name": "DeviceSuspended",
      "type": "event"
    },
    {
      "anonymous": false,
      "inputs": [
        {
          "indexed": true,
          "internalType": "address",
          "name": "previousOwner",
          "type": "address"
        },
        {
          "indexed": true,
          "internalType": "address",
          "name": "newOwner",
          "type": "address"
        }
      ],
      "name": "OwnershipTransferred",
      "type": "event"
    },
    {
      "inputs": [
        {
          "internalType": "address",
          "name": "",
          "type": "address"
        }
      ],
      "name": "AuthorizedDevices",
      "outputs": [
        {
          "internalType": "bool",
          "name": "isRegistered",
          "type": "bool"
        },
        {
          "internalType": "bool",
          "name": "isActive",
          "type": "bool"
        }
      ],
      "stateMutability": "view",
      "type": "function"
    },
    {
      "inputs": [
        {
          "internalType": "address",
          "name": "_deviceAddressToActivate",
          "type": "address"
        }
      ],
      "name": "activateDevice",
      "outputs": [],
      "stateMutability": "nonpayable",
      "type": "function"
    },
    {
      "inputs": [
        {
          "internalType": "address",
          "name": "_deviceAddress",
          "type": "address"
        }
      ],
      "name": "isAuthorizedDevice",
      "outputs": [
        {
          "internalType": "bool",
          "name": "",
          "type": "bool"
        }
      ],
      "stateMutability": "view",
      "type": "function"
    },
    {
      "inputs": [],
      "name": "owner",
      "outputs": [
        {
          "internalType": "address",
          "name": "",
          "type": "address"
        }
      ],
      "stateMutability": "view",
      "type": "function"
    },
    {
      "inputs": [
        {
          "internalType": "address",
          "name": "_newDeviceAddress",
          "type": "address"
        }
      ],
      "name": "registerDevice",
      "outputs": [],
      "stateMutability": "nonpayable",
      "type": "function"
    },
    {
      "inputs": [
        {
          "internalType": "address",
          "name": "_deviceAddressToRemove",
          "type": "address"
        }
      ],
      "name": "removeDevice",
      "outputs": [],
      "stateMutability": "nonpayable",
      "type": "function"
    },
    {
      "inputs": [],
      "name": "renounceOwnership",
      "outputs": [],
      "stateMutability": "nonpayable",
      "type": "function"
    },
    {
      "inputs": [
        {
          "internalType": "address",
          "name": "_dataSourseToSuspend",
          "type": "address"
        }
      ],
      "name": "suspendDevice",
      "outputs": [],
      "stateMutability": "nonpayable",
      "type": "function"
    },
    {
      "inputs": [
        {
          "internalType": "address",
          "name": "newOwner",
          "type": "address"
        }
      ],
      "name": "transferOwnership",
      "outputs": [],
      "stateMutability": "nonpayable",
      "type": "function"
    }
  ],
  "bytecode": "0x60806040523480156200001157600080fd5b5062000032620000266200006760201b60201c565b6200006f60201b60201c565b62000061604051806060016040528060228152602001620013c7602291396200013360201b62000a351760201c565b620002c7565b600033905090565b60008060009054906101000a900473ffffffffffffffffffffffffffffffffffffffff169050816000806101000a81548173ffffffffffffffffffffffffffffffffffffffff021916908373ffffffffffffffffffffffffffffffffffffffff1602179055508173ffffffffffffffffffffffffffffffffffffffff168173ffffffffffffffffffffffffffffffffffffffff167f8be0079c531659141344cd1fd0a4f28419497f9722a3daafe3b4186f6b6457e060405160405180910390a35050565b620001d3816040516024016200014a919062000240565b6040516020818303038152906040527f41304fac000000000000000000000000000000000000000000000000000000007bffffffffffffffffffffffffffffffffffffffffffffffffffffffff19166020820180517bffffffffffffffffffffffffffffffffffffffffffffffffffffffff8381831617835250505050620001d660201b60201c565b50565b60008151905060006a636f6e736f6c652e6c6f679050602083016000808483855afa5050505050565b60006200020c8262000264565b6200021881856200026f565b93506200022a81856020860162000280565b6200023581620002b6565b840191505092915050565b600060208201905081810360008301526200025c8184620001ff565b905092915050565b600081519050919050565b600082825260208201905092915050565b60005b83811015620002a057808201518184015260208101905062000283565b83811115620002b0576000848401525b50505050565b6000601f19601f8301169050919050565b6110f080620002d76000396000f3fe608060405234801561001057600080fd5b50600436106100935760003560e01c80638da5cb5b116100665780638da5cb5b146100f6578063a6fe66de14610114578063c9fd65c514610144578063e34b167014610160578063f2fde38b1461019157610093565b8063127157c3146100985780631f7b6324146100b45780636dc7b9a5146100d0578063715018a6146100ec575b600080fd5b6100b260048036038101906100ad9190610c56565b6101ad565b005b6100ce60048036038101906100c99190610c56565b610378565b005b6100ea60048036038101906100e59190610c56565b6104c1565b005b6100f461063e565b005b6100fe610652565b60405161010b9190610da8565b60405180910390f35b61012e60048036038101906101299190610c56565b61067b565b60405161013b9190610dc3565b60405180910390f35b61015e60048036038101906101599190610c56565b6107a8565b005b61017a60048036038101906101759190610c56565b610973565b604051610188929190610dde565b60405180910390f35b6101ab60048036038101906101a69190610c56565b6109b1565b005b6101b5610ace565b80600160008273ffffffffffffffffffffffffffffffffffffffff1673ffffffffffffffffffffffffffffffffffffffff16815260200190815260200160002060000160009054906101000a900460ff16610245576040517f08c379a000000000000000000000000000000000000000000000000000000000815260040161023c90610ea9565b60405180910390fd5b81600160008273ffffffffffffffffffffffffffffffffffffffff1673ffffffffffffffffffffffffffffffffffffffff16815260200190815260200160002060000160019054906101000a900460ff16156102d6576040517f08c379a00000000000000000000000000000000000000000000000000000000081526004016102cd90610e69565b60405180910390fd5b60018060008573ffffffffffffffffffffffffffffffffffffffff1673ffffffffffffffffffffffffffffffffffffffff16815260200190815260200160002060000160016101000a81548160ff0219169083151502179055508273ffffffffffffffffffffffffffffffffffffffff167f6e6ce1da269ab1f571a737cdc56e1d5ffad073ff99aa5925df6d9d972fb2b3d460405160405180910390a2505050565b610380610ace565b80600160008273ffffffffffffffffffffffffffffffffffffffff1673ffffffffffffffffffffffffffffffffffffffff16815260200190815260200160002060000160009054906101000a900460ff16610410576040517f08c379a000000000000000000000000000000000000000000000000000000000815260040161040790610ea9565b60405180910390fd5b600160008373ffffffffffffffffffffffffffffffffffffffff1673ffffffffffffffffffffffffffffffffffffffff168152602001908152602001600020600080820160006101000a81549060ff02191690556000820160016101000a81549060ff021916905550508173ffffffffffffffffffffffffffffffffffffffff167fbc120d0a6994481e0bbe15102da86b4b9022da8f1c61b652302a22a4d34c3b4060405160405180910390a25050565b6104c9610ace565b80600160008273ffffffffffffffffffffffffffffffffffffffff1673ffffffffffffffffffffffffffffffffffffffff16815260200190815260200160002060000160009054906101000a900460ff161561055a576040517f08c379a000000000000000000000000000000000000000000000000000000000815260040161055190610e49565b60405180910390fd5b604051806040016040528060011515815260200160011515815250600160008473ffffffffffffffffffffffffffffffffffffffff1673ffffffffffffffffffffffffffffffffffffffff16815260200190815260200160002060008201518160000160006101000a81548160ff02191690831515021790555060208201518160000160016101000a81548160ff0219169083151502179055509050508173ffffffffffffffffffffffffffffffffffffffff167f05d7f0c690676ba31675b45bcdb9ff4c34bb10744ec89d329eacd93c79ecc02960405160405180910390a25050565b610646610ace565b6106506000610b4c565b565b60008060009054906101000a900473ffffffffffffffffffffffffffffffffffffffff16905090565b600081600160008273ffffffffffffffffffffffffffffffffffffffff1673ffffffffffffffffffffffffffffffffffffffff16815260200190815260200160002060000160009054906101000a900460ff1661070d576040517f08c379a000000000000000000000000000000000000000000000000000000000815260040161070490610ea9565b60405180910390fd5b82600160008273ffffffffffffffffffffffffffffffffffffffff1673ffffffffffffffffffffffffffffffffffffffff16815260200190815260200160002060000160019054906101000a900460ff1661079d576040517f08c379a000000000000000000000000000000000000000000000000000000000815260040161079490610ec9565b60405180910390fd5b600192505050919050565b6107b0610ace565b80600160008273ffffffffffffffffffffffffffffffffffffffff1673ffffffffffffffffffffffffffffffffffffffff16815260200190815260200160002060000160009054906101000a900460ff16610840576040517f08c379a000000000000000000000000000000000000000000000000000000000815260040161083790610ea9565b60405180910390fd5b81600160008273ffffffffffffffffffffffffffffffffffffffff1673ffffffffffffffffffffffffffffffffffffffff16815260200190815260200160002060000160019054906101000a900460ff166108d0576040517f08c379a00000000000000000000000000000000000000000000000000000000081526004016108c790610ec9565b60405180910390fd5b6000600160008573ffffffffffffffffffffffffffffffffffffffff1673ffffffffffffffffffffffffffffffffffffffff16815260200190815260200160002060000160016101000a81548160ff0219169083151502179055508273ffffffffffffffffffffffffffffffffffffffff167f9fe2aea0a7bf9e602e4622d5ab172a7e5c371ad8f238ff80305cfb08e3d0073660405160405180910390a2505050565b60016020528060005260406000206000915090508060000160009054906101000a900460ff16908060000160019054906101000a900460ff16905082565b6109b9610ace565b600073ffffffffffffffffffffffffffffffffffffffff168173ffffffffffffffffffffffffffffffffffffffff161415610a29576040517f08c379a0000000000000000000000000000000000000000000000000000000008152600401610a2090610e29565b60405180910390fd5b610a3281610b4c565b50565b610acb81604051602401610a499190610e07565b6040516020818303038152906040527f41304fac000000000000000000000000000000000000000000000000000000007bffffffffffffffffffffffffffffffffffffffffffffffffffffffff19166020820180517bffffffffffffffffffffffffffffffffffffffffffffffffffffffff8381831617835250505050610c10565b50565b610ad6610c39565b73ffffffffffffffffffffffffffffffffffffffff16610af4610652565b73ffffffffffffffffffffffffffffffffffffffff1614610b4a576040517f08c379a0000000000000000000000000000000000000000000000000000000008152600401610b4190610e89565b60405180910390fd5b565b60008060009054906101000a900473ffffffffffffffffffffffffffffffffffffffff169050816000806101000a81548173ffffffffffffffffffffffffffffffffffffffff021916908373ffffffffffffffffffffffffffffffffffffffff1602179055508173ffffffffffffffffffffffffffffffffffffffff168173ffffffffffffffffffffffffffffffffffffffff167f8be0079c531659141344cd1fd0a4f28419497f9722a3daafe3b4186f6b6457e060405160405180910390a35050565b60008151905060006a636f6e736f6c652e6c6f679050602083016000808483855afa5050505050565b600033905090565b600081359050610c50816110a3565b92915050565b600060208284031215610c6857600080fd5b6000610c7684828501610c41565b91505092915050565b610c8881610f05565b82525050565b610c9781610f17565b82525050565b6000610ca882610ee9565b610cb28185610ef4565b9350610cc2818560208601610f43565b610ccb81610f76565b840191505092915050565b6000610ce3602683610ef4565b9150610cee82610f87565b604082019050919050565b6000610d06601e83610ef4565b9150610d1182610fd6565b602082019050919050565b6000610d29601583610ef4565b9150610d3482610fff565b602082019050919050565b6000610d4c602083610ef4565b9150610d5782611028565b602082019050919050565b6000610d6f601d83610ef4565b9150610d7a82611051565b602082019050919050565b6000610d92601883610ef4565b9150610d9d8261107a565b602082019050919050565b6000602082019050610dbd6000830184610c7f565b92915050565b6000602082019050610dd86000830184610c8e565b92915050565b6000604082019050610df36000830185610c8e565b610e006020830184610c8e565b9392505050565b60006020820190508181036000830152610e218184610c9d565b905092915050565b60006020820190508181036000830152610e4281610cd6565b9050919050565b60006020820190508181036000830152610e6281610cf9565b9050919050565b60006020820190508181036000830152610e8281610d1c565b9050919050565b60006020820190508181036000830152610ea281610d3f565b9050919050565b60006020820190508181036000830152610ec281610d62565b9050919050565b60006020820190508181036000830152610ee281610d85565b9050919050565b600081519050919050565b600082825260208201905092915050565b6000610f1082610f23565b9050919050565b60008115159050919050565b600073ffffffffffffffffffffffffffffffffffffffff82169050919050565b60005b83811015610f61578082015181840152602081019050610f46565b83811115610f70576000848401525b50505050565b6000601f19601f8301169050919050565b7f4f776e61626c653a206e6577206f776e657220697320746865207a65726f206160008201527f6464726573730000000000000000000000000000000000000000000000000000602082015250565b7f4461746120536f7572636520616c726561647920726567697374657265640000600082015250565b7f4461746120536f75726365206973206163746976650000000000000000000000600082015250565b7f4f776e61626c653a2063616c6c6572206973206e6f7420746865206f776e6572600082015250565b7f4461746120536f75726365206973206e6f742072656769737465726564000000600082015250565b7f4461746120536f757263652069732073757370656e6465640000000000000000600082015250565b6110ac81610f05565b81146110b757600080fd5b5056fea2646970667358221220927cd89a6b8f078d89d253b62833025482546551e2d77363a2fd383bf5b80cbd64736f6c634300080400334465706c6f79696e672044657669636573526567697374727920636f6e7472616374",
  "linkReferences": {},
  "deployedLinkReferences": {}
}