{
  "_format": "hh-sol-artifact-1",
  "contractName": "TestCapacity",
  "sourceName": "contracts/TestCapacity.sol",
  "abi": [
    {
      "inputs": [],
      "stateMutability": "nonpayable",
      "type": "constructor"
    },
    {
      "inputs": [
        {
          "internalType": "address[]",
          "name": "addressList",
          "type": "address[]"
        },
        {
          "internalType": "uint256[]",
          "name": "balanceList",
          "type": "uint256[]"
        }
      ],
      "name": "addRewardTransactions",
      "outputs": [],
      "stateMutability": "nonpayable",
      "type": "function"
    }
  ],
  "bytecode": "0x608060405234801561001057600080fd5b5061064a806100206000396000f3fe608060405234801561001057600080fd5b506004361061002b5760003560e01c8063623fbe9914610030575b600080fd5b61004a600480360381019061004591906102df565b61004c565b005b8051825114610090576040517f08c379a00000000000000000000000000000000000000000000000000000000081526004016100879061036e565b60405180910390fd5b60005b8151811015610184578181815181106100d5577f4e487b7100000000000000000000000000000000000000000000000000000000600052603260045260246000fd5b6020026020010151600080858481518110610119577f4e487b7100000000000000000000000000000000000000000000000000000000600052603260045260246000fd5b602002602001015173ffffffffffffffffffffffffffffffffffffffff1673ffffffffffffffffffffffffffffffffffffffff168152602001908152602001600020600082825461016a919061041c565b92505081905550808061017c906104df565b915050610093565b505050565b600061019c610197846103b3565b61038e565b905080838252602082019050828560208602820111156101bb57600080fd5b60005b858110156101eb57816101d18882610261565b8452602084019350602083019250506001810190506101be565b5050509392505050565b6000610208610203846103df565b61038e565b9050808382526020820190508285602086028201111561022757600080fd5b60005b85811015610257578161023d88826102ca565b84526020840193506020830192505060018101905061022a565b5050509392505050565b600081359050610270816105e6565b92915050565b600082601f83011261028757600080fd5b8135610297848260208601610189565b91505092915050565b600082601f8301126102b157600080fd5b81356102c18482602086016101f5565b91505092915050565b6000813590506102d9816105fd565b92915050565b600080604083850312156102f257600080fd5b600083013567ffffffffffffffff81111561030c57600080fd5b61031885828601610276565b925050602083013567ffffffffffffffff81111561033557600080fd5b610341858286016102a0565b9150509250929050565b6000610358602e8361040b565b915061036382610597565b604082019050919050565b600060208201905081810360008301526103878161034b565b9050919050565b60006103986103a9565b90506103a482826104ae565b919050565b6000604051905090565b600067ffffffffffffffff8211156103ce576103cd610557565b5b602082029050602081019050919050565b600067ffffffffffffffff8211156103fa576103f9610557565b5b602082029050602081019050919050565b600082825260208201905092915050565b6000610427826104a4565b9150610432836104a4565b9250827fffffffffffffffffffffffffffffffffffffffffffffffffffffffffffffffff0382111561046757610466610528565b5b828201905092915050565b600061047d82610484565b9050919050565b600073ffffffffffffffffffffffffffffffffffffffff82169050919050565b6000819050919050565b6104b782610586565b810181811067ffffffffffffffff821117156104d6576104d5610557565b5b80604052505050565b60006104ea826104a4565b91507fffffffffffffffffffffffffffffffffffffffffffffffffffffffffffffffff82141561051d5761051c610528565b5b600182019050919050565b7f4e487b7100000000000000000000000000000000000000000000000000000000600052601160045260246000fd5b7f4e487b7100000000000000000000000000000000000000000000000000000000600052604160045260246000fd5b6000601f19601f8301169050919050565b7f6164647265737320616e642062616c616e6365206c656e6774682073686f756c60008201527f64206265207468652073616d652e000000000000000000000000000000000000602082015250565b6105ef81610472565b81146105fa57600080fd5b50565b610606816104a4565b811461061157600080fd5b5056fea264697066735822122075898532bda6d92e46721bf182b0636bfb614ba114d930c73712d90df87a7feb64736f6c63430008040033",
  "linkReferences": {},
  "deployedLinkReferences": {}
}