{
  "_format": "hh-sol-artifact-1",
  "contractName": "NFT",
  "sourceName": "contracts/NFT.sol",
  "abi": [
    {
      "inputs": [
        {
          "internalType": "address",
          "name": "_token_address",
          "type": "address"
        },
        {
          "internalType": "uint256",
          "name": "_maxNormalSupply",
          "type": "uint256"
        },
        {
          "internalType": "uint256",
          "name": "_priceNormalNFT",
          "type": "uint256"
        },
        {
          "internalType": "uint256",
          "name": "_maxSpecialSupply",
          "type": "uint256"
        },
        {
          "internalType": "uint256",
          "name": "_priceSpecialNFT",
          "type": "uint256"
        }
      ],
      "stateMutability": "nonpayable",
      "type": "constructor"
    },
    {
      "anonymous": false,
      "inputs": [
        {
          "indexed": true,
          "internalType": "address",
          "name": "previousOwner",
          "type": "address"
        },
        {
          "indexed": true,
          "internalType": "address",
          "name": "newOwner",
          "type": "address"
        }
      ],
      "name": "OwnershipTransferred",
      "type": "event"
    },
    {
      "inputs": [
        {
          "internalType": "address",
          "name": "account",
          "type": "address"
        }
      ],
      "name": "balanceOf",
      "outputs": [
        {
          "internalType": "uint256",
          "name": "normalNFT",
          "type": "uint256"
        },
        {
          "internalType": "uint256",
          "name": "specialNFT",
          "type": "uint256"
        }
      ],
      "stateMutability": "view",
      "type": "function"
    },
    {
      "inputs": [
        {
          "internalType": "address",
          "name": "addr",
          "type": "address"
        }
      ],
      "name": "getAcquiredTime",
      "outputs": [
        {
          "internalType": "uint256",
          "name": "",
          "type": "uint256"
        }
      ],
      "stateMutability": "view",
      "type": "function"
    },
    {
      "inputs": [
        {
          "internalType": "address",
          "name": "addr",
          "type": "address"
        }
      ],
      "name": "insertWhiteList",
      "outputs": [],
      "stateMutability": "nonpayable",
      "type": "function"
    },
    {
      "inputs": [
        {
          "internalType": "address[]",
          "name": "addrList",
          "type": "address[]"
        }
      ],
      "name": "insertWhiteListArray",
      "outputs": [],
      "stateMutability": "nonpayable",
      "type": "function"
    },
    {
      "inputs": [
        {
          "internalType": "address",
          "name": "addr",
          "type": "address"
        }
      ],
      "name": "isWhiteLists",
      "outputs": [
        {
          "internalType": "bool",
          "name": "",
          "type": "bool"
        }
      ],
      "stateMutability": "view",
      "type": "function"
    },
    {
      "inputs": [],
      "name": "maxNormalSupply",
      "outputs": [
        {
          "internalType": "uint256",
          "name": "",
          "type": "uint256"
        }
      ],
      "stateMutability": "view",
      "type": "function"
    },
    {
      "inputs": [],
      "name": "maxSpecialSupply",
      "outputs": [
        {
          "internalType": "uint256",
          "name": "",
          "type": "uint256"
        }
      ],
      "stateMutability": "view",
      "type": "function"
    },
    {
      "inputs": [],
      "name": "owner",
      "outputs": [
        {
          "internalType": "address",
          "name": "",
          "type": "address"
        }
      ],
      "stateMutability": "view",
      "type": "function"
    },
    {
      "inputs": [],
      "name": "priceNormalNFT",
      "outputs": [
        {
          "internalType": "uint256",
          "name": "",
          "type": "uint256"
        }
      ],
      "stateMutability": "view",
      "type": "function"
    },
    {
      "inputs": [],
      "name": "priceSpecialNFT",
      "outputs": [
        {
          "internalType": "uint256",
          "name": "",
          "type": "uint256"
        }
      ],
      "stateMutability": "view",
      "type": "function"
    },
    {
      "inputs": [
        {
          "internalType": "address",
          "name": "addr",
          "type": "address"
        }
      ],
      "name": "removeNFT",
      "outputs": [],
      "stateMutability": "nonpayable",
      "type": "function"
    },
    {
      "inputs": [
        {
          "internalType": "address",
          "name": "addr",
          "type": "address"
        }
      ],
      "name": "removeWhiteList",
      "outputs": [],
      "stateMutability": "nonpayable",
      "type": "function"
    },
    {
      "inputs": [],
      "name": "renounceOwnership",
      "outputs": [],
      "stateMutability": "nonpayable",
      "type": "function"
    },
    {
      "inputs": [
        {
          "internalType": "uint256",
          "name": "_maxNormalSupply",
          "type": "uint256"
        }
      ],
      "name": "setMaxNormalSupply",
      "outputs": [],
      "stateMutability": "nonpayable",
      "type": "function"
    },
    {
      "inputs": [
        {
          "internalType": "uint256",
          "name": "_maxSpecialSupply",
          "type": "uint256"
        }
      ],
      "name": "setMaxSpecialSupply",
      "outputs": [],
      "stateMutability": "nonpayable",
      "type": "function"
    },
    {
      "inputs": [
        {
          "internalType": "uint256",
          "name": "_priceNormalNFT",
          "type": "uint256"
        }
      ],
      "name": "setNormalPrice",
      "outputs": [],
      "stateMutability": "nonpayable",
      "type": "function"
    },
    {
      "inputs": [
        {
          "internalType": "uint256",
          "name": "_priceSpecialNFT",
          "type": "uint256"
        }
      ],
      "name": "setSpecialPrice",
      "outputs": [],
      "stateMutability": "nonpayable",
      "type": "function"
    },
    {
      "inputs": [
        {
          "internalType": "address",
          "name": "_token_address",
          "type": "address"
        }
      ],
      "name": "setTokenAddress",
      "outputs": [],
      "stateMutability": "nonpayable",
      "type": "function"
    },
    {
      "inputs": [],
      "name": "totalNormalSupply",
      "outputs": [
        {
          "internalType": "uint256",
          "name": "",
          "type": "uint256"
        }
      ],
      "stateMutability": "view",
      "type": "function"
    },
    {
      "inputs": [],
      "name": "totalSpecialSupply",
      "outputs": [
        {
          "internalType": "uint256",
          "name": "",
          "type": "uint256"
        }
      ],
      "stateMutability": "view",
      "type": "function"
    },
    {
      "inputs": [
        {
          "internalType": "uint256",
          "name": "_normalNFTCnt",
          "type": "uint256"
        },
        {
          "internalType": "uint256",
          "name": "_specialNFTCnt",
          "type": "uint256"
        },
        {
          "internalType": "address",
          "name": "to",
          "type": "address"
        }
      ],
      "name": "transferNFT",
      "outputs": [
        {
          "internalType": "bool",
          "name": "",
          "type": "bool"
        }
      ],
      "stateMutability": "nonpayable",
      "type": "function"
    },
    {
      "inputs": [
        {
          "internalType": "address",
          "name": "newOwner",
          "type": "address"
        }
      ],
      "name": "transferOwnership",
      "outputs": [],
      "stateMutability": "nonpayable",
      "type": "function"
    },
    {
      "inputs": [
        {
          "internalType": "uint256",
          "name": "_normalNFTCnt",
          "type": "uint256"
        },
        {
          "internalType": "uint256",
          "name": "_specialNFTCnt",
          "type": "uint256"
        }
      ],
      "name": "verifyNFT",
      "outputs": [
        {
          "internalType": "bool",
          "name": "",
          "type": "bool"
        }
      ],
      "stateMutability": "payable",
      "type": "function"
    }
  ],
  "bytecode": "0x60806040526000600155600060025560006003556000600555600060065560006007553480156200002f57600080fd5b5060405162001f5a38038062001f5a83398181016040528101906200005591906200024a565b62000075620000696200015060201b60201c565b6200015860201b60201c565b600073ffffffffffffffffffffffffffffffffffffffff168573ffffffffffffffffffffffffffffffffffffffff161415620000e8576040517f08c379a0000000000000000000000000000000000000000000000000000000008152600401620000df90620002f3565b60405180910390fd5b84600b60006101000a81548173ffffffffffffffffffffffffffffffffffffffff021916908373ffffffffffffffffffffffffffffffffffffffff160217905550836001819055508160058190555082600281905550806006819055505050505050620003c1565b600033905090565b60008060009054906101000a900473ffffffffffffffffffffffffffffffffffffffff169050816000806101000a81548173ffffffffffffffffffffffffffffffffffffffff021916908373ffffffffffffffffffffffffffffffffffffffff1602179055508173ffffffffffffffffffffffffffffffffffffffff168173ffffffffffffffffffffffffffffffffffffffff167f8be0079c531659141344cd1fd0a4f28419497f9722a3daafe3b4186f6b6457e060405160405180910390a35050565b6000815190506200022d816200038d565b92915050565b6000815190506200024481620003a7565b92915050565b600080600080600060a086880312156200026357600080fd5b600062000273888289016200021c565b9550506020620002868882890162000233565b9450506040620002998882890162000233565b9350506060620002ac8882890162000233565b9250506080620002bf8882890162000233565b9150509295509295909350565b6000620002db60158362000315565b9150620002e88262000364565b602082019050919050565b600060208201905081810360008301526200030e81620002cc565b9050919050565b600082825260208201905092915050565b600062000333826200033a565b9050919050565b600073ffffffffffffffffffffffffffffffffffffffff82169050919050565b6000819050919050565b7f696e76616c696420746f6b656e20616464726573730000000000000000000000600082015250565b620003988162000326565b8114620003a457600080fd5b50565b620003b2816200035a565b8114620003be57600080fd5b50565b611b8980620003d16000396000f3fe60806040526004361061013f5760003560e01c806370a08231116100b6578063b4d276a41161006f578063b4d276a414610427578063bb54953614610452578063be1dc62a1461048f578063d263a21b146104b8578063e832565b146104e1578063f2fde38b1461051e5761013f565b806370a0823114610316578063715018a6146103545780638894c4461461036b5780638da5cb5b146103a857806397333b0d146103d3578063ad32898b146103fc5761013f565b80632042e5c2116101085780632042e5c21461021c57806326a4e8d214610245578063395c27761461026e5780633d2b959e1461029957806340eac6bc146102c2578063657d8092146102eb5761013f565b80626db2ff146101445780630ed642d01461017457806310b2d71a1461019d57806316ca7467146101c65780631e303bd4146101f1575b600080fd5b61015e600480360381019061015991906112dc565b610547565b60405161016b9190611530565b60405180910390f35b34801561018057600080fd5b5061019b60048036038101906101969190611245565b6107d6565b005b3480156101a957600080fd5b506101c460048036038101906101bf91906112b3565b610868565b005b3480156101d257600080fd5b506101db61087a565b6040516101e891906116ab565b60405180910390f35b3480156101fd57600080fd5b50610206610880565b60405161021391906116ab565b60405180910390f35b34801561022857600080fd5b50610243600480360381019061023e9190611245565b610886565b005b34801561025157600080fd5b5061026c60048036038101906102679190611245565b6108e9565b005b34801561027a57600080fd5b506102836109a5565b60405161029091906116ab565b60405180910390f35b3480156102a557600080fd5b506102c060048036038101906102bb9190611245565b6109ab565b005b3480156102ce57600080fd5b506102e960048036038101906102e491906112b3565b610a0e565b005b3480156102f757600080fd5b50610300610a2f565b60405161030d91906116ab565b60405180910390f35b34801561032257600080fd5b5061033d60048036038101906103389190611245565b610a35565b60405161034b9291906116c6565b60405180910390f35b34801561036057600080fd5b50610369610ac1565b005b34801561037757600080fd5b50610392600480360381019061038d9190611318565b610ad5565b60405161039f9190611530565b60405180910390f35b3480156103b457600080fd5b506103bd610dae565b6040516103ca9190611515565b60405180910390f35b3480156103df57600080fd5b506103fa60048036038101906103f591906112b3565b610dd7565b005b34801561040857600080fd5b50610411610e2e565b60405161041e91906116ab565b60405180910390f35b34801561043357600080fd5b5061043c610e34565b60405161044991906116ab565b60405180910390f35b34801561045e57600080fd5b5061047960048036038101906104749190611245565b610e3a565b6040516104869190611530565b60405180910390f35b34801561049b57600080fd5b506104b660048036038101906104b1919061126e565b610e90565b005b3480156104c457600080fd5b506104df60048036038101906104da91906112b3565b610f63565b005b3480156104ed57600080fd5b5061050860048036038101906105039190611245565b610fba565b60405161051591906116ab565b60405180910390f35b34801561052a57600080fd5b5061054560048036038101906105409190611245565b611003565b005b60006001548360035461055a9190611700565b111561059b576040517f08c379a00000000000000000000000000000000000000000000000000000000081526004016105929061160b565b60405180910390fd5b600554826007546105ac9190611700565b11156105ed576040517f08c379a00000000000000000000000000000000000000000000000000000000081526004016105e49061160b565b60405180910390fd5b600115156105fa33610e3a565b15151461063c576040517f08c379a00000000000000000000000000000000000000000000000000000000081526004016106339061164b565b60405180910390fd5b60006006548361064c9190611756565b6002548561065a9190611756565b6106649190611700565b9050803410156106a9576040517f08c379a00000000000000000000000000000000000000000000000000000000081526004016106a0906115eb565b60405180910390fd5b83600360008282546106bb9190611700565b9250508190555082600760008282546106d49190611700565b9250508190555083600460003373ffffffffffffffffffffffffffffffffffffffff1673ffffffffffffffffffffffffffffffffffffffff168152602001908152602001600020600082825461072a9190611700565b9250508190555082600860003373ffffffffffffffffffffffffffffffffffffffff1673ffffffffffffffffffffffffffffffffffffffff16815260200190815260200160002060008282546107809190611700565b9250508190555042600960003373ffffffffffffffffffffffffffffffffffffffff1673ffffffffffffffffffffffffffffffffffffffff16815260200190815260200160002081905550600191505092915050565b6107de611087565b6000600860008373ffffffffffffffffffffffffffffffffffffffff1673ffffffffffffffffffffffffffffffffffffffff168152602001908152602001600020819055600460008373ffffffffffffffffffffffffffffffffffffffff1673ffffffffffffffffffffffffffffffffffffffff1681526020019081526020016000208190555050565b610870611087565b8060028190555050565b60035481565b60015481565b61088e611087565b6000600a60008373ffffffffffffffffffffffffffffffffffffffff1673ffffffffffffffffffffffffffffffffffffffff16815260200190815260200160002060006101000a81548160ff02191690831515021790555050565b6108f1611087565b600073ffffffffffffffffffffffffffffffffffffffff168173ffffffffffffffffffffffffffffffffffffffff161415610961576040517f08c379a00000000000000000000000000000000000000000000000000000000081526004016109589061156b565b60405180910390fd5b80600b60006101000a81548173ffffffffffffffffffffffffffffffffffffffff021916908373ffffffffffffffffffffffffffffffffffffffff16021790555050565b60025481565b6109b3611087565b6001600a60008373ffffffffffffffffffffffffffffffffffffffff1673ffffffffffffffffffffffffffffffffffffffff16815260200190815260200160002060006101000a81548160ff02191690831515021790555050565b610a16611087565b600254811015610a2557600080fd5b8060068190555050565b60075481565b600080600460008473ffffffffffffffffffffffffffffffffffffffff1673ffffffffffffffffffffffffffffffffffffffff16815260200190815260200160002054600860008573ffffffffffffffffffffffffffffffffffffffff1673ffffffffffffffffffffffffffffffffffffffff1681526020019081526020016000205491509150915091565b610ac9611087565b610ad36000611105565b565b6000600460003373ffffffffffffffffffffffffffffffffffffffff1673ffffffffffffffffffffffffffffffffffffffff16815260200190815260200160002054841115610b59576040517f08c379a0000000000000000000000000000000000000000000000000000000008152600401610b509061154b565b60405180910390fd5b600860003373ffffffffffffffffffffffffffffffffffffffff1673ffffffffffffffffffffffffffffffffffffffff16815260200190815260200160002054831115610bdb576040517f08c379a0000000000000000000000000000000000000000000000000000000008152600401610bd29061166b565b60405180910390fd5b600073ffffffffffffffffffffffffffffffffffffffff168273ffffffffffffffffffffffffffffffffffffffff161415610c4b576040517f08c379a0000000000000000000000000000000000000000000000000000000008152600401610c42906115cb565b60405180910390fd5b83600460003373ffffffffffffffffffffffffffffffffffffffff1673ffffffffffffffffffffffffffffffffffffffff1681526020019081526020016000206000828254610c9a91906117b0565b9250508190555083600460008473ffffffffffffffffffffffffffffffffffffffff1673ffffffffffffffffffffffffffffffffffffffff1681526020019081526020016000206000828254610cf09190611700565b9250508190555082600860003373ffffffffffffffffffffffffffffffffffffffff1673ffffffffffffffffffffffffffffffffffffffff1681526020019081526020016000206000828254610d4691906117b0565b9250508190555082600860008473ffffffffffffffffffffffffffffffffffffffff1673ffffffffffffffffffffffffffffffffffffffff1681526020019081526020016000206000828254610d9c9190611700565b92505081905550600190509392505050565b60008060009054906101000a900473ffffffffffffffffffffffffffffffffffffffff16905090565b610ddf611087565b600354811015610e24576040517f08c379a0000000000000000000000000000000000000000000000000000000008152600401610e1b906115ab565b60405180910390fd5b8060018190555050565b60055481565b60065481565b6000600a60008373ffffffffffffffffffffffffffffffffffffffff1673ffffffffffffffffffffffffffffffffffffffff16815260200190815260200160002060009054906101000a900460ff169050919050565b610e98611087565b60005b82829050811015610f5e576001600a6000858585818110610ee5577f4e487b7100000000000000000000000000000000000000000000000000000000600052603260045260246000fd5b9050602002016020810190610efa9190611245565b73ffffffffffffffffffffffffffffffffffffffff1673ffffffffffffffffffffffffffffffffffffffff16815260200190815260200160002060006101000a81548160ff0219169083151502179055508080610f569061182c565b915050610e9b565b505050565b610f6b611087565b600754811015610fb0576040517f08c379a0000000000000000000000000000000000000000000000000000000008152600401610fa79061168b565b60405180910390fd5b8060058190555050565b6000600960008373ffffffffffffffffffffffffffffffffffffffff1673ffffffffffffffffffffffffffffffffffffffff168152602001908152602001600020549050919050565b61100b611087565b600073ffffffffffffffffffffffffffffffffffffffff168173ffffffffffffffffffffffffffffffffffffffff16141561107b576040517f08c379a00000000000000000000000000000000000000000000000000000000081526004016110729061158b565b60405180910390fd5b61108481611105565b50565b61108f6111c9565b73ffffffffffffffffffffffffffffffffffffffff166110ad610dae565b73ffffffffffffffffffffffffffffffffffffffff1614611103576040517f08c379a00000000000000000000000000000000000000000000000000000000081526004016110fa9061162b565b60405180910390fd5b565b60008060009054906101000a900473ffffffffffffffffffffffffffffffffffffffff169050816000806101000a81548173ffffffffffffffffffffffffffffffffffffffff021916908373ffffffffffffffffffffffffffffffffffffffff1602179055508173ffffffffffffffffffffffffffffffffffffffff168173ffffffffffffffffffffffffffffffffffffffff167f8be0079c531659141344cd1fd0a4f28419497f9722a3daafe3b4186f6b6457e060405160405180910390a35050565b600033905090565b6000813590506111e081611b25565b92915050565b60008083601f8401126111f857600080fd5b8235905067ffffffffffffffff81111561121157600080fd5b60208301915083602082028301111561122957600080fd5b9250929050565b60008135905061123f81611b3c565b92915050565b60006020828403121561125757600080fd5b6000611265848285016111d1565b91505092915050565b6000806020838503121561128157600080fd5b600083013567ffffffffffffffff81111561129b57600080fd5b6112a7858286016111e6565b92509250509250929050565b6000602082840312156112c557600080fd5b60006112d384828501611230565b91505092915050565b600080604083850312156112ef57600080fd5b60006112fd85828601611230565b925050602061130e85828601611230565b9150509250929050565b60008060006060848603121561132d57600080fd5b600061133b86828701611230565b935050602061134c86828701611230565b925050604061135d868287016111d1565b9150509250925092565b611370816117e4565b82525050565b61137f816117f6565b82525050565b60006113926022836116ef565b915061139d826118a4565b604082019050919050565b60006113b56015836116ef565b91506113c0826118f3565b602082019050919050565b60006113d86026836116ef565b91506113e38261191c565b604082019050919050565b60006113fb6038836116ef565b91506114068261196b565b604082019050919050565b600061141e6018836116ef565b9150611429826119ba565b602082019050919050565b60006114416012836116ef565b915061144c826119e3565b602082019050919050565b60006114646014836116ef565b915061146f82611a0c565b602082019050919050565b60006114876020836116ef565b915061149282611a35565b602082019050919050565b60006114aa601a836116ef565b91506114b582611a5e565b602082019050919050565b60006114cd6023836116ef565b91506114d882611a87565b604082019050919050565b60006114f0603a836116ef565b91506114fb82611ad6565b604082019050919050565b61150f81611822565b82525050565b600060208201905061152a6000830184611367565b92915050565b60006020820190506115456000830184611376565b92915050565b6000602082019050818103600083015261156481611385565b9050919050565b60006020820190508181036000830152611584816113a8565b9050919050565b600060208201905081810360008301526115a4816113cb565b9050919050565b600060208201905081810360008301526115c4816113ee565b9050919050565b600060208201905081810360008301526115e481611411565b9050919050565b6000602082019050818103600083015261160481611434565b9050919050565b6000602082019050818103600083015261162481611457565b9050919050565b600060208201905081810360008301526116448161147a565b9050919050565b600060208201905081810360008301526116648161149d565b9050919050565b60006020820190508181036000830152611684816114c0565b9050919050565b600060208201905081810360008301526116a4816114e3565b9050919050565b60006020820190506116c06000830184611506565b92915050565b60006040820190506116db6000830185611506565b6116e86020830184611506565b9392505050565b600082825260208201905092915050565b600061170b82611822565b915061171683611822565b9250827fffffffffffffffffffffffffffffffffffffffffffffffffffffffffffffffff0382111561174b5761174a611875565b5b828201905092915050565b600061176182611822565b915061176c83611822565b9250817fffffffffffffffffffffffffffffffffffffffffffffffffffffffffffffffff04831182151516156117a5576117a4611875565b5b828202905092915050565b60006117bb82611822565b91506117c683611822565b9250828210156117d9576117d8611875565b5b828203905092915050565b60006117ef82611802565b9050919050565b60008115159050919050565b600073ffffffffffffffffffffffffffffffffffffffff82169050919050565b6000819050919050565b600061183782611822565b91507fffffffffffffffffffffffffffffffffffffffffffffffffffffffffffffffff82141561186a57611869611875565b5b600182019050919050565b7f4e487b7100000000000000000000000000000000000000000000000000000000600052601160045260246000fd5b7f6e6f7420656e6f756768206e6f726d616c204e46547320746f207472616e736660008201527f6572000000000000000000000000000000000000000000000000000000000000602082015250565b7f696e76616c696420746f6b656e20616464726573730000000000000000000000600082015250565b7f4f776e61626c653a206e6577206f776e657220697320746865207a65726f206160008201527f6464726573730000000000000000000000000000000000000000000000000000602082015250565b7f6d61784e6f726d616c537570706c792073686f756c642062652067726561746560008201527f72207468616e20746f74616c4e6f726d616c537570706c790000000000000000602082015250565b7f696e76616c6964207472616e7366657220616464726573730000000000000000600082015250565b7f6e6f7420656e6f7567682062616c616e63650000000000000000000000000000600082015250565b7f6e6f7420656e6f756768204e465473206c656674000000000000000000000000600082015250565b7f4f776e61626c653a2063616c6c6572206973206e6f7420746865206f776e6572600082015250565b7f596f7520617265206e6f7420612062657461207465737465722e000000000000600082015250565b7f6e6f7420656e6f756768207370656369616c204e46547320746f207472616e7360008201527f6665720000000000000000000000000000000000000000000000000000000000602082015250565b7f6d61785370656369616c537570706c792073686f756c6420626520677265617460008201527f6572207468616e20746f74616c5370656369616c537570706c79000000000000602082015250565b611b2e816117e4565b8114611b3957600080fd5b50565b611b4581611822565b8114611b5057600080fd5b5056fea26469706673582212206294293daac6eb7e991df4505e9dad019849a7bb21bae347a5e9555639d804cc64736f6c63430008040033",
  "linkReferences": {},
  "deployedLinkReferences": {}
}