{
  "_format": "hh-sol-artifact-1",
  "contractName": "NFT",
  "sourceName": "contracts/NFT.sol",
  "abi": [
    {
      "inputs": [
        {
          "internalType": "address",
          "name": "_token_address",
          "type": "address"
        },
        {
          "internalType": "uint256",
          "name": "_maxNormalSupply",
          "type": "uint256"
        },
        {
          "internalType": "uint256",
          "name": "_priceNormalNFT",
          "type": "uint256"
        },
        {
          "internalType": "uint256",
          "name": "_maxSpecialSupply",
          "type": "uint256"
        },
        {
          "internalType": "uint256",
          "name": "_priceSpecialNFT",
          "type": "uint256"
        }
      ],
      "stateMutability": "nonpayable",
      "type": "constructor"
    },
    {
      "anonymous": false,
      "inputs": [
        {
          "indexed": true,
          "internalType": "address",
          "name": "previousOwner",
          "type": "address"
        },
        {
          "indexed": true,
          "internalType": "address",
          "name": "newOwner",
          "type": "address"
        }
      ],
      "name": "OwnershipTransferred",
      "type": "event"
    },
    {
      "inputs": [],
      "name": "maxNormalSupply",
      "outputs": [
        {
          "internalType": "uint256",
          "name": "",
          "type": "uint256"
        }
      ],
      "stateMutability": "view",
      "type": "function"
    },
    {
      "inputs": [],
      "name": "maxSpecialSupply",
      "outputs": [
        {
          "internalType": "uint256",
          "name": "",
          "type": "uint256"
        }
      ],
      "stateMutability": "view",
      "type": "function"
    },
    {
      "inputs": [],
      "name": "owner",
      "outputs": [
        {
          "internalType": "address",
          "name": "",
          "type": "address"
        }
      ],
      "stateMutability": "view",
      "type": "function"
    },
    {
      "inputs": [],
      "name": "priceNormalNFT",
      "outputs": [
        {
          "internalType": "uint256",
          "name": "",
          "type": "uint256"
        }
      ],
      "stateMutability": "view",
      "type": "function"
    },
    {
      "inputs": [],
      "name": "priceSpecialNFT",
      "outputs": [
        {
          "internalType": "uint256",
          "name": "",
          "type": "uint256"
        }
      ],
      "stateMutability": "view",
      "type": "function"
    },
    {
      "inputs": [],
      "name": "renounceOwnership",
      "outputs": [],
      "stateMutability": "nonpayable",
      "type": "function"
    },
    {
      "inputs": [
        {
          "internalType": "uint256",
          "name": "_maxNormalSupply",
          "type": "uint256"
        }
      ],
      "name": "setMaxNormalSupply",
      "outputs": [],
      "stateMutability": "nonpayable",
      "type": "function"
    },
    {
      "inputs": [
        {
          "internalType": "uint256",
          "name": "_maxSpecialSupply",
          "type": "uint256"
        }
      ],
      "name": "setMaxSpecialSupply",
      "outputs": [],
      "stateMutability": "nonpayable",
      "type": "function"
    },
    {
      "inputs": [
        {
          "internalType": "uint256",
          "name": "_priceNormalNFT",
          "type": "uint256"
        }
      ],
      "name": "setNormalPrice",
      "outputs": [],
      "stateMutability": "nonpayable",
      "type": "function"
    },
    {
      "inputs": [
        {
          "internalType": "uint256",
          "name": "_priceSpecialNFT",
          "type": "uint256"
        }
      ],
      "name": "setSpecialPrice",
      "outputs": [],
      "stateMutability": "nonpayable",
      "type": "function"
    },
    {
      "inputs": [
        {
          "internalType": "address",
          "name": "_token_address",
          "type": "address"
        }
      ],
      "name": "setTokenAddress",
      "outputs": [],
      "stateMutability": "nonpayable",
      "type": "function"
    },
    {
      "inputs": [],
      "name": "totalNormalSupply",
      "outputs": [
        {
          "internalType": "uint256",
          "name": "",
          "type": "uint256"
        }
      ],
      "stateMutability": "view",
      "type": "function"
    },
    {
      "inputs": [],
      "name": "totalSpecialSupply",
      "outputs": [
        {
          "internalType": "uint256",
          "name": "",
          "type": "uint256"
        }
      ],
      "stateMutability": "view",
      "type": "function"
    },
    {
      "inputs": [
        {
          "internalType": "uint256",
          "name": "_normalNFTCnt",
          "type": "uint256"
        },
        {
          "internalType": "uint256",
          "name": "_specialNFTCnt",
          "type": "uint256"
        },
        {
          "internalType": "address",
          "name": "to",
          "type": "address"
        }
      ],
      "name": "transferNFT",
      "outputs": [
        {
          "internalType": "bool",
          "name": "",
          "type": "bool"
        }
      ],
      "stateMutability": "nonpayable",
      "type": "function"
    },
    {
      "inputs": [
        {
          "internalType": "address",
          "name": "newOwner",
          "type": "address"
        }
      ],
      "name": "transferOwnership",
      "outputs": [],
      "stateMutability": "nonpayable",
      "type": "function"
    },
    {
      "inputs": [
        {
          "internalType": "uint256",
          "name": "_normalNFTCnt",
          "type": "uint256"
        },
        {
          "internalType": "uint256",
          "name": "_specialNFTCnt",
          "type": "uint256"
        }
      ],
      "name": "verifyNFT",
      "outputs": [
        {
          "internalType": "bool",
          "name": "",
          "type": "bool"
        }
      ],
      "stateMutability": "payable",
      "type": "function"
    }
  ],
  "bytecode": "0x60806040526000600155600060025560006003556000600555600060065560006007553480156200002f57600080fd5b506040516200190e3803806200190e83398181016040528101906200005591906200024a565b62000075620000696200015060201b60201c565b6200015860201b60201c565b600073ffffffffffffffffffffffffffffffffffffffff168573ffffffffffffffffffffffffffffffffffffffff161415620000e8576040517f08c379a0000000000000000000000000000000000000000000000000000000008152600401620000df90620002f3565b60405180910390fd5b84600960006101000a81548173ffffffffffffffffffffffffffffffffffffffff021916908373ffffffffffffffffffffffffffffffffffffffff160217905550836001819055508160058190555082600281905550806006819055505050505050620003c1565b600033905090565b60008060009054906101000a900473ffffffffffffffffffffffffffffffffffffffff169050816000806101000a81548173ffffffffffffffffffffffffffffffffffffffff021916908373ffffffffffffffffffffffffffffffffffffffff1602179055508173ffffffffffffffffffffffffffffffffffffffff168173ffffffffffffffffffffffffffffffffffffffff167f8be0079c531659141344cd1fd0a4f28419497f9722a3daafe3b4186f6b6457e060405160405180910390a35050565b6000815190506200022d816200038d565b92915050565b6000815190506200024481620003a7565b92915050565b600080600080600060a086880312156200026357600080fd5b600062000273888289016200021c565b9550506020620002868882890162000233565b9450506040620002998882890162000233565b9350506060620002ac8882890162000233565b9250506080620002bf8882890162000233565b9150509295509295909350565b6000620002db60158362000315565b9150620002e88262000364565b602082019050919050565b600060208201905081810360008301526200030e81620002cc565b9050919050565b600082825260208201905092915050565b600062000333826200033a565b9050919050565b600073ffffffffffffffffffffffffffffffffffffffff82169050919050565b6000819050919050565b7f696e76616c696420746f6b656e20616464726573730000000000000000000000600082015250565b620003988162000326565b8114620003a457600080fd5b50565b620003b2816200035a565b8114620003be57600080fd5b50565b61153d80620003d16000396000f3fe6080604052600436106100f25760003560e01c8063715018a61161008a578063ad32898b11610059578063ad32898b146102f6578063b4d276a414610321578063d263a21b1461034c578063f2fde38b14610375576100f2565b8063715018a61461024e5780638894c446146102655780638da5cb5b146102a257806397333b0d146102cd576100f2565b806326a4e8d2116100c657806326a4e8d2146101a6578063395c2776146101cf57806340eac6bc146101fa578063657d809214610223576100f2565b80626db2ff146100f757806310b2d71a1461012757806316ca7467146101505780631e303bd41461017b575b600080fd5b610111600480360381019061010c9190610d02565b61039e565b60405161011e9190610f56565b60405180910390f35b34801561013357600080fd5b5061014e60048036038101906101499190610cd9565b6105e1565b005b34801561015c57600080fd5b506101656105f3565b60405161017291906110d1565b60405180910390f35b34801561018757600080fd5b506101906105f9565b60405161019d91906110d1565b60405180910390f35b3480156101b257600080fd5b506101cd60048036038101906101c89190610cb0565b6105ff565b005b3480156101db57600080fd5b506101e46106bb565b6040516101f191906110d1565b60405180910390f35b34801561020657600080fd5b50610221600480360381019061021c9190610cd9565b6106c1565b005b34801561022f57600080fd5b506102386106e2565b60405161024591906110d1565b60405180910390f35b34801561025a57600080fd5b506102636106e8565b005b34801561027157600080fd5b5061028c60048036038101906102879190610d3e565b6106fc565b6040516102999190610f56565b60405180910390f35b3480156102ae57600080fd5b506102b76109d5565b6040516102c49190610f3b565b60405180910390f35b3480156102d957600080fd5b506102f460048036038101906102ef9190610cd9565b6109fe565b005b34801561030257600080fd5b5061030b610a55565b60405161031891906110d1565b60405180910390f35b34801561032d57600080fd5b50610336610a5b565b60405161034391906110d1565b60405180910390f35b34801561035857600080fd5b50610373600480360381019061036e9190610cd9565b610a61565b005b34801561038157600080fd5b5061039c60048036038101906103979190610cb0565b610ab8565b005b6000600154836003546103b191906110fd565b11156103f2576040517f08c379a00000000000000000000000000000000000000000000000000000000081526004016103e990610f91565b60405180910390fd5b6005548260075461040391906110fd565b1115610444576040517f08c379a000000000000000000000000000000000000000000000000000000000815260040161043b90611071565b60405180910390fd5b6000600654836104549190611153565b600254856104629190611153565b61046c91906110fd565b9050803410156104b1576040517f08c379a00000000000000000000000000000000000000000000000000000000081526004016104a890611031565b60405180910390fd5b3073ffffffffffffffffffffffffffffffffffffffff166108fc829081150290604051600060405180830381858888f193505050501580156104f7573d6000803e3d6000fd5b50836003600082825461050a91906110fd565b92505081905550826007600082825461052391906110fd565b9250508190555083600460003373ffffffffffffffffffffffffffffffffffffffff1673ffffffffffffffffffffffffffffffffffffffff168152602001908152602001600020600082825461057991906110fd565b9250508190555082600860003373ffffffffffffffffffffffffffffffffffffffff1673ffffffffffffffffffffffffffffffffffffffff16815260200190815260200160002060008282546105cf91906110fd565b92505081905550600191505092915050565b6105e9610b3c565b8060028190555050565b60035481565b60015481565b610607610b3c565b600073ffffffffffffffffffffffffffffffffffffffff168173ffffffffffffffffffffffffffffffffffffffff161415610677576040517f08c379a000000000000000000000000000000000000000000000000000000000815260040161066e90610fb1565b60405180910390fd5b80600960006101000a81548173ffffffffffffffffffffffffffffffffffffffff021916908373ffffffffffffffffffffffffffffffffffffffff16021790555050565b60025481565b6106c9610b3c565b6002548110156106d857600080fd5b8060068190555050565b60075481565b6106f0610b3c565b6106fa6000610bba565b565b600083600460003373ffffffffffffffffffffffffffffffffffffffff1673ffffffffffffffffffffffffffffffffffffffff168152602001908152602001600020541115610780576040517f08c379a000000000000000000000000000000000000000000000000000000000815260040161077790610f71565b60405180910390fd5b82600860003373ffffffffffffffffffffffffffffffffffffffff1673ffffffffffffffffffffffffffffffffffffffff168152602001908152602001600020541115610802576040517f08c379a00000000000000000000000000000000000000000000000000000000081526004016107f990611091565b60405180910390fd5b600073ffffffffffffffffffffffffffffffffffffffff168273ffffffffffffffffffffffffffffffffffffffff161415610872576040517f08c379a000000000000000000000000000000000000000000000000000000000815260040161086990611011565b60405180910390fd5b83600460003373ffffffffffffffffffffffffffffffffffffffff1673ffffffffffffffffffffffffffffffffffffffff16815260200190815260200160002060008282546108c191906111ad565b9250508190555083600460008473ffffffffffffffffffffffffffffffffffffffff1673ffffffffffffffffffffffffffffffffffffffff168152602001908152602001600020600082825461091791906110fd565b9250508190555082600860003373ffffffffffffffffffffffffffffffffffffffff1673ffffffffffffffffffffffffffffffffffffffff168152602001908152602001600020600082825461096d91906111ad565b9250508190555082600860008473ffffffffffffffffffffffffffffffffffffffff1673ffffffffffffffffffffffffffffffffffffffff16815260200190815260200160002060008282546109c391906110fd565b92505081905550600190509392505050565b60008060009054906101000a900473ffffffffffffffffffffffffffffffffffffffff16905090565b610a06610b3c565b600354811015610a4b576040517f08c379a0000000000000000000000000000000000000000000000000000000008152600401610a4290610ff1565b60405180910390fd5b8060018190555050565b60055481565b60065481565b610a69610b3c565b600754811015610aae576040517f08c379a0000000000000000000000000000000000000000000000000000000008152600401610aa5906110b1565b60405180910390fd5b8060058190555050565b610ac0610b3c565b600073ffffffffffffffffffffffffffffffffffffffff168173ffffffffffffffffffffffffffffffffffffffff161415610b30576040517f08c379a0000000000000000000000000000000000000000000000000000000008152600401610b2790610fd1565b60405180910390fd5b610b3981610bba565b50565b610b44610c7e565b73ffffffffffffffffffffffffffffffffffffffff16610b626109d5565b73ffffffffffffffffffffffffffffffffffffffff1614610bb8576040517f08c379a0000000000000000000000000000000000000000000000000000000008152600401610baf90611051565b60405180910390fd5b565b60008060009054906101000a900473ffffffffffffffffffffffffffffffffffffffff169050816000806101000a81548173ffffffffffffffffffffffffffffffffffffffff021916908373ffffffffffffffffffffffffffffffffffffffff1602179055508173ffffffffffffffffffffffffffffffffffffffff168173ffffffffffffffffffffffffffffffffffffffff167f8be0079c531659141344cd1fd0a4f28419497f9722a3daafe3b4186f6b6457e060405160405180910390a35050565b600033905090565b600081359050610c95816114d9565b92915050565b600081359050610caa816114f0565b92915050565b600060208284031215610cc257600080fd5b6000610cd084828501610c86565b91505092915050565b600060208284031215610ceb57600080fd5b6000610cf984828501610c9b565b91505092915050565b60008060408385031215610d1557600080fd5b6000610d2385828601610c9b565b9250506020610d3485828601610c9b565b9150509250929050565b600080600060608486031215610d5357600080fd5b6000610d6186828701610c9b565b9350506020610d7286828701610c9b565b9250506040610d8386828701610c86565b9150509250925092565b610d96816111e1565b82525050565b610da5816111f3565b82525050565b6000610db86022836110ec565b9150610dc382611258565b604082019050919050565b6000610ddb601b836110ec565b9150610de6826112a7565b602082019050919050565b6000610dfe6015836110ec565b9150610e09826112d0565b602082019050919050565b6000610e216026836110ec565b9150610e2c826112f9565b604082019050919050565b6000610e446038836110ec565b9150610e4f82611348565b604082019050919050565b6000610e676018836110ec565b9150610e7282611397565b602082019050919050565b6000610e8a6012836110ec565b9150610e95826113c0565b602082019050919050565b6000610ead6020836110ec565b9150610eb8826113e9565b602082019050919050565b6000610ed0601c836110ec565b9150610edb82611412565b602082019050919050565b6000610ef36023836110ec565b9150610efe8261143b565b604082019050919050565b6000610f16603a836110ec565b9150610f218261148a565b604082019050919050565b610f358161121f565b82525050565b6000602082019050610f506000830184610d8d565b92915050565b6000602082019050610f6b6000830184610d9c565b92915050565b60006020820190508181036000830152610f8a81610dab565b9050919050565b60006020820190508181036000830152610faa81610dce565b9050919050565b60006020820190508181036000830152610fca81610df1565b9050919050565b60006020820190508181036000830152610fea81610e14565b9050919050565b6000602082019050818103600083015261100a81610e37565b9050919050565b6000602082019050818103600083015261102a81610e5a565b9050919050565b6000602082019050818103600083015261104a81610e7d565b9050919050565b6000602082019050818103600083015261106a81610ea0565b9050919050565b6000602082019050818103600083015261108a81610ec3565b9050919050565b600060208201905081810360008301526110aa81610ee6565b9050919050565b600060208201905081810360008301526110ca81610f09565b9050919050565b60006020820190506110e66000830184610f2c565b92915050565b600082825260208201905092915050565b60006111088261121f565b91506111138361121f565b9250827fffffffffffffffffffffffffffffffffffffffffffffffffffffffffffffffff0382111561114857611147611229565b5b828201905092915050565b600061115e8261121f565b91506111698361121f565b9250817fffffffffffffffffffffffffffffffffffffffffffffffffffffffffffffffff04831182151516156111a2576111a1611229565b5b828202905092915050565b60006111b88261121f565b91506111c38361121f565b9250828210156111d6576111d5611229565b5b828203905092915050565b60006111ec826111ff565b9050919050565b60008115159050919050565b600073ffffffffffffffffffffffffffffffffffffffff82169050919050565b6000819050919050565b7f4e487b7100000000000000000000000000000000000000000000000000000000600052601160045260246000fd5b7f6e6f7420656e6f756768206e6f726d616c204e46547320746f207472616e736660008201527f6572000000000000000000000000000000000000000000000000000000000000602082015250565b7f6e6f7420656e6f756768206e6f726d616c204e465473206c6566740000000000600082015250565b7f696e76616c696420746f6b656e20616464726573730000000000000000000000600082015250565b7f4f776e61626c653a206e6577206f776e657220697320746865207a65726f206160008201527f6464726573730000000000000000000000000000000000000000000000000000602082015250565b7f6d61784e6f726d616c537570706c792073686f756c642062652067726561746560008201527f72207468616e20746f74616c4e6f726d616c537570706c790000000000000000602082015250565b7f696e76616c6964207472616e7366657220616464726573730000000000000000600082015250565b7f6e6f7420656e6f7567682062616c616e63650000000000000000000000000000600082015250565b7f4f776e61626c653a2063616c6c6572206973206e6f7420746865206f776e6572600082015250565b7f6e6f7420656e6f756768207370656369616c204e465473206c65667400000000600082015250565b7f6e6f7420656e6f756768207370656369616c204e46547320746f207472616e7360008201527f6665720000000000000000000000000000000000000000000000000000000000602082015250565b7f6d61785370656369616c537570706c792073686f756c6420626520677265617460008201527f6572207468616e20746f74616c5370656369616c537570706c79000000000000602082015250565b6114e2816111e1565b81146114ed57600080fd5b50565b6114f98161121f565b811461150457600080fd5b5056fea2646970667358221220212b093e3b3fbc1d1edcef754e29709014c4a6c0b892b24d8d14ca5d6025757f64736f6c63430008040033",
  "linkReferences": {},
  "deployedLinkReferences": {}
}