{
  "_format": "hh-sol-artifact-1",
  "contractName": "NFT",
  "sourceName": "contracts/NFT.sol",
  "abi": [
    {
      "inputs": [
        {
          "internalType": "address",
          "name": "_token_address",
          "type": "address"
        },
        {
          "internalType": "uint256",
          "name": "_maxNormalSupply",
          "type": "uint256"
        },
        {
          "internalType": "uint256",
          "name": "_priceNormalNFT",
          "type": "uint256"
        },
        {
          "internalType": "uint256",
          "name": "_maxSpecialSupply",
          "type": "uint256"
        },
        {
          "internalType": "uint256",
          "name": "_priceSpecialNFT",
          "type": "uint256"
        }
      ],
      "stateMutability": "nonpayable",
      "type": "constructor"
    },
    {
      "anonymous": false,
      "inputs": [
        {
          "indexed": true,
          "internalType": "address",
          "name": "previousOwner",
          "type": "address"
        },
        {
          "indexed": true,
          "internalType": "address",
          "name": "newOwner",
          "type": "address"
        }
      ],
      "name": "OwnershipTransferred",
      "type": "event"
    },
    {
      "inputs": [
        {
          "internalType": "address",
          "name": "account",
          "type": "address"
        }
      ],
      "name": "balanceOf",
      "outputs": [
        {
          "internalType": "uint256",
          "name": "normalNFT",
          "type": "uint256"
        },
        {
          "internalType": "uint256",
          "name": "specialNFT",
          "type": "uint256"
        }
      ],
      "stateMutability": "view",
      "type": "function"
    },
    {
      "inputs": [],
      "name": "maxNormalSupply",
      "outputs": [
        {
          "internalType": "uint256",
          "name": "",
          "type": "uint256"
        }
      ],
      "stateMutability": "view",
      "type": "function"
    },
    {
      "inputs": [],
      "name": "maxSpecialSupply",
      "outputs": [
        {
          "internalType": "uint256",
          "name": "",
          "type": "uint256"
        }
      ],
      "stateMutability": "view",
      "type": "function"
    },
    {
      "inputs": [],
      "name": "owner",
      "outputs": [
        {
          "internalType": "address",
          "name": "",
          "type": "address"
        }
      ],
      "stateMutability": "view",
      "type": "function"
    },
    {
      "inputs": [],
      "name": "priceNormalNFT",
      "outputs": [
        {
          "internalType": "uint256",
          "name": "",
          "type": "uint256"
        }
      ],
      "stateMutability": "view",
      "type": "function"
    },
    {
      "inputs": [],
      "name": "priceSpecialNFT",
      "outputs": [
        {
          "internalType": "uint256",
          "name": "",
          "type": "uint256"
        }
      ],
      "stateMutability": "view",
      "type": "function"
    },
    {
      "inputs": [],
      "name": "renounceOwnership",
      "outputs": [],
      "stateMutability": "nonpayable",
      "type": "function"
    },
    {
      "inputs": [
        {
          "internalType": "uint256",
          "name": "_maxNormalSupply",
          "type": "uint256"
        }
      ],
      "name": "setMaxNormalSupply",
      "outputs": [],
      "stateMutability": "nonpayable",
      "type": "function"
    },
    {
      "inputs": [
        {
          "internalType": "uint256",
          "name": "_maxSpecialSupply",
          "type": "uint256"
        }
      ],
      "name": "setMaxSpecialSupply",
      "outputs": [],
      "stateMutability": "nonpayable",
      "type": "function"
    },
    {
      "inputs": [
        {
          "internalType": "uint256",
          "name": "_priceNormalNFT",
          "type": "uint256"
        }
      ],
      "name": "setNormalPrice",
      "outputs": [],
      "stateMutability": "nonpayable",
      "type": "function"
    },
    {
      "inputs": [
        {
          "internalType": "uint256",
          "name": "_priceSpecialNFT",
          "type": "uint256"
        }
      ],
      "name": "setSpecialPrice",
      "outputs": [],
      "stateMutability": "nonpayable",
      "type": "function"
    },
    {
      "inputs": [
        {
          "internalType": "address",
          "name": "_token_address",
          "type": "address"
        }
      ],
      "name": "setTokenAddress",
      "outputs": [],
      "stateMutability": "nonpayable",
      "type": "function"
    },
    {
      "inputs": [],
      "name": "totalNormalSupply",
      "outputs": [
        {
          "internalType": "uint256",
          "name": "",
          "type": "uint256"
        }
      ],
      "stateMutability": "view",
      "type": "function"
    },
    {
      "inputs": [],
      "name": "totalSpecialSupply",
      "outputs": [
        {
          "internalType": "uint256",
          "name": "",
          "type": "uint256"
        }
      ],
      "stateMutability": "view",
      "type": "function"
    },
    {
      "inputs": [
        {
          "internalType": "uint256",
          "name": "_normalNFTCnt",
          "type": "uint256"
        },
        {
          "internalType": "uint256",
          "name": "_specialNFTCnt",
          "type": "uint256"
        },
        {
          "internalType": "address",
          "name": "to",
          "type": "address"
        }
      ],
      "name": "transferNFT",
      "outputs": [
        {
          "internalType": "bool",
          "name": "",
          "type": "bool"
        }
      ],
      "stateMutability": "nonpayable",
      "type": "function"
    },
    {
      "inputs": [
        {
          "internalType": "address",
          "name": "newOwner",
          "type": "address"
        }
      ],
      "name": "transferOwnership",
      "outputs": [],
      "stateMutability": "nonpayable",
      "type": "function"
    },
    {
      "inputs": [
        {
          "internalType": "uint256",
          "name": "_normalNFTCnt",
          "type": "uint256"
        },
        {
          "internalType": "uint256",
          "name": "_specialNFTCnt",
          "type": "uint256"
        }
      ],
      "name": "verifyNFT",
      "outputs": [
        {
          "internalType": "bool",
          "name": "",
          "type": "bool"
        }
      ],
      "stateMutability": "payable",
      "type": "function"
    }
  ],
  "bytecode": "0x60806040526000600155600060025560006003556000600555600060065560006007553480156200002f57600080fd5b50604051620019c5380380620019c583398181016040528101906200005591906200024a565b62000075620000696200015060201b60201c565b6200015860201b60201c565b600073ffffffffffffffffffffffffffffffffffffffff168573ffffffffffffffffffffffffffffffffffffffff161415620000e8576040517f08c379a0000000000000000000000000000000000000000000000000000000008152600401620000df90620002f3565b60405180910390fd5b84600960006101000a81548173ffffffffffffffffffffffffffffffffffffffff021916908373ffffffffffffffffffffffffffffffffffffffff160217905550836001819055508160058190555082600281905550806006819055505050505050620003c1565b600033905090565b60008060009054906101000a900473ffffffffffffffffffffffffffffffffffffffff169050816000806101000a81548173ffffffffffffffffffffffffffffffffffffffff021916908373ffffffffffffffffffffffffffffffffffffffff1602179055508173ffffffffffffffffffffffffffffffffffffffff168173ffffffffffffffffffffffffffffffffffffffff167f8be0079c531659141344cd1fd0a4f28419497f9722a3daafe3b4186f6b6457e060405160405180910390a35050565b6000815190506200022d816200038d565b92915050565b6000815190506200024481620003a7565b92915050565b600080600080600060a086880312156200026357600080fd5b600062000273888289016200021c565b9550506020620002868882890162000233565b9450506040620002998882890162000233565b9350506060620002ac8882890162000233565b9250506080620002bf8882890162000233565b9150509295509295909350565b6000620002db60158362000315565b9150620002e88262000364565b602082019050919050565b600060208201905081810360008301526200030e81620002cc565b9050919050565b600082825260208201905092915050565b600062000333826200033a565b9050919050565b600073ffffffffffffffffffffffffffffffffffffffff82169050919050565b6000819050919050565b7f696e76616c696420746f6b656e20616464726573730000000000000000000000600082015250565b620003988162000326565b8114620003a457600080fd5b50565b620003b2816200035a565b8114620003be57600080fd5b50565b6115f480620003d16000396000f3fe6080604052600436106100fd5760003560e01c806370a082311161009557806397333b0d1161006457806397333b0d14610316578063ad32898b1461033f578063b4d276a41461036a578063d263a21b14610395578063f2fde38b146103be576100fd565b806370a0823114610259578063715018a6146102975780638894c446146102ae5780638da5cb5b146102eb576100fd565b806326a4e8d2116100d157806326a4e8d2146101b1578063395c2776146101da57806340eac6bc14610205578063657d80921461022e576100fd565b80626db2ff1461010257806310b2d71a1461013257806316ca74671461015b5780631e303bd414610186575b600080fd5b61011c60048036038101906101179190610d90565b6103e7565b6040516101299190610fe4565b60405180910390f35b34801561013e57600080fd5b5061015960048036038101906101549190610d67565b6105e3565b005b34801561016757600080fd5b506101706105f5565b60405161017d919061115f565b60405180910390f35b34801561019257600080fd5b5061019b6105fb565b6040516101a8919061115f565b60405180910390f35b3480156101bd57600080fd5b506101d860048036038101906101d39190610d3e565b610601565b005b3480156101e657600080fd5b506101ef6106bd565b6040516101fc919061115f565b60405180910390f35b34801561021157600080fd5b5061022c60048036038101906102279190610d67565b6106c3565b005b34801561023a57600080fd5b506102436106e4565b604051610250919061115f565b60405180910390f35b34801561026557600080fd5b50610280600480360381019061027b9190610d3e565b6106ea565b60405161028e92919061117a565b60405180910390f35b3480156102a357600080fd5b506102ac610776565b005b3480156102ba57600080fd5b506102d560048036038101906102d09190610dcc565b61078a565b6040516102e29190610fe4565b60405180910390f35b3480156102f757600080fd5b50610300610a63565b60405161030d9190610fc9565b60405180910390f35b34801561032257600080fd5b5061033d60048036038101906103389190610d67565b610a8c565b005b34801561034b57600080fd5b50610354610ae3565b604051610361919061115f565b60405180910390f35b34801561037657600080fd5b5061037f610ae9565b60405161038c919061115f565b60405180910390f35b3480156103a157600080fd5b506103bc60048036038101906103b79190610d67565b610aef565b005b3480156103ca57600080fd5b506103e560048036038101906103e09190610d3e565b610b46565b005b6000600154836003546103fa91906111b4565b111561043b576040517f08c379a00000000000000000000000000000000000000000000000000000000081526004016104329061101f565b60405180910390fd5b6005548260075461044c91906111b4565b111561048d576040517f08c379a0000000000000000000000000000000000000000000000000000000008152600401610484906110ff565b60405180910390fd5b60006006548361049d919061120a565b600254856104ab919061120a565b6104b591906111b4565b9050803410156104fa576040517f08c379a00000000000000000000000000000000000000000000000000000000081526004016104f1906110bf565b60405180910390fd5b836003600082825461050c91906111b4565b92505081905550826007600082825461052591906111b4565b9250508190555083600460003373ffffffffffffffffffffffffffffffffffffffff1673ffffffffffffffffffffffffffffffffffffffff168152602001908152602001600020600082825461057b91906111b4565b9250508190555082600860003373ffffffffffffffffffffffffffffffffffffffff1673ffffffffffffffffffffffffffffffffffffffff16815260200190815260200160002060008282546105d191906111b4565b92505081905550600191505092915050565b6105eb610bca565b8060028190555050565b60035481565b60015481565b610609610bca565b600073ffffffffffffffffffffffffffffffffffffffff168173ffffffffffffffffffffffffffffffffffffffff161415610679576040517f08c379a00000000000000000000000000000000000000000000000000000000081526004016106709061103f565b60405180910390fd5b80600960006101000a81548173ffffffffffffffffffffffffffffffffffffffff021916908373ffffffffffffffffffffffffffffffffffffffff16021790555050565b60025481565b6106cb610bca565b6002548110156106da57600080fd5b8060068190555050565b60075481565b600080600460008473ffffffffffffffffffffffffffffffffffffffff1673ffffffffffffffffffffffffffffffffffffffff16815260200190815260200160002054600860008573ffffffffffffffffffffffffffffffffffffffff1673ffffffffffffffffffffffffffffffffffffffff1681526020019081526020016000205491509150915091565b61077e610bca565b6107886000610c48565b565b600083600460003373ffffffffffffffffffffffffffffffffffffffff1673ffffffffffffffffffffffffffffffffffffffff16815260200190815260200160002054111561080e576040517f08c379a000000000000000000000000000000000000000000000000000000000815260040161080590610fff565b60405180910390fd5b82600860003373ffffffffffffffffffffffffffffffffffffffff1673ffffffffffffffffffffffffffffffffffffffff168152602001908152602001600020541115610890576040517f08c379a00000000000000000000000000000000000000000000000000000000081526004016108879061111f565b60405180910390fd5b600073ffffffffffffffffffffffffffffffffffffffff168273ffffffffffffffffffffffffffffffffffffffff161415610900576040517f08c379a00000000000000000000000000000000000000000000000000000000081526004016108f79061109f565b60405180910390fd5b83600460003373ffffffffffffffffffffffffffffffffffffffff1673ffffffffffffffffffffffffffffffffffffffff168152602001908152602001600020600082825461094f9190611264565b9250508190555083600460008473ffffffffffffffffffffffffffffffffffffffff1673ffffffffffffffffffffffffffffffffffffffff16815260200190815260200160002060008282546109a591906111b4565b9250508190555082600860003373ffffffffffffffffffffffffffffffffffffffff1673ffffffffffffffffffffffffffffffffffffffff16815260200190815260200160002060008282546109fb9190611264565b9250508190555082600860008473ffffffffffffffffffffffffffffffffffffffff1673ffffffffffffffffffffffffffffffffffffffff1681526020019081526020016000206000828254610a5191906111b4565b92505081905550600190509392505050565b60008060009054906101000a900473ffffffffffffffffffffffffffffffffffffffff16905090565b610a94610bca565b600354811015610ad9576040517f08c379a0000000000000000000000000000000000000000000000000000000008152600401610ad09061107f565b60405180910390fd5b8060018190555050565b60055481565b60065481565b610af7610bca565b600754811015610b3c576040517f08c379a0000000000000000000000000000000000000000000000000000000008152600401610b339061113f565b60405180910390fd5b8060058190555050565b610b4e610bca565b600073ffffffffffffffffffffffffffffffffffffffff168173ffffffffffffffffffffffffffffffffffffffff161415610bbe576040517f08c379a0000000000000000000000000000000000000000000000000000000008152600401610bb59061105f565b60405180910390fd5b610bc781610c48565b50565b610bd2610d0c565b73ffffffffffffffffffffffffffffffffffffffff16610bf0610a63565b73ffffffffffffffffffffffffffffffffffffffff1614610c46576040517f08c379a0000000000000000000000000000000000000000000000000000000008152600401610c3d906110df565b60405180910390fd5b565b60008060009054906101000a900473ffffffffffffffffffffffffffffffffffffffff169050816000806101000a81548173ffffffffffffffffffffffffffffffffffffffff021916908373ffffffffffffffffffffffffffffffffffffffff1602179055508173ffffffffffffffffffffffffffffffffffffffff168173ffffffffffffffffffffffffffffffffffffffff167f8be0079c531659141344cd1fd0a4f28419497f9722a3daafe3b4186f6b6457e060405160405180910390a35050565b600033905090565b600081359050610d2381611590565b92915050565b600081359050610d38816115a7565b92915050565b600060208284031215610d5057600080fd5b6000610d5e84828501610d14565b91505092915050565b600060208284031215610d7957600080fd5b6000610d8784828501610d29565b91505092915050565b60008060408385031215610da357600080fd5b6000610db185828601610d29565b9250506020610dc285828601610d29565b9150509250929050565b600080600060608486031215610de157600080fd5b6000610def86828701610d29565b9350506020610e0086828701610d29565b9250506040610e1186828701610d14565b9150509250925092565b610e2481611298565b82525050565b610e33816112aa565b82525050565b6000610e466022836111a3565b9150610e518261130f565b604082019050919050565b6000610e69601b836111a3565b9150610e748261135e565b602082019050919050565b6000610e8c6015836111a3565b9150610e9782611387565b602082019050919050565b6000610eaf6026836111a3565b9150610eba826113b0565b604082019050919050565b6000610ed26038836111a3565b9150610edd826113ff565b604082019050919050565b6000610ef56018836111a3565b9150610f008261144e565b602082019050919050565b6000610f186012836111a3565b9150610f2382611477565b602082019050919050565b6000610f3b6020836111a3565b9150610f46826114a0565b602082019050919050565b6000610f5e601c836111a3565b9150610f69826114c9565b602082019050919050565b6000610f816023836111a3565b9150610f8c826114f2565b604082019050919050565b6000610fa4603a836111a3565b9150610faf82611541565b604082019050919050565b610fc3816112d6565b82525050565b6000602082019050610fde6000830184610e1b565b92915050565b6000602082019050610ff96000830184610e2a565b92915050565b6000602082019050818103600083015261101881610e39565b9050919050565b6000602082019050818103600083015261103881610e5c565b9050919050565b6000602082019050818103600083015261105881610e7f565b9050919050565b6000602082019050818103600083015261107881610ea2565b9050919050565b6000602082019050818103600083015261109881610ec5565b9050919050565b600060208201905081810360008301526110b881610ee8565b9050919050565b600060208201905081810360008301526110d881610f0b565b9050919050565b600060208201905081810360008301526110f881610f2e565b9050919050565b6000602082019050818103600083015261111881610f51565b9050919050565b6000602082019050818103600083015261113881610f74565b9050919050565b6000602082019050818103600083015261115881610f97565b9050919050565b60006020820190506111746000830184610fba565b92915050565b600060408201905061118f6000830185610fba565b61119c6020830184610fba565b9392505050565b600082825260208201905092915050565b60006111bf826112d6565b91506111ca836112d6565b9250827fffffffffffffffffffffffffffffffffffffffffffffffffffffffffffffffff038211156111ff576111fe6112e0565b5b828201905092915050565b6000611215826112d6565b9150611220836112d6565b9250817fffffffffffffffffffffffffffffffffffffffffffffffffffffffffffffffff0483118215151615611259576112586112e0565b5b828202905092915050565b600061126f826112d6565b915061127a836112d6565b92508282101561128d5761128c6112e0565b5b828203905092915050565b60006112a3826112b6565b9050919050565b60008115159050919050565b600073ffffffffffffffffffffffffffffffffffffffff82169050919050565b6000819050919050565b7f4e487b7100000000000000000000000000000000000000000000000000000000600052601160045260246000fd5b7f6e6f7420656e6f756768206e6f726d616c204e46547320746f207472616e736660008201527f6572000000000000000000000000000000000000000000000000000000000000602082015250565b7f6e6f7420656e6f756768206e6f726d616c204e465473206c6566740000000000600082015250565b7f696e76616c696420746f6b656e20616464726573730000000000000000000000600082015250565b7f4f776e61626c653a206e6577206f776e657220697320746865207a65726f206160008201527f6464726573730000000000000000000000000000000000000000000000000000602082015250565b7f6d61784e6f726d616c537570706c792073686f756c642062652067726561746560008201527f72207468616e20746f74616c4e6f726d616c537570706c790000000000000000602082015250565b7f696e76616c6964207472616e7366657220616464726573730000000000000000600082015250565b7f6e6f7420656e6f7567682062616c616e63650000000000000000000000000000600082015250565b7f4f776e61626c653a2063616c6c6572206973206e6f7420746865206f776e6572600082015250565b7f6e6f7420656e6f756768207370656369616c204e465473206c65667400000000600082015250565b7f6e6f7420656e6f756768207370656369616c204e46547320746f207472616e7360008201527f6665720000000000000000000000000000000000000000000000000000000000602082015250565b7f6d61785370656369616c537570706c792073686f756c6420626520677265617460008201527f6572207468616e20746f74616c5370656369616c537570706c79000000000000602082015250565b61159981611298565b81146115a457600080fd5b50565b6115b0816112d6565b81146115bb57600080fd5b5056fea26469706673582212201619c174e9822c5b70e19ded6517856c5615d945040aba57fd3f86496d6cd91a64736f6c63430008040033",
  "linkReferences": {},
  "deployedLinkReferences": {}
}