{
  "_format": "hh-sol-artifact-1",
  "contractName": "NFT",
  "sourceName": "contracts/NFT.sol",
  "abi": [
    {
      "inputs": [
        {
          "internalType": "address",
          "name": "_token_address",
          "type": "address"
        },
        {
          "internalType": "uint256",
          "name": "_maxNormalSupply",
          "type": "uint256"
        },
        {
          "internalType": "uint256",
          "name": "_priceNormalNFT",
          "type": "uint256"
        },
        {
          "internalType": "uint256",
          "name": "_maxSpecialSupply",
          "type": "uint256"
        },
        {
          "internalType": "uint256",
          "name": "_priceSpecialNFT",
          "type": "uint256"
        }
      ],
      "stateMutability": "nonpayable",
      "type": "constructor"
    },
    {
      "anonymous": false,
      "inputs": [
        {
          "indexed": true,
          "internalType": "address",
          "name": "previousOwner",
          "type": "address"
        },
        {
          "indexed": true,
          "internalType": "address",
          "name": "newOwner",
          "type": "address"
        }
      ],
      "name": "OwnershipTransferred",
      "type": "event"
    },
    {
      "inputs": [
        {
          "internalType": "address",
          "name": "account",
          "type": "address"
        }
      ],
      "name": "balanceOf",
      "outputs": [
        {
          "internalType": "uint256",
          "name": "normalNFT",
          "type": "uint256"
        },
        {
          "internalType": "uint256",
          "name": "specialNFT",
          "type": "uint256"
        }
      ],
      "stateMutability": "view",
      "type": "function"
    },
    {
      "inputs": [
        {
          "internalType": "address",
          "name": "addr",
          "type": "address"
        }
      ],
      "name": "getAcquiredTime",
      "outputs": [
        {
          "internalType": "uint256",
          "name": "",
          "type": "uint256"
        }
      ],
      "stateMutability": "view",
      "type": "function"
    },
    {
      "inputs": [
        {
          "internalType": "address",
          "name": "addr",
          "type": "address"
        }
      ],
      "name": "insertWhiteList",
      "outputs": [],
      "stateMutability": "nonpayable",
      "type": "function"
    },
    {
      "inputs": [
        {
          "internalType": "address[]",
          "name": "addrList",
          "type": "address[]"
        }
      ],
      "name": "insertWhiteListArray",
      "outputs": [],
      "stateMutability": "nonpayable",
      "type": "function"
    },
    {
      "inputs": [
        {
          "internalType": "address",
          "name": "addr",
          "type": "address"
        }
      ],
      "name": "isWhiteLists",
      "outputs": [
        {
          "internalType": "bool",
          "name": "",
          "type": "bool"
        }
      ],
      "stateMutability": "view",
      "type": "function"
    },
    {
      "inputs": [],
      "name": "maxNormalSupply",
      "outputs": [
        {
          "internalType": "uint256",
          "name": "",
          "type": "uint256"
        }
      ],
      "stateMutability": "view",
      "type": "function"
    },
    {
      "inputs": [],
      "name": "maxSpecialSupply",
      "outputs": [
        {
          "internalType": "uint256",
          "name": "",
          "type": "uint256"
        }
      ],
      "stateMutability": "view",
      "type": "function"
    },
    {
      "inputs": [],
      "name": "owner",
      "outputs": [
        {
          "internalType": "address",
          "name": "",
          "type": "address"
        }
      ],
      "stateMutability": "view",
      "type": "function"
    },
    {
      "inputs": [],
      "name": "priceNormalNFT",
      "outputs": [
        {
          "internalType": "uint256",
          "name": "",
          "type": "uint256"
        }
      ],
      "stateMutability": "view",
      "type": "function"
    },
    {
      "inputs": [],
      "name": "priceSpecialNFT",
      "outputs": [
        {
          "internalType": "uint256",
          "name": "",
          "type": "uint256"
        }
      ],
      "stateMutability": "view",
      "type": "function"
    },
    {
      "inputs": [
        {
          "internalType": "address",
          "name": "addr",
          "type": "address"
        }
      ],
      "name": "removeWhiteList",
      "outputs": [],
      "stateMutability": "nonpayable",
      "type": "function"
    },
    {
      "inputs": [],
      "name": "renounceOwnership",
      "outputs": [],
      "stateMutability": "nonpayable",
      "type": "function"
    },
    {
      "inputs": [
        {
          "internalType": "uint256",
          "name": "_maxNormalSupply",
          "type": "uint256"
        }
      ],
      "name": "setMaxNormalSupply",
      "outputs": [],
      "stateMutability": "nonpayable",
      "type": "function"
    },
    {
      "inputs": [
        {
          "internalType": "uint256",
          "name": "_maxSpecialSupply",
          "type": "uint256"
        }
      ],
      "name": "setMaxSpecialSupply",
      "outputs": [],
      "stateMutability": "nonpayable",
      "type": "function"
    },
    {
      "inputs": [
        {
          "internalType": "uint256",
          "name": "_priceNormalNFT",
          "type": "uint256"
        }
      ],
      "name": "setNormalPrice",
      "outputs": [],
      "stateMutability": "nonpayable",
      "type": "function"
    },
    {
      "inputs": [
        {
          "internalType": "uint256",
          "name": "_priceSpecialNFT",
          "type": "uint256"
        }
      ],
      "name": "setSpecialPrice",
      "outputs": [],
      "stateMutability": "nonpayable",
      "type": "function"
    },
    {
      "inputs": [
        {
          "internalType": "address",
          "name": "_token_address",
          "type": "address"
        }
      ],
      "name": "setTokenAddress",
      "outputs": [],
      "stateMutability": "nonpayable",
      "type": "function"
    },
    {
      "inputs": [],
      "name": "totalNormalSupply",
      "outputs": [
        {
          "internalType": "uint256",
          "name": "",
          "type": "uint256"
        }
      ],
      "stateMutability": "view",
      "type": "function"
    },
    {
      "inputs": [],
      "name": "totalSpecialSupply",
      "outputs": [
        {
          "internalType": "uint256",
          "name": "",
          "type": "uint256"
        }
      ],
      "stateMutability": "view",
      "type": "function"
    },
    {
      "inputs": [
        {
          "internalType": "uint256",
          "name": "_normalNFTCnt",
          "type": "uint256"
        },
        {
          "internalType": "uint256",
          "name": "_specialNFTCnt",
          "type": "uint256"
        },
        {
          "internalType": "address",
          "name": "to",
          "type": "address"
        }
      ],
      "name": "transferNFT",
      "outputs": [
        {
          "internalType": "bool",
          "name": "",
          "type": "bool"
        }
      ],
      "stateMutability": "nonpayable",
      "type": "function"
    },
    {
      "inputs": [
        {
          "internalType": "address",
          "name": "newOwner",
          "type": "address"
        }
      ],
      "name": "transferOwnership",
      "outputs": [],
      "stateMutability": "nonpayable",
      "type": "function"
    },
    {
      "inputs": [
        {
          "internalType": "uint256",
          "name": "_normalNFTCnt",
          "type": "uint256"
        },
        {
          "internalType": "uint256",
          "name": "_specialNFTCnt",
          "type": "uint256"
        }
      ],
      "name": "verifyNFT",
      "outputs": [
        {
          "internalType": "bool",
          "name": "",
          "type": "bool"
        }
      ],
      "stateMutability": "payable",
      "type": "function"
    }
  ],
  "bytecode": "0x60806040526000600155600060025560006003556000600555600060065560006007553480156200002f57600080fd5b5060405162001e9438038062001e9483398181016040528101906200005591906200024a565b62000075620000696200015060201b60201c565b6200015860201b60201c565b600073ffffffffffffffffffffffffffffffffffffffff168573ffffffffffffffffffffffffffffffffffffffff161415620000e8576040517f08c379a0000000000000000000000000000000000000000000000000000000008152600401620000df90620002f3565b60405180910390fd5b84600b60006101000a81548173ffffffffffffffffffffffffffffffffffffffff021916908373ffffffffffffffffffffffffffffffffffffffff160217905550836001819055508160058190555082600281905550806006819055505050505050620003c1565b600033905090565b60008060009054906101000a900473ffffffffffffffffffffffffffffffffffffffff169050816000806101000a81548173ffffffffffffffffffffffffffffffffffffffff021916908373ffffffffffffffffffffffffffffffffffffffff1602179055508173ffffffffffffffffffffffffffffffffffffffff168173ffffffffffffffffffffffffffffffffffffffff167f8be0079c531659141344cd1fd0a4f28419497f9722a3daafe3b4186f6b6457e060405160405180910390a35050565b6000815190506200022d816200038d565b92915050565b6000815190506200024481620003a7565b92915050565b600080600080600060a086880312156200026357600080fd5b600062000273888289016200021c565b9550506020620002868882890162000233565b9450506040620002998882890162000233565b9350506060620002ac8882890162000233565b9250506080620002bf8882890162000233565b9150509295509295909350565b6000620002db60158362000315565b9150620002e88262000364565b602082019050919050565b600060208201905081810360008301526200030e81620002cc565b9050919050565b600082825260208201905092915050565b600062000333826200033a565b9050919050565b600073ffffffffffffffffffffffffffffffffffffffff82169050919050565b6000819050919050565b7f696e76616c696420746f6b656e20616464726573730000000000000000000000600082015250565b620003988162000326565b8114620003a457600080fd5b50565b620003b2816200035a565b8114620003be57600080fd5b50565b611ac380620003d16000396000f3fe6080604052600436106101345760003560e01c8063715018a6116100ab578063b4d276a41161006f578063b4d276a4146103f3578063bb5495361461041e578063be1dc62a1461045b578063d263a21b14610484578063e832565b146104ad578063f2fde38b146104ea57610134565b8063715018a6146103205780638894c446146103375780638da5cb5b1461037457806397333b0d1461039f578063ad32898b146103c857610134565b806326a4e8d2116100fd57806326a4e8d214610211578063395c27761461023a5780633d2b959e1461026557806340eac6bc1461028e578063657d8092146102b757806370a08231146102e257610134565b80626db2ff1461013957806310b2d71a1461016957806316ca7467146101925780631e303bd4146101bd5780632042e5c2146101e8575b600080fd5b610153600480360381019061014e9190611216565b610513565b604051610160919061146a565b60405180910390f35b34801561017557600080fd5b50610190600480360381019061018b91906111ed565b6107a2565b005b34801561019e57600080fd5b506101a76107b4565b6040516101b491906115e5565b60405180910390f35b3480156101c957600080fd5b506101d26107ba565b6040516101df91906115e5565b60405180910390f35b3480156101f457600080fd5b5061020f600480360381019061020a919061117f565b6107c0565b005b34801561021d57600080fd5b506102386004803603810190610233919061117f565b610823565b005b34801561024657600080fd5b5061024f6108df565b60405161025c91906115e5565b60405180910390f35b34801561027157600080fd5b5061028c6004803603810190610287919061117f565b6108e5565b005b34801561029a57600080fd5b506102b560048036038101906102b091906111ed565b610948565b005b3480156102c357600080fd5b506102cc610969565b6040516102d991906115e5565b60405180910390f35b3480156102ee57600080fd5b506103096004803603810190610304919061117f565b61096f565b604051610317929190611600565b60405180910390f35b34801561032c57600080fd5b506103356109fb565b005b34801561034357600080fd5b5061035e60048036038101906103599190611252565b610a0f565b60405161036b919061146a565b60405180910390f35b34801561038057600080fd5b50610389610ce8565b604051610396919061144f565b60405180910390f35b3480156103ab57600080fd5b506103c660048036038101906103c191906111ed565b610d11565b005b3480156103d457600080fd5b506103dd610d68565b6040516103ea91906115e5565b60405180910390f35b3480156103ff57600080fd5b50610408610d6e565b60405161041591906115e5565b60405180910390f35b34801561042a57600080fd5b506104456004803603810190610440919061117f565b610d74565b604051610452919061146a565b60405180910390f35b34801561046757600080fd5b50610482600480360381019061047d91906111a8565b610dca565b005b34801561049057600080fd5b506104ab60048036038101906104a691906111ed565b610e9d565b005b3480156104b957600080fd5b506104d460048036038101906104cf919061117f565b610ef4565b6040516104e191906115e5565b60405180910390f35b3480156104f657600080fd5b50610511600480360381019061050c919061117f565b610f3d565b005b600060015483600354610526919061163a565b1115610567576040517f08c379a000000000000000000000000000000000000000000000000000000000815260040161055e90611545565b60405180910390fd5b60055482600754610578919061163a565b11156105b9576040517f08c379a00000000000000000000000000000000000000000000000000000000081526004016105b090611545565b60405180910390fd5b600115156105c633610d74565b151514610608576040517f08c379a00000000000000000000000000000000000000000000000000000000081526004016105ff90611585565b60405180910390fd5b6000600654836106189190611690565b600254856106269190611690565b610630919061163a565b905080341015610675576040517f08c379a000000000000000000000000000000000000000000000000000000000815260040161066c90611525565b60405180910390fd5b8360036000828254610687919061163a565b9250508190555082600760008282546106a0919061163a565b9250508190555083600460003373ffffffffffffffffffffffffffffffffffffffff1673ffffffffffffffffffffffffffffffffffffffff16815260200190815260200160002060008282546106f6919061163a565b9250508190555082600860003373ffffffffffffffffffffffffffffffffffffffff1673ffffffffffffffffffffffffffffffffffffffff168152602001908152602001600020600082825461074c919061163a565b9250508190555042600960003373ffffffffffffffffffffffffffffffffffffffff1673ffffffffffffffffffffffffffffffffffffffff16815260200190815260200160002081905550600191505092915050565b6107aa610fc1565b8060028190555050565b60035481565b60015481565b6107c8610fc1565b6000600a60008373ffffffffffffffffffffffffffffffffffffffff1673ffffffffffffffffffffffffffffffffffffffff16815260200190815260200160002060006101000a81548160ff02191690831515021790555050565b61082b610fc1565b600073ffffffffffffffffffffffffffffffffffffffff168173ffffffffffffffffffffffffffffffffffffffff16141561089b576040517f08c379a0000000000000000000000000000000000000000000000000000000008152600401610892906114a5565b60405180910390fd5b80600b60006101000a81548173ffffffffffffffffffffffffffffffffffffffff021916908373ffffffffffffffffffffffffffffffffffffffff16021790555050565b60025481565b6108ed610fc1565b6001600a60008373ffffffffffffffffffffffffffffffffffffffff1673ffffffffffffffffffffffffffffffffffffffff16815260200190815260200160002060006101000a81548160ff02191690831515021790555050565b610950610fc1565b60025481101561095f57600080fd5b8060068190555050565b60075481565b600080600460008473ffffffffffffffffffffffffffffffffffffffff1673ffffffffffffffffffffffffffffffffffffffff16815260200190815260200160002054600860008573ffffffffffffffffffffffffffffffffffffffff1673ffffffffffffffffffffffffffffffffffffffff1681526020019081526020016000205491509150915091565b610a03610fc1565b610a0d600061103f565b565b6000600460003373ffffffffffffffffffffffffffffffffffffffff1673ffffffffffffffffffffffffffffffffffffffff16815260200190815260200160002054841115610a93576040517f08c379a0000000000000000000000000000000000000000000000000000000008152600401610a8a90611485565b60405180910390fd5b600860003373ffffffffffffffffffffffffffffffffffffffff1673ffffffffffffffffffffffffffffffffffffffff16815260200190815260200160002054831115610b15576040517f08c379a0000000000000000000000000000000000000000000000000000000008152600401610b0c906115a5565b60405180910390fd5b600073ffffffffffffffffffffffffffffffffffffffff168273ffffffffffffffffffffffffffffffffffffffff161415610b85576040517f08c379a0000000000000000000000000000000000000000000000000000000008152600401610b7c90611505565b60405180910390fd5b83600460003373ffffffffffffffffffffffffffffffffffffffff1673ffffffffffffffffffffffffffffffffffffffff1681526020019081526020016000206000828254610bd491906116ea565b9250508190555083600460008473ffffffffffffffffffffffffffffffffffffffff1673ffffffffffffffffffffffffffffffffffffffff1681526020019081526020016000206000828254610c2a919061163a565b9250508190555082600860003373ffffffffffffffffffffffffffffffffffffffff1673ffffffffffffffffffffffffffffffffffffffff1681526020019081526020016000206000828254610c8091906116ea565b9250508190555082600860008473ffffffffffffffffffffffffffffffffffffffff1673ffffffffffffffffffffffffffffffffffffffff1681526020019081526020016000206000828254610cd6919061163a565b92505081905550600190509392505050565b60008060009054906101000a900473ffffffffffffffffffffffffffffffffffffffff16905090565b610d19610fc1565b600354811015610d5e576040517f08c379a0000000000000000000000000000000000000000000000000000000008152600401610d55906114e5565b60405180910390fd5b8060018190555050565b60055481565b60065481565b6000600a60008373ffffffffffffffffffffffffffffffffffffffff1673ffffffffffffffffffffffffffffffffffffffff16815260200190815260200160002060009054906101000a900460ff169050919050565b610dd2610fc1565b60005b82829050811015610e98576001600a6000858585818110610e1f577f4e487b7100000000000000000000000000000000000000000000000000000000600052603260045260246000fd5b9050602002016020810190610e34919061117f565b73ffffffffffffffffffffffffffffffffffffffff1673ffffffffffffffffffffffffffffffffffffffff16815260200190815260200160002060006101000a81548160ff0219169083151502179055508080610e9090611766565b915050610dd5565b505050565b610ea5610fc1565b600754811015610eea576040517f08c379a0000000000000000000000000000000000000000000000000000000008152600401610ee1906115c5565b60405180910390fd5b8060058190555050565b6000600960008373ffffffffffffffffffffffffffffffffffffffff1673ffffffffffffffffffffffffffffffffffffffff168152602001908152602001600020549050919050565b610f45610fc1565b600073ffffffffffffffffffffffffffffffffffffffff168173ffffffffffffffffffffffffffffffffffffffff161415610fb5576040517f08c379a0000000000000000000000000000000000000000000000000000000008152600401610fac906114c5565b60405180910390fd5b610fbe8161103f565b50565b610fc9611103565b73ffffffffffffffffffffffffffffffffffffffff16610fe7610ce8565b73ffffffffffffffffffffffffffffffffffffffff161461103d576040517f08c379a000000000000000000000000000000000000000000000000000000000815260040161103490611565565b60405180910390fd5b565b60008060009054906101000a900473ffffffffffffffffffffffffffffffffffffffff169050816000806101000a81548173ffffffffffffffffffffffffffffffffffffffff021916908373ffffffffffffffffffffffffffffffffffffffff1602179055508173ffffffffffffffffffffffffffffffffffffffff168173ffffffffffffffffffffffffffffffffffffffff167f8be0079c531659141344cd1fd0a4f28419497f9722a3daafe3b4186f6b6457e060405160405180910390a35050565b600033905090565b60008135905061111a81611a5f565b92915050565b60008083601f84011261113257600080fd5b8235905067ffffffffffffffff81111561114b57600080fd5b60208301915083602082028301111561116357600080fd5b9250929050565b60008135905061117981611a76565b92915050565b60006020828403121561119157600080fd5b600061119f8482850161110b565b91505092915050565b600080602083850312156111bb57600080fd5b600083013567ffffffffffffffff8111156111d557600080fd5b6111e185828601611120565b92509250509250929050565b6000602082840312156111ff57600080fd5b600061120d8482850161116a565b91505092915050565b6000806040838503121561122957600080fd5b60006112378582860161116a565b92505060206112488582860161116a565b9150509250929050565b60008060006060848603121561126757600080fd5b60006112758682870161116a565b93505060206112868682870161116a565b92505060406112978682870161110b565b9150509250925092565b6112aa8161171e565b82525050565b6112b981611730565b82525050565b60006112cc602283611629565b91506112d7826117de565b604082019050919050565b60006112ef601583611629565b91506112fa8261182d565b602082019050919050565b6000611312602683611629565b915061131d82611856565b604082019050919050565b6000611335603883611629565b9150611340826118a5565b604082019050919050565b6000611358601883611629565b9150611363826118f4565b602082019050919050565b600061137b601283611629565b91506113868261191d565b602082019050919050565b600061139e601483611629565b91506113a982611946565b602082019050919050565b60006113c1602083611629565b91506113cc8261196f565b602082019050919050565b60006113e4601a83611629565b91506113ef82611998565b602082019050919050565b6000611407602383611629565b9150611412826119c1565b604082019050919050565b600061142a603a83611629565b915061143582611a10565b604082019050919050565b6114498161175c565b82525050565b600060208201905061146460008301846112a1565b92915050565b600060208201905061147f60008301846112b0565b92915050565b6000602082019050818103600083015261149e816112bf565b9050919050565b600060208201905081810360008301526114be816112e2565b9050919050565b600060208201905081810360008301526114de81611305565b9050919050565b600060208201905081810360008301526114fe81611328565b9050919050565b6000602082019050818103600083015261151e8161134b565b9050919050565b6000602082019050818103600083015261153e8161136e565b9050919050565b6000602082019050818103600083015261155e81611391565b9050919050565b6000602082019050818103600083015261157e816113b4565b9050919050565b6000602082019050818103600083015261159e816113d7565b9050919050565b600060208201905081810360008301526115be816113fa565b9050919050565b600060208201905081810360008301526115de8161141d565b9050919050565b60006020820190506115fa6000830184611440565b92915050565b60006040820190506116156000830185611440565b6116226020830184611440565b9392505050565b600082825260208201905092915050565b60006116458261175c565b91506116508361175c565b9250827fffffffffffffffffffffffffffffffffffffffffffffffffffffffffffffffff03821115611685576116846117af565b5b828201905092915050565b600061169b8261175c565b91506116a68361175c565b9250817fffffffffffffffffffffffffffffffffffffffffffffffffffffffffffffffff04831182151516156116df576116de6117af565b5b828202905092915050565b60006116f58261175c565b91506117008361175c565b925082821015611713576117126117af565b5b828203905092915050565b60006117298261173c565b9050919050565b60008115159050919050565b600073ffffffffffffffffffffffffffffffffffffffff82169050919050565b6000819050919050565b60006117718261175c565b91507fffffffffffffffffffffffffffffffffffffffffffffffffffffffffffffffff8214156117a4576117a36117af565b5b600182019050919050565b7f4e487b7100000000000000000000000000000000000000000000000000000000600052601160045260246000fd5b7f6e6f7420656e6f756768206e6f726d616c204e46547320746f207472616e736660008201527f6572000000000000000000000000000000000000000000000000000000000000602082015250565b7f696e76616c696420746f6b656e20616464726573730000000000000000000000600082015250565b7f4f776e61626c653a206e6577206f776e657220697320746865207a65726f206160008201527f6464726573730000000000000000000000000000000000000000000000000000602082015250565b7f6d61784e6f726d616c537570706c792073686f756c642062652067726561746560008201527f72207468616e20746f74616c4e6f726d616c537570706c790000000000000000602082015250565b7f696e76616c6964207472616e7366657220616464726573730000000000000000600082015250565b7f6e6f7420656e6f7567682062616c616e63650000000000000000000000000000600082015250565b7f6e6f7420656e6f756768204e465473206c656674000000000000000000000000600082015250565b7f4f776e61626c653a2063616c6c6572206973206e6f7420746865206f776e6572600082015250565b7f596f7520617265206e6f7420612062657461207465737465722e000000000000600082015250565b7f6e6f7420656e6f756768207370656369616c204e46547320746f207472616e7360008201527f6665720000000000000000000000000000000000000000000000000000000000602082015250565b7f6d61785370656369616c537570706c792073686f756c6420626520677265617460008201527f6572207468616e20746f74616c5370656369616c537570706c79000000000000602082015250565b611a688161171e565b8114611a7357600080fd5b50565b611a7f8161175c565b8114611a8a57600080fd5b5056fea2646970667358221220c01c001e04cea9c23c20af0a4627f70bd3bf7d4f54aac217edcf3df44628400a64736f6c63430008040033",
  "linkReferences": {},
  "deployedLinkReferences": {}
}