{
  "_format": "hh-sol-artifact-1",
  "contractName": "NFT",
  "sourceName": "contracts/NFT.sol",
  "abi": [
    {
      "inputs": [
        {
          "internalType": "address",
          "name": "_token_address",
          "type": "address"
        },
        {
          "internalType": "uint256",
          "name": "_maxNormalSupply",
          "type": "uint256"
        },
        {
          "internalType": "uint256",
          "name": "_priceNormalNFT",
          "type": "uint256"
        },
        {
          "internalType": "uint256",
          "name": "_maxSpecialSupply",
          "type": "uint256"
        },
        {
          "internalType": "uint256",
          "name": "_priceSpecialNFT",
          "type": "uint256"
        }
      ],
      "stateMutability": "nonpayable",
      "type": "constructor"
    },
    {
      "anonymous": false,
      "inputs": [
        {
          "indexed": true,
          "internalType": "address",
          "name": "previousOwner",
          "type": "address"
        },
        {
          "indexed": true,
          "internalType": "address",
          "name": "newOwner",
          "type": "address"
        }
      ],
      "name": "OwnershipTransferred",
      "type": "event"
    },
    {
      "inputs": [
        {
          "internalType": "address",
          "name": "account",
          "type": "address"
        }
      ],
      "name": "balanceOf",
      "outputs": [
        {
          "internalType": "uint256",
          "name": "normalNFT",
          "type": "uint256"
        },
        {
          "internalType": "uint256",
          "name": "specialNFT",
          "type": "uint256"
        }
      ],
      "stateMutability": "view",
      "type": "function"
    },
    {
      "inputs": [
        {
          "internalType": "address",
          "name": "addr",
          "type": "address"
        }
      ],
      "name": "insertWhiteList",
      "outputs": [],
      "stateMutability": "nonpayable",
      "type": "function"
    },
    {
      "inputs": [
        {
          "internalType": "address",
          "name": "addr",
          "type": "address"
        }
      ],
      "name": "isWhiteLists",
      "outputs": [
        {
          "internalType": "bool",
          "name": "",
          "type": "bool"
        }
      ],
      "stateMutability": "view",
      "type": "function"
    },
    {
      "inputs": [],
      "name": "maxNormalSupply",
      "outputs": [
        {
          "internalType": "uint256",
          "name": "",
          "type": "uint256"
        }
      ],
      "stateMutability": "view",
      "type": "function"
    },
    {
      "inputs": [],
      "name": "maxSpecialSupply",
      "outputs": [
        {
          "internalType": "uint256",
          "name": "",
          "type": "uint256"
        }
      ],
      "stateMutability": "view",
      "type": "function"
    },
    {
      "inputs": [],
      "name": "owner",
      "outputs": [
        {
          "internalType": "address",
          "name": "",
          "type": "address"
        }
      ],
      "stateMutability": "view",
      "type": "function"
    },
    {
      "inputs": [],
      "name": "priceNormalNFT",
      "outputs": [
        {
          "internalType": "uint256",
          "name": "",
          "type": "uint256"
        }
      ],
      "stateMutability": "view",
      "type": "function"
    },
    {
      "inputs": [],
      "name": "priceSpecialNFT",
      "outputs": [
        {
          "internalType": "uint256",
          "name": "",
          "type": "uint256"
        }
      ],
      "stateMutability": "view",
      "type": "function"
    },
    {
      "inputs": [
        {
          "internalType": "address",
          "name": "addr",
          "type": "address"
        }
      ],
      "name": "removeWhiteList",
      "outputs": [],
      "stateMutability": "nonpayable",
      "type": "function"
    },
    {
      "inputs": [],
      "name": "renounceOwnership",
      "outputs": [],
      "stateMutability": "nonpayable",
      "type": "function"
    },
    {
      "inputs": [
        {
          "internalType": "uint256",
          "name": "_maxNormalSupply",
          "type": "uint256"
        }
      ],
      "name": "setMaxNormalSupply",
      "outputs": [],
      "stateMutability": "nonpayable",
      "type": "function"
    },
    {
      "inputs": [
        {
          "internalType": "uint256",
          "name": "_maxSpecialSupply",
          "type": "uint256"
        }
      ],
      "name": "setMaxSpecialSupply",
      "outputs": [],
      "stateMutability": "nonpayable",
      "type": "function"
    },
    {
      "inputs": [
        {
          "internalType": "uint256",
          "name": "_priceNormalNFT",
          "type": "uint256"
        }
      ],
      "name": "setNormalPrice",
      "outputs": [],
      "stateMutability": "nonpayable",
      "type": "function"
    },
    {
      "inputs": [
        {
          "internalType": "uint256",
          "name": "_priceSpecialNFT",
          "type": "uint256"
        }
      ],
      "name": "setSpecialPrice",
      "outputs": [],
      "stateMutability": "nonpayable",
      "type": "function"
    },
    {
      "inputs": [
        {
          "internalType": "address",
          "name": "_token_address",
          "type": "address"
        }
      ],
      "name": "setTokenAddress",
      "outputs": [],
      "stateMutability": "nonpayable",
      "type": "function"
    },
    {
      "inputs": [],
      "name": "totalNormalSupply",
      "outputs": [
        {
          "internalType": "uint256",
          "name": "",
          "type": "uint256"
        }
      ],
      "stateMutability": "view",
      "type": "function"
    },
    {
      "inputs": [],
      "name": "totalSpecialSupply",
      "outputs": [
        {
          "internalType": "uint256",
          "name": "",
          "type": "uint256"
        }
      ],
      "stateMutability": "view",
      "type": "function"
    },
    {
      "inputs": [
        {
          "internalType": "uint256",
          "name": "_normalNFTCnt",
          "type": "uint256"
        },
        {
          "internalType": "uint256",
          "name": "_specialNFTCnt",
          "type": "uint256"
        },
        {
          "internalType": "address",
          "name": "to",
          "type": "address"
        }
      ],
      "name": "transferNFT",
      "outputs": [
        {
          "internalType": "bool",
          "name": "",
          "type": "bool"
        }
      ],
      "stateMutability": "nonpayable",
      "type": "function"
    },
    {
      "inputs": [
        {
          "internalType": "address",
          "name": "newOwner",
          "type": "address"
        }
      ],
      "name": "transferOwnership",
      "outputs": [],
      "stateMutability": "nonpayable",
      "type": "function"
    },
    {
      "inputs": [
        {
          "internalType": "uint256",
          "name": "_normalNFTCnt",
          "type": "uint256"
        },
        {
          "internalType": "uint256",
          "name": "_specialNFTCnt",
          "type": "uint256"
        }
      ],
      "name": "verifyNFT",
      "outputs": [
        {
          "internalType": "bool",
          "name": "",
          "type": "bool"
        }
      ],
      "stateMutability": "payable",
      "type": "function"
    }
  ],
  "bytecode": "0x60806040526000600155600060025560006003556000600555600060065560006007553480156200002f57600080fd5b5060405162001b9138038062001b9183398181016040528101906200005591906200024a565b62000075620000696200015060201b60201c565b6200015860201b60201c565b600073ffffffffffffffffffffffffffffffffffffffff168573ffffffffffffffffffffffffffffffffffffffff161415620000e8576040517f08c379a0000000000000000000000000000000000000000000000000000000008152600401620000df90620002f3565b60405180910390fd5b84600a60006101000a81548173ffffffffffffffffffffffffffffffffffffffff021916908373ffffffffffffffffffffffffffffffffffffffff160217905550836001819055508160058190555082600281905550806006819055505050505050620003c1565b600033905090565b60008060009054906101000a900473ffffffffffffffffffffffffffffffffffffffff169050816000806101000a81548173ffffffffffffffffffffffffffffffffffffffff021916908373ffffffffffffffffffffffffffffffffffffffff1602179055508173ffffffffffffffffffffffffffffffffffffffff168173ffffffffffffffffffffffffffffffffffffffff167f8be0079c531659141344cd1fd0a4f28419497f9722a3daafe3b4186f6b6457e060405160405180910390a35050565b6000815190506200022d816200038d565b92915050565b6000815190506200024481620003a7565b92915050565b600080600080600060a086880312156200026357600080fd5b600062000273888289016200021c565b9550506020620002868882890162000233565b9450506040620002998882890162000233565b9350506060620002ac8882890162000233565b9250506080620002bf8882890162000233565b9150509295509295909350565b6000620002db60158362000315565b9150620002e88262000364565b602082019050919050565b600060208201905081810360008301526200030e81620002cc565b9050919050565b600082825260208201905092915050565b600062000333826200033a565b9050919050565b600073ffffffffffffffffffffffffffffffffffffffff82169050919050565b6000819050919050565b7f696e76616c696420746f6b656e20616464726573730000000000000000000000600082015250565b620003988162000326565b8114620003a457600080fd5b50565b620003b2816200035a565b8114620003be57600080fd5b50565b6117c080620003d16000396000f3fe60806040526004361061011e5760003560e01c806370a08231116100a0578063ad32898b11610064578063ad32898b146103b2578063b4d276a4146103dd578063bb54953614610408578063d263a21b14610445578063f2fde38b1461046e5761011e565b806370a08231146102cc578063715018a61461030a5780638894c446146103215780638da5cb5b1461035e57806397333b0d146103895761011e565b806326a4e8d2116100e757806326a4e8d2146101fb578063395c2776146102245780633d2b959e1461024f57806340eac6bc14610278578063657d8092146102a15761011e565b80626db2ff1461012357806310b2d71a1461015357806316ca74671461017c5780631e303bd4146101a75780632042e5c2146101d2575b600080fd5b61013d60048036038101906101389190610f5c565b610497565b60405161014a91906111b0565b60405180910390f35b34801561015f57600080fd5b5061017a60048036038101906101759190610f33565b610693565b005b34801561018857600080fd5b506101916106a5565b60405161019e919061132b565b60405180910390f35b3480156101b357600080fd5b506101bc6106ab565b6040516101c9919061132b565b60405180910390f35b3480156101de57600080fd5b506101f960048036038101906101f49190610f0a565b6106b1565b005b34801561020757600080fd5b50610222600480360381019061021d9190610f0a565b610714565b005b34801561023057600080fd5b506102396107d0565b604051610246919061132b565b60405180910390f35b34801561025b57600080fd5b5061027660048036038101906102719190610f0a565b6107d6565b005b34801561028457600080fd5b5061029f600480360381019061029a9190610f33565b610839565b005b3480156102ad57600080fd5b506102b661085a565b6040516102c3919061132b565b60405180910390f35b3480156102d857600080fd5b506102f360048036038101906102ee9190610f0a565b610860565b604051610301929190611346565b60405180910390f35b34801561031657600080fd5b5061031f6108ec565b005b34801561032d57600080fd5b5061034860048036038101906103439190610f98565b610900565b60405161035591906111b0565b60405180910390f35b34801561036a57600080fd5b50610373610bd9565b6040516103809190611195565b60405180910390f35b34801561039557600080fd5b506103b060048036038101906103ab9190610f33565b610c02565b005b3480156103be57600080fd5b506103c7610c59565b6040516103d4919061132b565b60405180910390f35b3480156103e957600080fd5b506103f2610c5f565b6040516103ff919061132b565b60405180910390f35b34801561041457600080fd5b5061042f600480360381019061042a9190610f0a565b610c65565b60405161043c91906111b0565b60405180910390f35b34801561045157600080fd5b5061046c60048036038101906104679190610f33565b610cbb565b005b34801561047a57600080fd5b5061049560048036038101906104909190610f0a565b610d12565b005b6000600154836003546104aa9190611380565b11156104eb576040517f08c379a00000000000000000000000000000000000000000000000000000000081526004016104e2906111eb565b60405180910390fd5b600554826007546104fc9190611380565b111561053d576040517f08c379a0000000000000000000000000000000000000000000000000000000008152600401610534906112cb565b60405180910390fd5b60006006548361054d91906113d6565b6002548561055b91906113d6565b6105659190611380565b9050803410156105aa576040517f08c379a00000000000000000000000000000000000000000000000000000000081526004016105a19061128b565b60405180910390fd5b83600360008282546105bc9190611380565b9250508190555082600760008282546105d59190611380565b9250508190555083600460003373ffffffffffffffffffffffffffffffffffffffff1673ffffffffffffffffffffffffffffffffffffffff168152602001908152602001600020600082825461062b9190611380565b9250508190555082600860003373ffffffffffffffffffffffffffffffffffffffff1673ffffffffffffffffffffffffffffffffffffffff16815260200190815260200160002060008282546106819190611380565b92505081905550600191505092915050565b61069b610d96565b8060028190555050565b60035481565b60015481565b6106b9610d96565b6000600960008373ffffffffffffffffffffffffffffffffffffffff1673ffffffffffffffffffffffffffffffffffffffff16815260200190815260200160002060006101000a81548160ff02191690831515021790555050565b61071c610d96565b600073ffffffffffffffffffffffffffffffffffffffff168173ffffffffffffffffffffffffffffffffffffffff16141561078c576040517f08c379a00000000000000000000000000000000000000000000000000000000081526004016107839061120b565b60405180910390fd5b80600a60006101000a81548173ffffffffffffffffffffffffffffffffffffffff021916908373ffffffffffffffffffffffffffffffffffffffff16021790555050565b60025481565b6107de610d96565b6001600960008373ffffffffffffffffffffffffffffffffffffffff1673ffffffffffffffffffffffffffffffffffffffff16815260200190815260200160002060006101000a81548160ff02191690831515021790555050565b610841610d96565b60025481101561085057600080fd5b8060068190555050565b60075481565b600080600460008473ffffffffffffffffffffffffffffffffffffffff1673ffffffffffffffffffffffffffffffffffffffff16815260200190815260200160002054600860008573ffffffffffffffffffffffffffffffffffffffff1673ffffffffffffffffffffffffffffffffffffffff1681526020019081526020016000205491509150915091565b6108f4610d96565b6108fe6000610e14565b565b6000600460003373ffffffffffffffffffffffffffffffffffffffff1673ffffffffffffffffffffffffffffffffffffffff16815260200190815260200160002054841115610984576040517f08c379a000000000000000000000000000000000000000000000000000000000815260040161097b906111cb565b60405180910390fd5b600860003373ffffffffffffffffffffffffffffffffffffffff1673ffffffffffffffffffffffffffffffffffffffff16815260200190815260200160002054831115610a06576040517f08c379a00000000000000000000000000000000000000000000000000000000081526004016109fd906112eb565b60405180910390fd5b600073ffffffffffffffffffffffffffffffffffffffff168273ffffffffffffffffffffffffffffffffffffffff161415610a76576040517f08c379a0000000000000000000000000000000000000000000000000000000008152600401610a6d9061126b565b60405180910390fd5b83600460003373ffffffffffffffffffffffffffffffffffffffff1673ffffffffffffffffffffffffffffffffffffffff1681526020019081526020016000206000828254610ac59190611430565b9250508190555083600460008473ffffffffffffffffffffffffffffffffffffffff1673ffffffffffffffffffffffffffffffffffffffff1681526020019081526020016000206000828254610b1b9190611380565b9250508190555082600860003373ffffffffffffffffffffffffffffffffffffffff1673ffffffffffffffffffffffffffffffffffffffff1681526020019081526020016000206000828254610b719190611430565b9250508190555082600860008473ffffffffffffffffffffffffffffffffffffffff1673ffffffffffffffffffffffffffffffffffffffff1681526020019081526020016000206000828254610bc79190611380565b92505081905550600190509392505050565b60008060009054906101000a900473ffffffffffffffffffffffffffffffffffffffff16905090565b610c0a610d96565b600354811015610c4f576040517f08c379a0000000000000000000000000000000000000000000000000000000008152600401610c469061124b565b60405180910390fd5b8060018190555050565b60055481565b60065481565b6000600960008373ffffffffffffffffffffffffffffffffffffffff1673ffffffffffffffffffffffffffffffffffffffff16815260200190815260200160002060009054906101000a900460ff169050919050565b610cc3610d96565b600754811015610d08576040517f08c379a0000000000000000000000000000000000000000000000000000000008152600401610cff9061130b565b60405180910390fd5b8060058190555050565b610d1a610d96565b600073ffffffffffffffffffffffffffffffffffffffff168173ffffffffffffffffffffffffffffffffffffffff161415610d8a576040517f08c379a0000000000000000000000000000000000000000000000000000000008152600401610d819061122b565b60405180910390fd5b610d9381610e14565b50565b610d9e610ed8565b73ffffffffffffffffffffffffffffffffffffffff16610dbc610bd9565b73ffffffffffffffffffffffffffffffffffffffff1614610e12576040517f08c379a0000000000000000000000000000000000000000000000000000000008152600401610e09906112ab565b60405180910390fd5b565b60008060009054906101000a900473ffffffffffffffffffffffffffffffffffffffff169050816000806101000a81548173ffffffffffffffffffffffffffffffffffffffff021916908373ffffffffffffffffffffffffffffffffffffffff1602179055508173ffffffffffffffffffffffffffffffffffffffff168173ffffffffffffffffffffffffffffffffffffffff167f8be0079c531659141344cd1fd0a4f28419497f9722a3daafe3b4186f6b6457e060405160405180910390a35050565b600033905090565b600081359050610eef8161175c565b92915050565b600081359050610f0481611773565b92915050565b600060208284031215610f1c57600080fd5b6000610f2a84828501610ee0565b91505092915050565b600060208284031215610f4557600080fd5b6000610f5384828501610ef5565b91505092915050565b60008060408385031215610f6f57600080fd5b6000610f7d85828601610ef5565b9250506020610f8e85828601610ef5565b9150509250929050565b600080600060608486031215610fad57600080fd5b6000610fbb86828701610ef5565b9350506020610fcc86828701610ef5565b9250506040610fdd86828701610ee0565b9150509250925092565b610ff081611464565b82525050565b610fff81611476565b82525050565b600061101260228361136f565b915061101d826114db565b604082019050919050565b6000611035601b8361136f565b91506110408261152a565b602082019050919050565b600061105860158361136f565b915061106382611553565b602082019050919050565b600061107b60268361136f565b91506110868261157c565b604082019050919050565b600061109e60388361136f565b91506110a9826115cb565b604082019050919050565b60006110c160188361136f565b91506110cc8261161a565b602082019050919050565b60006110e460128361136f565b91506110ef82611643565b602082019050919050565b600061110760208361136f565b91506111128261166c565b602082019050919050565b600061112a601c8361136f565b915061113582611695565b602082019050919050565b600061114d60238361136f565b9150611158826116be565b604082019050919050565b6000611170603a8361136f565b915061117b8261170d565b604082019050919050565b61118f816114a2565b82525050565b60006020820190506111aa6000830184610fe7565b92915050565b60006020820190506111c56000830184610ff6565b92915050565b600060208201905081810360008301526111e481611005565b9050919050565b6000602082019050818103600083015261120481611028565b9050919050565b600060208201905081810360008301526112248161104b565b9050919050565b600060208201905081810360008301526112448161106e565b9050919050565b6000602082019050818103600083015261126481611091565b9050919050565b60006020820190508181036000830152611284816110b4565b9050919050565b600060208201905081810360008301526112a4816110d7565b9050919050565b600060208201905081810360008301526112c4816110fa565b9050919050565b600060208201905081810360008301526112e48161111d565b9050919050565b6000602082019050818103600083015261130481611140565b9050919050565b6000602082019050818103600083015261132481611163565b9050919050565b60006020820190506113406000830184611186565b92915050565b600060408201905061135b6000830185611186565b6113686020830184611186565b9392505050565b600082825260208201905092915050565b600061138b826114a2565b9150611396836114a2565b9250827fffffffffffffffffffffffffffffffffffffffffffffffffffffffffffffffff038211156113cb576113ca6114ac565b5b828201905092915050565b60006113e1826114a2565b91506113ec836114a2565b9250817fffffffffffffffffffffffffffffffffffffffffffffffffffffffffffffffff0483118215151615611425576114246114ac565b5b828202905092915050565b600061143b826114a2565b9150611446836114a2565b925082821015611459576114586114ac565b5b828203905092915050565b600061146f82611482565b9050919050565b60008115159050919050565b600073ffffffffffffffffffffffffffffffffffffffff82169050919050565b6000819050919050565b7f4e487b7100000000000000000000000000000000000000000000000000000000600052601160045260246000fd5b7f6e6f7420656e6f756768206e6f726d616c204e46547320746f207472616e736660008201527f6572000000000000000000000000000000000000000000000000000000000000602082015250565b7f6e6f7420656e6f756768206e6f726d616c204e465473206c6566740000000000600082015250565b7f696e76616c696420746f6b656e20616464726573730000000000000000000000600082015250565b7f4f776e61626c653a206e6577206f776e657220697320746865207a65726f206160008201527f6464726573730000000000000000000000000000000000000000000000000000602082015250565b7f6d61784e6f726d616c537570706c792073686f756c642062652067726561746560008201527f72207468616e20746f74616c4e6f726d616c537570706c790000000000000000602082015250565b7f696e76616c6964207472616e7366657220616464726573730000000000000000600082015250565b7f6e6f7420656e6f7567682062616c616e63650000000000000000000000000000600082015250565b7f4f776e61626c653a2063616c6c6572206973206e6f7420746865206f776e6572600082015250565b7f6e6f7420656e6f756768207370656369616c204e465473206c65667400000000600082015250565b7f6e6f7420656e6f756768207370656369616c204e46547320746f207472616e7360008201527f6665720000000000000000000000000000000000000000000000000000000000602082015250565b7f6d61785370656369616c537570706c792073686f756c6420626520677265617460008201527f6572207468616e20746f74616c5370656369616c537570706c79000000000000602082015250565b61176581611464565b811461177057600080fd5b50565b61177c816114a2565b811461178757600080fd5b5056fea264697066735822122093eba16fe7e65b57c62cbbde7fdf84c48706fc1bb3f84c9bc9262ac92ae2fdda64736f6c63430008040033",
  "linkReferences": {},
  "deployedLinkReferences": {}
}