{
  "_format": "hh-sol-artifact-1",
  "contractName": "ElumReward",
  "sourceName": "contracts/ElumReward.sol",
  "abi": [
    {
      "inputs": [],
      "stateMutability": "nonpayable",
      "type": "constructor"
    },
    {
      "anonymous": false,
      "inputs": [
        {
          "indexed": true,
          "internalType": "address",
          "name": "previousOwner",
          "type": "address"
        },
        {
          "indexed": true,
          "internalType": "address",
          "name": "newOwner",
          "type": "address"
        }
      ],
      "name": "OwnershipTransferred",
      "type": "event"
    },
    {
      "inputs": [],
      "name": "DISTRIBUTE_TOKEN",
      "outputs": [
        {
          "internalType": "uint256",
          "name": "",
          "type": "uint256"
        }
      ],
      "stateMutability": "view",
      "type": "function"
    },
    {
      "inputs": [],
      "name": "EPOCH_SECONDS",
      "outputs": [
        {
          "internalType": "uint256",
          "name": "",
          "type": "uint256"
        }
      ],
      "stateMutability": "view",
      "type": "function"
    },
    {
      "inputs": [],
      "name": "MAX_TOKEN_COEFF",
      "outputs": [
        {
          "internalType": "uint256",
          "name": "",
          "type": "uint256"
        }
      ],
      "stateMutability": "view",
      "type": "function"
    },
    {
      "inputs": [
        {
          "internalType": "address",
          "name": "to",
          "type": "address"
        },
        {
          "internalType": "uint256",
          "name": "amount",
          "type": "uint256"
        },
        {
          "internalType": "uint8",
          "name": "_v",
          "type": "uint8"
        },
        {
          "internalType": "bytes32",
          "name": "_r",
          "type": "bytes32"
        },
        {
          "internalType": "bytes32",
          "name": "_s",
          "type": "bytes32"
        }
      ],
      "name": "claimRequest",
      "outputs": [
        {
          "internalType": "bool",
          "name": "",
          "type": "bool"
        }
      ],
      "stateMutability": "nonpayable",
      "type": "function"
    },
    {
      "inputs": [
        {
          "internalType": "address",
          "name": "",
          "type": "address"
        }
      ],
      "name": "claimedTime",
      "outputs": [
        {
          "internalType": "uint256",
          "name": "",
          "type": "uint256"
        }
      ],
      "stateMutability": "view",
      "type": "function"
    },
    {
      "inputs": [
        {
          "internalType": "address",
          "name": "",
          "type": "address"
        }
      ],
      "name": "claimedToken",
      "outputs": [
        {
          "internalType": "uint256",
          "name": "",
          "type": "uint256"
        }
      ],
      "stateMutability": "view",
      "type": "function"
    },
    {
      "inputs": [],
      "name": "deployedTime",
      "outputs": [
        {
          "internalType": "uint256",
          "name": "",
          "type": "uint256"
        }
      ],
      "stateMutability": "view",
      "type": "function"
    },
    {
      "inputs": [
        {
          "internalType": "address",
          "name": "to",
          "type": "address"
        }
      ],
      "name": "getMaxAvailableToken",
      "outputs": [
        {
          "internalType": "uint256",
          "name": "",
          "type": "uint256"
        }
      ],
      "stateMutability": "view",
      "type": "function"
    },
    {
      "inputs": [],
      "name": "nftContract",
      "outputs": [
        {
          "internalType": "address",
          "name": "",
          "type": "address"
        }
      ],
      "stateMutability": "view",
      "type": "function"
    },
    {
      "inputs": [],
      "name": "owner",
      "outputs": [
        {
          "internalType": "address",
          "name": "",
          "type": "address"
        }
      ],
      "stateMutability": "view",
      "type": "function"
    },
    {
      "inputs": [],
      "name": "renounceOwnership",
      "outputs": [],
      "stateMutability": "nonpayable",
      "type": "function"
    },
    {
      "inputs": [
        {
          "internalType": "address",
          "name": "_nftContract",
          "type": "address"
        }
      ],
      "name": "setNFTAddress",
      "outputs": [],
      "stateMutability": "nonpayable",
      "type": "function"
    },
    {
      "inputs": [
        {
          "internalType": "address",
          "name": "_tokenContract",
          "type": "address"
        }
      ],
      "name": "setTokenAddress",
      "outputs": [],
      "stateMutability": "nonpayable",
      "type": "function"
    },
    {
      "inputs": [],
      "name": "tokenContract",
      "outputs": [
        {
          "internalType": "address",
          "name": "",
          "type": "address"
        }
      ],
      "stateMutability": "view",
      "type": "function"
    },
    {
      "inputs": [
        {
          "internalType": "address",
          "name": "newOwner",
          "type": "address"
        }
      ],
      "name": "transferOwnership",
      "outputs": [],
      "stateMutability": "nonpayable",
      "type": "function"
    },
    {
      "inputs": [
        {
          "internalType": "address",
          "name": "to",
          "type": "address"
        },
        {
          "internalType": "uint256",
          "name": "amount",
          "type": "uint256"
        },
        {
          "internalType": "uint8",
          "name": "_v",
          "type": "uint8"
        },
        {
          "internalType": "bytes32",
          "name": "_r",
          "type": "bytes32"
        },
        {
          "internalType": "bytes32",
          "name": "_s",
          "type": "bytes32"
        }
      ],
      "name": "verify",
      "outputs": [
        {
          "internalType": "address",
          "name": "",
          "type": "address"
        }
      ],
      "stateMutability": "pure",
      "type": "function"
    }
  ],
  "bytecode": "0x6080604052610e106001556107d0600255603260035534801561002157600080fd5b5061003e61003361004a60201b60201c565b61005260201b60201c565b42600881905550610116565b600033905090565b60008060009054906101000a900473ffffffffffffffffffffffffffffffffffffffff169050816000806101000a81548173ffffffffffffffffffffffffffffffffffffffff021916908373ffffffffffffffffffffffffffffffffffffffff1602179055508173ffffffffffffffffffffffffffffffffffffffff168173ffffffffffffffffffffffffffffffffffffffff167f8be0079c531659141344cd1fd0a4f28419497f9722a3daafe3b4186f6b6457e060405160405180910390a35050565b6117b9806101256000396000f3fe608060405234801561001057600080fd5b50600436106101005760003560e01c80636e21b52c11610097578063d56d229d11610066578063d56d229d1461029d578063dd8cc74a146102bb578063ef332c5a146102d9578063f2fde38b1461030957610100565b80636e21b52c146102275780636f7e254314610245578063715018a6146102755780638da5cb5b1461027f57610100565b80635262265a116100d35780635262265a1461019f57806355a373d6146101bd578063606e78ef146101db57806369d037381461020b57610100565b80631aa20b681461010557806326a4e8d214610135578063461ac019146101515780634e9f3cc31461016f575b600080fd5b61011f600480360381019061011a9190610ede565b610325565b60405161012c9190611157565b60405180910390f35b61014f600480360381019061014a9190610e8c565b610417565b005b610159610463565b604051610166919061132e565b60405180910390f35b61018960048036038101906101849190610e8c565b610469565b604051610196919061132e565b60405180910390f35b6101a7610651565b6040516101b4919061132e565b60405180910390f35b6101c5610657565b6040516101d29190611157565b60405180910390f35b6101f560048036038101906101f09190610e8c565b61067d565b604051610202919061132e565b60405180910390f35b61022560048036038101906102209190610e8c565b610695565b005b61022f6106e1565b60405161023c919061132e565b60405180910390f35b61025f600480360381019061025a9190610ede565b6106e7565b60405161026c91906111ee565b60405180910390f35b61027d610a69565b005b610287610a7d565b6040516102949190611157565b60405180910390f35b6102a5610aa6565b6040516102b29190611157565b60405180910390f35b6102c3610acc565b6040516102d0919061132e565b60405180910390f35b6102f360048036038101906102ee9190610e8c565b610ad2565b604051610300919061132e565b60405180910390f35b610323600480360381019061031e9190610e8c565b610aea565b005b6000806040518060400160405280601c81526020017f19457468657265756d205369676e6564204d6573736167653a0a33320000000081525090506000818888604051602001610376929190611172565b6040516020818303038152906040528051906020012060405160200161039d92919061112f565b6040516020818303038152906040528051906020012090506000600182888888604051600081526020016040526040516103da9493929190611209565b6020604051602081039080840390855afa1580156103fc573d6000803e3d6000fd5b50505060206040510351905080935050505095945050505050565b61041f610b6e565b80600460006101000a81548173ffffffffffffffffffffffffffffffffffffffff021916908373ffffffffffffffffffffffffffffffffffffffff16021790555050565b60085481565b600080600560009054906101000a900473ffffffffffffffffffffffffffffffffffffffff1673ffffffffffffffffffffffffffffffffffffffff1663bcf16f2d6040518163ffffffff1660e01b815260040160206040518083038186803b1580156104d457600080fd5b505afa1580156104e8573d6000803e3d6000fd5b505050506040513d601f19601f8201168201806040525081019061050c9190610f7e565b9050600081141561052157600091505061064c565b60008111610564576040517f08c379a000000000000000000000000000000000000000000000000000000000815260040161055b9061130e565b60405180910390fd5b600060085490506000600760008673ffffffffffffffffffffffffffffffffffffffff1673ffffffffffffffffffffffffffffffffffffffff16815260200190815260200160002054146105f557600760008573ffffffffffffffffffffffffffffffffffffffff1673ffffffffffffffffffffffffffffffffffffffff1681526020019081526020016000205490505b600060015482426106069190611451565b61061091906113c6565b9050600081141561062057600190505b828160035460025461063291906113f7565b61063c91906113f7565b61064691906113c6565b93505050505b919050565b60015481565b600460009054906101000a900473ffffffffffffffffffffffffffffffffffffffff1681565b60066020528060005260406000206000915090505481565b61069d610b6e565b80600560006101000a81548173ffffffffffffffffffffffffffffffffffffffff021916908373ffffffffffffffffffffffffffffffffffffffff16021790555050565b60025481565b60006106f1610a7d565b73ffffffffffffffffffffffffffffffffffffffff163073ffffffffffffffffffffffffffffffffffffffff16631aa20b6888888888886040518663ffffffff1660e01b815260040161074895949392919061119b565b60206040518083038186803b15801561076057600080fd5b505afa158015610774573d6000803e3d6000fd5b505050506040513d601f19601f820116820180604052508101906107989190610eb5565b73ffffffffffffffffffffffffffffffffffffffff16146107ee576040517f08c379a00000000000000000000000000000000000000000000000000000000081526004016107e59061128e565b60405180910390fd5b60008511610831576040517f08c379a00000000000000000000000000000000000000000000000000000000081526004016108289061124e565b60405180910390fd5b600073ffffffffffffffffffffffffffffffffffffffff168673ffffffffffffffffffffffffffffffffffffffff1614156108a1576040517f08c379a0000000000000000000000000000000000000000000000000000000008152600401610898906112ce565b60405180910390fd5b84600660008873ffffffffffffffffffffffffffffffffffffffff1673ffffffffffffffffffffffffffffffffffffffff1681526020019081526020016000205410610922576040517f08c379a0000000000000000000000000000000000000000000000000000000008152600401610919906112ee565b60405180910390fd5b8461092c87610469565b600660008973ffffffffffffffffffffffffffffffffffffffff1673ffffffffffffffffffffffffffffffffffffffff168152602001908152602001600020546109769190611370565b1161098057600080fd5b6109d486600660008973ffffffffffffffffffffffffffffffffffffffff1673ffffffffffffffffffffffffffffffffffffffff16815260200190815260200160002054876109cf9190611451565b610bec565b42600760008873ffffffffffffffffffffffffffffffffffffffff1673ffffffffffffffffffffffffffffffffffffffff1681526020019081526020016000208190555084600660008873ffffffffffffffffffffffffffffffffffffffff1673ffffffffffffffffffffffffffffffffffffffff168152602001908152602001600020819055506001905095945050505050565b610a71610b6e565b610a7b6000610d2d565b565b60008060009054906101000a900473ffffffffffffffffffffffffffffffffffffffff16905090565b600560009054906101000a900473ffffffffffffffffffffffffffffffffffffffff1681565b60035481565b60076020528060005260406000206000915090505481565b610af2610b6e565b600073ffffffffffffffffffffffffffffffffffffffff168173ffffffffffffffffffffffffffffffffffffffff161415610b62576040517f08c379a0000000000000000000000000000000000000000000000000000000008152600401610b599061126e565b60405180910390fd5b610b6b81610d2d565b50565b610b76610df1565b73ffffffffffffffffffffffffffffffffffffffff16610b94610a7d565b73ffffffffffffffffffffffffffffffffffffffff1614610bea576040517f08c379a0000000000000000000000000000000000000000000000000000000008152600401610be1906112ae565b60405180910390fd5b565b600460009054906101000a900473ffffffffffffffffffffffffffffffffffffffff1673ffffffffffffffffffffffffffffffffffffffff166334b4117d826040518263ffffffff1660e01b8152600401610c47919061132e565b600060405180830381600087803b158015610c6157600080fd5b505af1158015610c75573d6000803e3d6000fd5b50505050600460009054906101000a900473ffffffffffffffffffffffffffffffffffffffff1673ffffffffffffffffffffffffffffffffffffffff1663a9059cbb83836040518363ffffffff1660e01b8152600401610cd6929190611172565b602060405180830381600087803b158015610cf057600080fd5b505af1158015610d04573d6000803e3d6000fd5b505050506040513d601f19601f82011682018060405250810190610d289190610f55565b505050565b60008060009054906101000a900473ffffffffffffffffffffffffffffffffffffffff169050816000806101000a81548173ffffffffffffffffffffffffffffffffffffffff021916908373ffffffffffffffffffffffffffffffffffffffff1602179055508173ffffffffffffffffffffffffffffffffffffffff168173ffffffffffffffffffffffffffffffffffffffff167f8be0079c531659141344cd1fd0a4f28419497f9722a3daafe3b4186f6b6457e060405160405180910390a35050565b600033905090565b600081359050610e0881611710565b92915050565b600081519050610e1d81611710565b92915050565b600081519050610e3281611727565b92915050565b600081359050610e478161173e565b92915050565b600081359050610e5c81611755565b92915050565b600081519050610e7181611755565b92915050565b600081359050610e868161176c565b92915050565b600060208284031215610e9e57600080fd5b6000610eac84828501610df9565b91505092915050565b600060208284031215610ec757600080fd5b6000610ed584828501610e0e565b91505092915050565b600080600080600060a08688031215610ef657600080fd5b6000610f0488828901610df9565b9550506020610f1588828901610e4d565b9450506040610f2688828901610e77565b9350506060610f3788828901610e38565b9250506080610f4888828901610e38565b9150509295509295909350565b600060208284031215610f6757600080fd5b6000610f7584828501610e23565b91505092915050565b600060208284031215610f9057600080fd5b6000610f9e84828501610e62565b91505092915050565b610fb081611485565b82525050565b610fbf81611497565b82525050565b610fce816114a3565b82525050565b610fe5610fe0826114a3565b611517565b82525050565b6000610ff682611349565b6110008185611354565b93506110108185602086016114e4565b80840191505092915050565b6000611029601a8361135f565b91506110348261157f565b602082019050919050565b600061104c60268361135f565b9150611057826115a8565b604082019050919050565b600061106f60168361135f565b915061107a826115f7565b602082019050919050565b600061109260208361135f565b915061109d82611620565b602082019050919050565b60006110b560178361135f565b91506110c082611649565b602082019050919050565b60006110d860298361135f565b91506110e382611672565b604082019050919050565b60006110fb60238361135f565b9150611106826116c1565b604082019050919050565b61111a816114cd565b82525050565b611129816114d7565b82525050565b600061113b8285610feb565b91506111478284610fd4565b6020820191508190509392505050565b600060208201905061116c6000830184610fa7565b92915050565b60006040820190506111876000830185610fa7565b6111946020830184611111565b9392505050565b600060a0820190506111b06000830188610fa7565b6111bd6020830187611111565b6111ca6040830186611120565b6111d76060830185610fc5565b6111e46080830184610fc5565b9695505050505050565b60006020820190506112036000830184610fb6565b92915050565b600060808201905061121e6000830187610fc5565b61122b6020830186611120565b6112386040830185610fc5565b6112456060830184610fc5565b95945050505050565b600060208201905081810360008301526112678161101c565b9050919050565b600060208201905081810360008301526112878161103f565b9050919050565b600060208201905081810360008301526112a781611062565b9050919050565b600060208201905081810360008301526112c781611085565b9050919050565b600060208201905081810360008301526112e7816110a8565b9050919050565b60006020820190508181036000830152611307816110cb565b9050919050565b60006020820190508181036000830152611327816110ee565b9050919050565b60006020820190506113436000830184611111565b92915050565b600081519050919050565b600081905092915050565b600082825260208201905092915050565b600061137b826114cd565b9150611386836114cd565b9250827fffffffffffffffffffffffffffffffffffffffffffffffffffffffffffffffff038211156113bb576113ba611521565b5b828201905092915050565b60006113d1826114cd565b91506113dc836114cd565b9250826113ec576113eb611550565b5b828204905092915050565b6000611402826114cd565b915061140d836114cd565b9250817fffffffffffffffffffffffffffffffffffffffffffffffffffffffffffffffff048311821515161561144657611445611521565b5b828202905092915050565b600061145c826114cd565b9150611467836114cd565b92508282101561147a57611479611521565b5b828203905092915050565b6000611490826114ad565b9050919050565b60008115159050919050565b6000819050919050565b600073ffffffffffffffffffffffffffffffffffffffff82169050919050565b6000819050919050565b600060ff82169050919050565b60005b838110156115025780820151818401526020810190506114e7565b83811115611511576000848401525b50505050565b6000819050919050565b7f4e487b7100000000000000000000000000000000000000000000000000000000600052601160045260246000fd5b7f4e487b7100000000000000000000000000000000000000000000000000000000600052601260045260246000fd5b7f616d6f756e742073686f756c6420626520706f7369746976652e000000000000600082015250565b7f4f776e61626c653a206e6577206f776e657220697320746865207a65726f206160008201527f6464726573730000000000000000000000000000000000000000000000000000602082015250565b7f7369676e617475726520636865636b206661696c656400000000000000000000600082015250565b7f4f776e61626c653a2063616c6c6572206973206e6f7420746865206f776e6572600082015250565b7f616464726573732063616e6e6f74206265207a65726f2e000000000000000000600082015250565b7f636c61696d656420746f6b656e2073686f756c64206265206c6573732074686160008201527f6e20616d6f756e742e0000000000000000000000000000000000000000000000602082015250565b7f746f74616c4e46542073686f756c6420626520706f736974697665206e756d6260008201527f65722e0000000000000000000000000000000000000000000000000000000000602082015250565b61171981611485565b811461172457600080fd5b50565b61173081611497565b811461173b57600080fd5b50565b611747816114a3565b811461175257600080fd5b50565b61175e816114cd565b811461176957600080fd5b50565b611775816114d7565b811461178057600080fd5b5056fea26469706673582212207b0bee11c070043e378de91ead13689d5ff93421f11aa5ba43a24cf4b36acf6664736f6c63430008040033",
  "linkReferences": {},
  "deployedLinkReferences": {}
}