{
  "_format": "hh-sol-artifact-1",
  "contractName": "ElumReward",
  "sourceName": "contracts/ElumReward.sol",
  "abi": [
    {
      "inputs": [],
      "stateMutability": "nonpayable",
      "type": "constructor"
    },
    {
      "anonymous": false,
      "inputs": [
        {
          "indexed": true,
          "internalType": "address",
          "name": "previousOwner",
          "type": "address"
        },
        {
          "indexed": true,
          "internalType": "address",
          "name": "newOwner",
          "type": "address"
        }
      ],
      "name": "OwnershipTransferred",
      "type": "event"
    },
    {
      "inputs": [],
      "name": "DISTRIBUTE_TOKEN",
      "outputs": [
        {
          "internalType": "uint256",
          "name": "",
          "type": "uint256"
        }
      ],
      "stateMutability": "view",
      "type": "function"
    },
    {
      "inputs": [],
      "name": "EPOCH_SECONDS",
      "outputs": [
        {
          "internalType": "uint256",
          "name": "",
          "type": "uint256"
        }
      ],
      "stateMutability": "view",
      "type": "function"
    },
    {
      "inputs": [],
      "name": "MAX_TOKEN_COEFF",
      "outputs": [
        {
          "internalType": "uint256",
          "name": "",
          "type": "uint256"
        }
      ],
      "stateMutability": "view",
      "type": "function"
    },
    {
      "inputs": [
        {
          "internalType": "address",
          "name": "to",
          "type": "address"
        },
        {
          "internalType": "uint256",
          "name": "amount",
          "type": "uint256"
        },
        {
          "internalType": "uint8",
          "name": "_v",
          "type": "uint8"
        },
        {
          "internalType": "bytes32",
          "name": "_r",
          "type": "bytes32"
        },
        {
          "internalType": "bytes32",
          "name": "_s",
          "type": "bytes32"
        }
      ],
      "name": "claimRequest",
      "outputs": [
        {
          "internalType": "bool",
          "name": "",
          "type": "bool"
        }
      ],
      "stateMutability": "nonpayable",
      "type": "function"
    },
    {
      "inputs": [
        {
          "internalType": "address",
          "name": "",
          "type": "address"
        }
      ],
      "name": "claimedTime",
      "outputs": [
        {
          "internalType": "uint256",
          "name": "",
          "type": "uint256"
        }
      ],
      "stateMutability": "view",
      "type": "function"
    },
    {
      "inputs": [
        {
          "internalType": "address",
          "name": "",
          "type": "address"
        }
      ],
      "name": "claimedToken",
      "outputs": [
        {
          "internalType": "uint256",
          "name": "",
          "type": "uint256"
        }
      ],
      "stateMutability": "view",
      "type": "function"
    },
    {
      "inputs": [],
      "name": "deployedTime",
      "outputs": [
        {
          "internalType": "uint256",
          "name": "",
          "type": "uint256"
        }
      ],
      "stateMutability": "view",
      "type": "function"
    },
    {
      "inputs": [
        {
          "internalType": "address",
          "name": "to",
          "type": "address"
        }
      ],
      "name": "getMaxAvailableToken",
      "outputs": [
        {
          "internalType": "uint256",
          "name": "",
          "type": "uint256"
        }
      ],
      "stateMutability": "view",
      "type": "function"
    },
    {
      "inputs": [],
      "name": "nftContract",
      "outputs": [
        {
          "internalType": "address",
          "name": "",
          "type": "address"
        }
      ],
      "stateMutability": "view",
      "type": "function"
    },
    {
      "inputs": [],
      "name": "owner",
      "outputs": [
        {
          "internalType": "address",
          "name": "",
          "type": "address"
        }
      ],
      "stateMutability": "view",
      "type": "function"
    },
    {
      "inputs": [],
      "name": "renounceOwnership",
      "outputs": [],
      "stateMutability": "nonpayable",
      "type": "function"
    },
    {
      "inputs": [
        {
          "internalType": "address",
          "name": "_nftContract",
          "type": "address"
        }
      ],
      "name": "setNFTAddress",
      "outputs": [],
      "stateMutability": "nonpayable",
      "type": "function"
    },
    {
      "inputs": [
        {
          "internalType": "address",
          "name": "_tokenContract",
          "type": "address"
        }
      ],
      "name": "setTokenAddress",
      "outputs": [],
      "stateMutability": "nonpayable",
      "type": "function"
    },
    {
      "inputs": [],
      "name": "tokenContract",
      "outputs": [
        {
          "internalType": "address",
          "name": "",
          "type": "address"
        }
      ],
      "stateMutability": "view",
      "type": "function"
    },
    {
      "inputs": [
        {
          "internalType": "address",
          "name": "newOwner",
          "type": "address"
        }
      ],
      "name": "transferOwnership",
      "outputs": [],
      "stateMutability": "nonpayable",
      "type": "function"
    },
    {
      "inputs": [],
      "name": "unit",
      "outputs": [
        {
          "internalType": "uint256",
          "name": "",
          "type": "uint256"
        }
      ],
      "stateMutability": "view",
      "type": "function"
    },
    {
      "inputs": [
        {
          "internalType": "address",
          "name": "to",
          "type": "address"
        },
        {
          "internalType": "uint256",
          "name": "amount",
          "type": "uint256"
        },
        {
          "internalType": "uint8",
          "name": "_v",
          "type": "uint8"
        },
        {
          "internalType": "bytes32",
          "name": "_r",
          "type": "bytes32"
        },
        {
          "internalType": "bytes32",
          "name": "_s",
          "type": "bytes32"
        }
      ],
      "name": "verify",
      "outputs": [
        {
          "internalType": "address",
          "name": "",
          "type": "address"
        }
      ],
      "stateMutability": "pure",
      "type": "function"
    }
  ],
  "bytecode": "0x608060405234801561001057600080fd5b5061002d61002261003960201b60201c565b61004160201b60201c565b42600581905550610105565b600033905090565b60008060009054906101000a900473ffffffffffffffffffffffffffffffffffffffff169050816000806101000a81548173ffffffffffffffffffffffffffffffffffffffff021916908373ffffffffffffffffffffffffffffffffffffffff1602179055508173ffffffffffffffffffffffffffffffffffffffff168173ffffffffffffffffffffffffffffffffffffffff167f8be0079c531659141344cd1fd0a4f28419497f9722a3daafe3b4186f6b6457e060405160405180910390a35050565b611812806101146000396000f3fe608060405234801561001057600080fd5b506004361061010b5760003560e01c80636e21b52c116100a2578063907af6c011610071578063907af6c0146102a8578063d56d229d146102c6578063dd8cc74a146102e4578063ef332c5a14610302578063f2fde38b146103325761010b565b80636e21b52c146102325780636f7e254314610250578063715018a6146102805780638da5cb5b1461028a5761010b565b80635262265a116100de5780635262265a146101aa57806355a373d6146101c8578063606e78ef146101e657806369d03738146102165761010b565b80631aa20b681461011057806326a4e8d214610140578063461ac0191461015c5780634e9f3cc31461017a575b600080fd5b61012a60048036038101906101259190610f37565b61034e565b60405161013791906111b0565b60405180910390f35b61015a60048036038101906101559190610ee5565b610440565b005b61016461048c565b6040516101719190611387565b60405180910390f35b610194600480360381019061018f9190610ee5565b610492565b6040516101a19190611387565b60405180910390f35b6101b261068c565b6040516101bf9190611387565b60405180910390f35b6101d0610692565b6040516101dd91906111b0565b60405180910390f35b61020060048036038101906101fb9190610ee5565b6106b8565b60405161020d9190611387565b60405180910390f35b610230600480360381019061022b9190610ee5565b6106d0565b005b61023a61071c565b6040516102479190611387565b60405180910390f35b61026a60048036038101906102659190610f37565b610735565b6040516102779190611247565b60405180910390f35b610288610ab7565b005b610292610acb565b60405161029f91906111b0565b60405180910390f35b6102b0610af4565b6040516102bd9190611387565b60405180910390f35b6102ce610b00565b6040516102db91906111b0565b60405180910390f35b6102ec610b26565b6040516102f99190611387565b60405180910390f35b61031c60048036038101906103179190610ee5565b610b2b565b6040516103299190611387565b60405180910390f35b61034c60048036038101906103479190610ee5565b610b43565b005b6000806040518060400160405280601c81526020017f19457468657265756d205369676e6564204d6573736167653a0a3332000000008152509050600081888860405160200161039f9291906111cb565b604051602081830303815290604052805190602001206040516020016103c6929190611188565b6040516020818303038152906040528051906020012090506000600182888888604051600081526020016040526040516104039493929190611262565b6020604051602081039080840390855afa158015610425573d6000803e3d6000fd5b50505060206040510351905080935050505095945050505050565b610448610bc7565b80600160006101000a81548173ffffffffffffffffffffffffffffffffffffffff021916908373ffffffffffffffffffffffffffffffffffffffff16021790555050565b60055481565b600080600260009054906101000a900473ffffffffffffffffffffffffffffffffffffffff1673ffffffffffffffffffffffffffffffffffffffff1663bcf16f2d6040518163ffffffff1660e01b815260040160206040518083038186803b1580156104fd57600080fd5b505afa158015610511573d6000803e3d6000fd5b505050506040513d601f19601f820116820180604052508101906105359190610fd7565b9050600081141561054a576000915050610687565b6000811161058d576040517f08c379a000000000000000000000000000000000000000000000000000000000815260040161058490611367565b60405180910390fd5b600060055490506000600460008673ffffffffffffffffffffffffffffffffffffffff1673ffffffffffffffffffffffffffffffffffffffff168152602001908152602001600020541461061e57600460008573ffffffffffffffffffffffffffffffffffffffff1673ffffffffffffffffffffffffffffffffffffffff1681526020019081526020016000205490505b6000610e10824261062f91906114aa565b610639919061141f565b9050600081141561064957600190505b82816032670de0b6b3a76400006107d06106639190611450565b61066d9190611450565b6106779190611450565b610681919061141f565b93505050505b919050565b610e1081565b600160009054906101000a900473ffffffffffffffffffffffffffffffffffffffff1681565b60036020528060005260406000206000915090505481565b6106d8610bc7565b80600260006101000a81548173ffffffffffffffffffffffffffffffffffffffff021916908373ffffffffffffffffffffffffffffffffffffffff16021790555050565b670de0b6b3a76400006107d06107329190611450565b81565b600061073f610acb565b73ffffffffffffffffffffffffffffffffffffffff163073ffffffffffffffffffffffffffffffffffffffff16631aa20b6888888888886040518663ffffffff1660e01b81526004016107969594939291906111f4565b60206040518083038186803b1580156107ae57600080fd5b505afa1580156107c2573d6000803e3d6000fd5b505050506040513d601f19601f820116820180604052508101906107e69190610f0e565b73ffffffffffffffffffffffffffffffffffffffff161461083c576040517f08c379a0000000000000000000000000000000000000000000000000000000008152600401610833906112e7565b60405180910390fd5b6000851161087f576040517f08c379a0000000000000000000000000000000000000000000000000000000008152600401610876906112a7565b60405180910390fd5b600073ffffffffffffffffffffffffffffffffffffffff168673ffffffffffffffffffffffffffffffffffffffff1614156108ef576040517f08c379a00000000000000000000000000000000000000000000000000000000081526004016108e690611327565b60405180910390fd5b84600360008873ffffffffffffffffffffffffffffffffffffffff1673ffffffffffffffffffffffffffffffffffffffff1681526020019081526020016000205410610970576040517f08c379a000000000000000000000000000000000000000000000000000000000815260040161096790611347565b60405180910390fd5b8461097a87610492565b600360008973ffffffffffffffffffffffffffffffffffffffff1673ffffffffffffffffffffffffffffffffffffffff168152602001908152602001600020546109c491906113c9565b116109ce57600080fd5b610a2286600360008973ffffffffffffffffffffffffffffffffffffffff1673ffffffffffffffffffffffffffffffffffffffff1681526020019081526020016000205487610a1d91906114aa565b610c45565b42600460008873ffffffffffffffffffffffffffffffffffffffff1673ffffffffffffffffffffffffffffffffffffffff1681526020019081526020016000208190555084600360008873ffffffffffffffffffffffffffffffffffffffff1673ffffffffffffffffffffffffffffffffffffffff168152602001908152602001600020819055506001905095945050505050565b610abf610bc7565b610ac96000610d86565b565b60008060009054906101000a900473ffffffffffffffffffffffffffffffffffffffff16905090565b670de0b6b3a764000081565b600260009054906101000a900473ffffffffffffffffffffffffffffffffffffffff1681565b603281565b60046020528060005260406000206000915090505481565b610b4b610bc7565b600073ffffffffffffffffffffffffffffffffffffffff168173ffffffffffffffffffffffffffffffffffffffff161415610bbb576040517f08c379a0000000000000000000000000000000000000000000000000000000008152600401610bb2906112c7565b60405180910390fd5b610bc481610d86565b50565b610bcf610e4a565b73ffffffffffffffffffffffffffffffffffffffff16610bed610acb565b73ffffffffffffffffffffffffffffffffffffffff1614610c43576040517f08c379a0000000000000000000000000000000000000000000000000000000008152600401610c3a90611307565b60405180910390fd5b565b600160009054906101000a900473ffffffffffffffffffffffffffffffffffffffff1673ffffffffffffffffffffffffffffffffffffffff166334b4117d826040518263ffffffff1660e01b8152600401610ca09190611387565b600060405180830381600087803b158015610cba57600080fd5b505af1158015610cce573d6000803e3d6000fd5b50505050600160009054906101000a900473ffffffffffffffffffffffffffffffffffffffff1673ffffffffffffffffffffffffffffffffffffffff1663a9059cbb83836040518363ffffffff1660e01b8152600401610d2f9291906111cb565b602060405180830381600087803b158015610d4957600080fd5b505af1158015610d5d573d6000803e3d6000fd5b505050506040513d601f19601f82011682018060405250810190610d819190610fae565b505050565b60008060009054906101000a900473ffffffffffffffffffffffffffffffffffffffff169050816000806101000a81548173ffffffffffffffffffffffffffffffffffffffff021916908373ffffffffffffffffffffffffffffffffffffffff1602179055508173ffffffffffffffffffffffffffffffffffffffff168173ffffffffffffffffffffffffffffffffffffffff167f8be0079c531659141344cd1fd0a4f28419497f9722a3daafe3b4186f6b6457e060405160405180910390a35050565b600033905090565b600081359050610e6181611769565b92915050565b600081519050610e7681611769565b92915050565b600081519050610e8b81611780565b92915050565b600081359050610ea081611797565b92915050565b600081359050610eb5816117ae565b92915050565b600081519050610eca816117ae565b92915050565b600081359050610edf816117c5565b92915050565b600060208284031215610ef757600080fd5b6000610f0584828501610e52565b91505092915050565b600060208284031215610f2057600080fd5b6000610f2e84828501610e67565b91505092915050565b600080600080600060a08688031215610f4f57600080fd5b6000610f5d88828901610e52565b9550506020610f6e88828901610ea6565b9450506040610f7f88828901610ed0565b9350506060610f9088828901610e91565b9250506080610fa188828901610e91565b9150509295509295909350565b600060208284031215610fc057600080fd5b6000610fce84828501610e7c565b91505092915050565b600060208284031215610fe957600080fd5b6000610ff784828501610ebb565b91505092915050565b611009816114de565b82525050565b611018816114f0565b82525050565b611027816114fc565b82525050565b61103e611039826114fc565b611570565b82525050565b600061104f826113a2565b61105981856113ad565b935061106981856020860161153d565b80840191505092915050565b6000611082601a836113b8565b915061108d826115d8565b602082019050919050565b60006110a56026836113b8565b91506110b082611601565b604082019050919050565b60006110c86016836113b8565b91506110d382611650565b602082019050919050565b60006110eb6020836113b8565b91506110f682611679565b602082019050919050565b600061110e6017836113b8565b9150611119826116a2565b602082019050919050565b60006111316029836113b8565b915061113c826116cb565b604082019050919050565b60006111546023836113b8565b915061115f8261171a565b604082019050919050565b61117381611526565b82525050565b61118281611530565b82525050565b60006111948285611044565b91506111a0828461102d565b6020820191508190509392505050565b60006020820190506111c56000830184611000565b92915050565b60006040820190506111e06000830185611000565b6111ed602083018461116a565b9392505050565b600060a0820190506112096000830188611000565b611216602083018761116a565b6112236040830186611179565b611230606083018561101e565b61123d608083018461101e565b9695505050505050565b600060208201905061125c600083018461100f565b92915050565b6000608082019050611277600083018761101e565b6112846020830186611179565b611291604083018561101e565b61129e606083018461101e565b95945050505050565b600060208201905081810360008301526112c081611075565b9050919050565b600060208201905081810360008301526112e081611098565b9050919050565b60006020820190508181036000830152611300816110bb565b9050919050565b60006020820190508181036000830152611320816110de565b9050919050565b6000602082019050818103600083015261134081611101565b9050919050565b6000602082019050818103600083015261136081611124565b9050919050565b6000602082019050818103600083015261138081611147565b9050919050565b600060208201905061139c600083018461116a565b92915050565b600081519050919050565b600081905092915050565b600082825260208201905092915050565b60006113d482611526565b91506113df83611526565b9250827fffffffffffffffffffffffffffffffffffffffffffffffffffffffffffffffff038211156114145761141361157a565b5b828201905092915050565b600061142a82611526565b915061143583611526565b925082611445576114446115a9565b5b828204905092915050565b600061145b82611526565b915061146683611526565b9250817fffffffffffffffffffffffffffffffffffffffffffffffffffffffffffffffff048311821515161561149f5761149e61157a565b5b828202905092915050565b60006114b582611526565b91506114c083611526565b9250828210156114d3576114d261157a565b5b828203905092915050565b60006114e982611506565b9050919050565b60008115159050919050565b6000819050919050565b600073ffffffffffffffffffffffffffffffffffffffff82169050919050565b6000819050919050565b600060ff82169050919050565b60005b8381101561155b578082015181840152602081019050611540565b8381111561156a576000848401525b50505050565b6000819050919050565b7f4e487b7100000000000000000000000000000000000000000000000000000000600052601160045260246000fd5b7f4e487b7100000000000000000000000000000000000000000000000000000000600052601260045260246000fd5b7f616d6f756e742073686f756c6420626520706f7369746976652e000000000000600082015250565b7f4f776e61626c653a206e6577206f776e657220697320746865207a65726f206160008201527f6464726573730000000000000000000000000000000000000000000000000000602082015250565b7f7369676e617475726520636865636b206661696c656400000000000000000000600082015250565b7f4f776e61626c653a2063616c6c6572206973206e6f7420746865206f776e6572600082015250565b7f616464726573732063616e6e6f74206265207a65726f2e000000000000000000600082015250565b7f636c61696d656420746f6b656e2073686f756c64206265206c6573732074686160008201527f6e20616d6f756e742e0000000000000000000000000000000000000000000000602082015250565b7f746f74616c4e46542073686f756c6420626520706f736974697665206e756d6260008201527f65722e0000000000000000000000000000000000000000000000000000000000602082015250565b611772816114de565b811461177d57600080fd5b50565b611789816114f0565b811461179457600080fd5b50565b6117a0816114fc565b81146117ab57600080fd5b50565b6117b781611526565b81146117c257600080fd5b50565b6117ce81611530565b81146117d957600080fd5b5056fea2646970667358221220562f9c2ff3ba48093f1fd320d99ba5212cba9839c98406184c178b8cad2e82a564736f6c63430008040033",
  "linkReferences": {},
  "deployedLinkReferences": {}
}