{
  "_format": "hh-sol-artifact-1",
  "contractName": "ElumReward",
  "sourceName": "contracts/ElumReward.sol",
  "abi": [
    {
      "inputs": [],
      "stateMutability": "nonpayable",
      "type": "constructor"
    },
    {
      "anonymous": false,
      "inputs": [
        {
          "indexed": true,
          "internalType": "address",
          "name": "previousOwner",
          "type": "address"
        },
        {
          "indexed": true,
          "internalType": "address",
          "name": "newOwner",
          "type": "address"
        }
      ],
      "name": "OwnershipTransferred",
      "type": "event"
    },
    {
      "inputs": [],
      "name": "DISTRIBUTE_TOKEN",
      "outputs": [
        {
          "internalType": "uint256",
          "name": "",
          "type": "uint256"
        }
      ],
      "stateMutability": "view",
      "type": "function"
    },
    {
      "inputs": [],
      "name": "EPOCH_SECONDS",
      "outputs": [
        {
          "internalType": "uint256",
          "name": "",
          "type": "uint256"
        }
      ],
      "stateMutability": "view",
      "type": "function"
    },
    {
      "inputs": [],
      "name": "MAX_TOKEN_COEFF",
      "outputs": [
        {
          "internalType": "uint256",
          "name": "",
          "type": "uint256"
        }
      ],
      "stateMutability": "view",
      "type": "function"
    },
    {
      "inputs": [
        {
          "internalType": "address",
          "name": "to",
          "type": "address"
        },
        {
          "internalType": "uint256",
          "name": "amount",
          "type": "uint256"
        },
        {
          "internalType": "uint8",
          "name": "_v",
          "type": "uint8"
        },
        {
          "internalType": "bytes32",
          "name": "_r",
          "type": "bytes32"
        },
        {
          "internalType": "bytes32",
          "name": "_s",
          "type": "bytes32"
        }
      ],
      "name": "claimRequest",
      "outputs": [
        {
          "internalType": "bool",
          "name": "",
          "type": "bool"
        }
      ],
      "stateMutability": "nonpayable",
      "type": "function"
    },
    {
      "inputs": [
        {
          "internalType": "address",
          "name": "",
          "type": "address"
        }
      ],
      "name": "claimedTime",
      "outputs": [
        {
          "internalType": "uint256",
          "name": "",
          "type": "uint256"
        }
      ],
      "stateMutability": "view",
      "type": "function"
    },
    {
      "inputs": [
        {
          "internalType": "address",
          "name": "",
          "type": "address"
        }
      ],
      "name": "claimedToken",
      "outputs": [
        {
          "internalType": "uint256",
          "name": "",
          "type": "uint256"
        }
      ],
      "stateMutability": "view",
      "type": "function"
    },
    {
      "inputs": [],
      "name": "deployedTime",
      "outputs": [
        {
          "internalType": "uint256",
          "name": "",
          "type": "uint256"
        }
      ],
      "stateMutability": "view",
      "type": "function"
    },
    {
      "inputs": [
        {
          "internalType": "address",
          "name": "to",
          "type": "address"
        }
      ],
      "name": "getMaxAvailableToken",
      "outputs": [
        {
          "internalType": "uint256",
          "name": "",
          "type": "uint256"
        }
      ],
      "stateMutability": "view",
      "type": "function"
    },
    {
      "inputs": [],
      "name": "nftContract",
      "outputs": [
        {
          "internalType": "address",
          "name": "",
          "type": "address"
        }
      ],
      "stateMutability": "view",
      "type": "function"
    },
    {
      "inputs": [],
      "name": "owner",
      "outputs": [
        {
          "internalType": "address",
          "name": "",
          "type": "address"
        }
      ],
      "stateMutability": "view",
      "type": "function"
    },
    {
      "inputs": [],
      "name": "renounceOwnership",
      "outputs": [],
      "stateMutability": "nonpayable",
      "type": "function"
    },
    {
      "inputs": [
        {
          "internalType": "address",
          "name": "_nftContract",
          "type": "address"
        }
      ],
      "name": "setNFTAddress",
      "outputs": [],
      "stateMutability": "nonpayable",
      "type": "function"
    },
    {
      "inputs": [
        {
          "internalType": "address",
          "name": "_tokenContract",
          "type": "address"
        }
      ],
      "name": "setTokenAddress",
      "outputs": [],
      "stateMutability": "nonpayable",
      "type": "function"
    },
    {
      "inputs": [],
      "name": "tokenContract",
      "outputs": [
        {
          "internalType": "address",
          "name": "",
          "type": "address"
        }
      ],
      "stateMutability": "view",
      "type": "function"
    },
    {
      "inputs": [
        {
          "internalType": "address",
          "name": "newOwner",
          "type": "address"
        }
      ],
      "name": "transferOwnership",
      "outputs": [],
      "stateMutability": "nonpayable",
      "type": "function"
    },
    {
      "inputs": [],
      "name": "unit",
      "outputs": [
        {
          "internalType": "uint256",
          "name": "",
          "type": "uint256"
        }
      ],
      "stateMutability": "view",
      "type": "function"
    },
    {
      "inputs": [
        {
          "internalType": "address",
          "name": "to",
          "type": "address"
        },
        {
          "internalType": "uint256",
          "name": "amount",
          "type": "uint256"
        },
        {
          "internalType": "uint8",
          "name": "_v",
          "type": "uint8"
        },
        {
          "internalType": "bytes32",
          "name": "_r",
          "type": "bytes32"
        },
        {
          "internalType": "bytes32",
          "name": "_s",
          "type": "bytes32"
        }
      ],
      "name": "verify",
      "outputs": [
        {
          "internalType": "address",
          "name": "",
          "type": "address"
        }
      ],
      "stateMutability": "pure",
      "type": "function"
    }
  ],
  "bytecode": "0x608060405234801561001057600080fd5b5061002d61002261003960201b60201c565b61004160201b60201c565b42600581905550610105565b600033905090565b60008060009054906101000a900473ffffffffffffffffffffffffffffffffffffffff169050816000806101000a81548173ffffffffffffffffffffffffffffffffffffffff021916908373ffffffffffffffffffffffffffffffffffffffff1602179055508173ffffffffffffffffffffffffffffffffffffffff168173ffffffffffffffffffffffffffffffffffffffff167f8be0079c531659141344cd1fd0a4f28419497f9722a3daafe3b4186f6b6457e060405160405180910390a35050565b61175e806101146000396000f3fe608060405234801561001057600080fd5b506004361061010b5760003560e01c80636e21b52c116100a2578063907af6c011610071578063907af6c0146102a8578063d56d229d146102c6578063dd8cc74a146102e4578063ef332c5a14610302578063f2fde38b146103325761010b565b80636e21b52c146102325780636f7e254314610250578063715018a6146102805780638da5cb5b1461028a5761010b565b80635262265a116100de5780635262265a146101aa57806355a373d6146101c8578063606e78ef146101e657806369d03738146102165761010b565b80631aa20b681461011057806326a4e8d214610140578063461ac0191461015c5780634e9f3cc31461017a575b600080fd5b61012a60048036038101906101259190610ed9565b61034e565b6040516101379190611152565b60405180910390f35b61015a60048036038101906101559190610e87565b610440565b005b61016461048c565b6040516101719190611329565b60405180910390f35b610194600480360381019061018f9190610e87565b610492565b6040516101a19190611329565b60405180910390f35b6101b261068c565b6040516101bf9190611329565b60405180910390f35b6101d0610692565b6040516101dd9190611152565b60405180910390f35b61020060048036038101906101fb9190610e87565b6106b8565b60405161020d9190611329565b60405180910390f35b610230600480360381019061022b9190610e87565b6106d0565b005b61023a61071c565b6040516102479190611329565b60405180910390f35b61026a60048036038101906102659190610ed9565b610735565b60405161027791906111e9565b60405180910390f35b610288610a59565b005b610292610a6d565b60405161029f9190611152565b60405180910390f35b6102b0610a96565b6040516102bd9190611329565b60405180910390f35b6102ce610aa2565b6040516102db9190611152565b60405180910390f35b6102ec610ac8565b6040516102f99190611329565b60405180910390f35b61031c60048036038101906103179190610e87565b610acd565b6040516103299190611329565b60405180910390f35b61034c60048036038101906103479190610e87565b610ae5565b005b6000806040518060400160405280601c81526020017f19457468657265756d205369676e6564204d6573736167653a0a3332000000008152509050600081888860405160200161039f92919061116d565b604051602081830303815290604052805190602001206040516020016103c692919061112a565b6040516020818303038152906040528051906020012090506000600182888888604051600081526020016040526040516104039493929190611204565b6020604051602081039080840390855afa158015610425573d6000803e3d6000fd5b50505060206040510351905080935050505095945050505050565b610448610b69565b80600160006101000a81548173ffffffffffffffffffffffffffffffffffffffff021916908373ffffffffffffffffffffffffffffffffffffffff16021790555050565b60055481565b600080600260009054906101000a900473ffffffffffffffffffffffffffffffffffffffff1673ffffffffffffffffffffffffffffffffffffffff1663bcf16f2d6040518163ffffffff1660e01b815260040160206040518083038186803b1580156104fd57600080fd5b505afa158015610511573d6000803e3d6000fd5b505050506040513d601f19601f820116820180604052508101906105359190610f79565b9050600081141561054a576000915050610687565b6000811161058d576040517f08c379a000000000000000000000000000000000000000000000000000000000815260040161058490611309565b60405180910390fd5b600060055490506000600460008673ffffffffffffffffffffffffffffffffffffffff1673ffffffffffffffffffffffffffffffffffffffff168152602001908152602001600020541461061e57600460008573ffffffffffffffffffffffffffffffffffffffff1673ffffffffffffffffffffffffffffffffffffffff1681526020019081526020016000205490505b6000610e10824261062f91906113f6565b610639919061136b565b9050600081141561064957600190505b82816032670de0b6b3a76400006107d0610663919061139c565b61066d919061139c565b610677919061139c565b610681919061136b565b93505050505b919050565b610e1081565b600160009054906101000a900473ffffffffffffffffffffffffffffffffffffffff1681565b60036020528060005260406000206000915090505481565b6106d8610b69565b80600260006101000a81548173ffffffffffffffffffffffffffffffffffffffff021916908373ffffffffffffffffffffffffffffffffffffffff16021790555050565b670de0b6b3a76400006107d0610732919061139c565b81565b600061073f610a6d565b73ffffffffffffffffffffffffffffffffffffffff163073ffffffffffffffffffffffffffffffffffffffff16631aa20b6888888888886040518663ffffffff1660e01b8152600401610796959493929190611196565b60206040518083038186803b1580156107ae57600080fd5b505afa1580156107c2573d6000803e3d6000fd5b505050506040513d601f19601f820116820180604052508101906107e69190610eb0565b73ffffffffffffffffffffffffffffffffffffffff161461083c576040517f08c379a000000000000000000000000000000000000000000000000000000000815260040161083390611289565b60405180910390fd5b6000851161087f576040517f08c379a000000000000000000000000000000000000000000000000000000000815260040161087690611249565b60405180910390fd5b600073ffffffffffffffffffffffffffffffffffffffff168673ffffffffffffffffffffffffffffffffffffffff1614156108ef576040517f08c379a00000000000000000000000000000000000000000000000000000000081526004016108e6906112c9565b60405180910390fd5b84600360008873ffffffffffffffffffffffffffffffffffffffff1673ffffffffffffffffffffffffffffffffffffffff1681526020019081526020016000205410610970576040517f08c379a0000000000000000000000000000000000000000000000000000000008152600401610967906112e9565b60405180910390fd5b6109c486600360008973ffffffffffffffffffffffffffffffffffffffff1673ffffffffffffffffffffffffffffffffffffffff16815260200190815260200160002054876109bf91906113f6565b610be7565b42600460008873ffffffffffffffffffffffffffffffffffffffff1673ffffffffffffffffffffffffffffffffffffffff1681526020019081526020016000208190555084600360008873ffffffffffffffffffffffffffffffffffffffff1673ffffffffffffffffffffffffffffffffffffffff168152602001908152602001600020819055506001905095945050505050565b610a61610b69565b610a6b6000610d28565b565b60008060009054906101000a900473ffffffffffffffffffffffffffffffffffffffff16905090565b670de0b6b3a764000081565b600260009054906101000a900473ffffffffffffffffffffffffffffffffffffffff1681565b603281565b60046020528060005260406000206000915090505481565b610aed610b69565b600073ffffffffffffffffffffffffffffffffffffffff168173ffffffffffffffffffffffffffffffffffffffff161415610b5d576040517f08c379a0000000000000000000000000000000000000000000000000000000008152600401610b5490611269565b60405180910390fd5b610b6681610d28565b50565b610b71610dec565b73ffffffffffffffffffffffffffffffffffffffff16610b8f610a6d565b73ffffffffffffffffffffffffffffffffffffffff1614610be5576040517f08c379a0000000000000000000000000000000000000000000000000000000008152600401610bdc906112a9565b60405180910390fd5b565b600160009054906101000a900473ffffffffffffffffffffffffffffffffffffffff1673ffffffffffffffffffffffffffffffffffffffff166334b4117d826040518263ffffffff1660e01b8152600401610c429190611329565b600060405180830381600087803b158015610c5c57600080fd5b505af1158015610c70573d6000803e3d6000fd5b50505050600160009054906101000a900473ffffffffffffffffffffffffffffffffffffffff1673ffffffffffffffffffffffffffffffffffffffff1663a9059cbb83836040518363ffffffff1660e01b8152600401610cd192919061116d565b602060405180830381600087803b158015610ceb57600080fd5b505af1158015610cff573d6000803e3d6000fd5b505050506040513d601f19601f82011682018060405250810190610d239190610f50565b505050565b60008060009054906101000a900473ffffffffffffffffffffffffffffffffffffffff169050816000806101000a81548173ffffffffffffffffffffffffffffffffffffffff021916908373ffffffffffffffffffffffffffffffffffffffff1602179055508173ffffffffffffffffffffffffffffffffffffffff168173ffffffffffffffffffffffffffffffffffffffff167f8be0079c531659141344cd1fd0a4f28419497f9722a3daafe3b4186f6b6457e060405160405180910390a35050565b600033905090565b600081359050610e03816116b5565b92915050565b600081519050610e18816116b5565b92915050565b600081519050610e2d816116cc565b92915050565b600081359050610e42816116e3565b92915050565b600081359050610e57816116fa565b92915050565b600081519050610e6c816116fa565b92915050565b600081359050610e8181611711565b92915050565b600060208284031215610e9957600080fd5b6000610ea784828501610df4565b91505092915050565b600060208284031215610ec257600080fd5b6000610ed084828501610e09565b91505092915050565b600080600080600060a08688031215610ef157600080fd5b6000610eff88828901610df4565b9550506020610f1088828901610e48565b9450506040610f2188828901610e72565b9350506060610f3288828901610e33565b9250506080610f4388828901610e33565b9150509295509295909350565b600060208284031215610f6257600080fd5b6000610f7084828501610e1e565b91505092915050565b600060208284031215610f8b57600080fd5b6000610f9984828501610e5d565b91505092915050565b610fab8161142a565b82525050565b610fba8161143c565b82525050565b610fc981611448565b82525050565b610fe0610fdb82611448565b6114bc565b82525050565b6000610ff182611344565b610ffb818561134f565b935061100b818560208601611489565b80840191505092915050565b6000611024601a8361135a565b915061102f82611524565b602082019050919050565b600061104760268361135a565b91506110528261154d565b604082019050919050565b600061106a60168361135a565b91506110758261159c565b602082019050919050565b600061108d60208361135a565b9150611098826115c5565b602082019050919050565b60006110b060178361135a565b91506110bb826115ee565b602082019050919050565b60006110d360298361135a565b91506110de82611617565b604082019050919050565b60006110f660238361135a565b915061110182611666565b604082019050919050565b61111581611472565b82525050565b6111248161147c565b82525050565b60006111368285610fe6565b91506111428284610fcf565b6020820191508190509392505050565b60006020820190506111676000830184610fa2565b92915050565b60006040820190506111826000830185610fa2565b61118f602083018461110c565b9392505050565b600060a0820190506111ab6000830188610fa2565b6111b8602083018761110c565b6111c5604083018661111b565b6111d26060830185610fc0565b6111df6080830184610fc0565b9695505050505050565b60006020820190506111fe6000830184610fb1565b92915050565b60006080820190506112196000830187610fc0565b611226602083018661111b565b6112336040830185610fc0565b6112406060830184610fc0565b95945050505050565b6000602082019050818103600083015261126281611017565b9050919050565b600060208201905081810360008301526112828161103a565b9050919050565b600060208201905081810360008301526112a28161105d565b9050919050565b600060208201905081810360008301526112c281611080565b9050919050565b600060208201905081810360008301526112e2816110a3565b9050919050565b60006020820190508181036000830152611302816110c6565b9050919050565b60006020820190508181036000830152611322816110e9565b9050919050565b600060208201905061133e600083018461110c565b92915050565b600081519050919050565b600081905092915050565b600082825260208201905092915050565b600061137682611472565b915061138183611472565b925082611391576113906114f5565b5b828204905092915050565b60006113a782611472565b91506113b283611472565b9250817fffffffffffffffffffffffffffffffffffffffffffffffffffffffffffffffff04831182151516156113eb576113ea6114c6565b5b828202905092915050565b600061140182611472565b915061140c83611472565b92508282101561141f5761141e6114c6565b5b828203905092915050565b600061143582611452565b9050919050565b60008115159050919050565b6000819050919050565b600073ffffffffffffffffffffffffffffffffffffffff82169050919050565b6000819050919050565b600060ff82169050919050565b60005b838110156114a757808201518184015260208101905061148c565b838111156114b6576000848401525b50505050565b6000819050919050565b7f4e487b7100000000000000000000000000000000000000000000000000000000600052601160045260246000fd5b7f4e487b7100000000000000000000000000000000000000000000000000000000600052601260045260246000fd5b7f616d6f756e742073686f756c6420626520706f7369746976652e000000000000600082015250565b7f4f776e61626c653a206e6577206f776e657220697320746865207a65726f206160008201527f6464726573730000000000000000000000000000000000000000000000000000602082015250565b7f7369676e617475726520636865636b206661696c656400000000000000000000600082015250565b7f4f776e61626c653a2063616c6c6572206973206e6f7420746865206f776e6572600082015250565b7f616464726573732063616e6e6f74206265207a65726f2e000000000000000000600082015250565b7f636c61696d656420746f6b656e2073686f756c64206265206c6573732074686160008201527f6e20616d6f756e742e0000000000000000000000000000000000000000000000602082015250565b7f746f74616c4e46542073686f756c6420626520706f736974697665206e756d6260008201527f65722e0000000000000000000000000000000000000000000000000000000000602082015250565b6116be8161142a565b81146116c957600080fd5b50565b6116d58161143c565b81146116e057600080fd5b50565b6116ec81611448565b81146116f757600080fd5b50565b61170381611472565b811461170e57600080fd5b50565b61171a8161147c565b811461172557600080fd5b5056fea2646970667358221220679f75bac3e4490e1cf99f7fe843eabe390cfa1e35069a8f73aa0f138164d92b64736f6c63430008040033",
  "linkReferences": {},
  "deployedLinkReferences": {}
}