{
  "_format": "hh-sol-artifact-1",
  "contractName": "ElumReward",
  "sourceName": "contracts/ElumReward.sol",
  "abi": [
    {
      "inputs": [],
      "stateMutability": "nonpayable",
      "type": "constructor"
    },
    {
      "anonymous": false,
      "inputs": [
        {
          "indexed": true,
          "internalType": "address",
          "name": "previousOwner",
          "type": "address"
        },
        {
          "indexed": true,
          "internalType": "address",
          "name": "newOwner",
          "type": "address"
        }
      ],
      "name": "OwnershipTransferred",
      "type": "event"
    },
    {
      "inputs": [
        {
          "internalType": "address",
          "name": "to",
          "type": "address"
        },
        {
          "internalType": "uint256",
          "name": "amount",
          "type": "uint256"
        },
        {
          "internalType": "uint8",
          "name": "_v",
          "type": "uint8"
        },
        {
          "internalType": "bytes32",
          "name": "_r",
          "type": "bytes32"
        },
        {
          "internalType": "bytes32",
          "name": "_s",
          "type": "bytes32"
        }
      ],
      "name": "claimRequest",
      "outputs": [
        {
          "internalType": "bool",
          "name": "",
          "type": "bool"
        }
      ],
      "stateMutability": "nonpayable",
      "type": "function"
    },
    {
      "inputs": [
        {
          "internalType": "address",
          "name": "",
          "type": "address"
        }
      ],
      "name": "claimedToken",
      "outputs": [
        {
          "internalType": "uint256",
          "name": "",
          "type": "uint256"
        }
      ],
      "stateMutability": "view",
      "type": "function"
    },
    {
      "inputs": [],
      "name": "owner",
      "outputs": [
        {
          "internalType": "address",
          "name": "",
          "type": "address"
        }
      ],
      "stateMutability": "view",
      "type": "function"
    },
    {
      "inputs": [],
      "name": "renounceOwnership",
      "outputs": [],
      "stateMutability": "nonpayable",
      "type": "function"
    },
    {
      "inputs": [
        {
          "internalType": "address",
          "name": "_tokenContract",
          "type": "address"
        }
      ],
      "name": "setTokenAddress",
      "outputs": [],
      "stateMutability": "nonpayable",
      "type": "function"
    },
    {
      "inputs": [],
      "name": "tokenContract",
      "outputs": [
        {
          "internalType": "address",
          "name": "",
          "type": "address"
        }
      ],
      "stateMutability": "view",
      "type": "function"
    },
    {
      "inputs": [
        {
          "internalType": "address",
          "name": "newOwner",
          "type": "address"
        }
      ],
      "name": "transferOwnership",
      "outputs": [],
      "stateMutability": "nonpayable",
      "type": "function"
    },
    {
      "inputs": [
        {
          "internalType": "address",
          "name": "to",
          "type": "address"
        },
        {
          "internalType": "uint256",
          "name": "amount",
          "type": "uint256"
        },
        {
          "internalType": "uint8",
          "name": "_v",
          "type": "uint8"
        },
        {
          "internalType": "bytes32",
          "name": "_r",
          "type": "bytes32"
        },
        {
          "internalType": "bytes32",
          "name": "_s",
          "type": "bytes32"
        }
      ],
      "name": "verify",
      "outputs": [
        {
          "internalType": "address",
          "name": "",
          "type": "address"
        }
      ],
      "stateMutability": "pure",
      "type": "function"
    }
  ],
  "bytecode": "0x608060405234801561001057600080fd5b5061002d61002261003260201b60201c565b61003a60201b60201c565b6100fe565b600033905090565b60008060009054906101000a900473ffffffffffffffffffffffffffffffffffffffff169050816000806101000a81548173ffffffffffffffffffffffffffffffffffffffff021916908373ffffffffffffffffffffffffffffffffffffffff1602179055508173ffffffffffffffffffffffffffffffffffffffff168173ffffffffffffffffffffffffffffffffffffffff167f8be0079c531659141344cd1fd0a4f28419497f9722a3daafe3b4186f6b6457e060405160405180910390a35050565b6111238061010d6000396000f3fe608060405234801561001057600080fd5b50600436106100885760003560e01c80636f7e25431161005b5780636f7e254314610127578063715018a6146101575780638da5cb5b14610161578063f2fde38b1461017f57610088565b80631aa20b681461008d57806326a4e8d2146100bd57806355a373d6146100d9578063606e78ef146100f7575b600080fd5b6100a760048036038101906100a29190610a13565b61019b565b6040516100b49190610c40565b60405180910390f35b6100d760048036038101906100d291906109c1565b61028d565b005b6100e16102d9565b6040516100ee9190610c40565b60405180910390f35b610111600480360381019061010c91906109c1565b6102ff565b60405161011e9190610df7565b60405180910390f35b610141600480360381019061013c9190610a13565b610317565b60405161014e9190610cd7565b60405180910390f35b61015f6105f7565b005b61016961060b565b6040516101769190610c40565b60405180910390f35b610199600480360381019061019491906109c1565b610634565b005b6000806040518060400160405280601c81526020017f19457468657265756d205369676e6564204d6573736167653a0a333200000000815250905060008188886040516020016101ec929190610c5b565b60405160208183030381529060405280519060200120604051602001610213929190610c18565b6040516020818303038152906040528051906020012090506000600182888888604051600081526020016040526040516102509493929190610cf2565b6020604051602081039080840390855afa158015610272573d6000803e3d6000fd5b50505060206040510351905080935050505095945050505050565b6102956106b8565b80600160006101000a81548173ffffffffffffffffffffffffffffffffffffffff021916908373ffffffffffffffffffffffffffffffffffffffff16021790555050565b600160009054906101000a900473ffffffffffffffffffffffffffffffffffffffff1681565b60026020528060005260406000206000915090505481565b600061032161060b565b73ffffffffffffffffffffffffffffffffffffffff163073ffffffffffffffffffffffffffffffffffffffff16631aa20b6888888888886040518663ffffffff1660e01b8152600401610378959493929190610c84565b60206040518083038186803b15801561039057600080fd5b505afa1580156103a4573d6000803e3d6000fd5b505050506040513d601f19601f820116820180604052508101906103c891906109ea565b73ffffffffffffffffffffffffffffffffffffffff161461041e576040517f08c379a000000000000000000000000000000000000000000000000000000000815260040161041590610d77565b60405180910390fd5b60008511610461576040517f08c379a000000000000000000000000000000000000000000000000000000000815260040161045890610d37565b60405180910390fd5b600073ffffffffffffffffffffffffffffffffffffffff168673ffffffffffffffffffffffffffffffffffffffff1614156104d1576040517f08c379a00000000000000000000000000000000000000000000000000000000081526004016104c890610db7565b60405180910390fd5b84600260008873ffffffffffffffffffffffffffffffffffffffff1673ffffffffffffffffffffffffffffffffffffffff1681526020019081526020016000205410610552576040517f08c379a000000000000000000000000000000000000000000000000000000000815260040161054990610dd7565b60405180910390fd5b6105a686600260008973ffffffffffffffffffffffffffffffffffffffff1673ffffffffffffffffffffffffffffffffffffffff16815260200190815260200160002054876105a19190610e39565b610736565b84600260008873ffffffffffffffffffffffffffffffffffffffff1673ffffffffffffffffffffffffffffffffffffffff168152602001908152602001600020819055506001905095945050505050565b6105ff6106b8565b6106096000610877565b565b60008060009054906101000a900473ffffffffffffffffffffffffffffffffffffffff16905090565b61063c6106b8565b600073ffffffffffffffffffffffffffffffffffffffff168173ffffffffffffffffffffffffffffffffffffffff1614156106ac576040517f08c379a00000000000000000000000000000000000000000000000000000000081526004016106a390610d57565b60405180910390fd5b6106b581610877565b50565b6106c061093b565b73ffffffffffffffffffffffffffffffffffffffff166106de61060b565b73ffffffffffffffffffffffffffffffffffffffff1614610734576040517f08c379a000000000000000000000000000000000000000000000000000000000815260040161072b90610d97565b60405180910390fd5b565b600160009054906101000a900473ffffffffffffffffffffffffffffffffffffffff1673ffffffffffffffffffffffffffffffffffffffff166334b4117d826040518263ffffffff1660e01b81526004016107919190610df7565b600060405180830381600087803b1580156107ab57600080fd5b505af11580156107bf573d6000803e3d6000fd5b50505050600160009054906101000a900473ffffffffffffffffffffffffffffffffffffffff1673ffffffffffffffffffffffffffffffffffffffff1663a9059cbb83836040518363ffffffff1660e01b8152600401610820929190610c5b565b602060405180830381600087803b15801561083a57600080fd5b505af115801561084e573d6000803e3d6000fd5b505050506040513d601f19601f820116820180604052508101906108729190610a8a565b505050565b60008060009054906101000a900473ffffffffffffffffffffffffffffffffffffffff169050816000806101000a81548173ffffffffffffffffffffffffffffffffffffffff021916908373ffffffffffffffffffffffffffffffffffffffff1602179055508173ffffffffffffffffffffffffffffffffffffffff168173ffffffffffffffffffffffffffffffffffffffff167f8be0079c531659141344cd1fd0a4f28419497f9722a3daafe3b4186f6b6457e060405160405180910390a35050565b600033905090565b6000813590506109528161107a565b92915050565b6000815190506109678161107a565b92915050565b60008151905061097c81611091565b92915050565b600081359050610991816110a8565b92915050565b6000813590506109a6816110bf565b92915050565b6000813590506109bb816110d6565b92915050565b6000602082840312156109d357600080fd5b60006109e184828501610943565b91505092915050565b6000602082840312156109fc57600080fd5b6000610a0a84828501610958565b91505092915050565b600080600080600060a08688031215610a2b57600080fd5b6000610a3988828901610943565b9550506020610a4a88828901610997565b9450506040610a5b888289016109ac565b9350506060610a6c88828901610982565b9250506080610a7d88828901610982565b9150509295509295909350565b600060208284031215610a9c57600080fd5b6000610aaa8482850161096d565b91505092915050565b610abc81610e6d565b82525050565b610acb81610e7f565b82525050565b610ada81610e8b565b82525050565b610af1610aec82610e8b565b610eff565b82525050565b6000610b0282610e12565b610b0c8185610e1d565b9350610b1c818560208601610ecc565b80840191505092915050565b6000610b35601a83610e28565b9150610b4082610f38565b602082019050919050565b6000610b58602683610e28565b9150610b6382610f61565b604082019050919050565b6000610b7b601683610e28565b9150610b8682610fb0565b602082019050919050565b6000610b9e602083610e28565b9150610ba982610fd9565b602082019050919050565b6000610bc1601783610e28565b9150610bcc82611002565b602082019050919050565b6000610be4602983610e28565b9150610bef8261102b565b604082019050919050565b610c0381610eb5565b82525050565b610c1281610ebf565b82525050565b6000610c248285610af7565b9150610c308284610ae0565b6020820191508190509392505050565b6000602082019050610c556000830184610ab3565b92915050565b6000604082019050610c706000830185610ab3565b610c7d6020830184610bfa565b9392505050565b600060a082019050610c996000830188610ab3565b610ca66020830187610bfa565b610cb36040830186610c09565b610cc06060830185610ad1565b610ccd6080830184610ad1565b9695505050505050565b6000602082019050610cec6000830184610ac2565b92915050565b6000608082019050610d076000830187610ad1565b610d146020830186610c09565b610d216040830185610ad1565b610d2e6060830184610ad1565b95945050505050565b60006020820190508181036000830152610d5081610b28565b9050919050565b60006020820190508181036000830152610d7081610b4b565b9050919050565b60006020820190508181036000830152610d9081610b6e565b9050919050565b60006020820190508181036000830152610db081610b91565b9050919050565b60006020820190508181036000830152610dd081610bb4565b9050919050565b60006020820190508181036000830152610df081610bd7565b9050919050565b6000602082019050610e0c6000830184610bfa565b92915050565b600081519050919050565b600081905092915050565b600082825260208201905092915050565b6000610e4482610eb5565b9150610e4f83610eb5565b925082821015610e6257610e61610f09565b5b828203905092915050565b6000610e7882610e95565b9050919050565b60008115159050919050565b6000819050919050565b600073ffffffffffffffffffffffffffffffffffffffff82169050919050565b6000819050919050565b600060ff82169050919050565b60005b83811015610eea578082015181840152602081019050610ecf565b83811115610ef9576000848401525b50505050565b6000819050919050565b7f4e487b7100000000000000000000000000000000000000000000000000000000600052601160045260246000fd5b7f616d6f756e742073686f756c6420626520706f7369746976652e000000000000600082015250565b7f4f776e61626c653a206e6577206f776e657220697320746865207a65726f206160008201527f6464726573730000000000000000000000000000000000000000000000000000602082015250565b7f7369676e617475726520636865636b206661696c656400000000000000000000600082015250565b7f4f776e61626c653a2063616c6c6572206973206e6f7420746865206f776e6572600082015250565b7f616464726573732063616e6e6f74206265207a65726f2e000000000000000000600082015250565b7f636c61696d656420746f6b656e2073686f756c64206265206c6573732074686160008201527f6e20616d6f756e742e0000000000000000000000000000000000000000000000602082015250565b61108381610e6d565b811461108e57600080fd5b50565b61109a81610e7f565b81146110a557600080fd5b50565b6110b181610e8b565b81146110bc57600080fd5b50565b6110c881610eb5565b81146110d357600080fd5b50565b6110df81610ebf565b81146110ea57600080fd5b5056fea26469706673582212209c908f8fd4ae7943a3de3938484aade3f33d9ac56f17350fbbb953eb1afaa0d864736f6c63430008040033",
  "linkReferences": {},
  "deployedLinkReferences": {}
}