{
  "_format": "hh-sol-artifact-1",
  "contractName": "ElumToken",
  "sourceName": "contracts/ElumToken.sol",
  "abi": [
    {
      "inputs": [],
      "stateMutability": "nonpayable",
      "type": "constructor"
    },
    {
      "anonymous": false,
      "inputs": [
        {
          "indexed": true,
          "internalType": "address",
          "name": "owner",
          "type": "address"
        },
        {
          "indexed": true,
          "internalType": "address",
          "name": "spender",
          "type": "address"
        },
        {
          "indexed": false,
          "internalType": "uint256",
          "name": "value",
          "type": "uint256"
        }
      ],
      "name": "Approval",
      "type": "event"
    },
    {
      "anonymous": false,
      "inputs": [
        {
          "indexed": true,
          "internalType": "address",
          "name": "previousOwner",
          "type": "address"
        },
        {
          "indexed": true,
          "internalType": "address",
          "name": "newOwner",
          "type": "address"
        }
      ],
      "name": "OwnershipTransferred",
      "type": "event"
    },
    {
      "anonymous": false,
      "inputs": [
        {
          "indexed": true,
          "internalType": "address",
          "name": "from",
          "type": "address"
        },
        {
          "indexed": true,
          "internalType": "address",
          "name": "to",
          "type": "address"
        },
        {
          "indexed": false,
          "internalType": "uint256",
          "name": "value",
          "type": "uint256"
        }
      ],
      "name": "Transfer",
      "type": "event"
    },
    {
      "inputs": [
        {
          "internalType": "address",
          "name": "owner",
          "type": "address"
        },
        {
          "internalType": "address",
          "name": "spender",
          "type": "address"
        }
      ],
      "name": "allowance",
      "outputs": [
        {
          "internalType": "uint256",
          "name": "",
          "type": "uint256"
        }
      ],
      "stateMutability": "view",
      "type": "function"
    },
    {
      "inputs": [
        {
          "internalType": "address",
          "name": "spender",
          "type": "address"
        },
        {
          "internalType": "uint256",
          "name": "amount",
          "type": "uint256"
        }
      ],
      "name": "approve",
      "outputs": [
        {
          "internalType": "bool",
          "name": "",
          "type": "bool"
        }
      ],
      "stateMutability": "nonpayable",
      "type": "function"
    },
    {
      "inputs": [
        {
          "internalType": "address",
          "name": "account",
          "type": "address"
        }
      ],
      "name": "balanceOf",
      "outputs": [
        {
          "internalType": "uint256",
          "name": "",
          "type": "uint256"
        }
      ],
      "stateMutability": "view",
      "type": "function"
    },
    {
      "inputs": [],
      "name": "decimals",
      "outputs": [
        {
          "internalType": "uint8",
          "name": "",
          "type": "uint8"
        }
      ],
      "stateMutability": "view",
      "type": "function"
    },
    {
      "inputs": [
        {
          "internalType": "address",
          "name": "spender",
          "type": "address"
        },
        {
          "internalType": "uint256",
          "name": "subtractedValue",
          "type": "uint256"
        }
      ],
      "name": "decreaseAllowance",
      "outputs": [
        {
          "internalType": "bool",
          "name": "",
          "type": "bool"
        }
      ],
      "stateMutability": "nonpayable",
      "type": "function"
    },
    {
      "inputs": [
        {
          "internalType": "address",
          "name": "spender",
          "type": "address"
        },
        {
          "internalType": "uint256",
          "name": "addedValue",
          "type": "uint256"
        }
      ],
      "name": "increaseAllowance",
      "outputs": [
        {
          "internalType": "bool",
          "name": "",
          "type": "bool"
        }
      ],
      "stateMutability": "nonpayable",
      "type": "function"
    },
    {
      "inputs": [
        {
          "internalType": "uint256",
          "name": "amount",
          "type": "uint256"
        }
      ],
      "name": "mintRewardTokens",
      "outputs": [],
      "stateMutability": "nonpayable",
      "type": "function"
    },
    {
      "inputs": [],
      "name": "name",
      "outputs": [
        {
          "internalType": "string",
          "name": "",
          "type": "string"
        }
      ],
      "stateMutability": "view",
      "type": "function"
    },
    {
      "inputs": [],
      "name": "owner",
      "outputs": [
        {
          "internalType": "address",
          "name": "",
          "type": "address"
        }
      ],
      "stateMutability": "view",
      "type": "function"
    },
    {
      "inputs": [],
      "name": "renounceOwnership",
      "outputs": [],
      "stateMutability": "nonpayable",
      "type": "function"
    },
    {
      "inputs": [],
      "name": "rewardContract",
      "outputs": [
        {
          "internalType": "address",
          "name": "",
          "type": "address"
        }
      ],
      "stateMutability": "view",
      "type": "function"
    },
    {
      "inputs": [],
      "name": "rewardSupply",
      "outputs": [
        {
          "internalType": "uint256",
          "name": "",
          "type": "uint256"
        }
      ],
      "stateMutability": "view",
      "type": "function"
    },
    {
      "inputs": [
        {
          "internalType": "address",
          "name": "_rewardContract",
          "type": "address"
        }
      ],
      "name": "setRewardContract",
      "outputs": [],
      "stateMutability": "nonpayable",
      "type": "function"
    },
    {
      "inputs": [],
      "name": "symbol",
      "outputs": [
        {
          "internalType": "string",
          "name": "",
          "type": "string"
        }
      ],
      "stateMutability": "view",
      "type": "function"
    },
    {
      "inputs": [],
      "name": "totalSupply",
      "outputs": [
        {
          "internalType": "uint256",
          "name": "",
          "type": "uint256"
        }
      ],
      "stateMutability": "view",
      "type": "function"
    },
    {
      "inputs": [
        {
          "internalType": "address",
          "name": "to",
          "type": "address"
        },
        {
          "internalType": "uint256",
          "name": "amount",
          "type": "uint256"
        }
      ],
      "name": "transfer",
      "outputs": [
        {
          "internalType": "bool",
          "name": "",
          "type": "bool"
        }
      ],
      "stateMutability": "nonpayable",
      "type": "function"
    },
    {
      "inputs": [
        {
          "internalType": "address",
          "name": "from",
          "type": "address"
        },
        {
          "internalType": "address",
          "name": "to",
          "type": "address"
        },
        {
          "internalType": "uint256",
          "name": "amount",
          "type": "uint256"
        }
      ],
      "name": "transferFrom",
      "outputs": [
        {
          "internalType": "bool",
          "name": "",
          "type": "bool"
        }
      ],
      "stateMutability": "nonpayable",
      "type": "function"
    },
    {
      "inputs": [
        {
          "internalType": "address",
          "name": "newOwner",
          "type": "address"
        }
      ],
      "name": "transferOwnership",
      "outputs": [],
      "stateMutability": "nonpayable",
      "type": "function"
    }
  ],
  "bytecode": "0x60806040526000600660006101000a81548173ffffffffffffffffffffffffffffffffffffffff021916908373ffffffffffffffffffffffffffffffffffffffff16021790555060006007553480156200005857600080fd5b506040518060400160405280600981526020017f456c756d546f6b656e00000000000000000000000000000000000000000000008152506040518060400160405280600481526020017f456c756d000000000000000000000000000000000000000000000000000000008152508160039080519060200190620000dd929190620001ed565b508060049080519060200190620000f6929190620001ed565b505050620001196200010d6200011f60201b60201c565b6200012760201b60201c565b62000302565b600033905090565b6000600560009054906101000a900473ffffffffffffffffffffffffffffffffffffffff16905081600560006101000a81548173ffffffffffffffffffffffffffffffffffffffff021916908373ffffffffffffffffffffffffffffffffffffffff1602179055508173ffffffffffffffffffffffffffffffffffffffff168173ffffffffffffffffffffffffffffffffffffffff167f8be0079c531659141344cd1fd0a4f28419497f9722a3daafe3b4186f6b6457e060405160405180910390a35050565b828054620001fb906200029d565b90600052602060002090601f0160209004810192826200021f57600085556200026b565b82601f106200023a57805160ff19168380011785556200026b565b828001600101855582156200026b579182015b828111156200026a5782518255916020019190600101906200024d565b5b5090506200027a91906200027e565b5090565b5b80821115620002995760008160009055506001016200027f565b5090565b60006002820490506001821680620002b657607f821691505b60208210811415620002cd57620002cc620002d3565b5b50919050565b7f4e487b7100000000000000000000000000000000000000000000000000000000600052602260045260246000fd5b611a6b80620003126000396000f3fe608060405234801561001057600080fd5b50600436106101165760003560e01c80636ea69d62116100a257806395d89b411161007157806395d89b41146102d1578063a457c2d7146102ef578063a9059cbb1461031f578063dd62ed3e1461034f578063f2fde38b1461037f57610116565b80636ea69d621461025b57806370a0823114610279578063715018a6146102a95780638da5cb5b146102b357610116565b8063313ce567116100e9578063313ce567146101b757806334b4117d146101d557806339509351146101f157806351508f0a146102215780636b0c341b1461023d57610116565b806306fdde031461011b578063095ea7b31461013957806318160ddd1461016957806323b872dd14610187575b600080fd5b61012361039b565b6040516101309190611376565b60405180910390f35b610153600480360381019061014e9190611108565b61042d565b604051610160919061135b565b60405180910390f35b610171610450565b60405161017e91906114d8565b60405180910390f35b6101a1600480360381019061019c91906110b9565b61045a565b6040516101ae919061135b565b60405180910390f35b6101bf610489565b6040516101cc91906114f3565b60405180910390f35b6101ef60048036038101906101ea9190611144565b610492565b005b61020b60048036038101906102069190611108565b610530565b604051610218919061135b565b60405180910390f35b61023b60048036038101906102369190611054565b610567565b005b6102456105b3565b60405161025291906114d8565b60405180910390f35b6102636105b9565b6040516102709190611340565b60405180910390f35b610293600480360381019061028e9190611054565b6105df565b6040516102a091906114d8565b60405180910390f35b6102b1610627565b005b6102bb61063b565b6040516102c89190611340565b60405180910390f35b6102d9610665565b6040516102e69190611376565b60405180910390f35b61030960048036038101906103049190611108565b6106f7565b604051610316919061135b565b60405180910390f35b61033960048036038101906103349190611108565b61076e565b604051610346919061135b565b60405180910390f35b6103696004803603810190610364919061107d565b610791565b60405161037691906114d8565b60405180910390f35b61039960048036038101906103949190611054565b610818565b005b6060600380546103aa90611693565b80601f01602080910402602001604051908101604052809291908181526020018280546103d690611693565b80156104235780601f106103f857610100808354040283529160200191610423565b820191906000526020600020905b81548152906001019060200180831161040657829003601f168201915b5050505050905090565b60008061043861089c565b90506104458185856108a4565b600191505092915050565b6000600254905090565b60008061046561089c565b9050610472858285610a6f565b61047d858585610afb565b60019150509392505050565b60006012905090565b600660009054906101000a900473ffffffffffffffffffffffffffffffffffffffff1673ffffffffffffffffffffffffffffffffffffffff163373ffffffffffffffffffffffffffffffffffffffff16146104ec57600080fd5b600a60076404a817c80061050091906115b1565b61050a9190611580565b81600754610518919061152a565b111561052357600080fd5b61052d3382610d7c565b50565b60008061053b61089c565b905061055c81858561054d8589610791565b610557919061152a565b6108a4565b600191505092915050565b61056f610edc565b80600660006101000a81548173ffffffffffffffffffffffffffffffffffffffff021916908373ffffffffffffffffffffffffffffffffffffffff16021790555050565b60075481565b600660009054906101000a900473ffffffffffffffffffffffffffffffffffffffff1681565b60008060008373ffffffffffffffffffffffffffffffffffffffff1673ffffffffffffffffffffffffffffffffffffffff168152602001908152602001600020549050919050565b61062f610edc565b6106396000610f5a565b565b6000600560009054906101000a900473ffffffffffffffffffffffffffffffffffffffff16905090565b60606004805461067490611693565b80601f01602080910402602001604051908101604052809291908181526020018280546106a090611693565b80156106ed5780601f106106c2576101008083540402835291602001916106ed565b820191906000526020600020905b8154815290600101906020018083116106d057829003601f168201915b5050505050905090565b60008061070261089c565b905060006107108286610791565b905083811015610755576040517f08c379a000000000000000000000000000000000000000000000000000000000815260040161074c90611498565b60405180910390fd5b61076282868684036108a4565b60019250505092915050565b60008061077961089c565b9050610786818585610afb565b600191505092915050565b6000600160008473ffffffffffffffffffffffffffffffffffffffff1673ffffffffffffffffffffffffffffffffffffffff16815260200190815260200160002060008373ffffffffffffffffffffffffffffffffffffffff1673ffffffffffffffffffffffffffffffffffffffff16815260200190815260200160002054905092915050565b610820610edc565b600073ffffffffffffffffffffffffffffffffffffffff168173ffffffffffffffffffffffffffffffffffffffff161415610890576040517f08c379a0000000000000000000000000000000000000000000000000000000008152600401610887906113b8565b60405180910390fd5b61089981610f5a565b50565b600033905090565b600073ffffffffffffffffffffffffffffffffffffffff168373ffffffffffffffffffffffffffffffffffffffff161415610914576040517f08c379a000000000000000000000000000000000000000000000000000000000815260040161090b90611478565b60405180910390fd5b600073ffffffffffffffffffffffffffffffffffffffff168273ffffffffffffffffffffffffffffffffffffffff161415610984576040517f08c379a000000000000000000000000000000000000000000000000000000000815260040161097b906113d8565b60405180910390fd5b80600160008573ffffffffffffffffffffffffffffffffffffffff1673ffffffffffffffffffffffffffffffffffffffff16815260200190815260200160002060008473ffffffffffffffffffffffffffffffffffffffff1673ffffffffffffffffffffffffffffffffffffffff168152602001908152602001600020819055508173ffffffffffffffffffffffffffffffffffffffff168373ffffffffffffffffffffffffffffffffffffffff167f8c5be1e5ebec7d5bd14f71427d1e84f3dd0314c0f7b2291e5b200ac8c7c3b92583604051610a6291906114d8565b60405180910390a3505050565b6000610a7b8484610791565b90507fffffffffffffffffffffffffffffffffffffffffffffffffffffffffffffffff8114610af55781811015610ae7576040517f08c379a0000000000000000000000000000000000000000000000000000000008152600401610ade906113f8565b60405180910390fd5b610af484848484036108a4565b5b50505050565b600073ffffffffffffffffffffffffffffffffffffffff168373ffffffffffffffffffffffffffffffffffffffff161415610b6b576040517f08c379a0000000000000000000000000000000000000000000000000000000008152600401610b6290611458565b60405180910390fd5b600073ffffffffffffffffffffffffffffffffffffffff168273ffffffffffffffffffffffffffffffffffffffff161415610bdb576040517f08c379a0000000000000000000000000000000000000000000000000000000008152600401610bd290611398565b60405180910390fd5b610be6838383611020565b60008060008573ffffffffffffffffffffffffffffffffffffffff1673ffffffffffffffffffffffffffffffffffffffff16815260200190815260200160002054905081811015610c6c576040517f08c379a0000000000000000000000000000000000000000000000000000000008152600401610c6390611418565b60405180910390fd5b8181036000808673ffffffffffffffffffffffffffffffffffffffff1673ffffffffffffffffffffffffffffffffffffffff16815260200190815260200160002081905550816000808573ffffffffffffffffffffffffffffffffffffffff1673ffffffffffffffffffffffffffffffffffffffff1681526020019081526020016000206000828254610cff919061152a565b925050819055508273ffffffffffffffffffffffffffffffffffffffff168473ffffffffffffffffffffffffffffffffffffffff167fddf252ad1be2c89b69c2b068fc378daa952ba7f163c4a11628f55a4df523b3ef84604051610d6391906114d8565b60405180910390a3610d76848484611025565b50505050565b600073ffffffffffffffffffffffffffffffffffffffff168273ffffffffffffffffffffffffffffffffffffffff161415610dec576040517f08c379a0000000000000000000000000000000000000000000000000000000008152600401610de3906114b8565b60405180910390fd5b610df860008383611020565b8060026000828254610e0a919061152a565b92505081905550806000808473ffffffffffffffffffffffffffffffffffffffff1673ffffffffffffffffffffffffffffffffffffffff1681526020019081526020016000206000828254610e5f919061152a565b925050819055508173ffffffffffffffffffffffffffffffffffffffff16600073ffffffffffffffffffffffffffffffffffffffff167fddf252ad1be2c89b69c2b068fc378daa952ba7f163c4a11628f55a4df523b3ef83604051610ec491906114d8565b60405180910390a3610ed860008383611025565b5050565b610ee461089c565b73ffffffffffffffffffffffffffffffffffffffff16610f0261063b565b73ffffffffffffffffffffffffffffffffffffffff1614610f58576040517f08c379a0000000000000000000000000000000000000000000000000000000008152600401610f4f90611438565b60405180910390fd5b565b6000600560009054906101000a900473ffffffffffffffffffffffffffffffffffffffff16905081600560006101000a81548173ffffffffffffffffffffffffffffffffffffffff021916908373ffffffffffffffffffffffffffffffffffffffff1602179055508173ffffffffffffffffffffffffffffffffffffffff168173ffffffffffffffffffffffffffffffffffffffff167f8be0079c531659141344cd1fd0a4f28419497f9722a3daafe3b4186f6b6457e060405160405180910390a35050565b505050565b505050565b60008135905061103981611a07565b92915050565b60008135905061104e81611a1e565b92915050565b60006020828403121561106657600080fd5b60006110748482850161102a565b91505092915050565b6000806040838503121561109057600080fd5b600061109e8582860161102a565b92505060206110af8582860161102a565b9150509250929050565b6000806000606084860312156110ce57600080fd5b60006110dc8682870161102a565b93505060206110ed8682870161102a565b92505060406110fe8682870161103f565b9150509250925092565b6000806040838503121561111b57600080fd5b60006111298582860161102a565b925050602061113a8582860161103f565b9150509250929050565b60006020828403121561115657600080fd5b60006111648482850161103f565b91505092915050565b6111768161160b565b82525050565b6111858161161d565b82525050565b60006111968261150e565b6111a08185611519565b93506111b0818560208601611660565b6111b981611752565b840191505092915050565b60006111d1602383611519565b91506111dc82611763565b604082019050919050565b60006111f4602683611519565b91506111ff826117b2565b604082019050919050565b6000611217602283611519565b915061122282611801565b604082019050919050565b600061123a601d83611519565b915061124582611850565b602082019050919050565b600061125d602683611519565b915061126882611879565b604082019050919050565b6000611280602083611519565b915061128b826118c8565b602082019050919050565b60006112a3602583611519565b91506112ae826118f1565b604082019050919050565b60006112c6602483611519565b91506112d182611940565b604082019050919050565b60006112e9602583611519565b91506112f48261198f565b604082019050919050565b600061130c601f83611519565b9150611317826119de565b602082019050919050565b61132b81611649565b82525050565b61133a81611653565b82525050565b6000602082019050611355600083018461116d565b92915050565b6000602082019050611370600083018461117c565b92915050565b60006020820190508181036000830152611390818461118b565b905092915050565b600060208201905081810360008301526113b1816111c4565b9050919050565b600060208201905081810360008301526113d1816111e7565b9050919050565b600060208201905081810360008301526113f18161120a565b9050919050565b600060208201905081810360008301526114118161122d565b9050919050565b6000602082019050818103600083015261143181611250565b9050919050565b6000602082019050818103600083015261145181611273565b9050919050565b6000602082019050818103600083015261147181611296565b9050919050565b60006020820190508181036000830152611491816112b9565b9050919050565b600060208201905081810360008301526114b1816112dc565b9050919050565b600060208201905081810360008301526114d1816112ff565b9050919050565b60006020820190506114ed6000830184611322565b92915050565b60006020820190506115086000830184611331565b92915050565b600081519050919050565b600082825260208201905092915050565b600061153582611649565b915061154083611649565b9250827fffffffffffffffffffffffffffffffffffffffffffffffffffffffffffffffff03821115611575576115746116c5565b5b828201905092915050565b600061158b82611649565b915061159683611649565b9250826115a6576115a56116f4565b5b828204905092915050565b60006115bc82611649565b91506115c783611649565b9250817fffffffffffffffffffffffffffffffffffffffffffffffffffffffffffffffff0483118215151615611600576115ff6116c5565b5b828202905092915050565b600061161682611629565b9050919050565b60008115159050919050565b600073ffffffffffffffffffffffffffffffffffffffff82169050919050565b6000819050919050565b600060ff82169050919050565b60005b8381101561167e578082015181840152602081019050611663565b8381111561168d576000848401525b50505050565b600060028204905060018216806116ab57607f821691505b602082108114156116bf576116be611723565b5b50919050565b7f4e487b7100000000000000000000000000000000000000000000000000000000600052601160045260246000fd5b7f4e487b7100000000000000000000000000000000000000000000000000000000600052601260045260246000fd5b7f4e487b7100000000000000000000000000000000000000000000000000000000600052602260045260246000fd5b6000601f19601f8301169050919050565b7f45524332303a207472616e7366657220746f20746865207a65726f206164647260008201527f6573730000000000000000000000000000000000000000000000000000000000602082015250565b7f4f776e61626c653a206e6577206f776e657220697320746865207a65726f206160008201527f6464726573730000000000000000000000000000000000000000000000000000602082015250565b7f45524332303a20617070726f766520746f20746865207a65726f20616464726560008201527f7373000000000000000000000000000000000000000000000000000000000000602082015250565b7f45524332303a20696e73756666696369656e7420616c6c6f77616e6365000000600082015250565b7f45524332303a207472616e7366657220616d6f756e742065786365656473206260008201527f616c616e63650000000000000000000000000000000000000000000000000000602082015250565b7f4f776e61626c653a2063616c6c6572206973206e6f7420746865206f776e6572600082015250565b7f45524332303a207472616e736665722066726f6d20746865207a65726f20616460008201527f6472657373000000000000000000000000000000000000000000000000000000602082015250565b7f45524332303a20617070726f76652066726f6d20746865207a65726f2061646460008201527f7265737300000000000000000000000000000000000000000000000000000000602082015250565b7f45524332303a2064656372656173656420616c6c6f77616e63652062656c6f7760008201527f207a65726f000000000000000000000000000000000000000000000000000000602082015250565b7f45524332303a206d696e7420746f20746865207a65726f206164647265737300600082015250565b611a108161160b565b8114611a1b57600080fd5b50565b611a2781611649565b8114611a3257600080fd5b5056fea2646970667358221220ade64a3934e1fa62dd04580d84061021a45f51072cfd599f99e09737a979e86364736f6c63430008040033",
  "linkReferences": {},
  "deployedLinkReferences": {}
}