{
  "_format": "hh-sol-artifact-1",
  "contractName": "ElumToken",
  "sourceName": "contracts/ElumToken.sol",
  "abi": [
    {
      "inputs": [
        {
          "internalType": "uint256",
          "name": "_price",
          "type": "uint256"
        }
      ],
      "stateMutability": "nonpayable",
      "type": "constructor"
    },
    {
      "anonymous": false,
      "inputs": [
        {
          "indexed": true,
          "internalType": "address",
          "name": "owner",
          "type": "address"
        },
        {
          "indexed": true,
          "internalType": "address",
          "name": "spender",
          "type": "address"
        },
        {
          "indexed": false,
          "internalType": "uint256",
          "name": "value",
          "type": "uint256"
        }
      ],
      "name": "Approval",
      "type": "event"
    },
    {
      "anonymous": false,
      "inputs": [
        {
          "indexed": true,
          "internalType": "address",
          "name": "previousOwner",
          "type": "address"
        },
        {
          "indexed": true,
          "internalType": "address",
          "name": "newOwner",
          "type": "address"
        }
      ],
      "name": "OwnershipTransferred",
      "type": "event"
    },
    {
      "anonymous": false,
      "inputs": [
        {
          "indexed": true,
          "internalType": "address",
          "name": "from",
          "type": "address"
        },
        {
          "indexed": true,
          "internalType": "address",
          "name": "to",
          "type": "address"
        },
        {
          "indexed": false,
          "internalType": "uint256",
          "name": "value",
          "type": "uint256"
        }
      ],
      "name": "Transfer",
      "type": "event"
    },
    {
      "inputs": [
        {
          "internalType": "address",
          "name": "owner",
          "type": "address"
        },
        {
          "internalType": "address",
          "name": "spender",
          "type": "address"
        }
      ],
      "name": "allowance",
      "outputs": [
        {
          "internalType": "uint256",
          "name": "",
          "type": "uint256"
        }
      ],
      "stateMutability": "view",
      "type": "function"
    },
    {
      "inputs": [
        {
          "internalType": "address",
          "name": "spender",
          "type": "address"
        },
        {
          "internalType": "uint256",
          "name": "amount",
          "type": "uint256"
        }
      ],
      "name": "approve",
      "outputs": [
        {
          "internalType": "bool",
          "name": "",
          "type": "bool"
        }
      ],
      "stateMutability": "nonpayable",
      "type": "function"
    },
    {
      "inputs": [
        {
          "internalType": "address",
          "name": "account",
          "type": "address"
        }
      ],
      "name": "balanceOf",
      "outputs": [
        {
          "internalType": "uint256",
          "name": "",
          "type": "uint256"
        }
      ],
      "stateMutability": "view",
      "type": "function"
    },
    {
      "inputs": [
        {
          "internalType": "uint256",
          "name": "amount",
          "type": "uint256"
        }
      ],
      "name": "buyTokens",
      "outputs": [],
      "stateMutability": "payable",
      "type": "function"
    },
    {
      "inputs": [],
      "name": "decimals",
      "outputs": [
        {
          "internalType": "uint8",
          "name": "",
          "type": "uint8"
        }
      ],
      "stateMutability": "view",
      "type": "function"
    },
    {
      "inputs": [
        {
          "internalType": "address",
          "name": "spender",
          "type": "address"
        },
        {
          "internalType": "uint256",
          "name": "subtractedValue",
          "type": "uint256"
        }
      ],
      "name": "decreaseAllowance",
      "outputs": [
        {
          "internalType": "bool",
          "name": "",
          "type": "bool"
        }
      ],
      "stateMutability": "nonpayable",
      "type": "function"
    },
    {
      "inputs": [
        {
          "internalType": "address",
          "name": "spender",
          "type": "address"
        },
        {
          "internalType": "uint256",
          "name": "addedValue",
          "type": "uint256"
        }
      ],
      "name": "increaseAllowance",
      "outputs": [
        {
          "internalType": "bool",
          "name": "",
          "type": "bool"
        }
      ],
      "stateMutability": "nonpayable",
      "type": "function"
    },
    {
      "inputs": [],
      "name": "maxSupply",
      "outputs": [
        {
          "internalType": "uint256",
          "name": "",
          "type": "uint256"
        }
      ],
      "stateMutability": "view",
      "type": "function"
    },
    {
      "inputs": [
        {
          "internalType": "uint256",
          "name": "amount",
          "type": "uint256"
        }
      ],
      "name": "mintRewardTokens",
      "outputs": [],
      "stateMutability": "nonpayable",
      "type": "function"
    },
    {
      "inputs": [],
      "name": "name",
      "outputs": [
        {
          "internalType": "string",
          "name": "",
          "type": "string"
        }
      ],
      "stateMutability": "view",
      "type": "function"
    },
    {
      "inputs": [],
      "name": "owner",
      "outputs": [
        {
          "internalType": "address",
          "name": "",
          "type": "address"
        }
      ],
      "stateMutability": "view",
      "type": "function"
    },
    {
      "inputs": [],
      "name": "renounceOwnership",
      "outputs": [],
      "stateMutability": "nonpayable",
      "type": "function"
    },
    {
      "inputs": [],
      "name": "rewardContract",
      "outputs": [
        {
          "internalType": "address",
          "name": "",
          "type": "address"
        }
      ],
      "stateMutability": "view",
      "type": "function"
    },
    {
      "inputs": [],
      "name": "rewardSupply",
      "outputs": [
        {
          "internalType": "uint256",
          "name": "",
          "type": "uint256"
        }
      ],
      "stateMutability": "view",
      "type": "function"
    },
    {
      "inputs": [],
      "name": "saleSupply",
      "outputs": [
        {
          "internalType": "uint256",
          "name": "",
          "type": "uint256"
        }
      ],
      "stateMutability": "view",
      "type": "function"
    },
    {
      "inputs": [
        {
          "internalType": "address",
          "name": "_rewardContract",
          "type": "address"
        }
      ],
      "name": "setRewardAddress",
      "outputs": [],
      "stateMutability": "nonpayable",
      "type": "function"
    },
    {
      "inputs": [
        {
          "internalType": "uint256",
          "name": "newPrice",
          "type": "uint256"
        }
      ],
      "name": "setTokenPrice",
      "outputs": [],
      "stateMutability": "nonpayable",
      "type": "function"
    },
    {
      "inputs": [],
      "name": "symbol",
      "outputs": [
        {
          "internalType": "string",
          "name": "",
          "type": "string"
        }
      ],
      "stateMutability": "view",
      "type": "function"
    },
    {
      "inputs": [],
      "name": "tokenPrice",
      "outputs": [
        {
          "internalType": "uint256",
          "name": "",
          "type": "uint256"
        }
      ],
      "stateMutability": "view",
      "type": "function"
    },
    {
      "inputs": [],
      "name": "totalRewardSupply",
      "outputs": [
        {
          "internalType": "uint256",
          "name": "",
          "type": "uint256"
        }
      ],
      "stateMutability": "view",
      "type": "function"
    },
    {
      "inputs": [],
      "name": "totalSaleSupply",
      "outputs": [
        {
          "internalType": "uint256",
          "name": "",
          "type": "uint256"
        }
      ],
      "stateMutability": "view",
      "type": "function"
    },
    {
      "inputs": [],
      "name": "totalSupply",
      "outputs": [
        {
          "internalType": "uint256",
          "name": "",
          "type": "uint256"
        }
      ],
      "stateMutability": "view",
      "type": "function"
    },
    {
      "inputs": [
        {
          "internalType": "address",
          "name": "to",
          "type": "address"
        },
        {
          "internalType": "uint256",
          "name": "amount",
          "type": "uint256"
        }
      ],
      "name": "transfer",
      "outputs": [
        {
          "internalType": "bool",
          "name": "",
          "type": "bool"
        }
      ],
      "stateMutability": "nonpayable",
      "type": "function"
    },
    {
      "inputs": [
        {
          "internalType": "address",
          "name": "from",
          "type": "address"
        },
        {
          "internalType": "address",
          "name": "to",
          "type": "address"
        },
        {
          "internalType": "uint256",
          "name": "amount",
          "type": "uint256"
        }
      ],
      "name": "transferFrom",
      "outputs": [
        {
          "internalType": "bool",
          "name": "",
          "type": "bool"
        }
      ],
      "stateMutability": "nonpayable",
      "type": "function"
    },
    {
      "inputs": [
        {
          "internalType": "address",
          "name": "newOwner",
          "type": "address"
        }
      ],
      "name": "transferOwnership",
      "outputs": [],
      "stateMutability": "nonpayable",
      "type": "function"
    },
    {
      "inputs": [
        {
          "internalType": "address payable",
          "name": "_address",
          "type": "address"
        }
      ],
      "name": "withDraw",
      "outputs": [],
      "stateMutability": "nonpayable",
      "type": "function"
    }
  ],
  "bytecode": "0x60806040526000600660006101000a81548173ffffffffffffffffffffffffffffffffffffffff021916908373ffffffffffffffffffffffffffffffffffffffff1602179055506000600755600060085560006009553480156200006257600080fd5b5060405162002509380380620025098339818101604052810190620000889190620002eb565b6040518060400160405280600981526020017f456c756d546f6b656e00000000000000000000000000000000000000000000008152506040518060400160405280600481526020017f456c756d0000000000000000000000000000000000000000000000000000000081525081600390805190602001906200010c92919062000224565b5080600490805190602001906200012592919062000224565b505050620001486200013c6200015660201b60201c565b6200015e60201b60201c565b8060098190555050620003a0565b600033905090565b6000600560009054906101000a900473ffffffffffffffffffffffffffffffffffffffff16905081600560006101000a81548173ffffffffffffffffffffffffffffffffffffffff021916908373ffffffffffffffffffffffffffffffffffffffff1602179055508173ffffffffffffffffffffffffffffffffffffffff168173ffffffffffffffffffffffffffffffffffffffff167f8be0079c531659141344cd1fd0a4f28419497f9722a3daafe3b4186f6b6457e060405160405180910390a35050565b828054620002329062000321565b90600052602060002090601f016020900481019282620002565760008555620002a2565b82601f106200027157805160ff1916838001178555620002a2565b82800160010185558215620002a2579182015b82811115620002a157825182559160200191906001019062000284565b5b509050620002b19190620002b5565b5090565b5b80821115620002d0576000816000905550600101620002b6565b5090565b600081519050620002e58162000386565b92915050565b600060208284031215620002fe57600080fd5b60006200030e84828501620002d4565b91505092915050565b6000819050919050565b600060028204905060018216806200033a57607f821691505b6020821081141562000351576200035062000357565b5b50919050565b7f4e487b7100000000000000000000000000000000000000000000000000000000600052602260045260246000fd5b620003918162000317565b81146200039d57600080fd5b50565b61215980620003b06000396000f3fe6080604052600436106101815760003560e01c806370a08231116100d157806395d89b411161008a578063a96af0f411610064578063a96af0f414610579578063d5abeb01146105a4578063dd62ed3e146105cf578063f2fde38b1461060c57610181565b806395d89b41146104d4578063a457c2d7146104ff578063a9059cbb1461053c57610181565b806370a08231146103d4578063715018a61461041157806378231978146104285780637ff9b596146104535780638a8a759e1461047e5780638da5cb5b146104a957610181565b806334b4117d1161013e5780635e00e679116101185780635e00e6791461032c5780636a61e5fc146103555780636b0c341b1461037e5780636ea69d62146103a957610181565b806334b4117d146102aa5780633610724e146102d357806339509351146102ef57610181565b806306fdde0314610186578063095ea7b3146101b15780630a67d2c7146101ee57806318160ddd1461021757806323b872dd14610242578063313ce5671461027f575b600080fd5b34801561019257600080fd5b5061019b610635565b6040516101a891906118cb565b60405180910390f35b3480156101bd57600080fd5b506101d860048036038101906101d391906115d1565b6106c7565b6040516101e591906118b0565b60405180910390f35b3480156101fa57600080fd5b506102156004803603810190610210919061151d565b6106ea565b005b34801561022357600080fd5b5061022c61073c565b6040516102399190611aad565b60405180910390f35b34801561024e57600080fd5b5061026960048036038101906102649190611582565b610746565b60405161027691906118b0565b60405180910390f35b34801561028b57600080fd5b50610294610775565b6040516102a19190611ac8565b60405180910390f35b3480156102b657600080fd5b506102d160048036038101906102cc919061160d565b61077e565b005b6102ed60048036038101906102e8919061160d565b610888565b005b3480156102fb57600080fd5b50610316600480360381019061031191906115d1565b610952565b60405161032391906118b0565b60405180910390f35b34801561033857600080fd5b50610353600480360381019061034e91906114f4565b610989565b005b34801561036157600080fd5b5061037c6004803603810190610377919061160d565b6109d5565b005b34801561038a57600080fd5b506103936109e7565b6040516103a09190611aad565b60405180910390f35b3480156103b557600080fd5b506103be6109ed565b6040516103cb9190611895565b60405180910390f35b3480156103e057600080fd5b506103fb60048036038101906103f691906114f4565b610a13565b6040516104089190611aad565b60405180910390f35b34801561041d57600080fd5b50610426610a5b565b005b34801561043457600080fd5b5061043d610a6f565b60405161044a9190611aad565b60405180910390f35b34801561045f57600080fd5b50610468610a90565b6040516104759190611aad565b60405180910390f35b34801561048a57600080fd5b50610493610a96565b6040516104a09190611aad565b60405180910390f35b3480156104b557600080fd5b506104be610ab7565b6040516104cb9190611895565b60405180910390f35b3480156104e057600080fd5b506104e9610ae1565b6040516104f691906118cb565b60405180910390f35b34801561050b57600080fd5b50610526600480360381019061052191906115d1565b610b73565b60405161053391906118b0565b60405180910390f35b34801561054857600080fd5b50610563600480360381019061055e91906115d1565b610bea565b60405161057091906118b0565b60405180910390f35b34801561058557600080fd5b5061058e610c0d565b60405161059b9190611aad565b60405180910390f35b3480156105b057600080fd5b506105b9610c13565b6040516105c69190611aad565b60405180910390f35b3480156105db57600080fd5b506105f660048036038101906105f19190611546565b610c1c565b6040516106039190611aad565b60405180910390f35b34801561061857600080fd5b50610633600480360381019061062e91906114f4565b610ca3565b005b60606003805461064490611c7a565b80601f016020809104026020016040519081016040528092919081815260200182805461067090611c7a565b80156106bd5780601f10610692576101008083540402835291602001916106bd565b820191906000526020600020905b8154815290600101906020018083116106a057829003601f168201915b5050505050905090565b6000806106d2610d27565b90506106df818585610d2f565b600191505092915050565b6106f2610efa565b8073ffffffffffffffffffffffffffffffffffffffff166108fc479081150290604051600060405180830381858888f19350505050158015610738573d6000803e3d6000fd5b5050565b6000600254905090565b600080610751610d27565b905061075e858285610f78565b610769858585611004565b60019150509392505050565b60006012905090565b600660009054906101000a900473ffffffffffffffffffffffffffffffffffffffff1673ffffffffffffffffffffffffffffffffffffffff163373ffffffffffffffffffffffffffffffffffffffff161461080e576040517f08c379a00000000000000000000000000000000000000000000000000000000081526004016108059061190d565b60405180910390fd5b600a60076404a817c8006108229190611b86565b61082c9190611b55565b8160075461083a9190611aff565b111561087b576040517f08c379a0000000000000000000000000000000000000000000000000000000008152600401610872906119ed565b60405180910390fd5b6108853382611285565b50565b600954816108969190611b86565b3410156108d8576040517f08c379a00000000000000000000000000000000000000000000000000000000081526004016108cf9061196d565b60405180910390fd5b600a60016404a817c8006108ec9190611b86565b6108f69190611b55565b816008546109049190611aff565b1115610945576040517f08c379a000000000000000000000000000000000000000000000000000000000815260040161093c90611a0d565b60405180910390fd5b61094f3382611285565b50565b60008061095d610d27565b905061097e81858561096f8589610c1c565b6109799190611aff565b610d2f565b600191505092915050565b610991610efa565b80600660006101000a81548173ffffffffffffffffffffffffffffffffffffffff021916908373ffffffffffffffffffffffffffffffffffffffff16021790555050565b6109dd610efa565b8060098190555050565b60075481565b600660009054906101000a900473ffffffffffffffffffffffffffffffffffffffff1681565b60008060008373ffffffffffffffffffffffffffffffffffffffff1673ffffffffffffffffffffffffffffffffffffffff168152602001908152602001600020549050919050565b610a63610efa565b610a6d60006113e5565b565b600a60016404a817c800610a839190611b86565b610a8d9190611b55565b81565b60095481565b600a60076404a817c800610aaa9190611b86565b610ab49190611b55565b81565b6000600560009054906101000a900473ffffffffffffffffffffffffffffffffffffffff16905090565b606060048054610af090611c7a565b80601f0160208091040260200160405190810160405280929190818152602001828054610b1c90611c7a565b8015610b695780601f10610b3e57610100808354040283529160200191610b69565b820191906000526020600020905b815481529060010190602001808311610b4c57829003601f168201915b5050505050905090565b600080610b7e610d27565b90506000610b8c8286610c1c565b905083811015610bd1576040517f08c379a0000000000000000000000000000000000000000000000000000000008152600401610bc890611a6d565b60405180910390fd5b610bde8286868403610d2f565b60019250505092915050565b600080610bf5610d27565b9050610c02818585611004565b600191505092915050565b60085481565b6404a817c80081565b6000600160008473ffffffffffffffffffffffffffffffffffffffff1673ffffffffffffffffffffffffffffffffffffffff16815260200190815260200160002060008373ffffffffffffffffffffffffffffffffffffffff1673ffffffffffffffffffffffffffffffffffffffff16815260200190815260200160002054905092915050565b610cab610efa565b600073ffffffffffffffffffffffffffffffffffffffff168173ffffffffffffffffffffffffffffffffffffffff161415610d1b576040517f08c379a0000000000000000000000000000000000000000000000000000000008152600401610d129061192d565b60405180910390fd5b610d24816113e5565b50565b600033905090565b600073ffffffffffffffffffffffffffffffffffffffff168373ffffffffffffffffffffffffffffffffffffffff161415610d9f576040517f08c379a0000000000000000000000000000000000000000000000000000000008152600401610d9690611a4d565b60405180910390fd5b600073ffffffffffffffffffffffffffffffffffffffff168273ffffffffffffffffffffffffffffffffffffffff161415610e0f576040517f08c379a0000000000000000000000000000000000000000000000000000000008152600401610e069061194d565b60405180910390fd5b80600160008573ffffffffffffffffffffffffffffffffffffffff1673ffffffffffffffffffffffffffffffffffffffff16815260200190815260200160002060008473ffffffffffffffffffffffffffffffffffffffff1673ffffffffffffffffffffffffffffffffffffffff168152602001908152602001600020819055508173ffffffffffffffffffffffffffffffffffffffff168373ffffffffffffffffffffffffffffffffffffffff167f8c5be1e5ebec7d5bd14f71427d1e84f3dd0314c0f7b2291e5b200ac8c7c3b92583604051610eed9190611aad565b60405180910390a3505050565b610f02610d27565b73ffffffffffffffffffffffffffffffffffffffff16610f20610ab7565b73ffffffffffffffffffffffffffffffffffffffff1614610f76576040517f08c379a0000000000000000000000000000000000000000000000000000000008152600401610f6d906119cd565b60405180910390fd5b565b6000610f848484610c1c565b90507fffffffffffffffffffffffffffffffffffffffffffffffffffffffffffffffff8114610ffe5781811015610ff0576040517f08c379a0000000000000000000000000000000000000000000000000000000008152600401610fe79061198d565b60405180910390fd5b610ffd8484848403610d2f565b5b50505050565b600073ffffffffffffffffffffffffffffffffffffffff168373ffffffffffffffffffffffffffffffffffffffff161415611074576040517f08c379a000000000000000000000000000000000000000000000000000000000815260040161106b90611a2d565b60405180910390fd5b600073ffffffffffffffffffffffffffffffffffffffff168273ffffffffffffffffffffffffffffffffffffffff1614156110e4576040517f08c379a00000000000000000000000000000000000000000000000000000000081526004016110db906118ed565b60405180910390fd5b6110ef8383836114ab565b60008060008573ffffffffffffffffffffffffffffffffffffffff1673ffffffffffffffffffffffffffffffffffffffff16815260200190815260200160002054905081811015611175576040517f08c379a000000000000000000000000000000000000000000000000000000000815260040161116c906119ad565b60405180910390fd5b8181036000808673ffffffffffffffffffffffffffffffffffffffff1673ffffffffffffffffffffffffffffffffffffffff16815260200190815260200160002081905550816000808573ffffffffffffffffffffffffffffffffffffffff1673ffffffffffffffffffffffffffffffffffffffff16815260200190815260200160002060008282546112089190611aff565b925050819055508273ffffffffffffffffffffffffffffffffffffffff168473ffffffffffffffffffffffffffffffffffffffff167fddf252ad1be2c89b69c2b068fc378daa952ba7f163c4a11628f55a4df523b3ef8460405161126c9190611aad565b60405180910390a361127f8484846114b0565b50505050565b600073ffffffffffffffffffffffffffffffffffffffff168273ffffffffffffffffffffffffffffffffffffffff1614156112f5576040517f08c379a00000000000000000000000000000000000000000000000000000000081526004016112ec90611a8d565b60405180910390fd5b611301600083836114ab565b80600260008282546113139190611aff565b92505081905550806000808473ffffffffffffffffffffffffffffffffffffffff1673ffffffffffffffffffffffffffffffffffffffff16815260200190815260200160002060008282546113689190611aff565b925050819055508173ffffffffffffffffffffffffffffffffffffffff16600073ffffffffffffffffffffffffffffffffffffffff167fddf252ad1be2c89b69c2b068fc378daa952ba7f163c4a11628f55a4df523b3ef836040516113cd9190611aad565b60405180910390a36113e1600083836114b0565b5050565b6000600560009054906101000a900473ffffffffffffffffffffffffffffffffffffffff16905081600560006101000a81548173ffffffffffffffffffffffffffffffffffffffff021916908373ffffffffffffffffffffffffffffffffffffffff1602179055508173ffffffffffffffffffffffffffffffffffffffff168173ffffffffffffffffffffffffffffffffffffffff167f8be0079c531659141344cd1fd0a4f28419497f9722a3daafe3b4186f6b6457e060405160405180910390a35050565b505050565b505050565b6000813590506114c4816120de565b92915050565b6000813590506114d9816120f5565b92915050565b6000813590506114ee8161210c565b92915050565b60006020828403121561150657600080fd5b6000611514848285016114b5565b91505092915050565b60006020828403121561152f57600080fd5b600061153d848285016114ca565b91505092915050565b6000806040838503121561155957600080fd5b6000611567858286016114b5565b9250506020611578858286016114b5565b9150509250929050565b60008060006060848603121561159757600080fd5b60006115a5868287016114b5565b93505060206115b6868287016114b5565b92505060406115c7868287016114df565b9150509250925092565b600080604083850312156115e457600080fd5b60006115f2858286016114b5565b9250506020611603858286016114df565b9150509250929050565b60006020828403121561161f57600080fd5b600061162d848285016114df565b91505092915050565b61163f81611be0565b82525050565b61164e81611c04565b82525050565b600061165f82611ae3565b6116698185611aee565b9350611679818560208601611c47565b61168281611d39565b840191505092915050565b600061169a602383611aee565b91506116a582611d4a565b604082019050919050565b60006116bd602583611aee565b91506116c882611d99565b604082019050919050565b60006116e0602683611aee565b91506116eb82611de8565b604082019050919050565b6000611703602283611aee565b915061170e82611e37565b604082019050919050565b6000611726601383611aee565b915061173182611e86565b602082019050919050565b6000611749601d83611aee565b915061175482611eaf565b602082019050919050565b600061176c602683611aee565b915061177782611ed8565b604082019050919050565b600061178f602083611aee565b915061179a82611f27565b602082019050919050565b60006117b2602d83611aee565b91506117bd82611f50565b604082019050919050565b60006117d5601383611aee565b91506117e082611f9f565b602082019050919050565b60006117f8602583611aee565b915061180382611fc8565b604082019050919050565b600061181b602483611aee565b915061182682612017565b604082019050919050565b600061183e602583611aee565b915061184982612066565b604082019050919050565b6000611861601f83611aee565b915061186c826120b5565b602082019050919050565b61188081611c30565b82525050565b61188f81611c3a565b82525050565b60006020820190506118aa6000830184611636565b92915050565b60006020820190506118c56000830184611645565b92915050565b600060208201905081810360008301526118e58184611654565b905092915050565b600060208201905081810360008301526119068161168d565b9050919050565b60006020820190508181036000830152611926816116b0565b9050919050565b60006020820190508181036000830152611946816116d3565b9050919050565b60006020820190508181036000830152611966816116f6565b9050919050565b6000602082019050818103600083015261198681611719565b9050919050565b600060208201905081810360008301526119a68161173c565b9050919050565b600060208201905081810360008301526119c68161175f565b9050919050565b600060208201905081810360008301526119e681611782565b9050919050565b60006020820190508181036000830152611a06816117a5565b9050919050565b60006020820190508181036000830152611a26816117c8565b9050919050565b60006020820190508181036000830152611a46816117eb565b9050919050565b60006020820190508181036000830152611a668161180e565b9050919050565b60006020820190508181036000830152611a8681611831565b9050919050565b60006020820190508181036000830152611aa681611854565b9050919050565b6000602082019050611ac26000830184611877565b92915050565b6000602082019050611add6000830184611886565b92915050565b600081519050919050565b600082825260208201905092915050565b6000611b0a82611c30565b9150611b1583611c30565b9250827fffffffffffffffffffffffffffffffffffffffffffffffffffffffffffffffff03821115611b4a57611b49611cac565b5b828201905092915050565b6000611b6082611c30565b9150611b6b83611c30565b925082611b7b57611b7a611cdb565b5b828204905092915050565b6000611b9182611c30565b9150611b9c83611c30565b9250817fffffffffffffffffffffffffffffffffffffffffffffffffffffffffffffffff0483118215151615611bd557611bd4611cac565b5b828202905092915050565b6000611beb82611c10565b9050919050565b6000611bfd82611c10565b9050919050565b60008115159050919050565b600073ffffffffffffffffffffffffffffffffffffffff82169050919050565b6000819050919050565b600060ff82169050919050565b60005b83811015611c65578082015181840152602081019050611c4a565b83811115611c74576000848401525b50505050565b60006002820490506001821680611c9257607f821691505b60208210811415611ca657611ca5611d0a565b5b50919050565b7f4e487b7100000000000000000000000000000000000000000000000000000000600052601160045260246000fd5b7f4e487b7100000000000000000000000000000000000000000000000000000000600052601260045260246000fd5b7f4e487b7100000000000000000000000000000000000000000000000000000000600052602260045260246000fd5b6000601f19601f8301169050919050565b7f45524332303a207472616e7366657220746f20746865207a65726f206164647260008201527f6573730000000000000000000000000000000000000000000000000000000000602082015250565b7f4f6e6c792072657761726420636f6e74726163742063616e206d696e7420746f60008201527f6b656e732e000000000000000000000000000000000000000000000000000000602082015250565b7f4f776e61626c653a206e6577206f776e657220697320746865207a65726f206160008201527f6464726573730000000000000000000000000000000000000000000000000000602082015250565b7f45524332303a20617070726f766520746f20746865207a65726f20616464726560008201527f7373000000000000000000000000000000000000000000000000000000000000602082015250565b7f4e6f7420656e6f756768207061796d656e742e00000000000000000000000000600082015250565b7f45524332303a20696e73756666696369656e7420616c6c6f77616e6365000000600082015250565b7f45524332303a207472616e7366657220616d6f756e742065786365656473206260008201527f616c616e63650000000000000000000000000000000000000000000000000000602082015250565b7f4f776e61626c653a2063616c6c6572206973206e6f7420746865206f776e6572600082015250565b7f537570706c792073686f756c64206265206c657373207468616e20746f74616c60008201527f526577617264537570706c792e00000000000000000000000000000000000000602082015250565b7f4e6f7420656e6f7567682062616c616e63652e00000000000000000000000000600082015250565b7f45524332303a207472616e736665722066726f6d20746865207a65726f20616460008201527f6472657373000000000000000000000000000000000000000000000000000000602082015250565b7f45524332303a20617070726f76652066726f6d20746865207a65726f2061646460008201527f7265737300000000000000000000000000000000000000000000000000000000602082015250565b7f45524332303a2064656372656173656420616c6c6f77616e63652062656c6f7760008201527f207a65726f000000000000000000000000000000000000000000000000000000602082015250565b7f45524332303a206d696e7420746f20746865207a65726f206164647265737300600082015250565b6120e781611be0565b81146120f257600080fd5b50565b6120fe81611bf2565b811461210957600080fd5b50565b61211581611c30565b811461212057600080fd5b5056fea2646970667358221220d2bf7a3e87c6eb61e80b0ba744a23114dd277a0bf89f2f776c217fd1d2b72c4364736f6c63430008040033",
  "linkReferences": {},
  "deployedLinkReferences": {}
}