{
  "_format": "hh-sol-artifact-1",
  "contractName": "ElumToken",
  "sourceName": "contracts/ElumToken.sol",
  "abi": [
    {
      "inputs": [
        {
          "internalType": "uint256",
          "name": "_price",
          "type": "uint256"
        }
      ],
      "stateMutability": "nonpayable",
      "type": "constructor"
    },
    {
      "anonymous": false,
      "inputs": [
        {
          "indexed": true,
          "internalType": "address",
          "name": "owner",
          "type": "address"
        },
        {
          "indexed": true,
          "internalType": "address",
          "name": "spender",
          "type": "address"
        },
        {
          "indexed": false,
          "internalType": "uint256",
          "name": "value",
          "type": "uint256"
        }
      ],
      "name": "Approval",
      "type": "event"
    },
    {
      "anonymous": false,
      "inputs": [
        {
          "indexed": true,
          "internalType": "address",
          "name": "previousOwner",
          "type": "address"
        },
        {
          "indexed": true,
          "internalType": "address",
          "name": "newOwner",
          "type": "address"
        }
      ],
      "name": "OwnershipTransferred",
      "type": "event"
    },
    {
      "anonymous": false,
      "inputs": [
        {
          "indexed": true,
          "internalType": "address",
          "name": "from",
          "type": "address"
        },
        {
          "indexed": true,
          "internalType": "address",
          "name": "to",
          "type": "address"
        },
        {
          "indexed": false,
          "internalType": "uint256",
          "name": "value",
          "type": "uint256"
        }
      ],
      "name": "Transfer",
      "type": "event"
    },
    {
      "inputs": [
        {
          "internalType": "address",
          "name": "owner",
          "type": "address"
        },
        {
          "internalType": "address",
          "name": "spender",
          "type": "address"
        }
      ],
      "name": "allowance",
      "outputs": [
        {
          "internalType": "uint256",
          "name": "",
          "type": "uint256"
        }
      ],
      "stateMutability": "view",
      "type": "function"
    },
    {
      "inputs": [
        {
          "internalType": "address",
          "name": "spender",
          "type": "address"
        },
        {
          "internalType": "uint256",
          "name": "amount",
          "type": "uint256"
        }
      ],
      "name": "approve",
      "outputs": [
        {
          "internalType": "bool",
          "name": "",
          "type": "bool"
        }
      ],
      "stateMutability": "nonpayable",
      "type": "function"
    },
    {
      "inputs": [
        {
          "internalType": "address",
          "name": "account",
          "type": "address"
        }
      ],
      "name": "balanceOf",
      "outputs": [
        {
          "internalType": "uint256",
          "name": "",
          "type": "uint256"
        }
      ],
      "stateMutability": "view",
      "type": "function"
    },
    {
      "inputs": [
        {
          "internalType": "uint256",
          "name": "amount",
          "type": "uint256"
        }
      ],
      "name": "buyTokens",
      "outputs": [],
      "stateMutability": "payable",
      "type": "function"
    },
    {
      "inputs": [],
      "name": "decimals",
      "outputs": [
        {
          "internalType": "uint8",
          "name": "",
          "type": "uint8"
        }
      ],
      "stateMutability": "view",
      "type": "function"
    },
    {
      "inputs": [
        {
          "internalType": "address",
          "name": "spender",
          "type": "address"
        },
        {
          "internalType": "uint256",
          "name": "subtractedValue",
          "type": "uint256"
        }
      ],
      "name": "decreaseAllowance",
      "outputs": [
        {
          "internalType": "bool",
          "name": "",
          "type": "bool"
        }
      ],
      "stateMutability": "nonpayable",
      "type": "function"
    },
    {
      "inputs": [
        {
          "internalType": "address",
          "name": "spender",
          "type": "address"
        },
        {
          "internalType": "uint256",
          "name": "addedValue",
          "type": "uint256"
        }
      ],
      "name": "increaseAllowance",
      "outputs": [
        {
          "internalType": "bool",
          "name": "",
          "type": "bool"
        }
      ],
      "stateMutability": "nonpayable",
      "type": "function"
    },
    {
      "inputs": [],
      "name": "maxSupply",
      "outputs": [
        {
          "internalType": "uint256",
          "name": "",
          "type": "uint256"
        }
      ],
      "stateMutability": "view",
      "type": "function"
    },
    {
      "inputs": [
        {
          "internalType": "uint256",
          "name": "amount",
          "type": "uint256"
        }
      ],
      "name": "mintRewardTokens",
      "outputs": [],
      "stateMutability": "nonpayable",
      "type": "function"
    },
    {
      "inputs": [],
      "name": "name",
      "outputs": [
        {
          "internalType": "string",
          "name": "",
          "type": "string"
        }
      ],
      "stateMutability": "view",
      "type": "function"
    },
    {
      "inputs": [],
      "name": "owner",
      "outputs": [
        {
          "internalType": "address",
          "name": "",
          "type": "address"
        }
      ],
      "stateMutability": "view",
      "type": "function"
    },
    {
      "inputs": [],
      "name": "renounceOwnership",
      "outputs": [],
      "stateMutability": "nonpayable",
      "type": "function"
    },
    {
      "inputs": [],
      "name": "rewardContract",
      "outputs": [
        {
          "internalType": "address",
          "name": "",
          "type": "address"
        }
      ],
      "stateMutability": "view",
      "type": "function"
    },
    {
      "inputs": [],
      "name": "rewardSupply",
      "outputs": [
        {
          "internalType": "uint256",
          "name": "",
          "type": "uint256"
        }
      ],
      "stateMutability": "view",
      "type": "function"
    },
    {
      "inputs": [],
      "name": "saleSupply",
      "outputs": [
        {
          "internalType": "uint256",
          "name": "",
          "type": "uint256"
        }
      ],
      "stateMutability": "view",
      "type": "function"
    },
    {
      "inputs": [
        {
          "internalType": "address",
          "name": "_rewardContract",
          "type": "address"
        }
      ],
      "name": "setRewardAddress",
      "outputs": [],
      "stateMutability": "nonpayable",
      "type": "function"
    },
    {
      "inputs": [
        {
          "internalType": "uint256",
          "name": "newPrice",
          "type": "uint256"
        }
      ],
      "name": "setTokenPrice",
      "outputs": [],
      "stateMutability": "nonpayable",
      "type": "function"
    },
    {
      "inputs": [],
      "name": "symbol",
      "outputs": [
        {
          "internalType": "string",
          "name": "",
          "type": "string"
        }
      ],
      "stateMutability": "view",
      "type": "function"
    },
    {
      "inputs": [],
      "name": "tokenPrice",
      "outputs": [
        {
          "internalType": "uint256",
          "name": "",
          "type": "uint256"
        }
      ],
      "stateMutability": "view",
      "type": "function"
    },
    {
      "inputs": [],
      "name": "totalRewardSupply",
      "outputs": [
        {
          "internalType": "uint256",
          "name": "",
          "type": "uint256"
        }
      ],
      "stateMutability": "view",
      "type": "function"
    },
    {
      "inputs": [],
      "name": "totalSaleSupply",
      "outputs": [
        {
          "internalType": "uint256",
          "name": "",
          "type": "uint256"
        }
      ],
      "stateMutability": "view",
      "type": "function"
    },
    {
      "inputs": [],
      "name": "totalSupply",
      "outputs": [
        {
          "internalType": "uint256",
          "name": "",
          "type": "uint256"
        }
      ],
      "stateMutability": "view",
      "type": "function"
    },
    {
      "inputs": [
        {
          "internalType": "address",
          "name": "to",
          "type": "address"
        },
        {
          "internalType": "uint256",
          "name": "amount",
          "type": "uint256"
        }
      ],
      "name": "transfer",
      "outputs": [
        {
          "internalType": "bool",
          "name": "",
          "type": "bool"
        }
      ],
      "stateMutability": "nonpayable",
      "type": "function"
    },
    {
      "inputs": [
        {
          "internalType": "address",
          "name": "from",
          "type": "address"
        },
        {
          "internalType": "address",
          "name": "to",
          "type": "address"
        },
        {
          "internalType": "uint256",
          "name": "amount",
          "type": "uint256"
        }
      ],
      "name": "transferFrom",
      "outputs": [
        {
          "internalType": "bool",
          "name": "",
          "type": "bool"
        }
      ],
      "stateMutability": "nonpayable",
      "type": "function"
    },
    {
      "inputs": [
        {
          "internalType": "address",
          "name": "newOwner",
          "type": "address"
        }
      ],
      "name": "transferOwnership",
      "outputs": [],
      "stateMutability": "nonpayable",
      "type": "function"
    },
    {
      "inputs": [],
      "name": "unit",
      "outputs": [
        {
          "internalType": "uint256",
          "name": "",
          "type": "uint256"
        }
      ],
      "stateMutability": "view",
      "type": "function"
    },
    {
      "inputs": [
        {
          "internalType": "address payable",
          "name": "_address",
          "type": "address"
        }
      ],
      "name": "withDraw",
      "outputs": [],
      "stateMutability": "nonpayable",
      "type": "function"
    }
  ],
  "bytecode": "0x60806040526000600660006101000a81548173ffffffffffffffffffffffffffffffffffffffff021916908373ffffffffffffffffffffffffffffffffffffffff1602179055506000600755600060085560006009553480156200006257600080fd5b50604051620026cd380380620026cd8339818101604052810190620000889190620002eb565b6040518060400160405280600981526020017f456c756d546f6b656e00000000000000000000000000000000000000000000008152506040518060400160405280600481526020017f456c756d0000000000000000000000000000000000000000000000000000000081525081600390805190602001906200010c92919062000224565b5080600490805190602001906200012592919062000224565b505050620001486200013c6200015660201b60201c565b6200015e60201b60201c565b8060098190555050620003a0565b600033905090565b6000600560009054906101000a900473ffffffffffffffffffffffffffffffffffffffff16905081600560006101000a81548173ffffffffffffffffffffffffffffffffffffffff021916908373ffffffffffffffffffffffffffffffffffffffff1602179055508173ffffffffffffffffffffffffffffffffffffffff168173ffffffffffffffffffffffffffffffffffffffff167f8be0079c531659141344cd1fd0a4f28419497f9722a3daafe3b4186f6b6457e060405160405180910390a35050565b828054620002329062000321565b90600052602060002090601f016020900481019282620002565760008555620002a2565b82601f106200027157805160ff1916838001178555620002a2565b82800160010185558215620002a2579182015b82811115620002a157825182559160200191906001019062000284565b5b509050620002b19190620002b5565b5090565b5b80821115620002d0576000816000905550600101620002b6565b5090565b600081519050620002e58162000386565b92915050565b600060208284031215620002fe57600080fd5b60006200030e84828501620002d4565b91505092915050565b6000819050919050565b600060028204905060018216806200033a57607f821691505b6020821081141562000351576200035062000357565b5b50919050565b7f4e487b7100000000000000000000000000000000000000000000000000000000600052602260045260246000fd5b620003918162000317565b81146200039d57600080fd5b50565b61231d80620003b06000396000f3fe60806040526004361061019c5760003560e01c806370a08231116100ec57806395d89b411161008a578063a96af0f411610064578063a96af0f4146105bf578063d5abeb01146105ea578063dd62ed3e14610615578063f2fde38b146106525761019c565b806395d89b411461051a578063a457c2d714610545578063a9059cbb146105825761019c565b80637ff9b596116100c65780637ff9b5961461046e5780638a8a759e146104995780638da5cb5b146104c4578063907af6c0146104ef5761019c565b806370a08231146103ef578063715018a61461042c57806378231978146104435761019c565b806334b4117d116101595780635e00e679116101335780635e00e679146103475780636a61e5fc146103705780636b0c341b146103995780636ea69d62146103c45761019c565b806334b4117d146102c55780633610724e146102ee578063395093511461030a5761019c565b806306fdde03146101a1578063095ea7b3146101cc5780630a67d2c71461020957806318160ddd1461023257806323b872dd1461025d578063313ce5671461029a575b600080fd5b3480156101ad57600080fd5b506101b661067b565b6040516101c39190611a15565b60405180910390f35b3480156101d857600080fd5b506101f360048036038101906101ee91906116f8565b61070d565b60405161020091906119fa565b60405180910390f35b34801561021557600080fd5b50610230600480360381019061022b9190611644565b610730565b005b34801561023e57600080fd5b50610247610782565b6040516102549190611c17565b60405180910390f35b34801561026957600080fd5b50610284600480360381019061027f91906116a9565b61078c565b60405161029191906119fa565b60405180910390f35b3480156102a657600080fd5b506102af6107bb565b6040516102bc9190611c32565b60405180910390f35b3480156102d157600080fd5b506102ec60048036038101906102e79190611734565b6107c4565b005b61030860048036038101906103039190611734565b6108e1565b005b34801561031657600080fd5b50610331600480360381019061032c91906116f8565b610a34565b60405161033e91906119fa565b60405180910390f35b34801561035357600080fd5b5061036e6004803603810190610369919061161b565b610a6b565b005b34801561037c57600080fd5b5061039760048036038101906103929190611734565b610ab7565b005b3480156103a557600080fd5b506103ae610ac9565b6040516103bb9190611c17565b60405180910390f35b3480156103d057600080fd5b506103d9610acf565b6040516103e691906119df565b60405180910390f35b3480156103fb57600080fd5b506104166004803603810190610411919061161b565b610af5565b6040516104239190611c17565b60405180910390f35b34801561043857600080fd5b50610441610b3d565b005b34801561044f57600080fd5b50610458610b51565b6040516104659190611c17565b60405180910390f35b34801561047a57600080fd5b50610483610b85565b6040516104909190611c17565b60405180910390f35b3480156104a557600080fd5b506104ae610b8b565b6040516104bb9190611c17565b60405180910390f35b3480156104d057600080fd5b506104d9610bbf565b6040516104e691906119df565b60405180910390f35b3480156104fb57600080fd5b50610504610be9565b6040516105119190611c17565b60405180910390f35b34801561052657600080fd5b5061052f610bf5565b60405161053c9190611a15565b60405180910390f35b34801561055157600080fd5b5061056c600480360381019061056791906116f8565b610c87565b60405161057991906119fa565b60405180910390f35b34801561058e57600080fd5b506105a960048036038101906105a491906116f8565b610cfe565b6040516105b691906119fa565b60405180910390f35b3480156105cb57600080fd5b506105d4610d21565b6040516105e19190611c17565b60405180910390f35b3480156105f657600080fd5b506105ff610d27565b60405161060c9190611c17565b60405180910390f35b34801561062157600080fd5b5061063c6004803603810190610637919061166d565b610d43565b6040516106499190611c17565b60405180910390f35b34801561065e57600080fd5b506106796004803603810190610674919061161b565b610dca565b005b60606003805461068a90611de4565b80601f01602080910402602001604051908101604052809291908181526020018280546106b690611de4565b80156107035780601f106106d857610100808354040283529160200191610703565b820191906000526020600020905b8154815290600101906020018083116106e657829003601f168201915b5050505050905090565b600080610718610e4e565b9050610725818585610e56565b600191505092915050565b610738611021565b8073ffffffffffffffffffffffffffffffffffffffff166108fc479081150290604051600060405180830381858888f1935050505015801561077e573d6000803e3d6000fd5b5050565b6000600254905090565b600080610797610e4e565b90506107a485828561109f565b6107af85858561112b565b60019150509392505050565b60006012905090565b600660009054906101000a900473ffffffffffffffffffffffffffffffffffffffff1673ffffffffffffffffffffffffffffffffffffffff163373ffffffffffffffffffffffffffffffffffffffff1614610854576040517f08c379a000000000000000000000000000000000000000000000000000000000815260040161084b90611a57565b60405180910390fd5b600a6007670de0b6b3a76400006404a817c8006108719190611cf0565b61087b9190611cf0565b6108859190611cbf565b816007546108939190611c69565b11156108d4576040517f08c379a00000000000000000000000000000000000000000000000000000000081526004016108cb90611b37565b60405180910390fd5b6108de33826113ac565b50565b6000670de0b6b3a7640000600954836108fa9190611cf0565b6109049190611e16565b14610944576040517f08c379a000000000000000000000000000000000000000000000000000000000815260040161093b90611bb7565b60405180910390fd5b670de0b6b3a76400006009548261095b9190611cf0565b6109659190611cbf565b3410156109a7576040517f08c379a000000000000000000000000000000000000000000000000000000000815260040161099e90611ab7565b60405180910390fd5b600a6001670de0b6b3a76400006404a817c8006109c49190611cf0565b6109ce9190611cf0565b6109d89190611cbf565b816008546109e69190611c69565b1115610a27576040517f08c379a0000000000000000000000000000000000000000000000000000000008152600401610a1e90611b57565b60405180910390fd5b610a3133826113ac565b50565b600080610a3f610e4e565b9050610a60818585610a518589610d43565b610a5b9190611c69565b610e56565b600191505092915050565b610a73611021565b80600660006101000a81548173ffffffffffffffffffffffffffffffffffffffff021916908373ffffffffffffffffffffffffffffffffffffffff16021790555050565b610abf611021565b8060098190555050565b60075481565b600660009054906101000a900473ffffffffffffffffffffffffffffffffffffffff1681565b60008060008373ffffffffffffffffffffffffffffffffffffffff1673ffffffffffffffffffffffffffffffffffffffff168152602001908152602001600020549050919050565b610b45611021565b610b4f600061150c565b565b600a6001670de0b6b3a76400006404a817c800610b6e9190611cf0565b610b789190611cf0565b610b829190611cbf565b81565b60095481565b600a6007670de0b6b3a76400006404a817c800610ba89190611cf0565b610bb29190611cf0565b610bbc9190611cbf565b81565b6000600560009054906101000a900473ffffffffffffffffffffffffffffffffffffffff16905090565b670de0b6b3a764000081565b606060048054610c0490611de4565b80601f0160208091040260200160405190810160405280929190818152602001828054610c3090611de4565b8015610c7d5780601f10610c5257610100808354040283529160200191610c7d565b820191906000526020600020905b815481529060010190602001808311610c6057829003601f168201915b5050505050905090565b600080610c92610e4e565b90506000610ca08286610d43565b905083811015610ce5576040517f08c379a0000000000000000000000000000000000000000000000000000000008152600401610cdc90611bd7565b60405180910390fd5b610cf28286868403610e56565b60019250505092915050565b600080610d09610e4e565b9050610d1681858561112b565b600191505092915050565b60085481565b670de0b6b3a76400006404a817c800610d409190611cf0565b81565b6000600160008473ffffffffffffffffffffffffffffffffffffffff1673ffffffffffffffffffffffffffffffffffffffff16815260200190815260200160002060008373ffffffffffffffffffffffffffffffffffffffff1673ffffffffffffffffffffffffffffffffffffffff16815260200190815260200160002054905092915050565b610dd2611021565b600073ffffffffffffffffffffffffffffffffffffffff168173ffffffffffffffffffffffffffffffffffffffff161415610e42576040517f08c379a0000000000000000000000000000000000000000000000000000000008152600401610e3990611a77565b60405180910390fd5b610e4b8161150c565b50565b600033905090565b600073ffffffffffffffffffffffffffffffffffffffff168373ffffffffffffffffffffffffffffffffffffffff161415610ec6576040517f08c379a0000000000000000000000000000000000000000000000000000000008152600401610ebd90611b97565b60405180910390fd5b600073ffffffffffffffffffffffffffffffffffffffff168273ffffffffffffffffffffffffffffffffffffffff161415610f36576040517f08c379a0000000000000000000000000000000000000000000000000000000008152600401610f2d90611a97565b60405180910390fd5b80600160008573ffffffffffffffffffffffffffffffffffffffff1673ffffffffffffffffffffffffffffffffffffffff16815260200190815260200160002060008473ffffffffffffffffffffffffffffffffffffffff1673ffffffffffffffffffffffffffffffffffffffff168152602001908152602001600020819055508173ffffffffffffffffffffffffffffffffffffffff168373ffffffffffffffffffffffffffffffffffffffff167f8c5be1e5ebec7d5bd14f71427d1e84f3dd0314c0f7b2291e5b200ac8c7c3b925836040516110149190611c17565b60405180910390a3505050565b611029610e4e565b73ffffffffffffffffffffffffffffffffffffffff16611047610bbf565b73ffffffffffffffffffffffffffffffffffffffff161461109d576040517f08c379a000000000000000000000000000000000000000000000000000000000815260040161109490611b17565b60405180910390fd5b565b60006110ab8484610d43565b90507fffffffffffffffffffffffffffffffffffffffffffffffffffffffffffffffff81146111255781811015611117576040517f08c379a000000000000000000000000000000000000000000000000000000000815260040161110e90611ad7565b60405180910390fd5b6111248484848403610e56565b5b50505050565b600073ffffffffffffffffffffffffffffffffffffffff168373ffffffffffffffffffffffffffffffffffffffff16141561119b576040517f08c379a000000000000000000000000000000000000000000000000000000000815260040161119290611b77565b60405180910390fd5b600073ffffffffffffffffffffffffffffffffffffffff168273ffffffffffffffffffffffffffffffffffffffff16141561120b576040517f08c379a000000000000000000000000000000000000000000000000000000000815260040161120290611a37565b60405180910390fd5b6112168383836115d2565b60008060008573ffffffffffffffffffffffffffffffffffffffff1673ffffffffffffffffffffffffffffffffffffffff1681526020019081526020016000205490508181101561129c576040517f08c379a000000000000000000000000000000000000000000000000000000000815260040161129390611af7565b60405180910390fd5b8181036000808673ffffffffffffffffffffffffffffffffffffffff1673ffffffffffffffffffffffffffffffffffffffff16815260200190815260200160002081905550816000808573ffffffffffffffffffffffffffffffffffffffff1673ffffffffffffffffffffffffffffffffffffffff168152602001908152602001600020600082825461132f9190611c69565b925050819055508273ffffffffffffffffffffffffffffffffffffffff168473ffffffffffffffffffffffffffffffffffffffff167fddf252ad1be2c89b69c2b068fc378daa952ba7f163c4a11628f55a4df523b3ef846040516113939190611c17565b60405180910390a36113a68484846115d7565b50505050565b600073ffffffffffffffffffffffffffffffffffffffff168273ffffffffffffffffffffffffffffffffffffffff16141561141c576040517f08c379a000000000000000000000000000000000000000000000000000000000815260040161141390611bf7565b60405180910390fd5b611428600083836115d2565b806002600082825461143a9190611c69565b92505081905550806000808473ffffffffffffffffffffffffffffffffffffffff1673ffffffffffffffffffffffffffffffffffffffff168152602001908152602001600020600082825461148f9190611c69565b925050819055508173ffffffffffffffffffffffffffffffffffffffff16600073ffffffffffffffffffffffffffffffffffffffff167fddf252ad1be2c89b69c2b068fc378daa952ba7f163c4a11628f55a4df523b3ef836040516114f49190611c17565b60405180910390a3611508600083836115d7565b5050565b6000600560009054906101000a900473ffffffffffffffffffffffffffffffffffffffff16905081600560006101000a81548173ffffffffffffffffffffffffffffffffffffffff021916908373ffffffffffffffffffffffffffffffffffffffff1602179055508173ffffffffffffffffffffffffffffffffffffffff168173ffffffffffffffffffffffffffffffffffffffff167f8be0079c531659141344cd1fd0a4f28419497f9722a3daafe3b4186f6b6457e060405160405180910390a35050565b505050565b505050565b6000813590506115eb816122a2565b92915050565b600081359050611600816122b9565b92915050565b600081359050611615816122d0565b92915050565b60006020828403121561162d57600080fd5b600061163b848285016115dc565b91505092915050565b60006020828403121561165657600080fd5b6000611664848285016115f1565b91505092915050565b6000806040838503121561168057600080fd5b600061168e858286016115dc565b925050602061169f858286016115dc565b9150509250929050565b6000806000606084860312156116be57600080fd5b60006116cc868287016115dc565b93505060206116dd868287016115dc565b92505060406116ee86828701611606565b9150509250925092565b6000806040838503121561170b57600080fd5b6000611719858286016115dc565b925050602061172a85828601611606565b9150509250929050565b60006020828403121561174657600080fd5b600061175484828501611606565b91505092915050565b61176681611d4a565b82525050565b61177581611d6e565b82525050565b600061178682611c4d565b6117908185611c58565b93506117a0818560208601611db1565b6117a981611ed4565b840191505092915050565b60006117c1602383611c58565b91506117cc82611ee5565b604082019050919050565b60006117e4602583611c58565b91506117ef82611f34565b604082019050919050565b6000611807602683611c58565b915061181282611f83565b604082019050919050565b600061182a602283611c58565b915061183582611fd2565b604082019050919050565b600061184d601383611c58565b915061185882612021565b602082019050919050565b6000611870601d83611c58565b915061187b8261204a565b602082019050919050565b6000611893602683611c58565b915061189e82612073565b604082019050919050565b60006118b6602083611c58565b91506118c1826120c2565b602082019050919050565b60006118d9602d83611c58565b91506118e4826120eb565b604082019050919050565b60006118fc601383611c58565b91506119078261213a565b602082019050919050565b600061191f602583611c58565b915061192a82612163565b604082019050919050565b6000611942602483611c58565b915061194d826121b2565b604082019050919050565b6000611965601083611c58565b915061197082612201565b602082019050919050565b6000611988602583611c58565b91506119938261222a565b604082019050919050565b60006119ab601f83611c58565b91506119b682612279565b602082019050919050565b6119ca81611d9a565b82525050565b6119d981611da4565b82525050565b60006020820190506119f4600083018461175d565b92915050565b6000602082019050611a0f600083018461176c565b92915050565b60006020820190508181036000830152611a2f818461177b565b905092915050565b60006020820190508181036000830152611a50816117b4565b9050919050565b60006020820190508181036000830152611a70816117d7565b9050919050565b60006020820190508181036000830152611a90816117fa565b9050919050565b60006020820190508181036000830152611ab08161181d565b9050919050565b60006020820190508181036000830152611ad081611840565b9050919050565b60006020820190508181036000830152611af081611863565b9050919050565b60006020820190508181036000830152611b1081611886565b9050919050565b60006020820190508181036000830152611b30816118a9565b9050919050565b60006020820190508181036000830152611b50816118cc565b9050919050565b60006020820190508181036000830152611b70816118ef565b9050919050565b60006020820190508181036000830152611b9081611912565b9050919050565b60006020820190508181036000830152611bb081611935565b9050919050565b60006020820190508181036000830152611bd081611958565b9050919050565b60006020820190508181036000830152611bf08161197b565b9050919050565b60006020820190508181036000830152611c108161199e565b9050919050565b6000602082019050611c2c60008301846119c1565b92915050565b6000602082019050611c4760008301846119d0565b92915050565b600081519050919050565b600082825260208201905092915050565b6000611c7482611d9a565b9150611c7f83611d9a565b9250827fffffffffffffffffffffffffffffffffffffffffffffffffffffffffffffffff03821115611cb457611cb3611e47565b5b828201905092915050565b6000611cca82611d9a565b9150611cd583611d9a565b925082611ce557611ce4611e76565b5b828204905092915050565b6000611cfb82611d9a565b9150611d0683611d9a565b9250817fffffffffffffffffffffffffffffffffffffffffffffffffffffffffffffffff0483118215151615611d3f57611d3e611e47565b5b828202905092915050565b6000611d5582611d7a565b9050919050565b6000611d6782611d7a565b9050919050565b60008115159050919050565b600073ffffffffffffffffffffffffffffffffffffffff82169050919050565b6000819050919050565b600060ff82169050919050565b60005b83811015611dcf578082015181840152602081019050611db4565b83811115611dde576000848401525b50505050565b60006002820490506001821680611dfc57607f821691505b60208210811415611e1057611e0f611ea5565b5b50919050565b6000611e2182611d9a565b9150611e2c83611d9a565b925082611e3c57611e3b611e76565b5b828206905092915050565b7f4e487b7100000000000000000000000000000000000000000000000000000000600052601160045260246000fd5b7f4e487b7100000000000000000000000000000000000000000000000000000000600052601260045260246000fd5b7f4e487b7100000000000000000000000000000000000000000000000000000000600052602260045260246000fd5b6000601f19601f8301169050919050565b7f45524332303a207472616e7366657220746f20746865207a65726f206164647260008201527f6573730000000000000000000000000000000000000000000000000000000000602082015250565b7f4f6e6c792072657761726420636f6e74726163742063616e206d696e7420746f60008201527f6b656e732e000000000000000000000000000000000000000000000000000000602082015250565b7f4f776e61626c653a206e6577206f776e657220697320746865207a65726f206160008201527f6464726573730000000000000000000000000000000000000000000000000000602082015250565b7f45524332303a20617070726f766520746f20746865207a65726f20616464726560008201527f7373000000000000000000000000000000000000000000000000000000000000602082015250565b7f4e6f7420656e6f756768207061796d656e742e00000000000000000000000000600082015250565b7f45524332303a20696e73756666696369656e7420616c6c6f77616e6365000000600082015250565b7f45524332303a207472616e7366657220616d6f756e742065786365656473206260008201527f616c616e63650000000000000000000000000000000000000000000000000000602082015250565b7f4f776e61626c653a2063616c6c6572206973206e6f7420746865206f776e6572600082015250565b7f537570706c792073686f756c64206265206c657373207468616e20746f74616c60008201527f526577617264537570706c792e00000000000000000000000000000000000000602082015250565b7f4e6f7420656e6f7567682062616c616e63652e00000000000000000000000000600082015250565b7f45524332303a207472616e736665722066726f6d20746865207a65726f20616460008201527f6472657373000000000000000000000000000000000000000000000000000000602082015250565b7f45524332303a20617070726f76652066726f6d20746865207a65726f2061646460008201527f7265737300000000000000000000000000000000000000000000000000000000602082015250565b7f496e636f727265637420616d6f756e7400000000000000000000000000000000600082015250565b7f45524332303a2064656372656173656420616c6c6f77616e63652062656c6f7760008201527f207a65726f000000000000000000000000000000000000000000000000000000602082015250565b7f45524332303a206d696e7420746f20746865207a65726f206164647265737300600082015250565b6122ab81611d4a565b81146122b657600080fd5b50565b6122c281611d5c565b81146122cd57600080fd5b50565b6122d981611d9a565b81146122e457600080fd5b5056fea2646970667358221220641291e150291a4924891cd475798c47acd12fcc1b51849adbaef4b382cac36864736f6c63430008040033",
  "linkReferences": {},
  "deployedLinkReferences": {}
}